:020000040800F2
:100000001805002045250008591600085B16000851
:100010005D1600085F160008611600080000000069
:10002000000000000000000000000000631600084F
:100030006516000800000000671600086916000831
:100040006D25000871250008752500087925000830
:100050007D250008812500088525000889250008E0
:100060008D25000891250008952500089925000890
:100070009D250008A1250008A5250008A925000840
:10008000AD250008B1250008B5250008B9250008F0
:10009000BD250008C1250008C5250008C9250008A0
:1000A000CD250008D1250008D5250008D925000850
:1000B000DD250008E1250008E5250008E925000800
:1000C000ED2500086D16000873160008F1250008DC
:1000D000F5250008F9250008FD250008012600087F
:1000E00005260008092600080D260008112600082C
:1000F00015260008192600081D26000821260008DC
:1001000025260008292600082D260008312600088B
:1001100035260008392600083D260008412600083B
:1001200045260008492600084D26000851260008EB
:1001300055260008592600085D260008612600089B
:1001400065260008692600086D260008712600084B
:1001500075260008792600087D26000881260008FB
:1001600085260008892600088D26000891260008AB
:1001700095260008992600089D260008000000002A
:10018000A1260008A5260008F8B5040025D004F132
:100190003C05697821B900202870204601F034F927
:1001A00024226A702068DFF800730168490849005A
:1001B00001602068026842F4004202602068016821
:1001C00021F40041016001F01FFA01466068B84265
:1001D00005D2DFF8D822914205D20120F2BDDFF826
:1001E000D0028142F9D32068DFF8C8224368B1FB0E
:1001F000F2F29B0942EA8313436023681E6A606837
:10020000B84206D34FF4967042434FF47A70B2FB73
:10021000F0F2521CB60942EA86121A62491E22689E
:10022000D3696668BE4206D2760000F044F804291D
:1002300013D2042111E0A06820B906EB460600F0B5
:100240003AF805E01920464300F035F841F48041C2
:1002500008050CBF012141F40041DFF85C020340B6
:100260000B43D36122681368E069216A23F0C0035D
:1002700003430B4313602268DFF84002936821694F
:100280000340E0680B43034393602268D368A0698E
:1002900061691B0A40EA03230B43D36020212068D5
:1002A000026842F001020260002068606970206309
:1002B0000021A970F2BDB1FBF6F1491CC1F30B019D
:1002C0007047006841690A0644BF00210161704718
:1002D0002DE9F84304460E461546994601F0B4F957
:1002E00004F13C0780467878202808D1CDF80080BA
:1002F00019230122DFF8C81100F0C4F8002840F0EB
:1003000087803878012800F0838000F0AAF8206800
:1003100000F0A0F8102100F0B8F82085DFF8A40163
:10032000E062E16A082918BF012904D081421CBF9C
:10033000206B122801D100F0D0F8CDF80080002207
:10034000089D2B4600F09CF838B120680168CA056A
:1003500055D54FF40070786051E02069B0F5804FBA
:1003600004D1216806F0FE060E6112E0F009216852
:1003700000F0060040F0F000086143462A46DFF82E
:100380004811204600F032FF002838D12068F6B22C
:10039000066143462A46DFF83411204600F026FF66
:1003A00000282CD100F037F8208D002829D04246B3
:1003B000294600F062F8E8B9626A2168107808619D
:1003C000606A411C616200F084FC208D401E208523
:1003D00021684A69530706D580B220B1606A027865
:1003E0000A6100F02DF842462946204600F079FFC8
:1003F0000028D9D07868042801D100F04EFE0120F1
:1004000007E000F04AFE04F13C0000F046F800E08E
:100410000220BDE8F2830090206841690091826962
:100420000092009970471A461146106820F48060C7
:10043000086070472868016841F4007101607047E6
:10044000606A411C6162608D411E6185208D411E84
:1004500021857047016821F40061016021207870D6
:10046000704701223A7020680168CA0703D4016806
:1004700041F00101016070474146204600F00FBF86
:100480004FF00111204600F07BBEB970002078606B
:100490006562A4F82A90608D704720224270002186
:1004A0008170017000207047A186010080841E00C9
:1004B00000093D0040420F000030FFFF007CFFFFBD
:1004C000020010000000FFFF080001000200010010
:1004D0000098401E0090009870472068016841F421
:1004E000807101607047416841F4805141607047FC
:1004F000F8B500F00FF80BD109B1150001D10120BA
:10050000F2BD2578012D03D000F00BF82A2518E064
:100510000220F2BD00F13C04657805F02805282D85
:1005200070470127277005682E68F70703D42E68E7
:1005300046F001062E6005682E6826F400662E60DF
:10054000704765702026A67000256560416242856F
:100550000022418D0185C3620092016848690090C4
:100560008A690092009B2570486840F4E06048600A
:100570000020F2BD90F83D10202916D1282380F8E4
:100580003D3001680A68D30703D40A6842F00102CB
:100590000A6001680A6842F480620A600068416883
:1005A00041F44071416000207047022070472DE9FE
:1005B000FC41044604F13C052168DFF8EC6A4B6815
:1005C000E06A95F802C06F780022BCF1100F18BFE6
:1005D000BCF1400F40F04E828A69D1F814E05FEA26
:1005E000CE7805D4B0F52A0F18BFB0F12A4F47D006
:1005F0005FEACE7045D5980543D5E06AB0F52A0F7D
:1006000008BF012204D0E06AB0F12A4F01D10822CC
:10061000E262A878402809D168690028A8681ABF52
:1006200040F00100C0B200F0FE0028E02069B0F503
:10063000804F16D168782128A8680EBF00F0FE0010
:1006400040F00100C0B20861606B00281CBFC06BA5
:1006500000282AD1A06B00281CBFC06B00280FD037
:1006600023E0686920B900F011FB40F0F00006E0DB
:100670006869012804D100F009FB40F0F10008612D
:1006800002E35FEA0E7015D5980513D5A868C0B2CD
:100690000861606B00281CBFC06B002805D1A06BEF
:1006A00000281CBFC06B0028EAD02068416841F4D4
:1006B000006124E15FEA8E7000D5980540F1A180C9
:1006C000AF78E26A236B6878222840F097806869E7
:1006D000002808BF402F03D100F0E5FA009AD3E2CA
:1006E0006869002804BF2069B0F5404F09D100F0C7
:1006F000E0FA084642F4807202606969491C696147
:10070000C2E2608D30B900F0D4FA0B4642F40072B8
:100710001A6070E0608D012839D1B24217D10A46C3
:10072000FFF783FE21684868020507D50B460022C3
:10073000186820F48060086000925AE000F01BFB0B
:1007400021680A68084642F40072026053E0082AF1
:1007500018BF202A03D0122B09D1012A0CD00A4637
:10076000FFF763FE0022009200F0E2FA43E0042A61
:100770001CBF022A102A04D00A46106820F48060A8
:1007800003E00A46106840F4806008602FE0608D46
:10079000022818D1042A1CBF022A102A0AD00B46AC
:1007A000186820F4806008602068036843F40063E0
:1007B000036004E00F46386840F4806008602068F9
:1007C00041680B0507E00B46186840F4806008603C
:1007D0002068436819050AD5B24218BF012A04D01F
:1007E000082A1CBF102A202A01D1FFF77CFE002016
:1007F0000090FFF711FE00226A6145E200F0BBFAAB
:1008000042E252070EF004005FD5D1F804805FEA9F
:100810000852F5D45FEA0E622CD55A052AD5002875
:1008200028D16A78AB78E76A208D002808BF212A92
:1008300013D1082F1CBF202FB74204D000F02CFA90
:100840000022AA702DE000F086FA30D10021A970B4
:100850002046BDE8F64100F0FDBE212A03D0402B22
:1008600008BF222ACCD1608D00284CD0A87840281F
:1008700027D0D6E10028C3D09805C1D5212F1DD19E
:10088000E26A687821283BD1608D08B100F0C9B9CF
:10089000082A1CBF202AB24206D000F0FDF9002031
:1008A000A8702021697004E000F055FACED0002134
:1008B000A9702046BDE8F64100F0CDBEBCF1400F66
:1008C0001ED12046BDE8F641F2E24A68160517D46B
:1008D0005FEA4E627AD55E0578D5002876D16878D1
:1008E00022280DD1E66A608D04280AD300F0EBF9C6
:1008F000608D032804D12068416821F48061416043
:10090000C2E1E26A022A5CD0012818BF002858D14F
:100910000020DFF86838009019201968B1FBF0F06A
:100920004FF47A72B0FBF2F202EB8202009221469F
:10093000FFF7CEFD20B10A6810688305F8D41DE0EA
:1009400001F13C02506840F02000506008684368A4
:1009500023F4E06343600C6820694B6A1870486AAE
:10096000441C4C622024488D431E4B85547000204B
:1009700090700846BDE8F64100F094BE106811463C
:1009800020F4806008602068426822F4E0624260DF
:10099000216800F098F920206870A978402908D1D2
:1009A0000020A870002121632046BDE8F64100F038
:1009B0007BBE0020A870082E18BF202E53D0122016
:1009C00052E0486820F4806048605DE10028FCD077
:1009D0009805FAD5E06A628D042A05D1486820F4AA
:1009E00080604860216847E1628D032A0CD14A6823
:1009F00022F480624A60042818BF022801D000F067
:100A000091F92268106938E1628D022AEBD1012840
:100A100018BF10280DD0042818BF022804D00B4698
:100A2000196841F4007108E00B46196841F48061CF
:100A300003E00B46196821F480611A46116000F04A
:100A400052F900F050F921684A6822F440724A6075
:100A500020216970AA78402AA2D00021A970082814
:100A600018BF2028ABD1002020632046BDE8F64106
:100A700000F01BBE686800B98A69D1F814C05FEA4B
:100A80008C7025D5980523D5686800B18A696B7884
:100A9000002003F02803282B14D14B6823F4806333
:100AA0004B60510758BF0120110654BFE268A2698C
:100AB0000021297002B001462046BDE8F04192B203
:100AC00000F0DDBD00F0EFF8002100982970DBE0B8
:100AD0005FEACC6078D59A0576D56F78486820F4BF
:100AE000E06048600021009122685069009022680F
:100AF0001168104641F001010160009A00F012F9FE
:100B000021684868020528D50FF2A158222F18BF86
:100B10002A2F10D0606B00F0F1F8606B00F0D8FD68
:100B200001281AD0606BC0F85080606B00F0BEFDE9
:100B300098B1606B0FE0A06B00F0E0F8A06B00F0E4
:100B4000C7FD012809D0A06BC0F85080A06B00F051
:100B5000ADFD10B1A06B016D8847608D98B1206824
:100B600041694A0702D5006900F0AEF82068416982
:100B70004A0602D5006900F0A7F8608D18B16868D0
:100B800040F004006860686818B12046BDE8F6418E
:100B9000ECE12A2F05D1206328216970204600F05E
:100BA00076FD6878282807D1E66200F0CEF8204666
:100BB000BDE8F64100F060BD206B222818BF222F4F
:100BC00062D100F0C2F84DE00CF00400212F18BFF4
:100BD000292F2DD15FEA0C621CD55E051AD5C8B944
:100BE0006A78608D00284FD0606A03780B61606A74
:100BF000411C616200F071F808BF292A44D100F05D
:100C00008BF821202063282169702046BDE8F64139
:100C100000F061BD002837D09A0535D5608D0028D9
:100C200032D0606A02780A61606A411C616229E020
:100C30005FEA4C621BD55E0519D5C0B96A78608D34
:100C400010B30869616A0870606A431C636200F04F
:100C500044F808BF2A2A17D100F05EF8222020634A
:100C6000282169702046BDE8F64100F010BD58B15A
:100C70009A0509D5608D38B10869616A0870606AA3
:100C8000421C626200F025F8BDE8F381A868000408
:100C9000C00D00F006007047486820F4E06048602E
:100CA00011212163704700904A690092896900917F
:100CB0007047002200924B69009389690091009867
:100CC00021680A6870470869616A0870606A421C96
:100CD0006262608D411E61857047608D411E618535
:100CE000608D0028704723681969626A1170616A13
:100CF0004B1C6362618D4A1E6285704702685368AF
:100D00006385608D18B1686840F0040068604868C9
:100D100020F40060486070472068416821F48061D9
:100D2000416070472068016821F48061016070476C
:100D300020684169009182690092009922681068D8
:100D4000114640F4007008607047002020632021A5
:100D50006970A8707047486820F4E06048602068B7
:100D6000016841F400710160002020632021697056
:100D7000A87840287047002000904A69009289694D
:100D8000009100987047F8B5054605F13D002A68C6
:100D90005669576841780024F30505D5FB0503D54E
:100DA0006FF4807301245361B20507D5FB0505D5A7
:100DB0002B686FF4007244F002045A6172055ED52C
:100DC000FB055CD56A8D0378D5F830C06FF4806E72
:100DD000202908BF002A47D1212B18BF292B04D076
:100DE000282B08BFBCF1210F3ED10178EA6ADFF859
:100DF000B832082A14BF202A282917D1EB62002311
:100E000029684A6822F4E0624A602968C1F814E05F
:100E100029680A6822F480620A600021296320227E
:100E200002704370284600F027FC28E0212917D1E2
:100E3000EB62296320220270002343702868416816
:100E400021F4E06141602868C0F814E0286800F0EF
:100E50002AF82846FFF735FA284600F03CFC0EE059
:100E60002968C1F814E00AE0286844F00404C0F8D6
:100E700014E0102918BF402901D1FFF7DBFA300533
:100E800007D5F90505D529686FF4006044F008041A
:100E9000486134B1286C04432C642846BDE8F24014
:100EA00064E0F1BD3068016821F480610160704741
:100EB00010B500F13D0200F148041378A16889B92A
:100EC00000686168012905D12268D2B20261A06878
:100ED000801C05E021680904090E0161A068401C1E
:100EE000A06010BDA168012904D122680068D2B2B7
:100EF00002610AE0A168022933D1222B09D10168DD
:100F00000A68084642F480720260A168491CA16028
:100F100010BD418D61B1212B0AD1436A0268197855
:100F20001161416A4A1C4262418D4A1E428510BDD0
:100F3000418D002908BF212B17D101684B6823F48C
:100F4000E0634B60002401680B6843F400730B609E
:100F500000210163202313705470BDE8104000F09D
:100F600079BBBDE81040FFF7ACB910BD38B50446F9
:100F700004F13D0528786978102914BF40292228FA
:100F800004D121680A6822F400620A6000F0280196
:100F9000282904D10020206328222A700BE0216830
:100FA0004A68110505D4602803D02020287000214C
:100FB000697000202063206841680A0523D54168D4
:100FC00021F400614160606B0FF2E10190F835207F
:100FD000012A09D00165606B00F068FB002825D06C
:100FE00000F053F8606B0BE0A06B0165A06B00F0A4
:100FF0005DFBD8B1206800F037F800F046F8A06B30
:10100000016D884712E02A78602A0AD120212970D0
:101010000022226400F028F800F030F800F05CFBB9
:1010200004E000F021F8204600F03CFB206C10F0BA
:101030000F0F04D02068416821F4E06141602878F6
:10104000216C4A070ED528280CD11748E0620021F0
:1010500021632020287000226A702046BDE83240BB
:1010600000F00ABB31BD000041694A0605D50069A0
:10107000616A0870606A421C626270472068016899
:101080004908490001602046704720680168490806
:10109000490001602020287070472068016841F4F1
:1010A00000710160704700000000FFFF7CB5002167
:1010B00000911926816B314801F13D024FF47A7499
:1010C00013780568B5FBF6F6B6FBF4F42320444329
:1010D0000094009838B10098401E00900C68206879
:1010E0008505F6D403E0086C40F020000864486BE6
:1010F00008B10024C463886B08B10024C463086885
:10110000046824F48064046000204885486B08B1BA
:1011100000240465886B08B100240465086804682D
:10112000640864000460107860280AD120231370DA
:101130000024547000220A640846BDE8764000F09E
:10114000CBBA03F02803282B0ED10868036843F0BC
:101150000103036028230868046844F48064046081
:1011600000200863137003E02020107000245470E6
:101170000846BDE8764000F095BA00000C0000205B
:101180002DE9F8430E46089C054691469846370CD3
:101190002868F9B201290CBF4069806900F06EF837
:1011A0000CBF0120002048451ED118F1010FEFD0DF
:1011B00000F04AFA001B804502D3B8F1000FE7D1D6
:1011C0002868F9B201290CBF4069806900F056F81F
:1011D0000CBF012000204845DAD100F054F84160EE
:1011E00002700120BDE8F2830020FBE72DE9F04109
:1011F0000E46054614469846370CF8B2012817D11A
:101200002968486900F03AF817D02868416948050C
:1012100015D52A681168104641F4007101606FF419
:10122000806229684A6100F08BF841F004011BE0FC
:101230002968886900F022F8E7D1002017E014F14E
:10124000010FDAD000F000FAA0EB0800844201D3CD
:10125000002CD2D1F9B2286801290AD1406900F0E6
:101260000DF8CDD000F00FF8416002700120BDE80C
:10127000F081806900F002F8DAD0F3E7304080B204
:10128000B1B28842704700202863202105F13C005C
:10129000002241708270416841F02001704770B5B2
:1012A00005460C46164628684169080617D42846A4
:1012B00000F050F818B914F1010FF4D001E001204A
:1012C00070BD00F0C1F9801B844201D3002CEAD12B
:1012D000286841690806E6D400F025F8EFE7002009
:1012E00070BD70B505460C4616462868416948072A
:1012F00017D4284600F02EF818B914F1010FF4D0D5
:1013000001E0012070BD00F09FF9801B844201D3F1
:10131000002CEAD1286841694807E6D400F003F8B8
:10132000EFE7002070BD002105F13C002963202279
:1013300042708170426842F0200242600170704742
:1013400000202863202105F13C00002241708270BA
:101350004168704710B501684A6953050DD56FF4AF
:1013600080644C61002101633C3020234370817014
:10137000436843F004034360017012F4806018BFB7
:101380000120C0B210BD0EE002684368024408307C
:101390005FEAC37C44BF4B445B1E52F804CB43F866
:1013A00004CB091FF9D150F8041B0029ECD1704778
:1013B0004A4A4B484B4980B5426000234FF4804273
:1013C00001608360C36000F014F800B118E001BD53
:1013D00080B545484549414A0160426000232021CB
:1013E0004FF480428360C16000F003F800B107E071
:1013F00001BD026143618361C3610362FEF7C4BE44
:10140000BDE8014000F0F6B910B586B004461421DD
:10141000002201A800F0FAF920683249344C8842D1
:1014200024D100200090216841F0020121601221A6
:10143000206800F002000090C020009A0291012272
:1014400003920321019004910422059201A92948E5
:1014500000F0E6F900200090216941F400112161BB
:10146000206900F400100090009835E01F49884280
:1014700032D100200090216841F02001216012212A
:10148000206800F0200000900320009A01900022C4
:101490000392029104900422059201A9164800F0DB
:1014A000BFF9002000900022216941F480012161F0
:1014B0000021206900F4800000900098212000F0B5
:1014C000BCFA212000F0D6FA00220021222000F0F0
:1014D000B4FA222000F0CEFA06B010BDA0860100BA
:1014E000100000200054004064000020005800401C
:1014F0003038024000040240001402402DE9F0415F
:1015000004000E4654D0494F386800F00700B0423E
:1015100002D200F073F84BD12068454D810712D5F7
:10152000400703D5A96841F4E051A960207801077C
:1015300003D5A86840F46040A860A968A06821F0BD
:10154000F0010143A9602178C80729D56068012806
:1015500002D129688A0305E0022818BF032803D1B5
:1015600029688A0103D423E029688A0720D5A9685D
:10157000890840EA8100A86000F066F88046A86803
:10158000616800F00C00B0EB810F09D000F05CF84E
:10159000A0EB080041F289318842F0D303202BE010
:1015A000386800F00700864204D200F027F801D026
:1015B000012021E02078420705D5A968E06821F4E0
:1015C000E0510143A9602178080706D5A968206980
:1015D00021F4604141EAC001A96000F073FAAA68F1
:1015E0001449154BC2F30312895CC84018601348B4
:1015F000006800F097FA0020BDE8F0813E7039687D
:1016000001F00701B14270470B480D4A00681368AA
:101610000C49C3F3822206E00748094A00681368B0
:101620000849C3F34232895CC8407047003C02401D
:1016300000380240D02400080C00002008000020E0
:10164000083802406425000801484068704700BF20
:101650000000002070477047FEE7FEE7FEE7FEE768
:10166000FEE770477047704700F07CBA0A48FEF703
:101670009EBF0948FFF787BB0748FEF77BBF0129DC
:1016800004D1082312220549FEF732BF70470449EE
:101690000120087070470000640000200401002051
:1016A00000010020FEF766BF7047704790F83510C4
:1016B000022903D08022426501207047052180F86D
:1016C000351000680268520852000260002070471E
:1016D00090F83500704770477047000070B586B0CD
:1016E0000DF1040044A13D4C3D4D3E4E142200F04E
:1016F00041FA00F04BFA00F023F800F061FAFFF72E
:1017000057FEFFF765FE00F08DFA3748FEF732FF0F
:101710000A200090122301AA20213046FEF7D8FDAE
:101720004FF47A7000F0D2FA28780028F0D0002127
:1017300029700A231222291D204600F017FBE7E733
:1017400080B592B03021002206A800F05FF8142185
:10175000002201A800F05AF80020009023480168F8
:1017600041F080510160006800F08050009000203E
:10177000009900901E48016841F4804101604FF4D7
:101780008031006800F4804000900120009A0791A9
:1017900002224FF480010C920D91042240210E92FE
:1017A0000F910690022204211092119106A800F0D8
:1017B00009FC08B100F01EF8022102910F200190EF
:1017C0009022002103920491059101A8FFF796FE53
:1017D00008B100F00FF813B000BD0000B800002001
:1017E000000100201000002064000020403802406A
:1017F0000070004072B6FEE75465737420493243AE
:10180000206973204F4B2E200A0000004018491C0D
:101810001CBFB1F1010100F8012DF9D170470000A2
:101820002DE9F84F00226E4CDFF8B8814FF00F0918
:1018300001230F6893401F409F4240F0CA804FEA47
:10184000420C032505FA0CF56FEA050E4D6805F00C
:101850000306012E1CBF05F00305022D10D185687B
:10186000CE680EEA050506FA0CF635438560456834
:1018700025EA03034D68C5F3001595402B434360EB
:1018800093000D7905F00305032D1ED0C5688E6801
:101890000EEA050506FA0CF63543C5600D7905F02C
:1018A0000305022D11D1D50800EB850503F01C06B8
:1018B000D5F820B009FA06FA2BEA0A0BD1F810A0E5
:1018C0000AFA06F646EA0B062E6205680EEA0506D7
:1018D0000D7905F0030505FA0CF545EA060CC0F88C
:1018E00000C04D6815F4403F73D04FF0000ECDF8A6
:1018F00000E04FEA920CD8F8005045F48045C8F853
:10190000005003F00C03D8F800E0374D0EF4804E81
:10191000CDF800E0DDF800E055F82C6009FA03F599
:10192000AE43324DA84208BF4FF0000E2AD0304DD2
:10193000A84208BF4FF0010E24D02E4DA84208BF88
:101940004FF0020E1ED02C4DA84208BF4FF0030EE0
:1019500018D02A4DA84208BF4FF0040E12D0284DCF
:10196000A84208BF4FF0050E0CD0264DA84208BF74
:101970004FF0060E06D0244DA8420CBF4FF0070EC4
:101980004FF0080E0EFA03F3DFF85CE033434EF835
:101990002C30FE43A3684D683340ED0248BF3B4303
:1019A000A360E3684D683340AD0248BF3B43E3604A
:1019B00063684D683340AD0348BF3B4363602368B1
:1019C00006EA030C4B68DB0348BF47EA0C0CC4F87B
:1019D00000C0521C0F2A7FF62BAFBDE8F18F00002C
:1019E000003C0140443802400838014000000240F9
:1019F0000004024000080240000C024000100240B7
:101A00000014024000180240001C024009010200BC
:101A100002D4264881547047254B02F00F021A4425
:101A200002F8041C704723490A6860F30A2240F256
:101A3000FA5060F31F420A60704770B51D4B1C6876
:101A4000C4F302230124C3F10705052D2EBF0F2582
:101A500004FA05F56D1E1E1D072E34BF0023DB1E84
:101A60002940994004FA03F3BDE870405B1E1A4018
:101A70001143CBE7010007D4012200F01F010E4BF8
:101A80008A40400943F820207047401EB0F1807F13
:101A900001D3012070470949094A48600023F0201A
:101AA00010708B60072008600020704700E400E0A1
:101AB00018ED00E00CED00E000E100E010E000E0D7
:101AC00023ED00E030B5144C606800F00C000428F1
:101AD00002D0082802D01DE0104830BD22682068DE
:101AE0000023410202F03F0204D525680B49C5F3EB
:101AF000881003E020680A49C0F38810A1FB0001A8
:101B000000F0E8FB2168C1F30141491C4900B0FB2A
:101B1000F1F030BD024830BD0438024000127A00B6
:101B20000024F40038B50D4D0D4B2A7804464FF4CF
:101B30007A711868B1FBF2F2B0FBF2F0FFF7A5FF83
:101B400050B9102C08D2002221464FF0FF30FFF789
:101B500074FFAC60002032BD012032BD00000020C7
:101B60000C0000200248416802788A1842607047E1
:101B7000000000204AB1000011F8013B521E00F89D
:101B8000013B1CBF11F8013BF8E7704780B50B48DB
:101B9000016841F400710160026842F480620260F1
:101BA000016841F4807101600320FFF73CFF0F20C2
:101BB000FFF7B8FF00F012FC002002BD003C02401D
:101BC00081B0002000901648026842F020020260B6
:101BD000016801F0200100910021009A0091036842
:101BE00043F080030360016801F08001009100214F
:101BF000009A0091036843F001030360016801F05B
:101C0000010100910021009A0091036843F0020352
:101C10000360006800F002000090009801B0704777
:101C20003038024080B52548254901604FF4E13243
:101C30000023082142608360C360036141618361C6
:101C4000C36100F057F818B1BDE80140FFF7D2BDFD
:101C500001BD10B586B004461421002201A8FFF78B
:101C6000D5FD2168164A914225D1002000901548E3
:101C7000416941F010014161416901F01001009199
:101C80000021009A00910221036843F001030360E0
:101C9000006800F0010000904FF4C060009A0291CB
:101CA000002203920321019004910722059201A9C9
:101CB0000548FFF7B5FD06B010BD0000B8000020D4
:101CC00000100140303802400000024038B50446A0
:101CD000FFF7BAFC14F1010F054602D00448017861
:101CE0006418FFF7B1FC401BA042FAD331BD00BF1E
:101CF0000000002038B5040001D1012032BD04F1FC
:101D00004005687808B900F011F800F014F800F008
:101D100023F8FFE7416100F018F86860202169703E
:101D20002020A87000216163002032BD00212970AD
:101D30002046FFF78EBF242068702068C16821F418
:101D40000051C160204600F0D9B82068C16841F454
:101D50000051C160002070472068016921F4904162
:101D600001612068416921F02A0170472DE9FC4199
:101D700006460D4696F84100202814461F4640D1DD
:101D80000DB1200001D101203CE000207064212130
:101D900086F84110FFF758FCB4848046F48400F0C4
:101DA00033F804BF306900281ABF2C4600250024F0
:101DB00012E000228021304600F047F8E0B9306898
:101DC000002C12BF14F8011B35F8021BC1F30801E7
:101DD0004160F08C411EF1844346F08C009700284E
:101DE000E7D100224021304600F02FF820B9202012
:101DF00086F84100002005E0202086F841000320FD
:101E000000E00220BDE8F681B068B0F5805F704761
:101E1000026802F10C0454E8002F016801F10C0380
:101E2000704742F0010243E8002100297047026830
:101E300002F1140454E8002F0168520801F1140360
:101E4000520043E80021002970472DE9FC41089C1D
:101E500005460E4690461F46286801683140B1424B
:101E60000CBF0120002040452AD114F1010FF3D00E
:101E7000FFF7EAFBC01B844200D314B90320BDE87E
:101E8000F6812968C8684207E6D5802E18BF402E23
:101E9000E2D0084602681307DED5002000902B68C8
:101EA0001A680092496800910098284600F00AF8E4
:101EB00005F1400008214160002202700120DEE7A8
:101EC0000020DCE710B5FFF7A3FF22F49072FFF7C4
:101ED000AAFFF8D1FFF7ABFFFCD1016B012906D1B6
:101EE000FFF796FF22F01002FFF79DFFF8D12021A7
:101EF00080F842100022026310BD000070B5064653
:101F000032681169F06821F4405101431161D368CE
:101F10002648B168034030690B4371690343F06997
:101F20000B430343D3605169B06921F4407101430D
:101F300051611F498A421CBF1E48824202D1FFF7ED
:101F40006BFB01E0FFF760FB72683468F6691921EA
:101F5000B6F5004FA1FB00016FF0630512D1D30F5E
:101F6000520000F0B7F900F027F8ED003235642098
:101F7000B5FBF0F0420002F4F87202EB011200F03F
:101F8000070010E0930F920000F0A4F900F014F89D
:101F90002D0132356420B5FBF0F000F0F00202EBC9
:101FA000011200F00F008018A06070BDF369FFFF00
:101FB00000100140001401406421B0FBF1F105FB69
:101FC000010570472DE9F843040016D02078DFF8AA
:101FD000F462C10713D5B06800F00C00042807D0E4
:101FE000B06800F00C0008283ED1706841023BD573
:101FF0003068810303D56068002800F05D81207897
:10200000DFF8C492810719D5B06810F00C0F07D023
:10201000B06800F00C0008285BD17068410258D409
:102020003068810703D5E268012A40F045813068B5
:10203000216920F0F80040EAC100306020780107F3
:1020400074D56069A149002863D001220A60FFF7B6
:10205000FBFA0546706F810768D4FFF7F5FA401B5D
:102060000228F7D903202AE16068B0F5803F04D147
:10207000306840F48030306011E0B0F5A02F306857
:1020800006D140F480203060316841F4803105E0B1
:1020900020F480303060316821F480213160606844
:1020A00058B1FFF7D1FA054630688103A7D4FFF78E
:1020B000CBFA401B6528F7D3D4E7FFF7C5FA0546EE
:1020C000306881039BD5FFF7BFFA401B6528F7D323
:1020D000C8E7E06870B10121C9F80010FFF7B4FA51
:1020E000054630688107A2D4FFF7AEFA401B0228EC
:1020F000F7D9B7E70022C9F80020FFF7A5FA05468F
:10210000306881079AD5FFF79FFA401B0228F7D95C
:10211000A8E70860FFF798FA0546706F810705D5B4
:10212000FFF792FA401B0228F7D99BE72078410776
:1021300059D5306C0025C1000BD40020009001253A
:10214000316C41F080513164306C00F0805000906F
:1021500000985F4F3868C10510D4386840F480702B
:102160003860FFF771FA80463868C10506D4FFF77A
:102170006BFAA0EB08000228F6D973E7A0680128E3
:1021800005D00528306F06D140F004003067306F6D
:1021900040F0010005E0400840003067306F20F05B
:1021A0000400306741F28938A06858B1FFF74CFA53
:1021B0000746306F810711D4FFF746FAC01B404530
:1021C000F7D34FE7FFF740FA0746306F810705D591
:1021D000FFF73AFAC01B4045F7D343E71DB1306C17
:1021E00020F080503064A069002867D0B16801F009
:1021F0000C0108293DD002282CD10020C9F860002C
:10220000FFF722FA05463068810105D5FFF71CFA71
:10221000401B0228F7D925E7E269206A616A024378
:10222000A06A400842EA8112401E42EA0042E06A87
:1022300042EA006272600121C9F86010FFF704FAF7
:1022400004463068810139D4FFF7FEF9001B0228EB
:10225000F7D907E70020C9F86000FFF7F5F9044651
:10226000306881012AD5FFF7EFF9001B0228F7D962
:10227000F8E6012820D07068E26900F480019142FC
:1022800002BF00F03F01226A914201BF47F6C071D0
:102290000140626AB1EB821F0ED1A26A00F44031A4
:1022A00001F580315208B1EB024F02BF00F07060BF
:1022B000E16AB0EB016F01D0012000E00020BDE831
:1022C000F28300BF0038024000004742800E4742C0
:1022D00000700040D3BBD9B1B2F5803F5BD2022A77
:1022E0001ED98C46B1FBF2F102FB11C31B0443EA79
:1022F0001043B3FBF2FC02FB1C3380B240EA034301
:10230000B3FBF2F002FB103240EA0C4000237047AE
:10231000022A05D98446B0FBF2F002FB10C27047D6
:102320004AB105D100F0010249085FEA3000704768
:1023300000220023704700F06DB80B00020000215E
:1023400000207047F7D3002200237047904271EBC2
:10235000030CF2D370B5B1FA81F4B3FA83F52C1BF8
:10236000A340C4F1200532FA05F63343A2405FF0E2
:102370000046E64002E05B085FEA3202841A71EB35
:10238000030524BF204629467641F4D302000B0002
:102390003000002170BD70B5B1FA81F4B2FA82F557
:1023A000C4F120046419B4F12006DAD3B2405FF01E
:1023B0000044F440002502E052085FEA3303C61AE5
:1023C00071EB020E24BF3046714664416D41F3D378
:1023D00002000B002000290070BD000081B0002029
:1023E00000900B48416841F480414160416801F42C
:1023F000804100910021009A0091036843F08053CE
:102400000360006800F080500090009801B07047B1
:1024100040380240704730B4002512E050F8042BD9
:10242000D30744BF4A44521E091F042942F8045BE3
:10243000FAD213468C0744BF15809B1CC90748BFBE
:102440001D7050F8041B0029E8D130BC7047000013
:1024500010B5074979441831064C7C44163404E021
:102460000A68081D114488470146A142F8D110BDF1
:102470002C0000004C0000004EF68851CEF2000106
:10248000086840F470000860BFF34F8FBFF36F8F90
:102490004FF00170E1EE100A704700007BFFFFFF74
:1024A000040100001000002000000000DBEEFFFF30
:1024B00010000000A000000000000020000000004C
:1024C0000248016841F470010160704788ED00E046
:1024D00000000000000000000102030406070809D4
:1024E00000F00DF8002801D0FFF7B2FFAFF3008035
:1024F0000020AFF30080FFF7F1F800F002F80120B0
:10250000704700F001B800000746384600F002F8B6
:10251000FBE7000080B5AFF30080024A11001820ED
:10252000ABBEFBE7260002000548014603B468463F
:1025300080F30988AFF30080FFF79EFFFFF7D0FF1D
:10254000A5EDF5FE0148804701480047C124000879
:102550002925000801000000000000001000000014
:102560000024F4000000000001020304FFF7FEBF96
:10257000FFF7FEBFFFF7FEBFFFF7FEBFFFF7FEBF8F
:10258000FFF7FEBFFFF7FEBFFFF7FEBFFFF7FEBF7F
:10259000FFF7FEBFFFF7FEBFFFF7FEBFFFF7FEBF6F
:1025A000FFF7FEBFFFF7FEBFFFF7FEBFFFF7FEBF5F
:1025B000FFF7FEBFFFF7FEBFFFF7FEBFFFF7FEBF4F
:1025C000FFF7FEBFFFF7FEBFFFF7FEBFFFF7FEBF3F
:1025D000FFF7FEBFFFF7FEBFFFF7FEBFFFF7FEBF2F
:1025E000FFF7FEBFFFF7FEBFFFF7FEBFFFF7FEBF1F
:1025F000FFF7FEBFFFF7FEBFFFF7FEBFFFF7FEBF0F
:10260000FFF7FEBFFFF7FEBFFFF7FEBFFFF7FEBFFE
:10261000FFF7FEBFFFF7FEBFFFF7FEBFFFF7FEBFEE
:10262000FFF7FEBFFFF7FEBFFFF7FEBFFFF7FEBFDE
:10263000FFF7FEBFFFF7FEBFFFF7FEBFFFF7FEBFCE
:10264000FFF7FEBFFFF7FEBFFFF7FEBFFFF7FEBFBE
:10265000FFF7FEBFFFF7FEBFFFF7FEBFFFF7FEBFAE
:10266000FFF7FEBFFFF7FEBFFFF7FEBFFFF7FEBF9E
:10267000FFF7FEBFFFF7FEBFFFF7FEBFFFF7FEBF8E
:10268000FFF7FEBFFFF7FEBFFFF7FEBFFFF7FEBF7E
:10269000FFF7FEBFFFF7FEBFFFF7FEBFFFF7FEBF6E
:0826A000FFF7FEBFFFF7FEBFCC
:0400000508002529A1
:00000001FF
