:020000040800F2
:1000000018040020210E0008C9060008CB060008CD
:10001000CD060008CF060008D10600080000000049
:10002000000000000000000000000000D3060008EF
:10003000D506000800000000D7060008D906000811
:10004000310E0008350E0008390E00083D0E00087C
:10005000410E0008450E0008490E00084D0E00082C
:10006000510E0008550E000809070008590E000837
:100070005D0E0008610E0008650E0008690E00089C
:100080006D0E0008710E0008750E0008790E00084C
:100090007D0E0008810E0008850E0008890E0008FC
:1000A0008D0E0008910E0008950E0008990E0008AC
:1000B0009D0E0008A10E0008A50E0008A90E00085C
:1000C000AD0E0008B10E0008B50E0008B90E00080C
:1000D000BD0E0008C10E0008C50E0008C90E0008BC
:1000E000CD0E0008D10E0008D50E0008D90E00086C
:1000F000DD0E0008E10E0008E50E0008E90E00081C
:10010000ED0E0008F10E0008F50E0008F90E0008CB
:10011000FD0E0008010F0008050F0008090F000878
:100120000D0F0008110F0008150F0008190F000827
:100130001D0F0008210F0008250F0008290F0008D7
:100140002D0F0008310F0008350F0008390F000887
:100150003D0F0008410F0008450F0008490F000837
:100160004D0F0008510F0008550F0008590F0008E7
:100170005D0F0008610F0008650F00080000000017
:10018000690F00086D0F00082DE9F843040016D030
:100190002078DFF8F462C10713D5B06800F00C00D6
:1001A000042807D0B06800F00C0008283ED1706821
:1001B00041023BD53068810303D56068002800F018
:1001C0005D812078DFF8C492810719D5B06810F0FE
:1001D0000C0F07D0B06800F00C0008285BD17068E5
:1001E000410258D43068810703D5E268012A40F003
:1001F00045813068216920F0F80040EAC100306094
:100200002078010774D56069A149002863D00122D4
:100210000A6000F041F90546706F810768D400F06C
:100220003BF9401B0228F7D903202AE16068B0F5AA
:10023000803F04D1306840F48030306011E0B0F588
:10024000A02F306806D140F480203060316841F43E
:10025000803105E020F480303060316821F4802165
:100260003160606858B100F017F9054630688103C5
:10027000A7D400F011F9401B6528F7D3D4E700F0AC
:100280000BF90546306881039BD500F005F9401B4A
:100290006528F7D3C8E7E06870B10121C9F80010FC
:1002A00000F0FAF8054630688107A2D400F0F4F8AF
:1002B000401B0228F7D9B7E70022C9F8002000F058
:1002C000EBF80546306881079AD500F0E5F8401B49
:1002D0000228F7D9A8E7086000F0DEF80546706F3D
:1002E000810705D500F0D8F8401B0228F7D99BE715
:1002F0002078410759D5306C0025C1000BD400206F
:1003000000900125316C41F080513164306C00F077
:100310008050009000985F4F3868C10510D438684D
:1003200040F48070386000F0B7F880463868C10546
:1003300006D400F0B1F8A0EB08000228F6D973E764
:10034000A068012805D00528306F06D140F00400D0
:100350003067306F40F0010005E040084000306732
:10036000306F20F00400306741F28938A06858B13E
:1003700000F092F80746306F810711D400F08CF836
:10038000C01B4045F7D34FE700F086F80746306FB3
:10039000810705D500F080F8C01B4045F7D343E73F
:1003A0001DB1306C20F080503064A069002867D007
:1003B000B16801F00C0108293DD002282CD10020A1
:1003C000C9F8600000F068F805463068810105D57D
:1003D00000F062F8401B0228F7D925E7E269206A9D
:1003E000616A0243A06A400842EA8112401E42EA62
:1003F0000042E06A42EA006272600121C9F86010BE
:1004000000F04AF804463068810139D400F044F81D
:10041000001B0228F7D907E70020C9F8600000F0A8
:100420003BF80446306881012AD500F035F8001BFE
:100430000228F7D9F8E6012820D07068E26900F4B4
:100440008001914202BF00F03F01226A914201BF48
:1004500047F6C0710140626AB1EB821F0ED1A26AF9
:1004600000F4403101F580315208B1EB024F02BF78
:1004700000F07060E16AB0EB016F01D0012000E094
:100480000020BDE8F28300BF003802400000474270
:10049000800E47420070004001484068704700BF2E
:1004A000000000202DE9F84F00227B4CDFF8EC81A2
:1004B0004FF00F0901230F6893401F409F4240F007
:1004C000CA804FEA420C032505FA0CF56FEA050EC7
:1004D0004D6805F00306012E1CBF05F00305022D33
:1004E00010D18568CE680EEA050506FA0CF635438C
:1004F0008560456825EA03034D68C5F300159540FE
:100500002B43436093000D7905F00305032D1ED0A6
:10051000C5688E680EEA050506FA0CF63543C56017
:100520000D7905F00305022D11D1D50800EB8505E5
:1005300003F01C06D5F820B009FA06FA2BEA0A0BDC
:10054000D1F810A00AFA06F646EA0B062E620568F4
:100550000EEA05060D7905F0030505FA0CF545EAE6
:10056000060CC0F800C04D6815F4403F73D04FF042
:10057000000ECDF800E04FEA920CD8F8005045F498
:100580008045C8F8005003F00C03D8F800E0444D53
:100590000EF4804ECDF800E0DDF800E055F82C6058
:1005A00009FA03F5AE433F4DA84208BF4FF0000ED5
:1005B0002AD03D4DA84208BF4FF0010E24D03B4D3C
:1005C000A84208BF4FF0020E1ED0394DA84208BF06
:1005D0004FF0030E18D0374DA84208BF4FF0040E5D
:1005E00012D0354DA84208BF4FF0050E0CD0334D48
:1005F000A84208BF4FF0060E06D0314DA8420CBFEE
:100600004FF0070E4FF0080E0EFA03F3DFF890E0FC
:1006100033434EF82C30FE43A3684D683340ED025F
:1006200048BF3B43A360E3684D683340AD0248BF19
:100630003B43E36063684D683340AD0348BF3B43D1
:100640006360236806EA030C4B68DB0348BF47EA94
:100650000C0CC4F800C0521C0F2A7FF62BAFBDE86B
:10066000F18F0069084018BF0120C0B2704702B97D
:10067000090481617047426901EA0203914341EA3A
:100680000341816170470F4A136801460B421CBF4A
:10069000116000F03CB87047003C01404438024013
:1006A00008380140000002400004024000080240F7
:1006B000000C0240001002400014024000180240EA
:1006C000001C0240143C0140FEE7FEE7FEE7FEE7A7
:1006D000FEE770477047704780B500F023F8104878
:1006E0000178CA070FD54188491C418089B2322957
:1006F00009DB00214180026841685208520041F044
:1007000001010260416001BD1020FFF7BCBF10284D
:1007100004D10348016841F0010101607047000005
:10072000100000200248416802788A184260704731
:10073000000000202DE9F04104000E4654D0404F47
:10074000386800F00700B04202D200F073F84BD1D5
:1007500020683C4D810712D5400703D5A96841F4B4
:10076000E051A9602078010703D5A86840F46040F3
:10077000A860A968A06821F0F0010143A960217870
:10078000C80729D56068012802D129688A0305E0D5
:10079000022818BF032803D129688A0103D423E063
:1007A00029688A0720D5A968890840EA8100A860DD
:1007B000FFF772FE8046A868616800F00C00B0EB9D
:1007C000810F09D0FFF768FEA0EB080041F28931E4
:1007D0008842F0D303202BE0386800F007008642FF
:1007E00004D200F027F801D0012021E02078420750
:1007F00005D5A968E06821F4E0510143A96021789A
:10080000080706D5A968206921F4604141EAC001C2
:10081000A96000F01FF8AA680B490C4BC2F3031241
:10082000895CC84018600A48006800F043F800205E
:10083000BDE8F0813E70396801F00701B1427047B0
:10084000003C024000380240940D00080C000020DB
:100850000800002030B5144C606800F00C0004283B
:1008600002D0082802D01DE0104830BD2268206860
:100870000023410202F03F0204D525680B49C5F36D
:10088000881003E020680A49C0F38810A1FB00012A
:1008900000F030F82168C1F30141491C4900B0FB68
:1008A000F1F030BD024830BD0438024040787D018F
:1008B0000024F40038B50D4D0D4B2A7804464FF452
:1008C0007A711868B1FBF2F2B0FBF2F000F0E9F8CF
:1008D00050B9102C08D2002221464FF0FF3000F012
:1008E000B8F8AC60002032BD012032BD000000200D
:1008F0000C000020D3BBD9B1B2F5803F5BD2022AF5
:100900001ED98C46B1FBF2F102FB11C31B0443EA72
:100910001043B3FBF2FC02FB1C3380B240EA0343FA
:10092000B3FBF2F002FB103240EA0C4000237047A8
:10093000022A05D98446B0FBF2F002FB10C27047D0
:100940004AB105D100F0010249085FEA3000704762
:1009500000220023704700F0C1B80B000200002104
:1009600000207047F7D3002200237047904271EBBC
:10097000030CF2D370B5B1FA81F4B3FA83F52C1BF2
:10098000A340C4F1200532FA05F63343A2405FF0DC
:100990000046E64002E05B085FEA3202841A71EB2F
:1009A000030524BF204629467641F4D302000B00FC
:1009B0003000002170BD70B5B1FA81F4B2FA82F551
:1009C000C4F120046419B4F12006DAD3B2405FF018
:1009D0000044F440002502E052085FEA3303C61ADF
:1009E00071EB020E24BF3046714664416D41F3D372
:1009F00002000B002000290070BD0EE00268436871
:100A0000024408305FEAC37C44BF4B445B1E52F88B
:100A100004CB43F804CB091FF9D150F8041B00297B
:100A2000ECD170470901020002D426488154704776
:100A3000254B02F00F021A4402F8041C70472349A8
:100A40000A6860F30A2240F2FA5060F31F420A601B
:100A5000704770B51D4B1C68C4F302230124C3F119
:100A60000705052D2EBF0F2504FA05F56D1E1E1D69
:100A7000072E34BF0023DB1E2940994004FA03F3FC
:100A8000BDE870405B1E1A401143CBE7010007D45C
:100A9000012200F01F010E4B8A40400943F820203C
:100AA0007047401EB0F1807F01D301207047094993
:100AB000094A48600023F02010708B60072008600E
:100AC0000020704700E400E018ED00E00CED00E0CD
:100AD00000E100E010E000E023ED00E070470000DE
:100AE00010B500F07BF800F020F800F091F8354CDC
:100AF0006068C1070BD54008400060601021324893
:100B0000FFF7AFFD18B9606840F0020060606168EF
:100B1000C1F340000028EBD021F0020161604FF4E6
:100B200000712A48FFF7A7FDE2E780B592B03021B7
:100B3000002206A800F0D0F81421002201A800F03D
:100B4000CBF8002000902248016841F080510160FC
:100B5000006800F0805000900020009900901D482F
:100B6000016841F4804101604FF48031006800F475
:100B7000804000900120009A079102224FF48001EA
:100B80000C920D91192280210E920F910690022253
:100B900004211092119106A8FFF7F6FA08B100F0AF
:100BA0001BF8022102910F20019090220021039254
:100BB0000491059101A8FFF7BDFD08B100F00CF804
:100BC00013B000BD100000200010024000140240CD
:100BD000403802400070004072B6FEE780B50B4816
:100BE000016841F400710160026842F480620260B1
:100BF000016841F4807101600320FFF720FF0F209E
:100C0000FFF758FE00F072F8002002BD003C0240E1
:100C100010B586B01421002201A800F05DF8002173
:100C20002748284C0091026842F0100202600168D7
:100C300001F0100100F04AF843F02003036001685E
:100C400001F0200100F042F843F0800303600168E6
:100C500001F0800100910021009A009101220368B7
:100C600043F0010303604FF40071006800F00100DD
:100C7000009000982046FFF7FAFC10204FF4041172
:100C8000019002910122039201A90F48FFF70AFC8B
:100C9000112102914FF40070002101900122049172
:100CA000039201A92046FFF7FDFB002201210A2043
:100CB000FFF7CFFE0A20FFF7E9FE06B010BD0000E7
:100CC0003038024000140240001002400091002120
:100CD000009A0091036870474018491C1CBFB1F18D
:100CE000010100F8012DF9D17047000081B000200A
:100CF00000900B48416841F480414160416801F433
:100D0000804100910021009A0091036843F08053D4
:100D10000360006800F080500090009801B07047B8
:100D20004038024010B5074979441831064C7C44DC
:100D3000163404E00A68081D114488470146A142A0
:100D4000F8D110BD2C0000003C0000004EF6885188
:100D5000CEF20001086840F470000860BFF34F8FC6
:100D6000BFF36F8F4FF00170E1EE100A7047000083
:100D70008BFCFFFF18000000900000000000002026
:100D8000000000000248016841F4700101607047F2
:100D900088ED00E0000000000000000001020304F4
:100DA0000607080900F00DF8002801D0FFF7BAFF88
:100DB000AFF300800020AFF30080FFF791FE00F05A
:100DC00002F80120704700F001B8000007463846DD
:100DD00000F002F8FBE7000080B5AFF30080024AA4
:100DE00011001820ABBEFBE72600020005480146B3
:100DF00003B4684680F30988AFF30080FFF7A6FFCD
:100E0000FFF7D0FFA5EDF5FE010000000000000097
:100E1000100000000024F4000000000000000000AA
:100E20000148804701480047850D0008ED0D000886
:100E3000FFF7FEBFFFF7FEBFFFF7FEBFFFF7FEBFE6
:100E4000FFF7FEBFFFF7FEBFFFF7FEBFFFF7FEBFD6
:100E5000FFF7FEBFFFF7FEBFFFF7FEBFFFF7FEBFC6
:100E6000FFF7FEBFFFF7FEBFFFF7FEBFFFF7FEBFB6
:100E7000FFF7FEBFFFF7FEBFFFF7FEBFFFF7FEBFA6
:100E8000FFF7FEBFFFF7FEBFFFF7FEBFFFF7FEBF96
:100E9000FFF7FEBFFFF7FEBFFFF7FEBFFFF7FEBF86
:100EA000FFF7FEBFFFF7FEBFFFF7FEBFFFF7FEBF76
:100EB000FFF7FEBFFFF7FEBFFFF7FEBFFFF7FEBF66
:100EC000FFF7FEBFFFF7FEBFFFF7FEBFFFF7FEBF56
:100ED000FFF7FEBFFFF7FEBFFFF7FEBFFFF7FEBF46
:100EE000FFF7FEBFFFF7FEBFFFF7FEBFFFF7FEBF36
:100EF000FFF7FEBFFFF7FEBFFFF7FEBFFFF7FEBF26
:100F0000FFF7FEBFFFF7FEBFFFF7FEBFFFF7FEBF15
:100F1000FFF7FEBFFFF7FEBFFFF7FEBFFFF7FEBF05
:100F2000FFF7FEBFFFF7FEBFFFF7FEBFFFF7FEBFF5
:100F3000FFF7FEBFFFF7FEBFFFF7FEBFFFF7FEBFE5
:100F4000FFF7FEBFFFF7FEBFFFF7FEBFFFF7FEBFD5
:100F5000FFF7FEBFFFF7FEBFFFF7FEBFFFF7FEBFC5
:100F6000FFF7FEBFFFF7FEBFFFF7FEBFFFF7FEBFB5
:0400000508000DEDF5
:00000001FF
