:020000040800F2
:10000000580400208D290008692900086B29000880
:100010006D2900086F290008712900080000000000
:10002000000000000000000000000000732900082C
:1000300075290008000000007729000879290008C8
:100040009D290008A1290008A5290008A929000860
:10005000AD290008B1290008B5290008B929000810
:10006000BD290008C1290008C5290008C9290008C0
:10007000CD290008D1290008D5290008D929000870
:10008000DD290008E1290008E5290008E929000820
:10009000ED290008F1290008F5290008F9290008D0
:1000A000FD290008012A0008052A0008092A00087D
:1000B0000D2A0008112A0008152A0008192A00082C
:1000C0001D2A0008212A0008252A0008292A0008DC
:1000D0002D2A0008312A0008352A0008392A00088C
:1000E0003D2A0008412A0008452A0008492A00083C
:1000F0004D2A0008512A0008552A0008592A0008EC
:100100005D2A0008612A0008652A0008692A00089B
:100110006D2A0008712A0008752A0008792A00084B
:100120007D2A0008812A0008852A0008892A0008FB
:100130008D2A0008912A0008952A0008992A0008AB
:100140009D2A0008A12A0008A52A0008A92A00085B
:10015000AD2A0008B12A0008B52A0008B92A00080B
:10016000BD2A0008C12A0008C52A0008C92A0008BB
:10017000CD2A0008D12A0008D52A00080000000076
:10018000D92A0008DD2A000840F0200070472DE938
:10019000F14FB0B0924604910DF142013A9A2B9181
:1001A00099464A7000200AE01AF8011B0498309A18
:1001B00090470028049000F044860D98401C0D9054
:1001C0009AF8000058B12528EED100200021002225
:1001D0000790089109920A910B920C9104E00D98F6
:1001E00000F031BE41F001011AF8010F2028F9D0CA
:1001F00023280CD02B2804D02D2805D0302809D056
:100200000BE041F00201EFE741F00401ECE741F0BF
:100210000801E9E741F01001E6E72A280FD1D9F8F3
:10022000002052F8040BC9F8002000280F9003D5D5
:1002300040420F9041F004010AF1010A14E00F92CC
:10024000DFF8082C0AE00F9B934205DA03EB8304E6
:1002500000EB440030380F900AF1010A9AF80000D0
:10026000A0F130030A2BEED39AF800202E2A03D0F7
:100270004FF0FF300E9029E01AF8010F2A2809D11B
:10028000D9F8002052F8040BC9F800200E900AF1AA
:10029000010A1BE02D280CBF0AF1010A00200022F0
:1002A0000E92DFF8A84B0BE040B90E9BA34205DA93
:1002B00003EB830502EB4502303A0E920AF1010A84
:1002C0009AF80020A2F130030A2BEDD3ADF84010CC
:1002D0000FF67C309AF8001000F0DAFE08B11AF838
:1002E000010B8DF842009DF84200682805D19AF86C
:1002F000001068290CD1622006E06C2804BF9AF82F
:1003000000106C2904D171208DF842000AF1010A15
:1003100012AA06921AF801BBBBF125002CD01C389A
:1003200000F09781001F022840F29381133800F0FB
:10033000BA84093800F08D81801E00F04F85401E80
:1003400000F0FC84401E022840F28381001F00F070
:10035000F584401F00F0F280401E00F0A484401E8F
:1003600000F0DA80C01E0ED0801E00F09C84C01EFB
:1003700000F0998400F03DBD0122252107928DF8FF
:10038000481000F042BDD9F8000050F8044BC9F8FD
:100390000000002C059440F0AB802B994878002891
:1003A00000F0A1804FF0FF340FF6AC2000F080FE8B
:1003B000241A40F0468500F028BD01236A4602A9B0
:1003C000304600F00DFE002840F03B85641EF4D15D
:1003D0003096079C12AF74B1309E17F8011B049839
:1003E000B0470028049000F02C850D98401C641E36
:1003F0000D90F2D130960A9C3021002C8DF800101F
:100400000CDD309E01236A4602A9304600F0E8FD6B
:10041000002840F01685641EF4D13096059F089C94
:1004200074B1309E17F8011B0498B047002804905F
:1004300000F007850D98401C641E0D90F2D1309697
:100440000B9C3021002C8DF800100CDD309E012318
:100450006A4602A9304600F0C3FD002840F0F1844E
:10046000641EF4D1309605980899099C471874B118
:10047000309E17F8011B0498B0470028049000F044
:10048000E0840D98401C641E0D90F2D130960C9CB7
:100490003021002C8DF800100CDD309E01236A46BF
:1004A00002A9304600F09CFD002840F0CA84641E7A
:1004B000F4D130969DF8400041077FF581AE2020B1
:1004C000002D8DF800007FF77BAE309C01236A463B
:1004D00002A9204600F084FD002840F0B2846D1E81
:1004E000F4D130946CE60FF65830059000F08DBCD6
:1004F0000E9D002D04D5204600F0FAFD044608E0CC
:100500002A460021204600F00FFE002814BF041BDD
:100510002C46089400F079BCD9F8001051F8040B6F
:10052000C9F8001020F00002002121F0FF33CDE9CE
:10053000022312AC0594782100F04CBC2B9948782A
:1005400020B14FF0FF340FF6C8202FE79DF842008E
:10055000622860D0682817D06A283FD06C2806D05F
:10056000712847D074282CD07A281DD062E0D9F8A1
:10057000001051F8040BC9F80010002866D14FF0A4
:10058000FF340FF6A42011E7D9F8001051F8040B3E
:10059000C9F8001020B94FF0FF340FF68C2005E7A2
:1005A0000D99018000F031BCD9F8001051F8040B0E
:1005B000C9F80010002849D14FF0FF340FF6682029
:1005C000F4E6D9F8001051F8040BC9F8001000281F
:1005D0003CD14FF0FF340FF65020E7E6D9F8001079
:1005E00051F8040BC9F8001080B94FF0FF340FF632
:1005F0003820DBE6D9F8001051F8040BC9F80010D8
:1006000020B94FF0FF340FF62020CFE60D9AD31714
:10061000C0E90023F9E3D9F8001051F8040BC9F838
:10062000001020B94FF0FF340FF6FC10BEE60D9914
:100630000170EAE3D9F8001051F8040BC9F8001072
:1006400020B94FF0FF340FF6E010AFE60D990160CE
:10065000DBE39DF842004C2807BFD9F80010CA1D03
:10066000D9F80000C21D22F00702C9F80020D2E923
:1006700000010832C9F80020CDE90201C80F02D0FC
:1006800007982D210AE0BDF84000810702D50798A0
:100690002B2103E0C00705D50798202112AA115489
:1006A000401C079012A807994BF0200300EB010CA7
:1006B000DDE90201CDE92C01612BCDF814C021AC9C
:1006C0000BD00E98002848BF062105D404BF4BF07C
:1006D0002000672801D101210E91DDE902014F00C0
:1006E00047EAD0777E15FF174FF0FF32974208BFD9
:1006F000964210D1090341EA10510003002908BFB6
:10070000002808D0ABF1610503211A2D089118D3F8
:100710000FF6341110E0DDE902014A00521512F122
:10072000010F11D108030FD1ABF1610503211A2D7F
:1007300008911FD30FF618110322604600F020FD28
:1007400063E30FF60011F7E7DDE902016A4600F006
:100750006BFDCDE902014BF02000612811D1059815
:1007600030220270811C0591BBF1610F0CBF782112
:10077000582102E00FF6D401DEE741700798801C93
:100780000790DDE9020120F0000231F0004308BFCC
:10079000002A02D10026002542E14BF02008B8F1E2
:1007A000610F40F092800E99002947BF21200190EF
:1007B000491C0191019FDDE92C017F1C00220023CF
:1007C000DDE9024500F068FD38BF85F0004500987E
:1007D0008DF88420001F002F00900DF1850632DD7A
:1007E000204629460022002300F070FD2BD21C2257
:1007F00000F086FD04460D4600F020FEFF1F002F8E
:10080000804609DD00F036FE02460B4620462946AA
:1008100000F0F8FE04460D46F01D0721B8F1000F68
:100820000CDD491E5EBF08F00F0200F8012D4FEAF3
:100830002818F3D502E0002200F8012D491EFAD550
:10084000C61D002FCCDC0DF18500361A01980DF184
:1008500085048642D8BF304600282FD4B04206DA3D
:100860000DF185010A5C082AA8BF0F2100DA0021DA
:10087000024621AB134400E0401E13F80159521EFA
:100880008D42F9D00F2904D10DF185018B5C5B1CE1
:100890008B54002A04D50099091D21AC401C0091FD
:1008A000411E0BD4621813783033DDB23A2DA4BF49
:1008B0005B443A3B491E02F80139F4D50E9A002AEE
:1008C00040F1AC80411E0E91A8E00099DFF80027AE
:1008D00047F29750414391FBF2F20092DDE92C453B
:1008E000C2F10702002A25F0004504DD2046294612
:1008F00000F04AFB0BE052420020DFF8D81600F06F
:1009000043FB02460B462046294600F0EDFE044616
:100910000D46B8F1660F06BF009F0A3706270E98EE
:100920003F18142FC8BF142730208DF884000DF114
:100930008506002F34DD2046294600F0F9FF0146E8
:100940000A4606F1080304200A26B2FBF6F606EB77
:10095000860EA2EB4E02303203F8012C0A22B6FBBF
:10096000F2F202EB820EA6EB4E063036401E03F882
:10097000026DE9D1083F002F03F10806D9DD0846D2
:1009800000F0E8FF02460B462046294600F03AFEFA
:100990000022DFF8443600F0EBFF04460D46CAE7BC
:1009A0000DF18500361A0DF1850404E00098401E13
:1009B000761E0090641C20783028F7D0B8F1660FBE
:1009C00002D10098401C04E0B8F1650F0CBF012073
:1009D00000200E9940188642B8BF701E00281DD412
:1009E000B04204DA215C3429C8BF392100DC30214F
:1009F0000246631E9D1800E0401E15F80169521E54
:100A00008E42F9D0392902D1A15C491CA154002A97
:100A100004D50099491C1C46401C00910646009DC7
:100A200001F07CF8406A0778DDF8388030B20028A1
:100A300002DC01260FF21C644BF02000662808BF80
:100A40006D1C16D0672845D128B210F1040F47DB82
:100A5000404545DA9DF840006D1C010703D430B2D3
:100A60004045D8BF804628B2B8EB000848BF4FF0D9
:100A700000080FFA85FBBBF1000F00F3B380089864
:100A8000411C0891302205990A54B8F1000F03DC8B
:100A90009DF84000010704D50898411C089105996C
:100AA0000F5418EB0B0FB8BFC8F100052DB2684208
:100AB000454432B20B909542B8BF2E46059B08982C
:100AC00036B2099632462146184400F059FBAD1B58
:100AD0000C95D1E0BBF1610F17D14FF0700B19E00D
:100AE00030B2404504DA9DF840100A0758BF8046EE
:100AF000B8F1010848BF4FF00008BBF1670F14BF01
:100B00004FF0450B4FF0650B04E0BBF1410F08BF00
:100B10004FF0500B0898411C0891B8F1000F05994F
:100B200014F8012B0A5403DC9DF8400001071AD584
:100B30000898411C0891B8F1000F05990F5412DD77
:100B4000761E30B28045B8BF46460598089B32B243
:100B50002146184400F014FB089836B2301808906B
:100B6000A8EB06000B9005980899014428B20028CC
:100B700081F800B003D42B204870891C04E02D229A
:100B80004A700546891C6D4200202CAA0AE02B46BB
:100B90000A2593FBF5F505EB8504A3EB440302F866
:100BA000013B401C2DB2002DF1DC012806DC4BF08E
:100BB0002002652A04BF302201F8012B00282CAA4C
:100BC00008D1302001F8010B06E0401E135C3033E1
:100BD00001F8013B0028F8DC059A08981044091A2E
:100BE000099149E030B229B288421CDA0598089B85
:100BF00032B22146184400F0C3FA089936B271188F
:100C00000891ABEB0600B8F1000F0B9003DC9DF8E8
:100C10004000020704D5059847540999491C0991D9
:100C2000CDF8308028E00598089B2AB22146184468
:100C300000F0A6FA0898761B5844B8F1000F089007
:100C400003DC9DF840100A0703D5411C0891059963
:100C50000F5430B28045B8BF46460598089B32B263
:100C600004EB0B01184400F08BFA089836B23018E8
:100C70000890A8EB06000B909DF8400000F01400CF
:100C8000102840F0C280079A08980B99821809989A
:100C90008A1882180C980F998018884280F2B580C3
:100CA000081A0A90B1E09DF84200622808D068282E
:100CB0000ED06A2814D06C281FD0712810D01CE0E8
:100CC000D9F8001051F8040BC9F80010C0B21AE0AE
:100CD000D9F8001051F8040BC9F8001080B212E0E6
:100CE000D9F80000C21D22F00702C9F80020D2E99D
:100CF00000010832C9F8002006E0D9F8001051F8C8
:100D0000040BC9F800100021CDE902019DF8400054
:100D100002075AD5DDE90201002908BF002854D096
:100D20004BF02002782A50D1079812A930230B5497
:100D3000401C421C079201F800B046E09DF84200BA
:100D4000622808D068280ED06A2814D06C281FD0DA
:100D5000712810D01CE0D9F8001051F8040BC9F824
:100D6000001040B21AE0D9F8001051F8040BC9F88D
:100D7000001000B212E0D9F80000C21D22F00702F4
:100D8000C9F80020D2E900010832C9F8002006E0C5
:100D9000D9F8001051F8040BC9F80010C117CDE9BB
:100DA0000201002902D507982D210AE0BDF8400074
:100DB000810702D507982B2103E0C00705D50798C6
:100DC000202112AA1154401C079012A8079901442F
:100DD0000591594602A800F04DF816E00120079051
:100DE000D9F8001051F8040BC9F800108DF848002C
:100DF0000BE001202521BBF1000F07908DF8481072
:100E000003D0022107918DF849B00F9D07980A99E8
:100E10002D1A08986D1A0B992D1A09986D1A0C99AC
:100E20002D1A9DF840006D1A41073FF5D2AA2020E7
:100E3000002D8DF800007FF7CCAA309E2C46FFF7DE
:100E4000BCBA4FF0FF3031B0BDE8F08FCBCCCC0C4A
:100E5000686A6C747A4C00007072696E74665F73B5
:100E60003A2062616420257320617267756D656E3A
:100E7000740000002DE9FC4D06468846376940465F
:100E80006F2808BF082405D0FFF77EF9782814BF23
:100E90000A241024D6E900013C2582468B46B8F18D
:100EA000640F18BFB8F1690F05D1002903D5DAF135
:100EB000000A6BEB4B0BBBF1000F08BFBAF1000F40
:100EC0000CD1306B50B9082C3AD196F83800010794
:100ED00036D530223B2587F83B2031E08DF8008065
:100EE000504659462246002300F01CFE3032D0B254
:100EF0006D1E3A2801950EDA7A555046594622461B
:100F0000002300F00FFE82465FEA010B08BFBAF132
:100F1000000F05D108E09DF800001218513AEBE7E8
:100F2000F06879198842DBD3082C09D196F838008B
:100F3000010705D5785D302802D06D1E3020785528
:100F4000C5F13C02306BB26179198242F16008DA76
:100F5000318F821A4FF6EF70014031873262BDE85F
:100F6000F38D00280ED596F8380000F014001028F4
:100F700008D1736B7069316A1B1A5B1A9B1A002BBC
:100F8000C8BF3362BDE8F38D2DE9D04306460F4656
:100F900014464FF00008DFF8449012E0E00707D550
:100FA00042464B463046394600F0E2FC06460F46C4
:100FB0004046494642464B4600F0DAFC6410804603
:100FC0008946002CEAD130463946BDE8D08300007E
:100FD000A08601000000F03F84D797410000244024
:100FE000F8B505460E4617461C4600205CB117F8BA
:100FF000011BB068A847B06030B1F06A401CF062D5
:101000000020641EF3D1F2BD4FF0FF30F2BD0000AE
:101010007072696E74665F733A20256E206469731E
:10102000616C6C6F776564007072696E74663A20EB
:1010300062616420256E20617267756D656E740053
:10104000000000006E616E004E414E00696E660049
:10105000494E4600300030B5016884684218416846
:1010600002EB5103C90703D54C4401E0491C08D1E8
:101070009A4218BF12F9011B01D10C3030BD12F891
:10108000015B002904F8015BF0D4491EF7D5EFE7B6
:10109000C9B202788A421AB11CBF10F8012FF9E7D1
:1010A00018BF002070470268531C0360117070471E
:1010B00080B500B906A005490B681BB122220021AA
:1010C000984701E000F0B1FD222002BD5000002051
:1010D000636F6E73747261696E742068616E646CA4
:1010E00065723A20626164206D65737361676500A3
:1010F00000F10103810704D010F8011B820781B1C0
:10110000FAD10268A2F10131914311F0803104BF9C
:1011100050F8042FF6E709BAB1FA81F100EBD100DB
:10112000401CC01A70472E00C9B2830706D0521E59
:1011300022D310F8013B9942F7D11FE0083A13D3AC
:1011400002F1040241EA012141EA014150F8043B65
:10115000121F21BF4B40A3F1013C2CEA030C1CF0F1
:10116000803FF3D0C9B2001F0832521E24BF10F8CE
:10117000013B91EA030FF8D818BF0120401E7047C9
:1011800062B38B0708D0521E11F8013B00F8013BF7
:1011900000F024808B07F6D1830740F0208000BF49
:1011A000103A07D330B4B1E83810103AA0E838103C
:1011B000F9D230BC530724BFB1E80810A0E80810EA
:1011C00044BF51F8043B40F8043BD20724BF31F838
:1011D000022B20F8022B44BF0B7803707047121FBC
:1011E00017D35B0009D151F8043B20F8023B1B0CDC
:1011F000121F20F8023BF6D20BE051F8043B00F836
:10120000013B1B0A20F8023B1B0C121F00F8013B9C
:10121000F3D238BF121D521E24BF11F8013B00F853
:10122000013BF8D87047000010B5144600F002F8F2
:10123000226010BDC1F30A5343B14A0012F5001FEA
:1012400028D2A3F2FE32A1EB0251704750EA410CC2
:1012500020D001F0004C31EA0C01B1FA81F204BF58
:10126000B0FA80F3D2180B3AB2F120032CBF00FA87
:1012700003F1914041EA0C013EBFC2F1200C20FA7B
:101280000CF319439040524240F2FD33D21A01EB65
:10129000035170470022704741EA030C50EA4C0C9E
:1012A00052EA0C0C4FF4001C09D307D01CEB410F81
:1012B0009CBF1CEB430F8B4208BF824270471CEB64
:1012C000430FFBD8994208BF9042704741EA030C94
:1012D00050EA4C0C52EA0C0C4FF4001C09D307D016
:1012E0001CEB410F9CBF1CEB430F994208BF90427F
:1012F00070471CEB410FFBD88B4208BF82427047FE
:10130000124254D440F2FF7C1CEA11530FD06345C3
:1013100031D09B1863453CBF01EB0251704701F08F
:10132000004141EA0C510020AFF30080704750EAC1
:10133000410320D001F0004C91EA0C011CD0B1FA1D
:1013400081F30B3B9A420DD9D21A994051EA0C0114
:10135000C3F1200C20FA0CFC61449840531C40F26D
:10136000FF7CD7E7914041EA0C01C2F1200C20FA42
:101370000CF3194390407047B0FA80F31533202BDB
:10138000E0D3202AEED3203A203B9A4209D9D21A40
:1013900000FA03F141EA0C010020531C40F2FF7CEB
:1013A000B8E700FA02F141EA0C010020704752420E
:1013B00040F2FF7C1CEA11530DD06345DBD0B2EB49
:1013C000030C3CBFA1EB025170470CF1010221EA72
:1013D000035141F4801150EA410CCCD001F0004C93
:1013E000352A27DC30B481EA0C01B2F1200309DA96
:1013F000C2F12003044601FA03F5D0402843D1404E
:101400009C400CE0C3F12002450020FA03F418BF11
:1014100044F0010421FA03F091400C43002174F1DF
:10142000004550F1000051EB0C01244230BC7FF428
:101430007BAF70476146002076E70000C1F30A5396
:1014400040F21E42D31A0CDDCA0283F3070342EABC
:10145000505242F00042DA4002EBE17282EAE1705F
:1014600070476FEAE17203F2E13008B182F00040A8
:101470007047000010F0004160B148BF4042B0FA30
:1014800080F29040D21CC2F5846241EA025202EB23
:10149000D021400570470000841A71EB030604D286
:1014A0006E40001BB141121973414FF4001C1CEB3C
:1014B000410F34BF7CEB430683E00C0DA4EB1356C5
:1014C000362E00F37C80012E45EAC32341DC43EA3B
:1014D000525312BFD20292025B08240545EAC12191
:1014E00041EA5051D2EBC020994125D407D1B0FA3E
:1014F00080F610FA06F162D00020203608E0B1FA3A
:1015000081F6B140C6F1200220FA02F21143B04048
:101510004FEAF474B4EB465434F001064FEA740415
:101520000AD8D6F50016760D04F00044F04061FAB2
:1015300006F25040F1404840C00A40EA415021F0D4
:10154000004128BF5FEA500550F1000044EBD12173
:1015500035E0DB0A45EAC121C90AB6F120050EDDF6
:1015600042EA0242120CC5F1200603FA06F6EB40ED
:1015700042EA06056D42984161F100010DE062FA10
:1015800006F5F240554063FA06FC82EA0C02F3408D
:101590005A406D42904161EB030111F4801F05D167
:1015A000641E620502D06D004041494121F4801162
:1015B000430875F1004350F1000041EB045170BC49
:1015C00070471CEB410F15D223F0004352EA43064B
:1015D0000BD04FEA4C0CBCEB410F04D80C0D661E2F
:1015E000342EB7DDEBE7801A994150EA410608BF77
:1015F0000021E4E708BF1CEB430F28BF6FF0000198
:10160000DDE7000070B491EA030F4FF000457FF56D
:1016100043AF6B40841A71EB030603D2001BB14148
:10162000121973414FF4001C1CEB410F34BF7CEBCB
:10163000430442E00C0DA4EB1356352E4FDC45EA73
:10164000C323DB0A45EAC121C912B6F120050DDD2D
:1016500063FA05F6EB4086EA0305124218BF45F02F
:101660000105C01851F100010CD213E062FA06F531
:10167000F2405540F3415A40B340F3405A4080187D
:10168000594107D349085FEA30005FEA350528BFB2
:1016900045F0010501F58011420875F1004250F155
:1016A000000041EB04514E0016F5001F70BC38BF1E
:1016B00070470020090D090570471CEB410F10D23F
:1016C00052EA43060BD0BCEB410F05D80C0DAB43DF
:1016D000661E342EB6DD02E0AB438018594170BC63
:1016E000704770BC70470000F0B540F2FF7581EAAA
:1016F000030C0CF0004C15EA11541DBF15EA1357EA
:10170000AC42AF42E5E0BC41C1F31301C3F31303A4
:10171000801A994143F4801304D2641E0018494191
:1017200080185941C90241EA5051B1FBF3F603FB5D
:101730001611A2FB0675D7EBC020A94102D2761E76
:1017400080185941C90241EA5051B1FBF3FE03FB35
:101750001E11A2FB0E75D7EBC020A94103D2AEF13A
:10176000010E80185941890241EA9051760546EAF6
:101770008E2EB1FBF3F603FB1611A2FB0675D7EB19
:101780008020A94102D2761E80185941C90241EA3F
:1017900050514EEA060EB1FBF3F603FB1611A2FB05
:1017A0000675D7EBC020A94102D2761E8018594198
:1017B000C90241EA5051B1FBF3F703FB1711A2FB39
:1017C0000735D3EBC020A94167F100070CBF0042E9
:1017D00047F0010766F3D5274FEA1E31B80814F524
:1017E000806412DDBD0775F1004250EB0E5051EBE5
:1017F000045111F5801F5CBF41EA0C01F0BD4CF0B3
:101800007F6141F0E0410020F0BDBD076D0840EA76
:101810000E5041F48011D4F10104B4F120060ADA2B
:10182000C4F120060200E04001FA06F3E14018434B
:10183000B24015430EE0342C13DCC6F1200445EA17
:1018400040056D0820FA06F2154321FA06F0A14082
:101850000D43002175F1004250F1000051EB0C01E5
:10186000F0BD00205FEA0C01F0BDCFB992185B41DA
:10187000B3FA83F704BFB2FA82F6BF190B3FB7F190
:1018800020062FBF02FA06F3BB40C7F1200622FA5A
:1018900006F638BF3343BA401CB1E419641E33E77F
:1018A0007F4231F00041B1FA81F404BFB0FA80F612
:1018B000A4190B3CB4F120062FBF00FA06F1A14099
:1018C000C4F1200620FA06F638BF3143A0403C1B85
:1018D0001AE7AC421ABF05EA1357AF4212E050EACA
:1018E00041061CBF52EA4306BFE750EA41073046B3
:1018F00061461CBF41EA0551F0BD52EA430C08BFE6
:10190000C143F0BD00204FF4001616EB410F98BF05
:1019100016EB430F08BF16EB410F24BFC14305E090
:1019200016EB430F0CBF61464CEA0551F0BD0000B9
:10193000400D40F21E4C40EAC120BCEB115C40F06F
:10194000004003D48CF30701C84070476FEAE17090
:101950007047000050B1B0FA80F18840C91CC1F551
:101960008461090501EBD0214005704701467047AD
:1019700030B540F2FF7C1CEA11541DBF1CEA135520
:10198000644565453FE0641981EA030C6FF35F53DA
:101990000CF0004C43F48013C90241F0004141EACD
:1019A000505EC5021100A5FB020200284FF00000A6
:1019B000EEFB01204FF00001E3FB052118BF42F0D0
:1019C0000102401800214941E3FB0E01A4F58064A7
:1019D0000D0302D292184041494154F1010470DDD7
:1019E000450872F1004250F1000051EB0451A1F59D
:1019F000801102D441EA0C0130BD40F2FF7E4CEA76
:101A00000E51002030BD0CEA1355644518BF6545E2
:101A100081EA030C0CF0004C41D050EA410E1CBF8F
:101A200052EA430E02E06146002030BD24422C44BD
:101A30001BD15FEA050EF6D0090302BF0146002064
:101A4000AEF1140EB1FA81F5AEEB050401FA05FE14
:101A50000C35C5F1200100FA05F5C8404EEA000E2C
:101A60006FF35F5343F480139CE733F00043B3FA02
:101A700083F504BFB2FA82FE75440B3D641BB5F1D9
:101A8000200E2FBF02FA0EF3AB40C5F1200E22FA52
:101A90000EFE38BF43EA0E03AA40641C7CE750EAFE
:101AA000410E14BF52EA430E6FF000014FF40015CF
:101AB00015EB430F8EBF194615EB410F9DE7B4D8C8
:101AC00030BDD4F10104B4F120050FDAC4F12005D2
:101AD000520828BF42F0010210FA05FE01FA05F58E
:101AE0007244E2BFE0402843E1400FE0352C9ADC2D
:101AF000C5F1200452EA400220FA05F218BF42F074
:101B0000010231FA05F0A1400A43002172F10042BE
:101B100050F1000051EB0C0130BD0000004870474F
:101B200010000020D3BBD9B1B2F5803F5BD2022AAE
:101B30001ED98C46B1FBF2F102FB11C31B0443EA30
:101B40001043B3FBF2FC02FB1C3380B240EA0343B8
:101B5000B3FBF2F002FB103240EA0C400023704766
:101B6000022A05D98446B0FBF2F002FB10C270478E
:101B70004AB105D100F0010249085FEA3000704720
:101B800000220023704700F053B80B000200002130
:101B900000207047F7D3002200237047904271EB7A
:101BA000030CF2D370B5B1FA81F4B3FA83F52C1BB0
:101BB000A340C4F1200532FA05F63343A2405FF09A
:101BC0000046E64002E05B085FEA3202841A71EBED
:101BD000030524BF204629467641F4D302000B00BA
:101BE0003000002170BD70B5B1FA81F4B2FA82F50F
:101BF000C4F120046419B4F12006DAD3B2405FF0D6
:101C00000044F440002502E052085FEA3303C61A9C
:101C100071EB020E24BF3046714664416D41F3D32F
:101C200002000B002000290070BD012000F002B866
:101C30007047000080B5AFF30080024A1100182001
:101C4000ABBEFBE7260002002DE9F843040016D0E6
:101C50002078DFF8F462C10713D5B06800F00C00FB
:101C6000042807D0B06800F00C0008283ED1706846
:101C700041023BD53068810303D56068002800F03D
:101C80005D812078DFF8C492810719D5B06810F023
:101C90000C0F07D0B06800F00C0008285BD170680A
:101CA000410258D43068810703D5E268012A40F028
:101CB00045813068216920F0F80040EAC1003060B9
:101CC0002078010774D56069A149002863D00122FA
:101CD0000A6000F041F90546706F810768D400F092
:101CE0003BF9401B0228F7D903202AE16068B0F5D0
:101CF000803F04D1306840F48030306011E0B0F5AE
:101D0000A02F306806D140F480203060316841F463
:101D1000803105E020F480303060316821F480218A
:101D20003160606858B100F017F9054630688103EA
:101D3000A7D400F011F9401B6528F7D3D4E700F0D1
:101D40000BF90546306881039BD500F005F9401B6F
:101D50006528F7D3C8E7E06870B10121C9F8001021
:101D600000F0FAF8054630688107A2D400F0F4F8D4
:101D7000401B0228F7D9B7E70022C9F8002000F07D
:101D8000EBF80546306881079AD500F0E5F8401B6E
:101D90000228F7D9A8E7086000F0DEF80546706F62
:101DA000810705D500F0D8F8401B0228F7D99BE73A
:101DB0002078410759D5306C0025C1000BD4002094
:101DC00000900125316C41F080513164306C00F09D
:101DD0008050009000985F4F3868C10510D4386873
:101DE00040F48070386000F0B7F880463868C1056C
:101DF00006D400F0B1F8A0EB08000228F6D973E78A
:101E0000A068012805D00528306F06D140F00400F5
:101E10003067306F40F0010005E040084000306757
:101E2000306F20F00400306741F28938A06858B163
:101E300000F092F80746306F810711D400F08CF85B
:101E4000C01B4045F7D34FE700F086F80746306FD8
:101E5000810705D500F080F8C01B4045F7D343E764
:101E60001DB1306C20F080503064A069002867D02C
:101E7000B16801F00C0108293DD002282CD10020C6
:101E8000C9F8600000F068F805463068810105D5A2
:101E900000F062F8401B0228F7D925E7E269206AC2
:101EA000616A0243A06A400842EA8112401E42EA87
:101EB0000042E06A42EA006272600121C9F86010E3
:101EC00000F04AF804463068810139D400F044F843
:101ED000001B0228F7D907E70020C9F8600000F0CE
:101EE0003BF80446306881012AD500F035F8001B24
:101EF0000228F7D9F8E6012820D07068E26900F4DA
:101F00008001914202BF00F03F01226A914201BF6D
:101F100047F6C0710140626AB1EB821F0ED1A26A1E
:101F200000F4403101F580315208B1EB024F02BF9D
:101F300000F07060E16AB0EB016F01D0012000E0B9
:101F40000020BDE8F28300BF003802400000474295
:101F5000800E47420070004001484068704700BF53
:101F6000000000202DE9F041DFF84C5204462868BB
:101F7000401C4FF47A71B0FBF1F8FFF7EDFF4FF41E
:101F80007A7707FB00F6686806F57A76B0FBF8F01A
:101F9000361AFFF7E1FF6968784300F57A70B1FB04
:101FA000F8F1401A801BA042F3D3BDE8F08100F0A5
:101FB0000BB918B585B001200221019003910022D0
:101FC0000090029269467D4C204600F011F94022B3
:101FD000009200F0B1F8022000F0ADF800F08FF8A8
:101FE00002E0012000F0F0F8FFF7B6FFC828F8D3B0
:101FF000734C0020E070207108206070032000F016
:102000009FF800F026F8032000F09AF800F021F87D
:10201000032000F095F800F01CF8022000F090F882
:1020200000F017F8607840F0200000F051F804202C
:10203000207000F044F8012000F04AF800F009F8A0
:102040000220A070062000F043F800F002F806B06D
:1020500010BD0520ABE780B5012000F039F8BDE8E0
:102060000240052000F0B0B838B5144600F090F8F2
:10207000534D0CE000F030F8E878401CE87005E0C3
:102080000D28F7D12979002000F082F8641C20780F
:10209000A0B1E878102808DB0021E9700020297938
:1020A000491C2971C9B200F073F820780A28E7D1D9
:1020B0002979E878491C2971C9B2E5E731BD404961
:1020C000087840F00400FFE7087040F00800FFE7E0
:1020D00010B50446002202E010B504460122012199
:1020E000364800F064F9200900F02AF804F00F00E7
:1020F000BDE8104024E04021204600F058B918B552
:102100002E4C85B000220221FFF7F6FF02210122AA
:1021100003910192042100220091029200F00CF838
:10212000082000F008F8102000F005F8202000F04A
:1021300002F806B010BD00906946204600F058B87D
:1021400038B504461D4D04F00802202100F01DF8AA
:1021500004F00402102100F018F804F00202082133
:1021600000F013F804F00102042100F00EF801223F
:1021700000F00AF83220FFF7F5FE002200F004F824
:10218000BDE832403220EDE64021284600F00FB98C
:102190001CB500BF0BA31C6800940229A8BF002136
:1021A000074A1171D0701DF80110081840F0800026
:1021B000C0B2FFF78DFF13BD14E000E0000802403D
:1021C000480000200040145438B50446FFF7C4FE10
:1021D00014F1010F054602D0044801786418FFF796
:1021E000BBFE401BA042FAD331BD00BF000000205F
:1021F0002DE9F84F0022704CDFF8C0814FF00F0935
:1022000001230F6893401F409F4240F0CA804FEA6D
:10221000420C032505FA0CF56FEA050E4D6805F032
:102220000306012E1CBF05F00305022D10D18568A1
:10223000CE680EEA050506FA0CF63543856045685A
:1022400025EA03034D68C5F3001595402B43436011
:1022500093000D7905F00305032D1ED0C5688E6827
:102260000EEA050506FA0CF63543C5600D7905F052
:102270000305022D11D1D50800EB850503F01C06DE
:10228000D5F820B009FA06FA2BEA0A0BD1F810A00B
:102290000AFA06F646EA0B062E6205680EEA0506FD
:1022A0000D7905F0030505FA0CF545EA060CC0F8B2
:1022B00000C04D6815F4403F73D04FF0000ECDF8CC
:1022C00000E04FEA920CD8F8005045F48045C8F879
:1022D000005003F00C03D8F800E0394D0EF4804EA6
:1022E000CDF800E0DDF800E055F82C6009FA03F5C0
:1022F000AE43344DA84208BF4FF0000E2AD0324DF5
:10230000A84208BF4FF0010E24D0304DA84208BFAC
:102310004FF0020E1ED02E4DA84208BF4FF0030E04
:1023200018D02C4DA84208BF4FF0040E12D02A4DF1
:10233000A84208BF4FF0050E0CD0284DA84208BF98
:102340004FF0060E06D0264DA8420CBF4FF0070EE8
:102350004FF0080E0EFA03F3DFF864E033434EF853
:102360002C30FE43A3684D683340ED0248BF3B4329
:10237000A360E3684D683340AD0248BF3B43E36070
:1023800063684D683340AD0348BF3B4363602368D7
:1023900006EA030C4B68DB0348BF47EA0C0CC4F8A1
:1023A00000C0521C0F2A7FF62BAFBDE8F18F02B997
:1023B0000904816170470000003C0140443802403C
:1023C00008380140000002400004024000080240BA
:1023D000000C0240001002400014024000180240AD
:1023E000001C02402DE9F04104000E4654D0404F3D
:1023F000386800F00700B04202D200F073F84BD109
:1024000020683C4D810712D5400703D5A96841F4E7
:10241000E051A9602078010703D5A86840F4604026
:10242000A860A968A06821F0F0010143A9602178A3
:10243000C80729D56068012802D129688A0305E008
:10244000022818BF032803D129688A0103D423E096
:1024500029688A0720D5A968890840EA8100A86010
:10246000FFF77AFD8046A868616800F00C00B0EBC9
:10247000810F09D0FFF770FDA0EB080041F2893110
:102480008842F0D303202BE0386800F00700864232
:1024900004D200F027F801D0012021E02078420783
:1024A00005D5A968E06821F4E0510143A9602178CD
:1024B000080706D5A968206921F4604141EAC001F6
:1024C000A96000F01FF8AA680B490C4BC2F3031275
:1024D000895CC84018600A48006800F043F8002092
:1024E000BDE8F0813E70396801F00701B1427047E4
:1024F000003C024000380240082900080C0000207F
:102500000800002030B5144C606800F00C0004286E
:1025100002D0082802D01DE0104830BD2268206893
:102520000023410202F03F0204D525680B49C5F3A0
:10253000881003E020680A49C0F38810A1FB00015D
:10254000FFF7F0FA2168C1F30141491C4900B0FBD3
:10255000F1F030BD024830BD0438024000127A006C
:102560000024F40038B50D4D0D4B2A7804464FF485
:102570007A711868B1FBF2F2B0FBF2F000F046F8A5
:1025800050B9102C08D2002221464FF0FF3000F045
:1025900020F8AC60002032BD012032BD00000020D8
:1025A0000C0000200901020002D421488154704728
:1025B000204B02F00F021A4402F8041C70471E4917
:1025C0000A6860F30A2240F2FA5060F31F420A6080
:1025D000704770B5184B1C68C4F302230124C3F183
:1025E0000705052D2EBF0F2504FA05F56D1E1E1DCE
:1025F000072E34BF0023DB1E2940994004FA03F361
:10260000BDE870405B1E1A401143CBE7401EB0F19D
:10261000807F01D3012070470849094A48600023A0
:10262000F02010708B6007200860002070470000C9
:1026300000E400E018ED00E00CED00E010E000E048
:1026400023ED00E030B585B000F088F800F021F807
:1026500000F09EF8FFF7ADFCFFF7FDFC35A200216E
:102660000020FFF701FD002437A5E2B229466846A5
:1026700000F0CEF8641CE0B26428A8BF00246A46CB
:1026800001210020FFF7F0FC4FF47A70FFF79CFD6A
:10269000EBE780B592B03021002206A800F0D8F810
:1026A0001421002201A800F0D3F8002000901E4859
:1026B000016841F080510160006800F08050009096
:1026C0000020009900901948016841F480410160A0
:1026D0000121006800F4804000900220009A0991D6
:1026E00010220A92069000220D920C9040220F9226
:1026F0000821109004220E91119206A8FFF7A4FA67
:1027000008B100F015F8022102910F2001909022EB
:10271000002103920491059101A8FFF763FE08B11F
:1027200000F006F813B000BD4038024000700040D1
:1027300072B6FEE74D435520696E20494F54206123
:102740007070732000000000436F756E7465723AFC
:1027500020253033642020200000000080B50B4885
:10276000016841F400710160026842F48062026015
:10277000016841F4807101600320FFF720FF0F2002
:10278000FFF7F0FE00F06EF8002002BD003C0240B2
:1027900010B586B01421002201A800F059F80021DC
:1027A00019481A4C0091026842F0800202600168E8
:1027B00001F0800100910021009A0091036843F02C
:1027C00004030360016801F0040100910021009AF4
:1027D00000910022036843F0010303607F21006839
:1027E00000F00100009000982046FFF7E0FD7F20F8
:1027F00001210190029100220392049201A9204636
:10280000FFF7F6FC06B010BD303802400008024069
:102810000CB430B583B00A4606A9029104460025DF
:102820000194009502AB01A9084878441E30FDF7D9
:10283000AEFC019A157000284EBF04460198041B97
:10284000204603B030BC5DF80CFB00BF5BE8FFFF27
:102850004018491C1CBFB1F1010100F8012DF9D14C
:102860007047000081B0002000900B48416841F49F
:1028700080414160416801F4804100910021009A4B
:102880000091036843F080530360006800F08050BB
:102890000090009801B070474038024010B50749D9
:1028A00079441831064C7C44163404E00A68081D4B
:1028B000114488470146A142F8D110BD2C00000008
:1028C000380000004EF68851CEF20001086840F44E
:1028D00070000860BFF34F8FBFF36F8F4FF0017030
:1028E000E1EE100A704700006FE7FFFFF4010000FF
:1028F00076000000000000200248016841F47001E9
:102900000160704788ED00E000000000000000005A
:10291000010203040607080900F00DF8002801D0A1
:10292000FFF7BCFFAFF300800020AFF30080FFF79C
:1029300089FE00F002F80120704700F001B80000A5
:1029400007463846FFF776F9FBE7000005480146E1
:1029500003B4684680F30988AFF30080FFF7B2FF45
:10296000FFF7DAFFA5EDF5FEFEE7FEE7FEE7FEE77F
:10297000FEE770477047704700F000B802484168B2
:1029800002788A18426070470000002001488047A2
:1029900001480047F92800084D290008FFF7FEBF4D
:1029A000FFF7FEBFFFF7FEBFFFF7FEBFFFF7FEBF5B
:1029B000FFF7FEBFFFF7FEBFFFF7FEBFFFF7FEBF4B
:1029C000FFF7FEBFFFF7FEBFFFF7FEBFFFF7FEBF3B
:1029D000FFF7FEBFFFF7FEBFFFF7FEBFFFF7FEBF2B
:1029E000FFF7FEBFFFF7FEBFFFF7FEBFFFF7FEBF1B
:1029F000FFF7FEBFFFF7FEBFFFF7FEBFFFF7FEBF0B
:102A0000FFF7FEBFFFF7FEBFFFF7FEBFFFF7FEBFFA
:102A1000FFF7FEBFFFF7FEBFFFF7FEBFFFF7FEBFEA
:102A2000FFF7FEBFFFF7FEBFFFF7FEBFFFF7FEBFDA
:102A3000FFF7FEBFFFF7FEBFFFF7FEBFFFF7FEBFCA
:102A4000FFF7FEBFFFF7FEBFFFF7FEBFFFF7FEBFBA
:102A5000FFF7FEBFFFF7FEBFFFF7FEBFFFF7FEBFAA
:102A6000FFF7FEBFFFF7FEBFFFF7FEBFFFF7FEBF9A
:102A7000FFF7FEBFFFF7FEBFFFF7FEBFFFF7FEBF8A
:102A8000FFF7FEBFFFF7FEBFFFF7FEBFFFF7FEBF7A
:102A9000FFF7FEBFFFF7FEBFFFF7FEBFFFF7FEBF6A
:102AA000FFF7FEBFFFF7FEBFFFF7FEBFFFF7FEBF5A
:102AB000FFF7FEBFFFF7FEBFFFF7FEBFFFF7FEBF4A
:102AC000FFF7FEBFFFF7FEBFFFF7FEBFFFF7FEBF3A
:102AD000FFF7FEBFFFF7FEBFFFF7FEBFFFF7FEBF2A
:102AE0000001F9000010FC001E24F400261200086A
:102AF00026120008261200082612000826120008D6
:102B00002612000826120008F8FF0B2611000826DE
:0B2B100012000826120008FAFFF20075
:040000050800294D79
:00000001FF
