:020000040800F2
:100000008807002055020008B1170008691600088B
:10001000AD17000801040008F51D000800000000ED
:10002000000000000000000000000000191C000893
:100030000504000800000000B51700081D1C00089A
:100040006F0200086F0200086F0200086F020008CC
:100050006F0200086F0200086F0200086F020008BC
:100060006F0200086F0200086F0200086F020008AC
:100070006F0200086F0200086F0200086F0200089C
:100080006F0200086F0200086F0200086F0200088C
:100090006F0200086F0200086F0200086F0200087C
:1000A0006F0200086F0200086F0200086F0200086C
:1000B0006F0200086F0200086F0200086F0200085C
:1000C0006F0200086F0200086F0200086F0200084C
:1000D000B91700086F0200086F0200086F020008DD
:1000E0006F0200086F0200086F0200086F0200082C
:1000F0006F0200086F0200086F0200086F0200081C
:100100006F0200086F0200086F0200086F0200080B
:100110006F0200086F0200086F0200086F020008FB
:100120006F0200086F0200086F0200086F020008EB
:100130006F0200086F0200086F0200086F020008DB
:100140006F0200086F0200086F0200086F020008CB
:100150006F0200086F0200086F0200086F020008BB
:100160006F0200086F0200086F0200086F020008AB
:100170006F0200086F0200086F0200080000000014
:100180006F0200086F02000800F002F800F052F859
:1001900014A696E8000CB244B344DA4501D100F04D
:1001A00049F8BAE80F000FA696E83000A5EB040561
:1001B00004EB0607AAEB0704A7F101074FEA1515A0
:1001C0004FEA3414A4F10104AC4201D300F032F838
:1001D00013F0010F18BFFB1A43F0010300F001F800
:1001E000DBE71847C81C0000E81C0000103A24BFD9
:1001F00078C878C1FAD8520724BF30C830C144BF8C
:1002000004680C6070470000704700000023002461
:1002100000250026103A28BF78C1FBD8520728BF16
:1002200030C148BF0B6070471FB501F026FE1FBDEF
:1002300010B510BD00F0A9F81146FFF7F5FF01F069
:10024000DBFD00F0C7F803B4FFF7F2FF03BC00F0DA
:10025000CFF800000948804709480047FEE7FEE75D
:10026000FEE7FEE7FEE7FEE7FEE7FEE7FEE7FEE766
:1002700004480549054A064B70470000F11C000878
:1002800089010008880100208807002088030020D9
:100290008803002053EA020C00F069802DE9F04B3E
:1002A0004FF00006002B1FBFB3FA83F503FA05F4E5
:1002B00024FA05F65E4012BF1643B2FA82F502FA3E
:1002C00005F4C5F120051EBF22FA05FC44EA0C0422
:1002D000203556EA044C4FEA144418BF641C4FF012
:1002E00000084FF00009904271EB030C39D300294C
:1002F00019BFB1FA81F701FA07F6B0FA80F700FAF0
:1003000007F6C7F120071EBF20FA07FC46EA0C06D5
:100310002037B6FBF4FCA7EB0507103F07F01F0BD7
:10032000CBF120062CFA06F60CFA0BFB44BFB346C1
:100330000026202FA4BF5E464FF0000B5BEA060CA0
:1003400008BF4FF0010B19EB0B0948EB0608ABFB9C
:10035000027C06FB02CC0BFB03CCC01B71EB0C0137
:10036000C1E70B46024641464846BDE8F08B13B54F
:10037000084318BF4FF0FF300146AFF30080BDE8DF
:100380001C407047704770477047754600F02CF866
:10039000AE4605006946534620F00700854618B072
:1003A00020B5FFF765FFBDE820404FF000064FF095
:1003B00000074FF000084FF0000BAC46ACE8C00956
:1003C000ACE8C009ACE8C009ACE8C00921F00701FD
:1003D0008D46704710B50446AFF300802046BDE857
:1003E0001040FFF730BF00000048704718000020A1
:1003F00001491820ABBEFEE726000200704700004E
:10040000FEE700007047000072B600BFFEE7000084
:1004100090F83510022909D1052180F835100068BF
:10042000016821F0010101600020704780214165D1
:10043000012070472DE9F04F82B000F13E4707F1EF
:10044000FF77860546EA972741F60046C4F2020682
:10045000082243F6004EB04208BF0722C4F2010E44
:10046000072F38BF3A46002600274FF000080092B9
:1004700009E000BF08F101080237B8F1100F06F1DA
:10048000040600F0A3800D68012202FA08F415EAC0
:100490000409EFD0D1F804B003220BF0030CACF147
:1004A0000105BA40012D6FEA020A0FD88268CD68B3
:1004B00002EA0A02BD402A4382604268A243CBF3AB
:1004C000001404FA08F42243426005E0BCF1030F73
:1004D00002D14FF0030C1EE0C2688C6802EA0A02E7
:1004E000BC402243BCF1020FC26014D16FF0030282
:1004F00002EA58020244D2F820C006F01C040F237E
:100500000D69A3402CEA0303A5402B431362D1F8E5
:1005100004B00BF0030C02680CFA07F302EA0A02BB
:100520001A431BF4403F0260A4D0002243F6440368
:100530000192C4F202031A684FF6084C42F480425A
:100540001A601A68CFF6FF7C02F480420192019A89
:1005500028F00302724452F80C3006F00C050F2408
:10056000AC40A343009C04FA05F52B4342F80C3041
:10057000DEF808204B6842EA090543F60C4CDC0221
:1005800058BF22EA0905CEF80850C4F2010CDCF885
:1005900000209C0242EA090558BF22EA0905CCF86E
:1005A0000050DEF804209C0342EA090558BF22EA05
:1005B0000905CEF80450DEF80020DB0342EA090505
:1005C00058BF22EA0905CEF8005053E702B0BDE853
:1005D000F08F000040F28010C2F200000068704707
:1005E00040F2000040F28011C2F20000C2F20001AD
:1005F00000780A68104408607047000080B543F630
:100600000040C4F20200016841F400710160016819
:1006100041F480610160016841F480710160032050
:1006200000F086F80F2000F005F800F027F8002011
:1006300080BD000070B540F20006C2F2000640F234
:1006400008013278C2F200014FF47A730968B3FBF3
:10065000F2F20446B1FBF2F1084600F0CDFE0F2C99
:100660004FF0010508D838B94FF0FF30214600227D
:10067000002500F031F87460284670BD82B000207B
:1006800043F640010190C4F202014A6842F48042FC
:100690004A604A6802F480420192019A0090086818
:1006A00040F080500860086800F08050009000988A
:1006B00002B07047002848BF704700F01F010122B8
:1006C00002FA01F11C2202EAD0004EF20012CEF230
:1006D000000281507047000010B54EF60C5CCEF25F
:1006E000000CDCF80030C3F3022E8EF00704042C5B
:1006F00028BF0424BEF103034FF0FF3E0EFA04F4BA
:1007000038BF0023A14399400EFA03F39A431143E3
:1007100000F00F0200F160430901043A03F564435D
:100720006244002848BF02F10C03197010BD00009C
:100730004EF60C51CEF200010A684FF6FF031A4044
:1007400060F30A2242F0806040F0FD70086070475C
:10075000002804BF012070472DE9F04143F6080846
:10076000C4F202080446D8F8F8030D4600F007006A
:10077000884207D288F8F853D8F8F80300F0070049
:10078000A84277D12068810717D5410705D5D8F849
:10079000001041F4E051C8F80010010705D5D8F861
:1007A000001041F46041C8F80010D8F80010A268A9
:1007B00021F0F0011143C8F80010C00740D1D8F86B
:1007C000F80300F00700A84207D988F8F853D8F8D2
:1007D000F80300F00700A8424CD12068410707D574
:1007E000D8F80010E26821F4E0511143C8F8001075
:1007F000000708D5D8F80000216920F4604040EADD
:10080000C100C8F8000000F07DF8D8F8001041F6EB
:100810009462C1F30311C0F60002515C40F2080279
:1008200020FA01F140F20400C2F200000068C2F2B6
:1008300000021160FFF7FEFE0020BDE8F08100BF5E
:100840006068811E022907D258F8081C89015CBF24
:100850000120BDE8F08111E0012807D158F8081CFB
:1008600089035CBF0120BDE8F08107E058F8081C4F
:10087000890703D40120BDE8F08100BFD8F800103B
:1008800021F003010843C8F80000FFF7A3FE064665
:1008900041F28837D8F80000616800F00C00B0EB36
:1008A000810F8CD0FFF796FE801BB842F2D903204F
:1008B000BDE8F08140F2080043F60801C2F20000F2
:1008C000C4F202010068096841F6A462C1F3822102
:1008D000C0F60002515CC8407047000040F20800BA
:1008E00043F60801C2F20000C4F202010068096880
:1008F00041F6A462C1F34231C0F60002515CC84027
:100900007047000010B543F60404C4F202046068A6
:1009100000F00C0142F200400829C0F2F40007D0B8
:10092000042918BF10BD41F20020C0F27A0010BDAA
:10093000216801F03F02216823684902C3F388114E
:1009400006D4A1FB00010023FFF7A4FC07E000BFD1
:1009500041F20020C0F27A004843B0FBF2F0216877
:100960000222C1F3014102EB4101B0FBF1F010BDE5
:10097000002804BF012070472DE9F04182B00446F1
:10098000007843F60006C007C4F202060CD0B06837
:1009900000F00C00042840F081803068800303D50B
:1009A0006068002800F06A81207880071BD5B06855
:1009B00010F00C0F09D0B06800F00C00082840F0CF
:1009C00087807068400200F183803068800703D51B
:1009D000E068012840F052813068216920F0F80079
:1009E00040EAC10030602078000713D42078400727
:1009F0002AD4A569002D00F03C81B06800F00C00FD
:100A0000082840F0A180012D40F01081012002B0A3
:100A1000BDE8F0816069002840F20000C4F2472080
:100A200000F07E800121C0F8801EFFF7D3FD05464F
:100A3000706F8007DAD4FFF7CDFD401B0228F7D98D
:100A4000032002B0BDE8F081306C5FEAC0080AD430
:100A500000200190306C40F080503064306C00F029
:100A600080500190019847F20007C4F200073868EF
:100A7000C00547D4386840F480703860FFF7AAFD9D
:100A8000054600BF3868C0053CD4FFF7A3FD401BF6
:100A90000228F7D9032002B0BDE8F081B06800F069
:100AA0000C00082803D1706840023FF576AF6068FB
:100AB000B0F5803F07D0B0F5A02F40F09B803068A4
:100AC00040F480203060306840F4803030609BE03B
:100AD000E06800285CD00020C4F2472001210160BA
:100AE000FFF778FD054600BF306880073FF574AF1B
:100AF000FFF770FD401B0228F6D9032002B0BDE8C5
:100B0000F08100BFA068012805D0052854D1306FBE
:100B100040F004003067306F40F00100306755E06E
:100B20000021C0F8801EFFF755FD0546706F800755
:100B30007FF55CAFFFF74EFD401B0228F6D903207E
:100B400002B0BDE8F08100BF0027C4F247270020B3
:100B50003866FFF73FFD022D05460DD13068800154
:100B600040F19080FFF736FD401B02284FF0030054
:100B7000F4D902B0BDE8F0813068800179D5FFF783
:100B800029FD401B02284FF00300F5D9F1E700BF13
:100B90000020C4F2472000210160FFF71BFD05463D
:100BA000306880077FF51FAFFFF714FD401B022858
:100BB0004FF00300F4D9DCE7316F002821F0010188
:100BC0003167316F21F0040131677DD0FFF702FDFD
:100BD000054641F2883700BF306F800700F18680FC
:100BE000FFF7F8FC401BB842F6D9032002B0BDE87D
:100BF000F08100BF3168002821F480313160316814
:100C000021F4802131607BD0FFF7E4FC054600BF72
:100C1000306880033FF5C8AEFFF7DCFC401B64285A
:100C2000F6D9032002B0BDE8F08100BF7068E16929
:100C300000F480028A4221D1216A00F03F028A42F8
:100C40001CD147F6C071626A0140B1EB821F15D119
:100C5000A16A4FF6FF73C903994300F44032A1F52E
:100C600080318A420AD1E16A00F07060B0EB016F16
:100C700004D1002002B0BDE8F08100BF012002B025
:100C8000BDE8F08104F11C052FCD084340EA821035
:100C9000D9034FF6FF729143A1F5803140EA056018
:100CA0000843706001203866FFF794FC044600BFDB
:100CB00030688001DDD4FFF78DFC001B02284FF067
:100CC0000300F5D955E700BFFFF784FC054641F264
:100CD000883700BF306F800708D5FFF77BFC401BCB
:100CE000B8424FF00300F5D943E700BFB8F1000F59
:100CF0003FF57FAE306C20F08050306479E600BF65
:100D0000FFF768FC054600BF306880037FF54CAEF6
:100D1000FFF760FC401B64284FF00300F4D928E77C
:100D200070470000B0B582B0044600684168826830
:100D300002F04103012B09D111F0400306D0216CD0
:100D4000204602B0BDE8B040084700BF930709D570
:100D500011F0800306D0616C204602B0BDE8B040BF
:100D6000084700BF12F4B07F18BF11F0200301D173
:100D700002B0B0BD530618D594F85130032B09D1F9
:100D800000210191C168019180680190019802B031
:100D9000B0BD00BF636D43F004036365002301939E
:100DA000C368019383680193019B930604D4D20521
:100DB00011D4626DDAB9DBE7636D43F0010363655B
:100DC0000023019383680193036823F040030360C9
:100DD000019BD205EDD5626D42F0080262650022EA
:100DE000019282680192019A626D002AC0D0426825
:100DF000890722F0E00242604FF0010284F851209E
:100E000020D0416841F6AD2521F003014160E06C3E
:100E1000C0F6000538B10565FFF7FAFA18B1606D44
:100E200040F040006065A06C0028A1D00565FFF788
:100E3000EFFA00289CD0606D40F04000606502B081
:100E4000B0BD00BF204602B0BDE8B040FFF768BFAC
:100E500070B538B10446406A30B10020206104F119
:100E6000140007E0012070BD6068B0F5827F03D0F8
:100E700004F11C00002101600026A66294F85100D4
:100E800020B9204684F8506000F03CF8022084F835
:100E9000510094E80F0001F48271056802F40442E5
:100EA00025F040050560114403F4006223691144F4
:100EB00003F002026369114403F00102A369E569CA
:100EC000114403F40072114405F03802256A1144FC
:100ED00005F08002A56A114305F400521143016038
:100EE000626A042101EA134102F0100211444160D8
:100EF000C16921F40061C1610120666584F8510077
:100F0000304670BD2DE9F04387B0006843F600011C
:100F1000C4F2000100258842CDE90555CDE903550D
:100F2000029531D043F20001C4F20101884276D12A
:100F3000002043F630010190C4F202014A6942F4F4
:100F400080524A614A6902F480520192019A0190EA
:100F50000A6842F001020A60096801F0010101918A
:100F60000199A02102910221CDE9031003200590EF
:100F7000052006900020C4F2020002A9FFF75AFAE9
:100F800007B0BDE8F08300BF43F630000195C4F21E
:100F900002000169002741F4804101610169C4F246
:100FA000020701F48041019101990195016802ACA9
:100FB00041F00401016001684FF0020801F00401F2
:100FC00001910199019501684FF0030941F0020177
:100FD00001600068052600F00200019001980420DD
:100FE000029007F500602146CDE90385CDF8149005
:100FF0000696FFF71FFA4FF48060CDE9020807F567
:1010000080602146CDE904590696FFF713FA2420A3
:1010100000210022FFF760FB2420FFF74BFB07B005
:10102000BDE8F08390F85130012B1CBF02207047BF
:10103000B0B5D0F808E0BEF1000F49D14368B3F570
:10104000827F45D1042380F8513090F85130042B31
:1010500001D0012B4BD100294FF0010318BF002A0A
:101060003CD084461CF8503F012B40D0012380F82F
:10107000503090F8513041F2F57E042B1CBF05230F
:1010800080F851300023436501638286C286816304
:101090008287C287C26841F2C573C0F6000EC0F6EF
:1010A0000003002A41F62902016808BF734641F691
:1010B000590EC0F60002C0F6000E08BF7246C0E925
:1010C0001032086840064FF0E0003FD542E000BF14
:1010D00000294FF0010318BF002A03D1BDE8B0403A
:1010E0001846704784461CF8503F012B04D1022358
:1010F000BDE8B04018467047042380F85130002303
:10110000436581638287C28703638386C386C2681F
:1011100041F6B925016841F6D924C0F60005002A38
:10112000C0F6000408BF2546BEF5004FC0E91053C5
:1011300007D1086820F040000860086820F480406B
:101140000860086840064FF0600003D40A6842F067
:1011500040020A6000238CF800304A68104348605F
:10116000BDE8B0401846704740F27900C2F2000076
:1011700001210170704700002DE9F04184B01D4647
:1011800016460F460446FFF725FA94F85110012938
:101190000ED18046002F4FF0010018BF002E03D162
:1011A00004B0BDE8F08100BF94F85000012803D1DD
:1011B000022004B0BDE8F081012084F85000032033
:1011C000002184F8510061652763A686E686A16345
:1011D000A187E187A0682164B0F5004F20686164B1
:1011E00007D1016821F040010160016841F48041AC
:1011F00001600168490603D4016841F040010160C3
:101200006168731EE268B1FA81F1B3FA83F34909A8
:101210005B09B2F5006F41EA030139D131B137F80A
:10122000021BC1602763E08E0138E086E08E002853
:1012300070D0681C0BD11AE0216B31F8022BC26010
:101240002163E08E0138E086E08E002862D02068BD
:1012500081688907F0D4FFF7BDF9A0EB0800A84228
:10126000F2D338E0FFF7B6F9E08E002852D02068BC
:1012700081688907F6D5216B31F8022BC2602163A2
:10128000E08E0138E086E08E0028F0D142E000BF19
:1012900039B139780173206B01302063E08E013859
:1012A000E086E08EB0B3681C0BD123E0216B097897
:1012B0000173206B01302063E08E0138E086E08E00
:1012C00040B3206881688907F0D4FFF783F9A0EB69
:1012D0000800A842F3D3012084F85100002084F8CC
:1012E0005000032004B0BDE8F08100BFFFF772F9A1
:1012F000E08E78B1206881688907F7D5216B09787D
:101300000173206B01302063E08E0138E086E08EAF
:101310000028EFD12046022101222B46CDF8008083
:1013200000F0EAFBE0B1606D40F020006065202035
:101330006065A06838B9002002902068C1680291F9
:10134000806802900298012084F85100002084F8FF
:101350005000606D002818BF012004B0BDE8F08186
:1013600040F20800C2F20000006849F68171C1F243
:101370005E61A0FB0101480D4FF47A714843039070
:101380006068B0F5827F0BD12046802100222B4679
:10139000CDF8008000F0B0FB0028C4D1C9E700BF41
:1013A00003980028C5D0039801380390206880680E
:1013B0000006BED503980028BBD0039801380390DF
:1013C000206880680006B4D503980028B1D003983F
:1013D00001380390206880680006AAD50398002889
:1013E000A7D0039801380390206880680006D7D4FE
:1013F0009FE7000070470000411E0020B0EB116F16
:101400001CBF012070474EF21002CEF20002516064
:101410004EF62351CEF20001F0230B7007219060AD
:1014200011607047002804BF0120704710B50446C2
:1014300090F8410028B9002084F84000204600F0D0
:1014400021F8242084F841002068C16821F400516B
:10145000C160204600F056FC2068016921F49041EB
:101460000161416921F02A014161C16841F40051E3
:10147000C16000202021606484F8411084F842108B
:10148000606310BD016841F20000C4F201008142B6
:1014900018BF704780B586B0002143F63002019135
:1014A000C4F20202536900F5704043F01003536127
:1014B000536903F010030193019B0191136843F0FA
:1014C00001031360126802F001020192019A4FF4C5
:1014D000C06201920222CDE9022103210491072179
:1014E000059101A9FEF7A6FF06B0BDE88040704750
:1014F0002DE9F041044690F8410020281CBF02204D
:10150000BDE8F0810D4600294FF0010000F0AA80EF
:101510001646002A08BFBDE8F08100206064212043
:10152000984684F84100FFF755F8A684E684A16840
:101530000646B1F5805F02D12069002862D02F46AF
:101540000025E08C002861D018F1010018D0B8F116
:10155000000F37D1216808E017F8010B4860E08CD4
:101560000138E084E08C002851D00868000673D56B
:10157000002FF1D135F8020B00276FF35F20EDE764
:10158000216802E00868000609D40868000606D44D
:10159000086800065CBF08685FEA0060F2D51FB10A
:1015A00017F8010B05E000BF35F8020B00276FF3B9
:1015B0005F204860E08C0138E084E08C0028E4D1B2
:1015C00025E000BF216800BF0868000608D4FFF7C7
:1015D00001F8801B404541D82168C868F4E700BF86
:1015E00017B117F8010B04E035F8020B00276FF371
:1015F0005F204860E08C0138E084E08C0028E3D173
:1016000005E000BF0027E08C00289DD12168086814
:1016100040061FD4B8F1000F1ED018F101000FD101
:101620000868400616D40868400613D408684006C7
:1016300010D4086840064FF00000F1D50FE000BF5D
:10164000FEF7C8FF801B404508D82068C1680068C5
:101650004006F5D5002002E0FEF7BCFF0320202164
:1016600084F84110BDE8F081FEE7000081B0002061
:1016700043F630010090C4F202010A6842F0800291
:101680000A600A6802F080020092009A00900A68DC
:1016900042F004020A600A6802F004020092009A12
:1016A00000900A6842F001020A600A6802F0010232
:1016B0000092009A0090086840F0020008600868F4
:1016C00000F002000090009801B0704770B540F241
:1016D000840043F2000CC2F20000C4F2010C4FF48B
:1016E00082724FF4004300214FF0020E01244FF4A8
:1016F00000752826C0E900C20A22C0E90231C0E90B
:1017000004E4C0E90656C0E90811C0E90A12FFF76F
:101710009FFB002808BF70BDBDE87040FEF774BE97
:1017200010B540F2DC0043F60001C2F20000C4F242
:10173000000100224FF4004380E80E0000F10C018C
:101740004FF0020C4FF0010E4FF4007481E804508A
:101750000A218461C0E90822C0E90A21FFF778FB69
:10176000002808BF10BDBDE81040FEF74DBE0000C8
:1017700080B540F2341041F20001C2F20000C4F220
:10178000010100234FF00C0C4FF4E13280E80E0011
:10179000C0E90333C0E905C3C361FFF743FE002876
:1017A00008BF80BDBDE88040FEF72EBEFEE700000A
:1017B000FEE700007047000040F2DC00C2F20000CB
:1017C000FFF7B0BA0168826BCB6822F8023B8263F4
:1017D000C28F013AC287C28F002A18BF70474A6879
:1017E00022F040024A60C18E002908BF00F04EB8C6
:1017F000704700000168097B826B1170816B0131B9
:101800008163C18F0139C187C18F002918BF70471B
:1018100001684A6822F060024A60C18E002908BF50
:1018200000F034B870470000026B016832F8023BE8
:10183000CB600263C28E013AC286C28E002A18BFF4
:1018400070474A6822F080024A60C18F002908BFB1
:1018500000F01CB870470000016B02680978117332
:10186000016B01310163C18E0139C186C18E00292E
:1018700018BF704701684A6822F080024A60C18F31
:10188000002908BF00F002B87047000070B584B0AE
:1018900040F20806C2F20006316841F6F112C0F2C9
:1018A0007652A1FB02120446500A6421484302907A
:1018B000FEF790FE216805464A6822F02000486045
:1018C0000298F8B1029801380290886880071DD408
:1018D0000298B8B10298013802908868800715D440
:1018E000029878B1029801380290886880070DD478
:1018F000029838B102980138029088688007DFD5D5
:1019000004E000BF606D40F02000606520460221C9
:1019100001226423009500F0EFF8B8B1606D40F04B
:1019200020006065606D40F020006065A0680028C0
:1019300050D0606D002858D00121204684F8511005
:1019400004B0BDE87040FFF7EBB900BF306849F65E
:101950008171C1F25E61A0FB0101480D4FF47A7103
:10196000484303906068B0F5827F09D1204680210A
:1019700000226423009500F0BFF80028CED1D5E7FF
:1019800003980028D2D0039801380390206880681B
:101990000006CBD503980028C8D0039801380390DF
:1019A000206880680006C1D503980028BED003983F
:1019B00001380390206880680006B7D50398002896
:1019C000B4D0039801380390206880680006D7D40B
:1019D000ACE700BF002001902068C16801918068D9
:1019E00001900198606D0028A6D194F85100012162
:1019F0000428204684F8511004D104B0BDE870409A
:101A0000FFF7B2BB04B0BDE87040FFF7F3BC0000C5
:101A100010B582B004460068416821F06001416061
:101A2000FEF7D8FD61688446B1F5827F0ED1A068CB
:101A3000B0F5004F02D0B0F5806F0BD12168B0F542
:101A4000806F0A6822F040020A6003D1204601211B
:101A500002E000BF2046802100226423CDF800C0B0
:101A600000F04AF838B1606D40F020006065606DAC
:101A700040F020006065A06838B90020019020681F
:101A8000C1680191806801900198012084F851009B
:101A9000606D28B1204602B0BDE81040FFF740B9A4
:101AA000204602B0BDE81040FFF75EBB806B00210E
:101AB000C187C186FFF734B90168826BC96822F813
:101AC000021B8263C18F0139C187C18F002918BFF2
:101AD0007047FFF79DBF00000168097B826B1170A2
:101AE000816B01318163C18F0139C187C18F0029A9
:101AF00018BF7047FFF78CBF2DE9F04381B0089CF9
:101B0000984615460E468146FEF764FD201A00EB06
:101B10000804FEF75FFD40F20801C2F20001096807
:101B2000C1F3CB3161430091D9F800108A6832408B
:101B3000921BB2FA82F25209AA423DD0074618F12E
:101B4000010031D0FEF746FDC01BA04238D20098FC
:101B500000990028A1F101010091D9F800108968CD
:101B600008BF044601EA0600801BB0FA80F0400975
:101B7000A842E7D120E000BF88683040801BB0FA5F
:101B800080F04009A84217D088683040801BB0FA26
:101B900080F04009A8420FD088683040801BB0FA1E
:101BA00080F04009A84207D088683040801BB0FA16
:101BB00080F04009A842DFD1002001B0BDE8F083E9
:101BC000D9E900014268B1F5827F22F0E00242606B
:101BD0000BD1D9F80810B1F5004F02D0B1F5806FE4
:101BE00003D1016821F040010160D9F82810B1F556
:101BF000005F07D1016821F400510160016841F4E0
:101C000000510160012089F85100002089F850003E
:101C1000032001B0BDE8F0837047000080B5FEF7F7
:101C2000DFFC40F27C10C2F20000018801318AB270
:101C3000B2F57A7F018038BF80BD0021018040F27B
:101C40007800C2F200000121017080BDB0B592B0F1
:101C5000002443F64000CDE90A44CDE90844059448
:101C6000CDE90344CDE901440094C4F202000168C7
:101C7000022541F080510160006800F08050009022
:101C8000009847F200000094C4F20000016841F49B
:101C9000804101600068402100F48040009000987D
:101CA000012006904FF4803007904FF480000D9093
:101CB00004200E90119006A80C95CDE90F15FEF7A3
:101CC00057FE18B172B600BFFEE700BF0F20CDE986
:101CD00001059020CDE9030401A800210594FEF739
:101CE00037FD18B172B600BFFEE700BF12B0B0BD3D
:101CF0004EF68850CEF20000016841F47001016098
:101D00007047000010B504460068D4E902C2236998
:101D1000016921F4405111430161626943EA0C01F8
:101D2000E3691143C268194349F20C639A431143B2
:101D3000C1604169A26921F4407141F2004311433D
:101D400040F48062C4F201039A42416102D1FEF77D
:101D5000C5FD01E0FEF7AEFDE16963681922B1F54A
:101D6000004FA0FB020123D15A00DB0FFEF792FACD
:101D700048F21F51C5F2EB11A0FB01235A094FF69F
:101D80009C73C0F6FF7303F1805302FB0300322300
:101D900003EBC000A0FB01014FF4F87000EA111042
:101DA00000EB0210C1F3421108442168886010BDA5
:101DB0009A009B0FFEF76EFA48F21F51C5F2EB1125
:101DC000A0FB01235A094FF69C73C0F6FF7302FB78
:101DD0000300322303EB0010A0FB0101F02000EA16
:101DE000511000EB0210C1F34311084421688860D0
:101DF00010BD0000FEE70000FEF700FCFFF726FF25
:101E0000FFF734FCFFF762FCFFF78AFCFFF7B0FC3A
:101E100040F27806C2F2000640F2DC08B41CC2F2BE
:101E20000008404621460822FFF7FCF840F234192A
:101E300040F2840A40F20C050027C2F20009C2F207
:101E4000000AC2F2000500BF307830B15046294682
:101E500008220A233770FFF78FF970780028F3D033
:101E60004046214608227770FFF7DCF848462146B5
:101E700008220A23FFF73CFBE6E7F1EE100A4FF6D3
:101E8000FF71C0F2C03120EA010040F04070E1EE85
:101E9000100A704700000000000000000102030467
:101EA000060708090000000001020304D01E000814
:101EB0000000002018000000EC010008E81E0008E7
:101EC00018000020700700000C020008000000004D
:101ED00001000000100000000024F40000010203D3
:081EE0000405060700000000E4
:040000050800018965
:00000001FF
