:020000040800F2
:10000000F0040020C53700083536000837360008F0
:10001000393600083B3600083D3600080000000075
:100020000000000000000000000000003F36000853
:10003000413600080000000043360008453600083D
:10004000DD370008E1370008E5370008E937000828
:10005000ED370008F1370008F5370008F9370008D8
:10006000FD37000801380008053800080938000885
:100070000D38000811380008153800081938000834
:100080001D380008213800082538000829380008E4
:100090002D38000831380008353800083938000894
:1000A0003D38000841380008453800084938000844
:1000B0004D380008513800085538000859380008F4
:1000C0005D380008613800086538000869380008A4
:1000D0006D38000871380008753800087938000854
:1000E0007D38000881380008853800088938000804
:1000F0008D380008913800089538000899380008B4
:100100009D380008A1380008A5380008A938000863
:10011000AD380008B1380008B5380008B938000813
:10012000BD380008C1380008C5380008C9380008C3
:10013000CD380008D1380008D5380008D938000873
:10014000DD380008E1380008E5380008E938000823
:10015000ED380008F1380008F5380008F9380008D3
:10016000FD38000801390008053900080939000880
:100170000D39000811390008153900080000000089
:10018000193900081D39000840F0200070472DE99A
:10019000F14FB0B0924604910DF142013A9A2B9181
:1001A00099464A7000200AE01AF8011B0498309A18
:1001B00090470028049000F044860D98401C0D9054
:1001C0009AF8000058B12528EED100200021002225
:1001D0000790089109920A910B920C9104E00D98F6
:1001E00000F031BE41F001011AF8010F2028F9D0CA
:1001F00023280CD02B2804D02D2805D0302809D056
:100200000BE041F00201EFE741F00401ECE741F0BF
:100210000801E9E741F01001E6E72A280FD1D9F8F3
:10022000002052F8040BC9F8002000280F9003D5D5
:1002300040420F9041F004010AF1010A14E00F92CC
:10024000DFF8082C0AE00F9B934205DA03EB8304E6
:1002500000EB440030380F900AF1010A9AF80000D0
:10026000A0F130030A2BEED39AF800202E2A03D0F7
:100270004FF0FF300E9029E01AF8010F2A2809D11B
:10028000D9F8002052F8040BC9F800200E900AF1AA
:10029000010A1BE02D280CBF0AF1010A00200022F0
:1002A0000E92DFF8A84B0BE040B90E9BA34205DA93
:1002B00003EB830502EB4502303A0E920AF1010A84
:1002C0009AF80020A2F130030A2BEDD3ADF84010CC
:1002D0000FF67C309AF8001000F0D2FE08B11AF840
:1002E000010B8DF842009DF84200682805D19AF86C
:1002F000001068290CD1622006E06C2804BF9AF82F
:1003000000106C2904D171208DF842000AF1010A15
:1003100012AA06921AF801BBBBF125002CD01C389A
:1003200000F09781001F022840F29381133800F0FB
:10033000BA84093800F08D81801E00F04F85401E80
:1003400000F0FC84401E022840F28381001F00F070
:10035000F584401F00F0F280401E00F0A484401E8F
:1003600000F0DA80C01E0ED0801E00F09C84C01EFB
:1003700000F0998400F03DBD0122252107928DF8FF
:10038000481000F042BDD9F8000050F8044BC9F8FD
:100390000000002C059440F0AB802B994878002891
:1003A00000F0A1804FF0FF340FF6AC2000F078FE93
:1003B000241A40F0468500F028BD01236A4602A9B0
:1003C000304600F00DFE002840F03B85641EF4D15D
:1003D0003096079C12AF74B1309E17F8011B049839
:1003E000B0470028049000F02C850D98401C641E36
:1003F0000D90F2D130960A9C3021002C8DF800101F
:100400000CDD309E01236A4602A9304600F0E8FD6B
:10041000002840F01685641EF4D13096059F089C94
:1004200074B1309E17F8011B0498B047002804905F
:1004300000F007850D98401C641E0D90F2D1309697
:100440000B9C3021002C8DF800100CDD309E012318
:100450006A4602A9304600F0C3FD002840F0F1844E
:10046000641EF4D1309605980899099C471874B118
:10047000309E17F8011B0498B0470028049000F044
:10048000E0840D98401C641E0D90F2D130960C9CB7
:100490003021002C8DF800100CDD309E01236A46BF
:1004A00002A9304600F09CFD002840F0CA84641E7A
:1004B000F4D130969DF8400041077FF581AE2020B1
:1004C000002D8DF800007FF77BAE309C01236A463B
:1004D00002A9204600F084FD002840F0B2846D1E81
:1004E000F4D130946CE60FF65830059000F08DBCD6
:1004F0000E9D002D04D5204600F0F2FD044608E0D4
:100500002A460021204600F0F5FD002814BF041BF8
:100510002C46089400F079BCD9F8001051F8040B6F
:10052000C9F8001020F00002002121F0FF33CDE9CE
:10053000022312AC0594782100F04CBC2B9948782A
:1005400020B14FF0FF340FF6C8202FE79DF842008E
:10055000622860D0682817D06A283FD06C2806D05F
:10056000712847D074282CD07A281DD062E0D9F8A1
:10057000001051F8040BC9F80010002866D14FF0A4
:10058000FF340FF6A42011E7D9F8001051F8040B3E
:10059000C9F8001020B94FF0FF340FF68C2005E7A2
:1005A0000D99018000F031BCD9F8001051F8040B0E
:1005B000C9F80010002849D14FF0FF340FF6682029
:1005C000F4E6D9F8001051F8040BC9F8001000281F
:1005D0003CD14FF0FF340FF65020E7E6D9F8001079
:1005E00051F8040BC9F8001080B94FF0FF340FF632
:1005F0003820DBE6D9F8001051F8040BC9F80010D8
:1006000020B94FF0FF340FF62020CFE60D9AD31714
:10061000C0E90023F9E3D9F8001051F8040BC9F838
:10062000001020B94FF0FF340FF6FC10BEE60D9914
:100630000170EAE3D9F8001051F8040BC9F8001072
:1006400020B94FF0FF340FF6E010AFE60D990160CE
:10065000DBE39DF842004C2807BFD9F80010CA1D03
:10066000D9F80000C21D22F00702C9F80020D2E923
:1006700000010832C9F80020CDE90201C80F02D0FC
:1006800007982D210AE0BDF84000810702D50798A0
:100690002B2103E0C00705D50798202112AA115489
:1006A000401C079012A807994BF0200300EB010CA7
:1006B000DDE90201CDE92C01612BCDF814C021AC9C
:1006C0000BD00E98002848BF062105D404BF4BF07C
:1006D0002000672801D101210E91DDE902014F00C0
:1006E00047EAD0777E15FF174FF0FF32974208BFD9
:1006F000964210D1090341EA10510003002908BFB6
:10070000002808D0ABF1610503211A2D089118D3F8
:100710000FF6341110E0DDE902014A00521512F122
:10072000010F11D108030FD1ABF1610503211A2D7F
:1007300008911FD30FF618110322604600F006FD42
:1007400063E30FF60011F7E7DDE902016A4600F006
:1007500051FDCDE902014BF02000612811D105982F
:1007600030220270811C0591BBF1610F0CBF782112
:10077000582102E00FF6D401DEE741700798801C93
:100780000790DDE9020120F0000231F0004308BFCC
:10079000002A02D10026002542E14BF02008B8F1E2
:1007A000610F40F092800E99002947BF21200190EF
:1007B000491C0191019FDDE92C017F1C00220023CF
:1007C000DDE9024500F04EFD38BF85F00045009898
:1007D0008DF88420001F002F00900DF1850632DD7A
:1007E000204629460022002300F056FD2BD21C2271
:1007F00000F06CFD04460D4600F006FEFF1F002FC2
:10080000804609DD00F01CFE02460B4620462946C4
:1008100000F0DEFE04460D46F01D0721B8F1000F82
:100820000CDD491E5EBF08F00F0200F8012D4FEAF3
:100830002818F3D502E0002200F8012D491EFAD550
:10084000C61D002FCCDC0DF18500361A01980DF184
:1008500085048642D8BF304600282FD4B04206DA3D
:100860000DF185010A5C082AA8BF0F2100DA0021DA
:10087000024621AB134400E0401E13F80159521EFA
:100880008D42F9D00F2904D10DF185018B5C5B1CE1
:100890008B54002A04D50099091D21AC401C0091FD
:1008A000411E0BD4621813783033DDB23A2DA4BF49
:1008B0005B443A3B491E02F80139F4D50E9A002AEE
:1008C00040F1AC80411E0E91A8E00099DFF80027AE
:1008D00047F29750414391FBF2F20092DDE92C453B
:1008E000C2F10702002A25F0004504DD2046294612
:1008F00000F04AFB0BE052420020DFF8D81600F06F
:1009000043FB02460B462046294600F0D3FE044630
:100910000D46B8F1660F06BF009F0A3706270E98EE
:100920003F18142FC8BF142730208DF884000DF114
:100930008506002F34DD2046294600F0DFFF014602
:100940000A4606F1080304200A26B2FBF6F606EB77
:10095000860EA2EB4E02303203F8012C0A22B6FBBF
:10096000F2F202EB820EA6EB4E063036401E03F882
:10097000026DE9D1083F002F03F10806D9DD0846D2
:1009800000F0CEFF02460B462046294600F020FE2E
:100990000022DFF8443600F0D1FF04460D46CAE7D6
:1009A0000DF18500361A0DF1850404E00098401E13
:1009B000761E0090641C20783028F7D0B8F1660FBE
:1009C00002D10098401C04E0B8F1650F0CBF012073
:1009D00000200E9940188642B8BF701E00281DD412
:1009E000B04204DA215C3429C8BF392100DC30214F
:1009F0000246631E9D1800E0401E15F80169521E54
:100A00008E42F9D0392902D1A15C491CA154002A97
:100A100004D50099491C1C46401C00910646009DC7
:100A200001F062F8406A0778DDF8388030B20028BB
:100A300002DC01260FF21C644BF02000662808BF80
:100A40006D1C16D0672845D128B210F1040F47DB82
:100A5000404545DA9DF840006D1C010703D430B2D3
:100A60004045D8BF804628B2B8EB000848BF4FF0D9
:100A700000080FFA85FBBBF1000F00F3B380089864
:100A8000411C0891302205990A54B8F1000F03DC8B
:100A90009DF84000010704D50898411C089105996C
:100AA0000F5418EB0B0FB8BFC8F100052DB2684208
:100AB000454432B20B909542B8BF2E46059B08982C
:100AC00036B2099632462146184400F03FFBAD1B72
:100AD0000C95D1E0BBF1610F17D14FF0700B19E00D
:100AE00030B2404504DA9DF840100A0758BF8046EE
:100AF000B8F1010848BF4FF00008BBF1670F14BF01
:100B00004FF0450B4FF0650B04E0BBF1410F08BF00
:100B10004FF0500B0898411C0891B8F1000F05994F
:100B200014F8012B0A5403DC9DF8400001071AD584
:100B30000898411C0891B8F1000F05990F5412DD77
:100B4000761E30B28045B8BF46460598089B32B243
:100B50002146184400F0FAFA089836B23018089086
:100B6000A8EB06000B9005980899014428B20028CC
:100B700081F800B003D42B204870891C04E02D229A
:100B80004A700546891C6D4200202CAA0AE02B46BB
:100B90000A2593FBF5F505EB8504A3EB440302F866
:100BA000013B401C2DB2002DF1DC012806DC4BF08E
:100BB0002002652A04BF302201F8012B00282CAA4C
:100BC00008D1302001F8010B06E0401E135C3033E1
:100BD00001F8013B0028F8DC059A08981044091A2E
:100BE000099149E030B229B288421CDA0598089B85
:100BF00032B22146184400F0A9FA089936B27118A9
:100C00000891ABEB0600B8F1000F0B9003DC9DF8E8
:100C10004000020704D5059847540999491C0991D9
:100C2000CDF8308028E00598089B2AB22146184468
:100C300000F08CFA0898761B5844B8F1000F089021
:100C400003DC9DF840100A0703D5411C0891059963
:100C50000F5430B28045B8BF46460598089B32B263
:100C600004EB0B01184400F071FA089836B2301802
:100C70000890A8EB06000B909DF8400000F01400CF
:100C8000102840F0C280079A08980B99821809989A
:100C90008A1882180C980F998018884280F2B580C3
:100CA000081A0A90B1E09DF84200622808D068282E
:100CB0000ED06A2814D06C281FD0712810D01CE0E8
:100CC000D9F8001051F8040BC9F80010C0B21AE0AE
:100CD000D9F8001051F8040BC9F8001080B212E0E6
:100CE000D9F80000C21D22F00702C9F80020D2E99D
:100CF00000010832C9F8002006E0D9F8001051F8C8
:100D0000040BC9F800100021CDE902019DF8400054
:100D100002075AD5DDE90201002908BF002854D096
:100D20004BF02002782A50D1079812A930230B5497
:100D3000401C421C079201F800B046E09DF84200BA
:100D4000622808D068280ED06A2814D06C281FD0DA
:100D5000712810D01CE0D9F8001051F8040BC9F824
:100D6000001040B21AE0D9F8001051F8040BC9F88D
:100D7000001000B212E0D9F80000C21D22F00702F4
:100D8000C9F80020D2E900010832C9F8002006E0C5
:100D9000D9F8001051F8040BC9F80010C117CDE9BB
:100DA0000201002902D507982D210AE0BDF8400074
:100DB000810702D507982B2103E0C00705D50798C6
:100DC000202112AA1154401C079012A8079901442F
:100DD0000591594602A800F04DF816E00120079051
:100DE000D9F8001051F8040BC9F800108DF848002C
:100DF0000BE001202521BBF1000F07908DF8481072
:100E000003D0022107918DF849B00F9D07980A99E8
:100E10002D1A08986D1A0B992D1A09986D1A0C99AC
:100E20002D1A9DF840006D1A41073FF5D2AA2020E7
:100E3000002D8DF800007FF7CCAA309E2C46FFF7DE
:100E4000BCBA4FF0FF3031B0BDE8F08FCBCCCC0C4A
:100E5000686A6C747A4C00007072696E74665F73B5
:100E60003A2062616420257320617267756D656E3A
:100E7000740000002DE9FC4D06468846376940465F
:100E80006F2808BF082405D0FFF77EF9782814BF23
:100E90000A241024D6E900013C2582468B46B8F18D
:100EA000640F18BFB8F1690F05D1002903D5DAF135
:100EB000000A6BEB4B0BBBF1000F08BFBAF1000F40
:100EC0000CD1306B50B9082C3AD196F83800010794
:100ED00036D530223B2587F83B2031E08DF8008065
:100EE000504659462246002300F002FE3032D0B26E
:100EF0006D1E3A2801950EDA7A555046594622461B
:100F0000002300F0F5FD82465FEA010B08BFBAF14D
:100F1000000F05D108E09DF800001218513AEBE7E8
:100F2000F06879198842DBD3082C09D196F838008B
:100F3000010705D5785D302802D06D1E3020785528
:100F4000C5F13C02306BB26179198242F16008DA76
:100F5000318F821A4FF6EF70014031873262BDE85F
:100F6000F38D00280ED596F8380000F014001028F4
:100F700008D1736B7069316A1B1A5B1A9B1A002BBC
:100F8000C8BF3362BDE8F38D2DE9D04306460F4656
:100F900014464FF00008DFF8449012E0E00707D550
:100FA00042464B463046394600F0C8FC06460F46DE
:100FB0004046494642464B4600F0C0FC641080461D
:100FC0008946002CEAD130463946BDE8D08300007E
:100FD000A08601000000F03F84D797410000244024
:100FE000F8B505460E4617461C4600205CB117F8BA
:100FF000011BB068A847B06030B1F06A401CF062D5
:101000000020641EF3D1F2BD4FF0FF30F2BD0000AE
:101010007072696E74665F733A20256E206469731E
:10102000616C6C6F776564007072696E74663A20EB
:1010300062616420256E20617267756D656E740053
:10104000000000006E616E004E414E00696E660049
:10105000494E460030000EE0026843680244083002
:101060005FEAC37C44BF4B445B1E52F804CB43F899
:1010700004CB091FF9D150F8041B0029ECD17047AB
:10108000C9B202788A421AB11CBF10F8012FF9E7E1
:1010900018BF002070470268531C0360117070472E
:1010A00080B500B906A005490B681BB122220021BA
:1010B000984701E000F09FFD222002BDE8000020DB
:1010C000636F6E73747261696E742068616E646CB4
:1010D00065723A20626164206D65737361676500B3
:1010E00000F1010310F8011B11B110F8011BFBE71F
:1010F000C01A7047C9B2830706D0521E22D310F817
:10110000013B9942F7D11FE0083A13D302F10402E0
:1011100041EA012141EA014150F8043B121F21BF7D
:101120004B40A3F1013C2CEA030C1CF0803FF3D0B0
:10113000C9B2001F0832521E24BF10F8013B91EAC9
:10114000030FF8D818BF0120401E704762B38B0709
:1011500008D0521E11F8013B00F8013B00F024803A
:101160008B07F6D1830740F0208000BF103A07D3E9
:1011700030B4B1E83810103AA0E83810F9D230BCD9
:10118000530724BFB1E80810A0E8081044BF51F885
:10119000043B40F8043BD20724BF31F8022B20F86F
:1011A000022B44BF0B7803707047121F17D35B00EC
:1011B00009D151F8043B20F8023B1B0C121F20F808
:1011C000023BF6D20BE051F8043B00F8013B1B0A4E
:1011D00020F8023B1B0C121F00F8013BF3D238BF72
:1011E000121D521E24BF11F8013B00F8013BF8D834
:1011F00070472E0010B5144600F002F8226010BDB2
:10120000C1F30A5343B14A0012F5001F28D2A3F2DA
:10121000FE32A1EB0251704750EA410C20D001F0A0
:10122000004C31EA0C01B1FA81F204BFB0FA80F34C
:10123000D2180B3AB2F120032CBF00FA03F191400F
:1012400041EA0C013EBFC2F1200C20FA0CF3194315
:101250009040524240F2FD33D21A01EB03517047E5
:101260000022704741EA030C50EA4C0C52EA0C0C85
:101270004FF4001C09D307D01CEB410F9CBF1CEBA3
:10128000430F8B4208BF824270471CEB430FFBD8D1
:10129000994208BF9042704741EA030C50EA4C0C57
:1012A00052EA0C0C4FF4001C09D307D01CEB410F81
:1012B0009CBF1CEB430F994208BF904270471CEB48
:1012C000410FFBD88B4208BF82427047124254D470
:1012D00040F2FF7C1CEA11530FD0634531D09B18BC
:1012E00063453CBF01EB0251704701F0004141EA08
:1012F0000C510020AFF30080704750EA410320D02A
:1013000001F0004C91EA0C011CD0B1FA81F30B3BC7
:101310009A420DD9D21A994051EA0C01C3F1200C1E
:1013200020FA0CFC61449840531C40F2FF7CD7E744
:10133000914041EA0C01C2F1200C20FA0CF3194350
:1013400090407047B0FA80F31533202BE0D3202A69
:10135000EED3203A203B9A4209D9D21A00FA03F17F
:1013600041EA0C010020531C40F2FF7CB8E700FA70
:1013700002F141EA0C0100207047524240F2FF7C2A
:101380001CEA11530DD06345DBD0B2EB030C3CBF1C
:10139000A1EB025170470CF1010221EA035141F423
:1013A000801150EA410CCCD001F0004C352A27DCEA
:1013B00030B481EA0C01B2F1200309DAC2F1200352
:1013C000044601FA03F5D0402843D1409C400CE08C
:1013D000C3F12002450020FA03F418BF44F00104D1
:1013E00021FA03F091400C43002174F1004550F1C3
:1013F000000051EB0C01244230BC7FF47BAF7047FE
:101400006146002076E70000C1F30A5340F21E4215
:10141000D31A0CDDCA0283F3070342EA505242F0AA
:101420000042DA4002EBE17282EAE17070476FEA53
:10143000E17203F2E13008B182F000407047000031
:1014400010F0004160B148BF4042B0FA80F29040D5
:10145000D21CC2F5846241EA025202EBD02140055F
:1014600070470000841A71EB030604D26E40001B23
:10147000B141121973414FF4001C1CEB410F34BFF2
:101480007CEB430683E00C0DA4EB1356362E00F3E1
:101490007C80012E45EAC32341DC43EA525312BF4C
:1014A000D20292025B08240545EAC12141EA50516B
:1014B000D2EBC020994125D407D1B0FA80F610FABA
:1014C00006F162D00020203608E0B1FA81F6B14082
:1014D000C6F1200220FA02F21143B0404FEAF47440
:1014E000B4EB465434F001064FEA74040AD8D6F53A
:1014F0000016760D04F00044F04061FA06F2504008
:10150000F1404840C00A40EA415021F0004128BF64
:101510005FEA500550F1000044EBD12135E0DB0AD1
:1015200045EAC121C90AB6F120050EDD42EA0242B0
:10153000120CC5F1200603FA06F6EB4042EA060556
:101540006D42984161F100010DE062FA06F5F2404A
:10155000554063FA06FC82EA0C02F3405A406D42A1
:10156000904161EB030111F4801F05D1641E6205F7
:1015700002D06D004041494121F48011430875F1CA
:10158000004350F1000041EB045170BC70471CEB6C
:10159000410F15D223F0004352EA43060BD04FEA25
:1015A0004C0CBCEB410F04D80C0D661E342EB7DD7D
:1015B000EBE7801A994150EA410608BF0021E4E7B1
:1015C00008BF1CEB430F28BF6FF00001DDE70000F0
:1015D00070B491EA030F4FF000457FF543AF6B40C5
:1015E000841A71EB030603D2001BB1411219734137
:1015F0004FF4001C1CEB410F34BF7CEB430442E072
:101600000C0DA4EB1356352E4FDC45EAC323DB0A41
:1016100045EAC121C912B6F120050DDD63FA05F6D0
:10162000EB4086EA0305124218BF45F00105C018D9
:1016300051F100010CD213E062FA06F5F240554078
:10164000F3415A40B340F3405A408018594107D300
:1016500049085FEA30005FEA350528BF45F001051B
:1016600001F58011420875F1004250F1000041EB94
:1016700004514E0016F5001F70BC38BF70470020A3
:10168000090D090570471CEB410F10D252EA4306C1
:101690000BD0BCEB410F05D80C0DAB43661E342EAE
:1016A000B6DD02E0AB438018594170BC704770BC96
:1016B00070470000F0B540F2FF7581EA030C0CF0B2
:1016C000004C15EA11541DBF15EA1357AC42AF4246
:1016D000E5E0BC41C1F31301C3F31303801A994140
:1016E00043F4801304D2641E001849418018594104
:1016F000C90241EA5051B1FBF3F603FB1611A2FBFC
:101700000675D7EBC020A94102D2761E8018594138
:10171000C90241EA5051B1FBF3FE03FB1E11A2FBCB
:101720000E75D7EBC020A94103D2AEF1010E80188F
:101730005941890241EA9051760546EA8E2EB1FB65
:10174000F3F603FB1611A2FB0675D7EB8020A94127
:1017500002D2761E80185941C90241EA50514EEA20
:10176000060EB1FBF3F603FB1611A2FB0675D7EBD1
:10177000C020A94102D2761E80185941C90241EA0F
:101780005051B1FBF3F703FB1711A2FB0735D3EB65
:10179000C020A94167F100070CBF004247F00107D4
:1017A00066F3D5274FEA1E31B80814F5806412DDC0
:1017B000BD0775F1004250EB0E5051EB045111F58D
:1017C000801F5CBF41EA0C01F0BD4CF07F6141F02D
:1017D000E0410020F0BDBD076D0840EA0E5041F425
:1017E0008011D4F10104B4F120060ADAC4F1200614
:1017F0000200E04001FA06F3E1401843B24015430D
:101800000EE0342C13DCC6F1200445EA40056D08D7
:1018100020FA06F2154321FA06F0A1400D430021FB
:1018200075F1004250F1000051EB0C01F0BD0020B9
:101830005FEA0C01F0BDCFB992185B41B3FA83F7B0
:1018400004BFB2FA82F6BF190B3FB7F120062FBFD3
:1018500002FA06F3BB40C7F1200622FA06F638BFAB
:101860003343BA401CB1E419641E33E77F4231F0C0
:101870000041B1FA81F404BFB0FA80F6A4190B3C20
:10188000B4F120062FBF00FA06F1A140C4F12006F2
:1018900020FA06F638BF3143A0403C1B1AE7AC42A1
:1018A0001ABF05EA1357AF4212E050EA41061CBFC7
:1018B00052EA4306BFE750EA4107304661461CBF83
:1018C00041EA0551F0BD52EA430C08BFC143F0BDE7
:1018D00000204FF4001616EB410F98BF16EB430F94
:1018E00008BF16EB410F24BFC14305E016EB430FC1
:1018F0000CBF61464CEA0551F0BD0000400D40F2BE
:101900001E4C40EAC120BCEB115C40F0004003D407
:101910008CF30701C84070476FEAE1707047000020
:1019200050B1B0FA80F18840C91CC1F58461090545
:1019300001EBD021400570470146704730B540F2B9
:10194000FF7C1CEA11541DBF1CEA13556445654514
:101950003FE0641981EA030C6FF35F530CF0004C15
:1019600043F48013C90241F0004141EA505EC502D0
:101970001100A5FB020200284FF00000EEFB012041
:101980004FF00001E3FB052118BF42F001024018AF
:1019900000214941E3FB0E01A4F580640D0302D24E
:1019A00092184041494154F1010470DD450872F13B
:1019B000004250F1000051EB0451A1F5801102D416
:1019C00041EA0C0130BD40F2FF7E4CEA0E5100208E
:1019D00030BD0CEA1355644518BF654581EA030C18
:1019E0000CF0004C41D050EA410E1CBF52EA430EAD
:1019F00002E06146002030BD24422C441BD15FEA46
:101A0000050EF6D0090302BF01460020AEF1140E08
:101A1000B1FA81F5AEEB050401FA05FE0C35C5F10E
:101A2000200100FA05F5C8404EEA000E6FF35F533F
:101A300043F480139CE733F00043B3FA83F504BF0B
:101A4000B2FA82FE75440B3D641BB5F1200E2FBF28
:101A500002FA0EF3AB40C5F1200E22FA0EFE38BF9B
:101A600043EA0E03AA40641C7CE750EA410E14BF0F
:101A700052EA430E6FF000014FF4001515EB430FCF
:101A80008EBF194615EB410F9DE7B4D830BDD4F198
:101A90000104B4F120050FDAC4F12005520828BF73
:101AA00042F0010210FA05FE01FA05F57244E2BFA8
:101AB000E0402843E1400FE0352C9ADCC5F12004DA
:101AC00052EA400220FA05F218BF42F0010231FA50
:101AD00005F0A1400A43002172F1004250F10000DC
:101AE00051EB0C0130BD0000004870471000002091
:101AF000D3BBD9B1B2F5803F5BD2022A1ED98C4646
:101B0000B1FBF2F102FB11C31B0443EA1043B3FB28
:101B1000F2FC02FB1C3380B240EA0343B3FBF2F059
:101B200002FB103240EA0C4000237047022A05D91C
:101B30008446B0FBF2F002FB10C270474AB105D1F7
:101B400000F0010249085FEA3000704700220023DC
:101B5000704700F053B80B000200002100207047CE
:101B6000F7D3002200237047904271EB030CF2D3AD
:101B700070B5B1FA81F4B3FA83F52C1BA340C4F11C
:101B8000200532FA05F63343A2405FF00046E640F6
:101B900002E05B085FEA3202841A71EB030524BF9E
:101BA000204629467641F4D302000B003000002184
:101BB00070BD70B5B1FA81F4B2FA82F5C4F12004B7
:101BC0006419B4F12006DAD3B2405FF00044F44067
:101BD000002502E052085FEA3303C61A71EB020ED9
:101BE00024BF3046714664416D41F3D302000B00BF
:101BF0002000290070BD012000F002B870470000ED
:101C000080B5AFF30080024A11001820ABBEFBE79D
:101C100026000200F8B5040025D004F13C056978DF
:101C200021B900202870204600F06CFC24226A7044
:101C30002068DFF860710168490849000160206888
:101C4000026842F4004202602068016821F4004109
:101C5000016000F01BFD01466068B84205D2DFF864
:101C60003821914205D20120F2BDDFF830018142D6
:101C7000F9D32068DFF828214368B1FBF2F29B0911
:101C800042EA8313436023681E6A6068B84206D341
:101C90004FF4967042434FF47A70B2FBF0F2521C4C
:101CA000B60942EA86121A62491E2268D36966683A
:101CB000BE4206D2760000F044F8042913D2042173
:101CC00011E0A06820B906EB460600F03AF805E0FE
:101CD0001920464300F035F841F4804108050CBF57
:101CE000012141F40041DFF8B80103400B43D36107
:101CF00022681368E069216A23F0C00303430B43A1
:101D000013602268DFF89C01936821690340E06852
:101D10000B43034393602268D368A06961691B0A7F
:101D200040EA03230B43D36020212068026842F07D
:101D30000102026000206860697020630021A970C0
:101D4000F2BDB1FBF6F1491CC1F30B0170471A4615
:101D50001146106820F480600860704728680168A8
:101D600041F40071016070474146204600F019BB04
:101D70004FF00111204600F085BA716A0870706A50
:101D8000421C308D7262411E3185708D411E7185FD
:101D900070470000A186010080841E0000093D00FC
:101DA00040420F002DE9FC470646884691469A4678
:101DB00000F08CFC06F13C070446787820286AD1B4
:101DC00000F057F9002866D13878012863D0012245
:101DD0003A7000F064F94146D6F800E00C9D0B988B
:101DE000DDF828C0DEF8008028F40068CEF8008016
:101DF0004FF0210E87F801E04FF0400887F802808D
:101E00004FF0000EC7F804E000F00CF9DFF898C0BE
:101E10003085C6F82CC04A4601940095304600F043
:101E200067F900282BD108E0716A0A780261706AAC
:101E3000411C7162308DFFF7A6FF308D98B12246AC
:101E40002946304600F0ADFA98B9726A31681078C8
:101E50000861706A411C7162308D00F027F8ECD582
:101E600089B20029E0D122462946304600F0BBFA6B
:101E700038B17868042802D13068FFF770FF01207C
:101E80000AE03068FFF76BFF202078700021B970FE
:101E90000020387000E00220BDE8F6870000000056
:101EA0000030FFFF007CFFFF0000FFFF411E318577
:101EB000708D421E728530684269530770472DE964
:101EC000FC4706460F4690469A4600F0FFFB06F197
:101ED0003C0504466878202802D100F0CAF80028A2
:101EE00040F09D802878012800F0998001222A7016
:101EF00000F0D5F839463768DDF830900B98DDF8FA
:101F000028C0D7F800E02EF4006EC7F800E02227C2
:101F10006F704FF0400E85F802E000276F6000F010
:101F200081F8DFF8B8713085F76242460194CDF848
:101F30000090304600F032F9002858D1308D20B1A1
:101F4000012808D1306800F0A4F800F085F8326864
:101F500000F07CF814E0022806D100F0C3F83068E5
:101F6000026842F400620260002000F075F807E0A9
:101F700000F05EF800283AD131680869FFF7FDFEED
:101F8000308D002846D004282ED20128F0D0022817
:101F9000474F00944B460DD100F066F8002826D13B
:101FA0003068FFF7DCFE32681069FFF7E6FE326842
:101FB0001069E3E700F058F8002818D100F092F813
:101FC0004B4632681069716A0870706A421C308D25
:101FD0007262411E31850022708D411E7185009410
:101FE00000F043F818B9DBE700F022F808B101204F
:101FF00016E000F022F8401E3085718D4A1E728571
:10200000336859694A07BBD580B20328CFD1FFF79F
:102010009EFECCE706F13C0000F034F800E0022020
:10202000BDE8F687C6F824C070855346708D7047AA
:1020300022464946304600F005BA31680869716A9F
:102040000870706A421C308D7262704710681146C9
:1020500040F400700860704700903068416900915A
:10206000826900920099704700223946304600F09C
:1020700009B9009419230122DFF86410304600F0FA
:1020800001B90000202141700022827002700020FE
:102090007047016821F4806101600020704730685A
:1020A0000168CA0703D4016841F00101016070476B
:1020B000040001000097434600224FF0011128461A
:1020C00000F0E0B82868016841F480710160704751
:1020D000016841F480610160704700000000FFFF6B
:1020E000020010003068016821F4806101607047CF
:1020F0002DE9F84304462068DDF82080099FD0F8D8
:1021000000C04CF4807C894615461E46C0F800C0CD
:10211000009743460022FFF72BFE40B1206801687C
:10212000CA0544BF4FF400702064032027E02068F4
:10213000DFF84C1109F0FE09C0F810903B4642460A
:10214000204600F0D5F8A0B900F01BF83A460099F7
:10215000FFF70AFE40B9012E0DD02168280A086158
:102160003A46FFF701FE30B1206C042801D100F09F
:102170000FF8012003E02068EDB205610020BDE802
:10218000F283009020684169009182690092704753
:102190002068016841F40071016070472DE9F84F33
:1021A00005462868DDF828800B9F0C46FFF790FF56
:1021B00016462868D0F800C04CF4807C9946C0F8D8
:1021C00000C0FFF777FF00284FF4007A2DD129686F
:1021D000DFF8ACB004F0FE0008613B4642465946C9
:1021E00000F044F8002830D100F042F83A46009957
:1021F00000F036F870B9B9F1010F05D02968300A3E
:10220000086100F02CF828B92868F6B2066100F0E1
:1022100026F828B1286C042817D1FFF79FFD14E099
:10222000FFF750FFFFF746FF38B128680168CA057D
:1022300048BFC5F840A0032008E000F00AF83B467C
:102240004246594600F012F800B10120BDE8F28F75
:102250000000286844F00104E4B2046170473A4683
:10226000414628469DE033465A46494628463FE0C7
:1022700000902868416900918269009270470000CF
:10228000020001002DE9F8430E46089C05469146E0
:102290009846370C2868F9B201290CBF406980695B
:1022A00000F06EF80CBF0120002048451ED118F147
:1022B000010FEFD000F00AFA001B804502D3B8F1FD
:1022C000000FE7D12868F9B201290CBF4069806985
:1022D00000F056F80CBF012000204845DAD100F08C
:1022E00054F8416002700120BDE8F2830020FBE752
:1022F0002DE9F0410E46054614469846370CF8B2D3
:10230000012817D12968486900F03AF817D02868E1
:102310004169480515D52A681168104641F40071D5
:1023200001606FF4806229684A6100F0AFF841F003
:1023300004011BE02968886900F022F8E7D1002039
:1023400017E014F1010FDAD000F0C0F9A0EB08009B
:10235000844201D3002CD2D1F9B2286801290AD1D4
:10236000406900F00DF8CDD000F00FF84160027028
:102370000120BDE8F081806900F002F8DAD0F3E7CF
:10238000304080B2B1B288427047002028632021DB
:1023900005F13C00002241708270416841F020014B
:1023A000704770B505460C46164628684169080610
:1023B00017D4284600F074F818B914F1010FF4D0BE
:1023C00001E0012070BD00F081F9801B844201D33F
:1023D000002CEAD1286841690806E6D400F025F807
:1023E000EFE7002070BD70B505460C46164628681C
:1023F0004169480717D4284600F052F818B914F17B
:10240000010FF4D001E0012070BD00F05FF9801BE6
:10241000844201D3002CEAD1286841694807E6D4F8
:1024200000F003F8EFE7002070BD002105F13C004B
:102430002963202242708170426842F0200242608B
:102440000170704770B505460C461646286841690C
:102450004A0619D44169CA0608D56FF010014161D6
:1024600000F014F841600270012070BD00F02EF9F8
:10247000801B844201D3002CE8D1286841694806BA
:10248000E4D4FFF7D2FFEFE7002070BD00202863FF
:10249000202105F13C0000224170827041687047A4
:1024A00010B501684A6953050DD56FF480644C611D
:1024B000002101633C30202343708170436843F066
:1024C00004034360017012F4806018BF0120C0B2A1
:1024D00010BD0000254A2648264980B542600023E9
:1024E0004FF4804201608360C36002614361836195
:1024F000C3610362FFF78EFB18B1BDE8014000F035
:102500009FB901BD10B586B004461421002201A870
:1025100000F0B4F92168174A914224D10020164CEA
:102520000090216841F0020121601221206800F032
:1025300002000090C020009A029100220392032121
:10254000019004910422059201A90C4800F0A0F921
:1025500000200090216941F400112161206900F4FC
:1025600000100090009806B010BD0000A086010089
:10257000480000200054004030380240000402406F
:102580002DE9F04104000E4654D0494F386800F060
:102590000700B04202D200F073F84BD12068454DDD
:1025A000810712D5400703D5A96841F4E051A9601D
:1025B0002078010703D5A86840F46040A860A968A6
:1025C000A06821F0F0010143A9602178C80729D54E
:1025D0006068012802D129688A0305E0022818BF33
:1025E000032803D129688A0103D423E029688A07D4
:1025F00020D5A968890840EA8100A86000F066F843
:102600008046A868616800F00C00B0EB810F09D02B
:1026100000F05CF8A0EB080041F289318842F0D369
:1026200003202BE0386800F00700864204D200F057
:1026300027F801D0012021E02078420705D5A968BC
:10264000E06821F4E0510143A9602178080706D52C
:10265000A968206921F4604141EAC001A96000F045
:102660000DFAAA681449154BC2F30312895CC840DD
:1026700018601348006800F031FA0020BDE8F081CE
:102680003E70396801F00701B14270470B480D4AAE
:10269000006813680C49C3F3822206E00748094A20
:1026A000006813680849C3F34232895CC840704728
:1026B000003C024000380240643700080C00002053
:1026C0000800002008380240D4370008014840685C
:1026D000704700BF000000202DE9F84FADF1380D24
:1026E00000F01CFA00F055F800F032FAFFF7F2FEA5
:1026F00000F074FADFF8308152A10A231922404613
:1027000000F0FCFA4948DFF828914A4E00F022FC1C
:10271000307830B30021317000F0AFFC074600F094
:10272000A9FC044600F0A3FC054600F080FC8246AC
:1027300000F084FC834600F08AFC03970294019524
:102740000246CDF800A05B46494604A800F01CFDF7
:1027500004A8FEF7C5FC82B20A2304A9404600F093
:10276000CDFA70780028D3D0002171700A231B2283
:102770003BA1404600F0C2FA40F2E97301220C216D
:10278000152000F0E8FC002200210A2000F0D7FC10
:10279000BEE780B592B0302106A800F015FD1421E7
:1027A00001A800F011FD002000902348016841F0CD
:1027B00080510160006800F0805000900020009976
:1027C00000901E48016841F4804101604FF480315F
:1027D000006800F4804000900120009A07910222D6
:1027E0004FF480010C920D91042240210E920F9122
:1027F0000690022204211092119106A800F0E8FC34
:1028000008B100F01DF8022102910F2001909022E2
:10281000002103920491059101A8FFF7B1FE08B1D0
:1028200000F00EF813B000BD9C000020480000200E
:10283000B4360008EC000020403802400070004030
:1028400072B6FEE7496E697469616C697A696E6790
:102850002074686520445333323331200D0A000060
:102860005265496E697469616C697A696E67207432
:102870006865204453333233310D0A004018491C37
:102880001CBFB1F1010100F8012DF9D17047000022
:102890002DE9F84F00226E4CDFF8B8814FF00F0998
:1028A00001230F6893401F409F4240F0CA804FEAC7
:1028B000420C032505FA0CF56FEA050E4D6805F08C
:1028C0000306012E1CBF05F00305022D10D18568FB
:1028D000CE680EEA050506FA0CF6354385604568B4
:1028E00025EA03034D68C5F3001595402B4343606B
:1028F00093000D7905F00305032D1ED0C5688E6881
:102900000EEA050506FA0CF63543C5600D7905F0AB
:102910000305022D11D1D50800EB850503F01C0637
:10292000D5F820B009FA06FA2BEA0A0BD1F810A064
:102930000AFA06F646EA0B062E6205680EEA050656
:102940000D7905F0030505FA0CF545EA060CC0F80B
:1029500000C04D6815F4403F73D04FF0000ECDF825
:1029600000E04FEA920CD8F8005045F48045C8F8D2
:10297000005003F00C03D8F800E0374D0EF4804E01
:10298000CDF800E0DDF800E055F82C6009FA03F519
:10299000AE43324DA84208BF4FF0000E2AD0304D52
:1029A000A84208BF4FF0010E24D02E4DA84208BF08
:1029B0004FF0020E1ED02C4DA84208BF4FF0030E60
:1029C00018D02A4DA84208BF4FF0040E12D0284D4F
:1029D000A84208BF4FF0050E0CD0264DA84208BFF4
:1029E0004FF0060E06D0244DA8420CBF4FF0070E44
:1029F0004FF0080E0EFA03F3DFF85CE033434EF8B5
:102A00002C30FE43A3684D683340ED0248BF3B4382
:102A1000A360E3684D683340AD0248BF3B43E360C9
:102A200063684D683340AD0348BF3B436360236830
:102A300006EA030C4B68DB0348BF47EA0C0CC4F8FA
:102A400000C0521C0F2A7FF62BAFBDE8F18F0000AB
:102A5000003C014044380240083801400000024078
:102A60000004024000080240000C02400010024036
:102A70000014024000180240001C024030B5144C03
:102A8000606800F00C00042802D0082802D01DE085
:102A9000104830BD226820680023410202F03F0246
:102AA00004D525680B49C5F3881003E020680A495E
:102AB000C0F38810A1FB0001FFF71AF82168C1F3E9
:102AC0000141491C4900B0FBF1F030BD024830BD66
:102AD0000438024000127A000024F40038B50D4D8D
:102AE0000D4B2A7804464FF47A711868B1FBF2F264
:102AF000B0FBF2F000F028FD50B9102C08D20022F3
:102B000021464FF0FF3000F002FDAC60002032BDE6
:102B1000012032BD000000200C00002080B50B48D1
:102B2000016841F400710160026842F48062026051
:102B3000016841F480710160032000F0DEFC0F2089
:102B4000FFF7CCFF00F01CFD002002BD003C02405E
:102B500080B586B01421002201A8FFF78FFE002166
:102B600019480091026842F010020260016801F009
:102B7000100100F02DF843F080030360016801F0BC
:102B8000800100F025F843F001030360016801F0C3
:102B9000010100910021009A00914FF40411036893
:102BA00043F002030360006800F002000090102070
:102BB000009A019002910122039201A90348FFF7B4
:102BC00067FE07B000BD0000303802400010024030
:102BD00000910021009A00910368704780B5254854
:102BE000254901604FF4E13200230C2142608360EB
:102BF000C360036141618361C36100F043F818B1B0
:102C0000BDE80140FFF71CBE01BD10B586B004460B
:102C10001421002201A8FFF731FE2168164A9142D3
:102C200025D1002000901548416941F01001416113
:102C3000416901F0100100910021009A00910221E8
:102C4000036843F001030360006800F00100009096
:102C50004FF4C060009A0291002203920321019078
:102C600004910722059201A90548FFF711FE06B05D
:102C700010BD00009C0000200010014030380240D0
:102C80000000024038B5040001D1012032BD04F13A
:102C90004005687808B900F011F800F014F800F069
:102CA00023F8FFE7416100F018F86860202169709F
:102CB0002020A87000216163002032BD002129700E
:102CC0002046FFF7A2BF242068702068C16821F465
:102CD0000051C160204600F0D9B82068C16841F4B5
:102CE0000051C160002070472068016921F49041C3
:102CF00001612068416921F02A0170472DE9FC41FA
:102D000006460D4696F84100202814461F4640D13D
:102D10000DB1200001D101203CE000207064212190
:102D200086F84110FFF7D2FCB4848046F48400F0AA
:102D300033F804BF306900281ABF2C460025002450
:102D400012E000228021304600F047F8E0B93068F8
:102D5000002C12BF14F8011B35F8021BC1F3080147
:102D60004160F08C411EF1844346F08C00970028AE
:102D7000E7D100224021304600F02FF820B9202072
:102D800086F84100002005E0202086F8410003205D
:102D900000E00220BDE8F681B068B0F5805F7047C2
:102DA000026802F10C0454E8002F016801F10C03E1
:102DB000704742F0010243E8002100297047026891
:102DC00002F1140454E8002F0168520801F11403C1
:102DD000520043E80021002970472DE9FC41089C7E
:102DE00005460E4690461F46286801683140B142AC
:102DF0000CBF0120002040452AD114F1010FF3D06F
:102E0000FFF764FCC01B844200D314B90320BDE863
:102E1000F6812968C8684207E6D5802E18BF402E83
:102E2000E2D0084602681307DED5002000902B6828
:102E30001A680092496800910098284600F00AF844
:102E400005F1400008214160002202700120DEE708
:102E50000020DCE710B5FFF7A3FF22F49072FFF724
:102E6000AAFFF8D1FFF7ABFFFCD1016B012906D116
:102E7000FFF796FF22F01002FFF79DFFF8D1202107
:102E800080F842100022026310BD000070B50646B3
:102E900032681169F06821F4405101431161D3682F
:102EA0002648B168034030690B4371690343F069F8
:102EB0000B430343D3605169B06921F4407101436E
:102EC00051611F498A421CBF1E48824202D1FFF74E
:102ED000E5FB01E0FFF7DAFB72683468F669192157
:102EE000B6F5004FA1FB00016FF0630512D1D30FBF
:102EF0005200FEF7FDFD00F027F8ED0032356420AA
:102F0000B5FBF0F0420002F4F87202EB011200F09F
:102F1000070010E0930F9200FEF7EAFD00F014F8AE
:102F20002D0132356420B5FBF0F000F0F00202EB29
:102F3000011200F00F008018A06070BDF369FFFF60
:102F400000100140001401406421B0FBF1F105FBC9
:102F50000105704780B51B490860002000F04FF85C
:102F6000002000F03EF800F057F800F040F8BDE80F
:102F70000240012028E038B50124024684B04FF019
:102F8000FF30019402908DF80C1000F014F8FEF759
:102F900009FF05B030BD38B5012484B00246019464
:102FA0004FF0FF30029000F006F8FEF788FF9DF822
:102FB0000C0005B030BD03AD024C20680095012324
:102FC000D0217047E400002010B500F007F864F34A
:102FD0008200BDE8104001460E20CCE704460E20DA
:102FE000D9E710B5FFF7FAFF64F341000CE080B5B4
:102FF00000F01BF8BDE8044000F0FD0113E010B53F
:10300000FFF7ECFF64F3000001460E20FFF7B3FF6B
:10301000BDE810400120D7E780B500F006F8BDE814
:10302000044000F0FE010F20A5E70F20B3E780B5B4
:103030000420FFF7B0FFBDE802409CE080B505200A
:10304000FFF7A9FFBDE8024000F07F0093E010B554
:103050000620FFF7A0FF00F08EF800F030F8C0095E
:10306000642110FB01F0001900F5FA6010BD80B575
:103070000220DEE780B50120DBE780B50020D8E73D
:103080000A2290FBF2F2062101FB0200C1B20320EA
:1030900071E70A2290FBF2F2062101FB0200C1B2A5
:1030A000042068E710B500F00AF800F024F800F0FA
:1030B00080000443E1B2BDE8104005205BE7044610
:1030C000052068E738B5FFF7FAFF642294FBF2F5B4
:1030D00000F07F0141EAC511C9B20520FFF74BFF9F
:1030E000642000FB1544E4B200F005F8E1B2BDE84D
:1030F000344006203FE70A2294FBF2F2062101FB4E
:103100000244704700F03F000A2290FBF2F20621D1
:1031100001FB0200C1B202202DE70A2290FBF2F26D
:10312000062101FB0200C1B2012024E70A2290FB24
:10313000F2F2062101FB0200C1B200201BE738B504
:103140000C461546FFF7DEFF2046FFF7E6FF284650
:10315000BDE83240EAE770B50C4615461E46FFF75B
:1031600098FF2046FFF79EFF2846FFF789FF30466D
:10317000BDE87040A6E701090A2200F00F0012FB2B
:103180000100C0B2704700000CB430B583B00A46ED
:1031900006A90291044600250194009502AB01A9FD
:1031A000084878441E30FCF7F2FF019A1570002899
:1031B0004EBF04460198041B204603B030BC5DF8A6
:1031C0000CFB00BFD3DEFFFF002200F0F5B90000CA
:1031D0002DE9F843040016D02078DFF8F462C10727
:1031E00013D5B06800F00C00042807D0B06800F0D8
:1031F0000C0008283ED1706841023BD5306881033D
:1032000003D56068002800F05D812078DFF8C49263
:10321000810719D5B06810F00C0F07D0B06800F026
:103220000C0008285BD17068410258D430688107CF
:1032300003D5E268012A40F045813068216920F019
:10324000F80040EAC10030602078010774D5606959
:10325000A149002863D001220A60FFF737FA05462A
:10326000706F810768D4FFF731FA401B0228F7D945
:1032700003202AE16068B0F5803F04D1306840F453
:103280008030306011E0B0F5A02F306806D140F4F6
:1032900080203060316841F4803105E020F48030D6
:1032A0003060316821F480213160606858B1FFF7E7
:1032B0000DFA054630688103A7D4FFF707FA401BD3
:1032C0006528F7D3D4E7FFF701FA05463068810394
:1032D0009BD5FFF7FBF9401B6528F7D3C8E7E068EB
:1032E00070B10121C9F80010FFF7F0F90546306808
:1032F0008107A2D4FFF7EAF9401B0228F7D9B7E704
:103300000022C9F80020FFF7E1F90546306881077F
:103310009AD5FFF7DBF9401B0228F7D9A8E7086028
:10332000FFF7D4F90546706F810705D5FFF7CEF991
:10333000401B0228F7D99BE72078410759D5306C0C
:103340000025C1000BD4002000900125316C41F014
:1033500080513164306C00F08050009000985F4FD5
:103360003868C10510D4386840F480703860FFF7C1
:10337000ADF980463868C10506D4FFF7A7F9A0EB80
:1033800008000228F6D973E7A068012805D00528AF
:10339000306F06D140F004003067306F40F001001C
:1033A00005E0400840003067306F20F004003067CF
:1033B00041F28938A06858B1FFF788F90746306FA5
:1033C000810711D4FFF782F9C01B4045F7D34FE7BF
:1033D000FFF77CF90746306F810705D5FFF776F9CF
:1033E000C01B4045F7D343E71DB1306C20F080503F
:1033F0003064A069002867D0B16801F00C01082989
:103400003DD002282CD10020C9F86000FFF75EF9FA
:1034100005463068810105D5FFF758F9401B0228A1
:10342000F7D925E7E269206A616A0243A06A400889
:1034300042EA8112401E42EA0042E06A42EA006229
:1034400072600121C9F86010FFF740F90446306846
:10345000810139D4FFF73AF9001B0228F7D907E7B1
:103460000020C9F86000FFF731F904463068810197
:103470002AD5FFF72BF9001B0228F7D9F8E6012817
:1034800020D07068E26900F48001914202BF00F030
:103490003F01226A914201BF47F6C0710140626A52
:1034A000B1EB821F0ED1A26A00F4403101F58031E8
:1034B0005208B1EB024F02BF00F07060E16AB0EB5E
:1034C000016F01D0012000E00020BDE8F28300BFC1
:1034D0000038024000004742800E47420070004022
:1034E0000901020002D4214881547047204B02F0A8
:1034F0000F021A4402F8041C70471E490A6860F360
:103500000A2240F2FA5060F31F420A60704770B519
:10351000184B1C68C4F302230124C3F10705052DD1
:103520002EBF0F2504FA05F56D1E1E1D072E34BF94
:103530000023DB1E2940994004FA03F3BDE87040E4
:103540005B1E1A401143CBE7401EB0F1807F01D3D0
:10355000012070470849094A48600023F020107094
:103560008B600720086000207047000000E400E046
:1035700018ED00E00CED00E010E000E023ED00E0CD
:1035800081B0002000900B48416841F480414160C7
:10359000416801F4804100910021009A0091036884
:1035A00043F080530360006800F080500090009862
:1035B00001B070474038024000B500BF1300964686
:1035C0009446103928BFA0E80C50FAD85FEA417C35
:1035D00028BF0CC048BF40F8042BC90728BF20F8FB
:1035E000022B48BF00F8012B00BD000001000000C5
:1035F00000000000100000000024F4000614000881
:103600000614000806140008061400080614000832
:103610000614000806140008FFFFFFFFFFFFFFFF6E
:10362000F21100080614000806140008FFFFFFFF4F
:10363000FFFF0000FEE7FEE7FEE7FEE7FEE770475C
:103640007047704780B500F011F806480188491CA2
:103650008AB2B2F57A7F03DB034B012200211A7094
:10366000018001BDEE000020EC000020024841680E
:1036700002788A18426070470000002030B40025AC
:1036800012E050F8042BD30744BF4A44521E091FCE
:10369000042942F8045BFAD213468C0744BF158014
:1036A0009B1CC90748BF1D7050F8041B0029E8D1B6
:1036B00030BC7047446174653A20253034642F254E
:1036C0003032642F25303264202D2054696D653AE4
:1036D00020253032643A253032643A253032640D88
:1036E0000A00000010B5074979441831064C7C44A3
:1036F000163404E00A68081D114488470146A142B7
:10370000F8D110BD2C0000004C0000004EF688518E
:10371000CEF20001086840F470000860BFF34F8FDC
:10372000BFF36F8F4FF00170E1EE100A7047000099
:103730004DFFFFFFA800000048000020000000002F
:1037400017D9FFFF48000000A4FEFFFF0000002083
:10375000000000000248016841F4700101607047F8
:1037600088ED00E0000000000000000001020304FA
:103770000607080900F00DF8002801D0FFF7B2FF96
:10378000AFF300800020AFF30080FEF7A5FF00F04C
:1037900002F80120704700F001B8000007463846E3
:1037A000FEF72EFAFBE700000548014603B4684621
:1037B00080F30988AFF30080FFF7A8FFFFF7DAFF77
:1037C000A5EDF5FE01488047014800475537000840
:1037D000A93700080000000001020304FFF7FEBF44
:1037E000FFF7FEBFFFF7FEBFFFF7FEBFFFF7FEBF0D
:1037F000FFF7FEBFFFF7FEBFFFF7FEBFFFF7FEBFFD
:10380000FFF7FEBFFFF7FEBFFFF7FEBFFFF7FEBFEC
:10381000FFF7FEBFFFF7FEBFFFF7FEBFFFF7FEBFDC
:10382000FFF7FEBFFFF7FEBFFFF7FEBFFFF7FEBFCC
:10383000FFF7FEBFFFF7FEBFFFF7FEBFFFF7FEBFBC
:10384000FFF7FEBFFFF7FEBFFFF7FEBFFFF7FEBFAC
:10385000FFF7FEBFFFF7FEBFFFF7FEBFFFF7FEBF9C
:10386000FFF7FEBFFFF7FEBFFFF7FEBFFFF7FEBF8C
:10387000FFF7FEBFFFF7FEBFFFF7FEBFFFF7FEBF7C
:10388000FFF7FEBFFFF7FEBFFFF7FEBFFFF7FEBF6C
:10389000FFF7FEBFFFF7FEBFFFF7FEBFFFF7FEBF5C
:1038A000FFF7FEBFFFF7FEBFFFF7FEBFFFF7FEBF4C
:1038B000FFF7FEBFFFF7FEBFFFF7FEBFFFF7FEBF3C
:1038C000FFF7FEBFFFF7FEBFFFF7FEBFFFF7FEBF2C
:1038D000FFF7FEBFFFF7FEBFFFF7FEBFFFF7FEBF1C
:1038E000FFF7FEBFFFF7FEBFFFF7FEBFFFF7FEBF0C
:1038F000FFF7FEBFFFF7FEBFFFF7FEBFFFF7FEBFFC
:10390000FFF7FEBFFFF7FEBFFFF7FEBFFFF7FEBFEB
:10391000FFF7FEBFFFF7FEBFFFF7FEBFFFF7FEBFDB
:04000005080037A90F
:00000001FF
