:020000040800F2
:10000000E0050020A53E0008392400083B24000834
:100010003D2400083F24000841240008000000009F
:100020000000000000000000000000004324000861
:100030004524000800000000472400084924000867
:10004000BD3E0008C13E0008C53E0008C93E00088C
:10005000CD3E0008D13E0008D53E0008D93E00083C
:10006000DD3E0008E13E0008E53E0008E93E0008EC
:10007000ED3E0008F13E0008F53E0008F93E00089C
:10008000FD3E0008013F000869240008053F000804
:10009000093F00080D3F0008113F0008153F000808
:1000A000193F00081D3F0008213F0008253F0008B8
:1000B000293F00082D3F0008313F0008353F000868
:1000C000393F00083D3F0008413F00086F24000809
:1000D00075240008453F0008493F00084D3F0008CF
:1000E000513F0008553F0008593F00085D3F000898
:1000F000613F0008653F0008693F00086D3F000848
:10010000713F0008753F0008793F00087D3F0008F7
:10011000813F0008853F0008893F00088D3F0008A7
:10012000913F0008953F0008993F00089D3F000857
:10013000A13F0008A53F0008A93F0008AD3F000807
:10014000B13F0008B53F0008B93F0008BD3F0008B7
:10015000C13F0008C53F0008C93F0008CD3F000867
:10016000D13F0008D53F0008D93F0008DD3F000817
:10017000E13F0008E53F0008E93F000800000000FB
:10018000ED3F0008F13F000840F0200070472DE9E6
:10019000F14FB0B0924604910DF142013A9A2B9181
:1001A00099464A7000200AE01AF8011B0498309A18
:1001B00090470028049000F044860D98401C0D9054
:1001C0009AF8000058B12528EED100200021002225
:1001D0000790089109920A910B920C9104E00D98F6
:1001E00000F031BE41F001011AF8010F2028F9D0CA
:1001F00023280CD02B2804D02D2805D0302809D056
:100200000BE041F00201EFE741F00401ECE741F0BF
:100210000801E9E741F01001E6E72A280FD1D9F8F3
:10022000002052F8040BC9F8002000280F9003D5D5
:1002300040420F9041F004010AF1010A14E00F92CC
:10024000DFF8082C0AE00F9B934205DA03EB8304E6
:1002500000EB440030380F900AF1010A9AF80000D0
:10026000A0F130030A2BEED39AF800202E2A03D0F7
:100270004FF0FF300E9029E01AF8010F2A2809D11B
:10028000D9F8002052F8040BC9F800200E900AF1AA
:10029000010A1BE02D280CBF0AF1010A00200022F0
:1002A0000E92DFF8A84B0BE040B90E9BA34205DA93
:1002B00003EB830502EB4502303A0E920AF1010A84
:1002C0009AF80020A2F130030A2BEDD3ADF84010CC
:1002D0000FF67C309AF8001000F0D2FE08B11AF840
:1002E000010B8DF842009DF84200682805D19AF86C
:1002F000001068290CD1622006E06C2804BF9AF82F
:1003000000106C2904D171208DF842000AF1010A15
:1003100012AA06921AF801BBBBF125002CD01C389A
:1003200000F09781001F022840F29381133800F0FB
:10033000BA84093800F08D81801E00F04F85401E80
:1003400000F0FC84401E022840F28381001F00F070
:10035000F584401F00F0F280401E00F0A484401E8F
:1003600000F0DA80C01E0ED0801E00F09C84C01EFB
:1003700000F0998400F03DBD0122252107928DF8FF
:10038000481000F042BDD9F8000050F8044BC9F8FD
:100390000000002C059440F0AB802B994878002891
:1003A00000F0A1804FF0FF340FF6AC2000F078FE93
:1003B000241A40F0468500F028BD01236A4602A9B0
:1003C000304600F00DFE002840F03B85641EF4D15D
:1003D0003096079C12AF74B1309E17F8011B049839
:1003E000B0470028049000F02C850D98401C641E36
:1003F0000D90F2D130960A9C3021002C8DF800101F
:100400000CDD309E01236A4602A9304600F0E8FD6B
:10041000002840F01685641EF4D13096059F089C94
:1004200074B1309E17F8011B0498B047002804905F
:1004300000F007850D98401C641E0D90F2D1309697
:100440000B9C3021002C8DF800100CDD309E012318
:100450006A4602A9304600F0C3FD002840F0F1844E
:10046000641EF4D1309605980899099C471874B118
:10047000309E17F8011B0498B0470028049000F044
:10048000E0840D98401C641E0D90F2D130960C9CB7
:100490003021002C8DF800100CDD309E01236A46BF
:1004A00002A9304600F09CFD002840F0CA84641E7A
:1004B000F4D130969DF8400041077FF581AE2020B1
:1004C000002D8DF800007FF77BAE309C01236A463B
:1004D00002A9204600F084FD002840F0B2846D1E81
:1004E000F4D130946CE60FF65830059000F08DBCD6
:1004F0000E9D002D04D5204600F0F2FD044608E0D4
:100500002A460021204600F0F5FD002814BF041BF8
:100510002C46089400F079BCD9F8001051F8040B6F
:10052000C9F8001020F00002002121F0FF33CDE9CE
:10053000022312AC0594782100F04CBC2B9948782A
:1005400020B14FF0FF340FF6C8202FE79DF842008E
:10055000622860D0682817D06A283FD06C2806D05F
:10056000712847D074282CD07A281DD062E0D9F8A1
:10057000001051F8040BC9F80010002866D14FF0A4
:10058000FF340FF6A42011E7D9F8001051F8040B3E
:10059000C9F8001020B94FF0FF340FF68C2005E7A2
:1005A0000D99018000F031BCD9F8001051F8040B0E
:1005B000C9F80010002849D14FF0FF340FF6682029
:1005C000F4E6D9F8001051F8040BC9F8001000281F
:1005D0003CD14FF0FF340FF65020E7E6D9F8001079
:1005E00051F8040BC9F8001080B94FF0FF340FF632
:1005F0003820DBE6D9F8001051F8040BC9F80010D8
:1006000020B94FF0FF340FF62020CFE60D9AD31714
:10061000C0E90023F9E3D9F8001051F8040BC9F838
:10062000001020B94FF0FF340FF6FC10BEE60D9914
:100630000170EAE3D9F8001051F8040BC9F8001072
:1006400020B94FF0FF340FF6E010AFE60D990160CE
:10065000DBE39DF842004C2807BFD9F80010CA1D03
:10066000D9F80000C21D22F00702C9F80020D2E923
:1006700000010832C9F80020CDE90201C80F02D0FC
:1006800007982D210AE0BDF84000810702D50798A0
:100690002B2103E0C00705D50798202112AA115489
:1006A000401C079012A807994BF0200300EB010CA7
:1006B000DDE90201CDE92C01612BCDF814C021AC9C
:1006C0000BD00E98002848BF062105D404BF4BF07C
:1006D0002000672801D101210E91DDE902014F00C0
:1006E00047EAD0777E15FF174FF0FF32974208BFD9
:1006F000964210D1090341EA10510003002908BFB6
:10070000002808D0ABF1610503211A2D089118D3F8
:100710000FF6341110E0DDE902014A00521512F122
:10072000010F11D108030FD1ABF1610503211A2D7F
:1007300008911FD30FF618110322604600F006FD42
:1007400063E30FF60011F7E7DDE902016A4600F006
:1007500051FDCDE902014BF02000612811D105982F
:1007600030220270811C0591BBF1610F0CBF782112
:10077000582102E00FF6D401DEE741700798801C93
:100780000790DDE9020120F0000231F0004308BFCC
:10079000002A02D10026002542E14BF02008B8F1E2
:1007A000610F40F092800E99002947BF21200190EF
:1007B000491C0191019FDDE92C017F1C00220023CF
:1007C000DDE9024500F04EFD38BF85F00045009898
:1007D0008DF88420001F002F00900DF1850632DD7A
:1007E000204629460022002300F056FD2BD21C2271
:1007F00000F06CFD04460D4600F006FEFF1F002FC2
:10080000804609DD00F01CFE02460B4620462946C4
:1008100000F0DEFE04460D46F01D0721B8F1000F82
:100820000CDD491E5EBF08F00F0200F8012D4FEAF3
:100830002818F3D502E0002200F8012D491EFAD550
:10084000C61D002FCCDC0DF18500361A01980DF184
:1008500085048642D8BF304600282FD4B04206DA3D
:100860000DF185010A5C082AA8BF0F2100DA0021DA
:10087000024621AB134400E0401E13F80159521EFA
:100880008D42F9D00F2904D10DF185018B5C5B1CE1
:100890008B54002A04D50099091D21AC401C0091FD
:1008A000411E0BD4621813783033DDB23A2DA4BF49
:1008B0005B443A3B491E02F80139F4D50E9A002AEE
:1008C00040F1AC80411E0E91A8E00099DFF80027AE
:1008D00047F29750414391FBF2F20092DDE92C453B
:1008E000C2F10702002A25F0004504DD2046294612
:1008F00000F04AFB0BE052420020DFF8D81600F06F
:1009000043FB02460B462046294600F0D3FE044630
:100910000D46B8F1660F06BF009F0A3706270E98EE
:100920003F18142FC8BF142730208DF884000DF114
:100930008506002F34DD2046294600F0DFFF014602
:100940000A4606F1080304200A26B2FBF6F606EB77
:10095000860EA2EB4E02303203F8012C0A22B6FBBF
:10096000F2F202EB820EA6EB4E063036401E03F882
:10097000026DE9D1083F002F03F10806D9DD0846D2
:1009800000F0CEFF02460B462046294600F020FE2E
:100990000022DFF8443600F0D1FF04460D46CAE7D6
:1009A0000DF18500361A0DF1850404E00098401E13
:1009B000761E0090641C20783028F7D0B8F1660FBE
:1009C00002D10098401C04E0B8F1650F0CBF012073
:1009D00000200E9940188642B8BF701E00281DD412
:1009E000B04204DA215C3429C8BF392100DC30214F
:1009F0000246631E9D1800E0401E15F80169521E54
:100A00008E42F9D0392902D1A15C491CA154002A97
:100A100004D50099491C1C46401C00910646009DC7
:100A200001F062F8406A0778DDF8388030B20028BB
:100A300002DC01260FF21C644BF02000662808BF80
:100A40006D1C16D0672845D128B210F1040F47DB82
:100A5000404545DA9DF840006D1C010703D430B2D3
:100A60004045D8BF804628B2B8EB000848BF4FF0D9
:100A700000080FFA85FBBBF1000F00F3B380089864
:100A8000411C0891302205990A54B8F1000F03DC8B
:100A90009DF84000010704D50898411C089105996C
:100AA0000F5418EB0B0FB8BFC8F100052DB2684208
:100AB000454432B20B909542B8BF2E46059B08982C
:100AC00036B2099632462146184400F03FFBAD1B72
:100AD0000C95D1E0BBF1610F17D14FF0700B19E00D
:100AE00030B2404504DA9DF840100A0758BF8046EE
:100AF000B8F1010848BF4FF00008BBF1670F14BF01
:100B00004FF0450B4FF0650B04E0BBF1410F08BF00
:100B10004FF0500B0898411C0891B8F1000F05994F
:100B200014F8012B0A5403DC9DF8400001071AD584
:100B30000898411C0891B8F1000F05990F5412DD77
:100B4000761E30B28045B8BF46460598089B32B243
:100B50002146184400F0FAFA089836B23018089086
:100B6000A8EB06000B9005980899014428B20028CC
:100B700081F800B003D42B204870891C04E02D229A
:100B80004A700546891C6D4200202CAA0AE02B46BB
:100B90000A2593FBF5F505EB8504A3EB440302F866
:100BA000013B401C2DB2002DF1DC012806DC4BF08E
:100BB0002002652A04BF302201F8012B00282CAA4C
:100BC00008D1302001F8010B06E0401E135C3033E1
:100BD00001F8013B0028F8DC059A08981044091A2E
:100BE000099149E030B229B288421CDA0598089B85
:100BF00032B22146184400F0A9FA089936B27118A9
:100C00000891ABEB0600B8F1000F0B9003DC9DF8E8
:100C10004000020704D5059847540999491C0991D9
:100C2000CDF8308028E00598089B2AB22146184468
:100C300000F08CFA0898761B5844B8F1000F089021
:100C400003DC9DF840100A0703D5411C0891059963
:100C50000F5430B28045B8BF46460598089B32B263
:100C600004EB0B01184400F071FA089836B2301802
:100C70000890A8EB06000B909DF8400000F01400CF
:100C8000102840F0C280079A08980B99821809989A
:100C90008A1882180C980F998018884280F2B580C3
:100CA000081A0A90B1E09DF84200622808D068282E
:100CB0000ED06A2814D06C281FD0712810D01CE0E8
:100CC000D9F8001051F8040BC9F80010C0B21AE0AE
:100CD000D9F8001051F8040BC9F8001080B212E0E6
:100CE000D9F80000C21D22F00702C9F80020D2E99D
:100CF00000010832C9F8002006E0D9F8001051F8C8
:100D0000040BC9F800100021CDE902019DF8400054
:100D100002075AD5DDE90201002908BF002854D096
:100D20004BF02002782A50D1079812A930230B5497
:100D3000401C421C079201F800B046E09DF84200BA
:100D4000622808D068280ED06A2814D06C281FD0DA
:100D5000712810D01CE0D9F8001051F8040BC9F824
:100D6000001040B21AE0D9F8001051F8040BC9F88D
:100D7000001000B212E0D9F80000C21D22F00702F4
:100D8000C9F80020D2E900010832C9F8002006E0C5
:100D9000D9F8001051F8040BC9F80010C117CDE9BB
:100DA0000201002902D507982D210AE0BDF8400074
:100DB000810702D507982B2103E0C00705D50798C6
:100DC000202112AA1154401C079012A8079901442F
:100DD0000591594602A800F04DF816E00120079051
:100DE000D9F8001051F8040BC9F800108DF848002C
:100DF0000BE001202521BBF1000F07908DF8481072
:100E000003D0022107918DF849B00F9D07980A99E8
:100E10002D1A08986D1A0B992D1A09986D1A0C99AC
:100E20002D1A9DF840006D1A41073FF5D2AA2020E7
:100E3000002D8DF800007FF7CCAA309E2C46FFF7DE
:100E4000BCBA4FF0FF3031B0BDE8F08FCBCCCC0C4A
:100E5000686A6C747A4C00007072696E74665F73B5
:100E60003A2062616420257320617267756D656E3A
:100E7000740000002DE9FC4D06468846376940465F
:100E80006F2808BF082405D0FFF77EF9782814BF23
:100E90000A241024D6E900013C2582468B46B8F18D
:100EA000640F18BFB8F1690F05D1002903D5DAF135
:100EB000000A6BEB4B0BBBF1000F08BFBAF1000F40
:100EC0000CD1306B50B9082C3AD196F83800010794
:100ED00036D530223B2587F83B2031E08DF8008065
:100EE000504659462246002300F002FE3032D0B26E
:100EF0006D1E3A2801950EDA7A555046594622461B
:100F0000002300F0F5FD82465FEA010B08BFBAF14D
:100F1000000F05D108E09DF800001218513AEBE7E8
:100F2000F06879198842DBD3082C09D196F838008B
:100F3000010705D5785D302802D06D1E3020785528
:100F4000C5F13C02306BB26179198242F16008DA76
:100F5000318F821A4FF6EF70014031873262BDE85F
:100F6000F38D00280ED596F8380000F014001028F4
:100F700008D1736B7069316A1B1A5B1A9B1A002BBC
:100F8000C8BF3362BDE8F38D2DE9D04306460F4656
:100F900014464FF00008DFF8449012E0E00707D550
:100FA00042464B463046394600F0C8FC06460F46DE
:100FB0004046494642464B4600F0C0FC641080461D
:100FC0008946002CEAD130463946BDE8D08300007E
:100FD000A08601000000F03F84D797410000244024
:100FE000F8B505460E4617461C4600205CB117F8BA
:100FF000011BB068A847B06030B1F06A401CF062D5
:101000000020641EF3D1F2BD4FF0FF30F2BD0000AE
:101010007072696E74665F733A20256E206469731E
:10102000616C6C6F776564007072696E74663A20EB
:1010300062616420256E20617267756D656E740053
:10104000000000006E616E004E414E00696E660049
:10105000494E460030000EE0026843680244083002
:101060005FEAC37C44BF4B445B1E52F804CB43F899
:1010700004CB091FF9D150F8041B0029ECD17047AB
:10108000C9B202788A421AB11CBF10F8012FF9E7E1
:1010900018BF002070470268531C0360117070472E
:1010A00080B500B906A005490B681BB122220021BA
:1010B000984701E000F09FFD222002BDD8010020EA
:1010C000636F6E73747261696E742068616E646CB4
:1010D00065723A20626164206D65737361676500B3
:1010E00000F1010310F8011B11B110F8011BFBE71F
:1010F000C01A7047C9B2830706D0521E22D310F817
:10110000013B9942F7D11FE0083A13D302F10402E0
:1011100041EA012141EA014150F8043B121F21BF7D
:101120004B40A3F1013C2CEA030C1CF0803FF3D0B0
:10113000C9B2001F0832521E24BF10F8013B91EAC9
:10114000030FF8D818BF0120401E704762B38B0709
:1011500008D0521E11F8013B00F8013B00F024803A
:101160008B07F6D1830740F0208000BF103A07D3E9
:1011700030B4B1E83810103AA0E83810F9D230BCD9
:10118000530724BFB1E80810A0E8081044BF51F885
:10119000043B40F8043BD20724BF31F8022B20F86F
:1011A000022B44BF0B7803707047121F17D35B00EC
:1011B00009D151F8043B20F8023B1B0C121F20F808
:1011C000023BF6D20BE051F8043B00F8013B1B0A4E
:1011D00020F8023B1B0C121F00F8013BF3D238BF72
:1011E000121D521E24BF11F8013B00F8013BF8D834
:1011F00070472E0010B5144600F002F8226010BDB2
:10120000C1F30A5343B14A0012F5001F28D2A3F2DA
:10121000FE32A1EB0251704750EA410C20D001F0A0
:10122000004C31EA0C01B1FA81F204BFB0FA80F34C
:10123000D2180B3AB2F120032CBF00FA03F191400F
:1012400041EA0C013EBFC2F1200C20FA0CF3194315
:101250009040524240F2FD33D21A01EB03517047E5
:101260000022704741EA030C50EA4C0C52EA0C0C85
:101270004FF4001C09D307D01CEB410F9CBF1CEBA3
:10128000430F8B4208BF824270471CEB430FFBD8D1
:10129000994208BF9042704741EA030C50EA4C0C57
:1012A00052EA0C0C4FF4001C09D307D01CEB410F81
:1012B0009CBF1CEB430F994208BF904270471CEB48
:1012C000410FFBD88B4208BF82427047124254D470
:1012D00040F2FF7C1CEA11530FD0634531D09B18BC
:1012E00063453CBF01EB0251704701F0004141EA08
:1012F0000C510020AFF30080704750EA410320D02A
:1013000001F0004C91EA0C011CD0B1FA81F30B3BC7
:101310009A420DD9D21A994051EA0C01C3F1200C1E
:1013200020FA0CFC61449840531C40F2FF7CD7E744
:10133000914041EA0C01C2F1200C20FA0CF3194350
:1013400090407047B0FA80F31533202BE0D3202A69
:10135000EED3203A203B9A4209D9D21A00FA03F17F
:1013600041EA0C010020531C40F2FF7CB8E700FA70
:1013700002F141EA0C0100207047524240F2FF7C2A
:101380001CEA11530DD06345DBD0B2EB030C3CBF1C
:10139000A1EB025170470CF1010221EA035141F423
:1013A000801150EA410CCCD001F0004C352A27DCEA
:1013B00030B481EA0C01B2F1200309DAC2F1200352
:1013C000044601FA03F5D0402843D1409C400CE08C
:1013D000C3F12002450020FA03F418BF44F00104D1
:1013E00021FA03F091400C43002174F1004550F1C3
:1013F000000051EB0C01244230BC7FF47BAF7047FE
:101400006146002076E70000C1F30A5340F21E4215
:10141000D31A0CDDCA0283F3070342EA505242F0AA
:101420000042DA4002EBE17282EAE17070476FEA53
:10143000E17203F2E13008B182F000407047000031
:1014400010F0004160B148BF4042B0FA80F29040D5
:10145000D21CC2F5846241EA025202EBD02140055F
:1014600070470000841A71EB030604D26E40001B23
:10147000B141121973414FF4001C1CEB410F34BFF2
:101480007CEB430683E00C0DA4EB1356362E00F3E1
:101490007C80012E45EAC32341DC43EA525312BF4C
:1014A000D20292025B08240545EAC12141EA50516B
:1014B000D2EBC020994125D407D1B0FA80F610FABA
:1014C00006F162D00020203608E0B1FA81F6B14082
:1014D000C6F1200220FA02F21143B0404FEAF47440
:1014E000B4EB465434F001064FEA74040AD8D6F53A
:1014F0000016760D04F00044F04061FA06F2504008
:10150000F1404840C00A40EA415021F0004128BF64
:101510005FEA500550F1000044EBD12135E0DB0AD1
:1015200045EAC121C90AB6F120050EDD42EA0242B0
:10153000120CC5F1200603FA06F6EB4042EA060556
:101540006D42984161F100010DE062FA06F5F2404A
:10155000554063FA06FC82EA0C02F3405A406D42A1
:10156000904161EB030111F4801F05D1641E6205F7
:1015700002D06D004041494121F48011430875F1CA
:10158000004350F1000041EB045170BC70471CEB6C
:10159000410F15D223F0004352EA43060BD04FEA25
:1015A0004C0CBCEB410F04D80C0D661E342EB7DD7D
:1015B000EBE7801A994150EA410608BF0021E4E7B1
:1015C00008BF1CEB430F28BF6FF00001DDE70000F0
:1015D00070B491EA030F4FF000457FF543AF6B40C5
:1015E000841A71EB030603D2001BB1411219734137
:1015F0004FF4001C1CEB410F34BF7CEB430442E072
:101600000C0DA4EB1356352E4FDC45EAC323DB0A41
:1016100045EAC121C912B6F120050DDD63FA05F6D0
:10162000EB4086EA0305124218BF45F00105C018D9
:1016300051F100010CD213E062FA06F5F240554078
:10164000F3415A40B340F3405A408018594107D300
:1016500049085FEA30005FEA350528BF45F001051B
:1016600001F58011420875F1004250F1000041EB94
:1016700004514E0016F5001F70BC38BF70470020A3
:10168000090D090570471CEB410F10D252EA4306C1
:101690000BD0BCEB410F05D80C0DAB43661E342EAE
:1016A000B6DD02E0AB438018594170BC704770BC96
:1016B00070470000F0B540F2FF7581EA030C0CF0B2
:1016C000004C15EA11541DBF15EA1357AC42AF4246
:1016D000E5E0BC41C1F31301C3F31303801A994140
:1016E00043F4801304D2641E001849418018594104
:1016F000C90241EA5051B1FBF3F603FB1611A2FBFC
:101700000675D7EBC020A94102D2761E8018594138
:10171000C90241EA5051B1FBF3FE03FB1E11A2FBCB
:101720000E75D7EBC020A94103D2AEF1010E80188F
:101730005941890241EA9051760546EA8E2EB1FB65
:10174000F3F603FB1611A2FB0675D7EB8020A94127
:1017500002D2761E80185941C90241EA50514EEA20
:10176000060EB1FBF3F603FB1611A2FB0675D7EBD1
:10177000C020A94102D2761E80185941C90241EA0F
:101780005051B1FBF3F703FB1711A2FB0735D3EB65
:10179000C020A94167F100070CBF004247F00107D4
:1017A00066F3D5274FEA1E31B80814F5806412DDC0
:1017B000BD0775F1004250EB0E5051EB045111F58D
:1017C000801F5CBF41EA0C01F0BD4CF07F6141F02D
:1017D000E0410020F0BDBD076D0840EA0E5041F425
:1017E0008011D4F10104B4F120060ADAC4F1200614
:1017F0000200E04001FA06F3E1401843B24015430D
:101800000EE0342C13DCC6F1200445EA40056D08D7
:1018100020FA06F2154321FA06F0A1400D430021FB
:1018200075F1004250F1000051EB0C01F0BD0020B9
:101830005FEA0C01F0BDCFB992185B41B3FA83F7B0
:1018400004BFB2FA82F6BF190B3FB7F120062FBFD3
:1018500002FA06F3BB40C7F1200622FA06F638BFAB
:101860003343BA401CB1E419641E33E77F4231F0C0
:101870000041B1FA81F404BFB0FA80F6A4190B3C20
:10188000B4F120062FBF00FA06F1A140C4F12006F2
:1018900020FA06F638BF3143A0403C1B1AE7AC42A1
:1018A0001ABF05EA1357AF4212E050EA41061CBFC7
:1018B00052EA4306BFE750EA4107304661461CBF83
:1018C00041EA0551F0BD52EA430C08BFC143F0BDE7
:1018D00000204FF4001616EB410F98BF16EB430F94
:1018E00008BF16EB410F24BFC14305E016EB430FC1
:1018F0000CBF61464CEA0551F0BD0000400D40F2BE
:101900001E4C40EAC120BCEB115C40F0004003D407
:101910008CF30701C84070476FEAE1707047000020
:1019200050B1B0FA80F18840C91CC1F58461090545
:1019300001EBD021400570470146704730B540F2B9
:10194000FF7C1CEA11541DBF1CEA13556445654514
:101950003FE0641981EA030C6FF35F530CF0004C15
:1019600043F48013C90241F0004141EA505EC502D0
:101970001100A5FB020200284FF00000EEFB012041
:101980004FF00001E3FB052118BF42F001024018AF
:1019900000214941E3FB0E01A4F580640D0302D24E
:1019A00092184041494154F1010470DD450872F13B
:1019B000004250F1000051EB0451A1F5801102D416
:1019C00041EA0C0130BD40F2FF7E4CEA0E5100208E
:1019D00030BD0CEA1355644518BF654581EA030C18
:1019E0000CF0004C41D050EA410E1CBF52EA430EAD
:1019F00002E06146002030BD24422C441BD15FEA46
:101A0000050EF6D0090302BF01460020AEF1140E08
:101A1000B1FA81F5AEEB050401FA05FE0C35C5F10E
:101A2000200100FA05F5C8404EEA000E6FF35F533F
:101A300043F480139CE733F00043B3FA83F504BF0B
:101A4000B2FA82FE75440B3D641BB5F1200E2FBF28
:101A500002FA0EF3AB40C5F1200E22FA0EFE38BF9B
:101A600043EA0E03AA40641C7CE750EA410E14BF0F
:101A700052EA430E6FF000014FF4001515EB430FCF
:101A80008EBF194615EB410F9DE7B4D830BDD4F198
:101A90000104B4F120050FDAC4F12005520828BF73
:101AA00042F0010210FA05FE01FA05F57244E2BFA8
:101AB000E0402843E1400FE0352C9ADCC5F12004DA
:101AC00052EA400220FA05F218BF42F0010231FA50
:101AD00005F0A1400A43002172F1004250F10000DC
:101AE00051EB0C0130BD0000004870471000002091
:101AF000D3BBD9B1B2F5803F5BD2022A1ED98C4646
:101B0000B1FBF2F102FB11C31B0443EA1043B3FB28
:101B1000F2FC02FB1C3380B240EA0343B3FBF2F059
:101B200002FB103240EA0C4000237047022A05D91C
:101B30008446B0FBF2F002FB10C270474AB105D1F7
:101B400000F0010249085FEA3000704700220023DC
:101B5000704700F053B80B000200002100207047CE
:101B6000F7D3002200237047904271EB030CF2D3AD
:101B700070B5B1FA81F4B3FA83F52C1BA340C4F11C
:101B8000200532FA05F63343A2405FF00046E640F6
:101B900002E05B085FEA3202841A71EB030524BF9E
:101BA000204629467641F4D302000B003000002184
:101BB00070BD70B5B1FA81F4B2FA82F5C4F12004B7
:101BC0006419B4F12006DAD3B2405FF00044F44067
:101BD000002502E052085FEA3303C61A71EB020ED9
:101BE00024BF3046714664416D41F3D302000B00BF
:101BF0002000290070BD012000F002B870470000ED
:101C000080B5AFF30080024A11001820ABBEFBE79D
:101C10002600020038B5040001D1012032BD606AFF
:101C200028B900F0E0F805D00021E16102E00020D1
:101C3000206160610020A06204F15005687820B93D
:101C400000212970204600F050FB0220687000F04F
:101C5000CEF86068A168E26800F4827001F4044183
:101C60000843217C02F400621043227D01F002014E
:101C70000843A16902F001021043227F01F40071C0
:101C8000084394F8201002F038021043A26A01F0D1
:101C900080010843216802F4005210430860A069E3
:101CA00094F824102268000C00F0040001F01001E8
:101CB000084350602068C16921F40061C1610020BF
:101CC00068600121697032BD70B509B1130001D19E
:101CD000012070BD00F150035C78012C02D11D7809
:101CE000012D01D1022070BD1C7003255D700026FE
:101CF0005E6001638286C286002181638187C1871D
:101D00000164C168002919BF0FF2FD2242640FF27D
:101D1000D92141648168B1F5004F05D100F012F876
:101D20000C6844F480440C6001680A68540603D4CB
:101D30000A6842F040020A601E700068426842F081
:101D4000A00244E001680A6822F040020A600168CB
:101D5000704770B500F150056E78012E07D04468C9
:101D6000B4F5827F02BF8468002C042E0AD10029BA
:101D700018BF002A01D01C0001D1012070BD2C78B1
:101D8000012C01D1022070BD01242C706E78042E2C
:101D90001CBF05246C7000266E6001638386C386B9
:101DA00082638387C387C16821B10FF2DD120FF20E
:101DB000092103E00FF271120FF29D1102644164D8
:101DC00000F008F82E700068426842F0E0024260BD
:101DD000002070BD01680A68530603D40A6842F007
:101DE00040020A6070476068B0F5827F70472068E3
:101DF000016821F04001016070477CB5044622680B
:101E00005168936803F04100012806D1480604D5C3
:101E1000216C2046BDE87C400847980706D50D0692
:101E200004D5616C2046BDE87C40084713F4B07FC0
:101E300064D0880662D55D060ED594F8510003285B
:101E40004FD0656D45F00405656500200090D568AC
:101E500000959668009600989D060ED5666D46F032
:101E60000106666500200090926800922668356839
:101E7000304625F040050560009AD80509D5626D09
:101E800042F008026265002000902268906800908D
:101E9000009A606D90B32068426822F0E0024260D0
:101EA000012011F0030F84F8510022D020680FF2B6
:101EB0005D054168890889004160E06C28B10565CD
:101EC000E06C00F09FFA00F029F8A06CB0B1056555
:101ED000A06C00F097FA88B1606D40F0400060653A
:101EE00073BD00200090D168009192680092009824
:101EF00073BD2046BDE8764000F096BA73BD2068F9
:101F0000416821F02001416070470000806B002192
:101F1000C1870022C28600F087BA000018B1606D48
:101F200040F04000606570470268117B826B117061
:101F3000816B4B1C8363C18F4A1EC287C18F49B915
:101F400001684A6822F060024A60C18E002908BF19
:101F500000F0FCB870470000036B02681978117339
:101F6000016B4A1C0263C18E4A1EC286C18E49B9EA
:101F700001684A6822F080024A60C18F002908BFC8
:101F800000F0E4B8704700000268D168826B1180ED
:101F9000816B8B1C8363C18F4A1EC287C18F49B975
:101FA00001684A6822F040024A60C18E002908BFD9
:101FB00000F0CCB870470000036B02681988D1604C
:101FC000016B8A1C0263C18E4A1EC286C18E49B94A
:101FD00001684A6822F080024A60C18F002908BF68
:101FE00000F0B4B870470000036B026819781173F1
:101FF000016B4A1C0263C18E4A1EC286C18E002933
:1020000008BF00F0F3B87047036B02681988D1600D
:10201000016B8A1C0263C18E4A1EC286C18E0029D2
:1020200008BF00F0E3B870472DE9F843089C064666
:102030000F469046994600F0F9F9A9EB00002418E4
:1020400000F0F4F98A4A11684901090D61430091D1
:10205000054605E0009800B900240098401E009055
:10206000306881683940B9420CBF012000204045EA
:1020700032D019F1010FF3D000F0D8F9401BA04283
:1020800001D2002CE6D13068416821F0E0014160C6
:102090007068B0F5827F09D1B068B0F5004F18BF05
:1020A000B0F5806F02D13068FFF7A2FEB06AB0F5DC
:1020B000005F09D13068016821F400510160306887
:1020C000026842F40052026006F1500001214170A2
:1020D00000220270032000E00020BDE8F2837CB5FE
:1020E0000D461646044600962B4601220221FFF7B4
:1020F0009BFFB8B95E485F4902681823B2FBF3F34F
:10210000B3FBF1F14FF47A70414300916168B1F58E
:10211000827F0AD100962B46002280212046FFF7BD
:1021200083FF58B100F00CF876BD009830B10098EC
:10213000401E0090216888680106F6D4002076BD14
:10214000606D40F020006065032070471CB500F012
:102150006EF80246FFF7D3FE009818B100F026F89B
:10216000FAD503E0606D40F02000606564212046F0
:10217000FFF7B5FF00F021F800F025F8606D80B999
:1021800094F85100042804D1012184F8511020460C
:1021900024E0012084F851002046BDE8164000F0FC
:1021A0006CB9012084F8510020461BE00098401EC5
:1021B0000090216888688107704718B1606D40F011
:1021C000200060657047A06838B900210091206840
:1021D000C16800918268009200997047BDE816407E
:1021E00000F07AB9BDE8164000F01EB91CB500F049
:1021F0001EF80246009818B1FFF7D8FFFAD503E0A1
:10220000606D40F0200060652068416821F0A00109
:10221000416020466421FFF762FFFFF7CEFF00F028
:1022200015F800D0DEE7BDE8164000F03CB90446E2
:102230000F4802681823B2FBF3F34FF47A71B3FB33
:10224000F1F164204143009100F0F0B8A06838B982
:10225000002100912068C168009182680092009975
:10226000012284F85120606D00282046704700004C
:102270000C00002040420F0080B55A485A490160C6
:102280004FF48272012142604161022228210261E1
:10229000C16100234FF400720A218360C360826130
:1022A000036243628362C162FFF7B4FC00B118E0CD
:1022B00001BD002280B54D484260C26002224C49F7
:1022C00001600261002301210A2283604161836170
:1022D000036243628362C262FFF79CFC00B100E0CC
:1022E00001BDBDE8014000F0A7B910B586B00446B5
:1022F00014210022684600F0ABF921683A4A3D48B3
:1023000091421ED100210591426942F480524261FE
:10231000416901F4805100F053F843F00103036078
:10232000006800F001000590E02000F050F832480D
:1023300000F098F900220021232000F0A4FA2320C5
:102340003AE02B4A914239D100210591026942F4C9
:1023500080420261016901F4804105910021059AE2
:102360000591036843F004030360016801F0040170
:1023700000F026F843F002030360006800F002005A
:1023800005900C2000F023F81C4800F06BF90221A6
:102390000191002202924FF4A0500321009003917A
:1023A000052204926946164800F05CF900220021DB
:1023B000242000F068FA242000F082FA06B010BD54
:1023C00005910021059A0591022103687047059A3D
:1023D00001910022029203210090039105220492B0
:1023E000694670474800002000300140A0000020EE
:1023F000003800403038024000000240000802402F
:102400000004024090F83510022903D08022426572
:1024100001207047052180F83510006802685208D5
:102420005200026000207047704700000148406879
:10243000704700BF00000020FEE7FEE7FEE7FEE772
:10244000FEE770477047704780B500F061FA1A48A0
:102450000188491C8AB2B2F57A7F03DB174B01224F
:1024600000211A70018001BD154800F0B3BB15486A
:10247000FFF7C3BC1448FFF7C0BC1249884207D11C
:10248000124B0120187001221021114800F0C9B927
:10249000704780B50A4800F035FC0E490204120E60
:1024A0000A70487001BD084B984204D102220949C4
:1024B0001846FFF709BC7047DC010020D20100205C
:1024C000F800002048000020A0000020D3010020D8
:1024D00000000240D601002070470000F8B58AB025
:1024E00000F0C0FC00F04AF800F0D6FCFFF7C4FE94
:1024F00000F01EFD00F070FDFFF7DBFE00F0DCFDDC
:102500004448454CDFF814514CA6454F00F02FFECF
:10251000444800F0BAFA0222A11D4348FFF7D4FB59
:10252000A07860B10021A170002210213F4800F086
:1025300078F902232246211D3846FFF70AFCE0788D
:102540000028EDD00021E17040F6FF72207861781C
:1025500001EB002140F6E440414391FBF2F292B2DC
:102560003146684600F064FF6846FEF7B9FD82B266
:102570000A236946284600F0B7FFD1E780B592B03C
:10258000302106A801F0DCF8142101A801F0D8F8E8
:10259000002000902648016841F0805101600068E9
:1025A00000F08050009000200099009021480168C0
:1025B00041F4804101604FF48031006800F48040B4
:1025C00000900120009A079102224FF480010C92A2
:1025D0000D91042240210E920F91069002220421B7
:1025E0001092119106A801F0AFF808B100F024F89C
:1025F000022102910F200190902200210392049168
:10260000059101A801F028FA08B100F015F813B0FF
:1026100000BD000040010020D00100208801002002
:1026200048000020F8000020A00000200000024028
:10263000403802400070004072B6FEE7566F6C747E
:102640006167653A202564206D56200D0A00000060
:102650004018491C1CBFB1F1010100F8012DF9D14E
:10266000704700002DE9F84F0022704CDFF8C08160
:102670004FF00F0901230F6893401F409F4240F025
:10268000CA804FEA420C032505FA0CF56FEA050EE5
:102690004D6805F00306012E1CBF05F00305022D51
:1026A00010D18568CE680EEA050506FA0CF63543AA
:1026B0008560456825EA03034D68C5F3001595401C
:1026C0002B43436093000D7905F00305032D1ED0C5
:1026D000C5688E680EEA050506FA0CF63543C56036
:1026E0000D7905F00305022D11D1D50800EB850504
:1026F00003F01C06D5F820B009FA06FA2BEA0A0BFB
:10270000D1F810A00AFA06F646EA0B062E62056812
:102710000EEA05060D7905F0030505FA0CF545EA04
:10272000060CC0F800C04D6815F4403F73D04FF060
:10273000000ECDF800E04FEA920CD8F8005045F4B6
:102740008045C8F8005003F00C03D8F800E0394D7C
:102750000EF4804ECDF800E0DDF800E055F82C6076
:1027600009FA03F5AE43344DA84208BF4FF0000EFE
:102770002AD0324DA84208BF4FF0010E24D0304D70
:10278000A84208BF4FF0020E1ED02E4DA84208BF2F
:102790004FF0030E18D02C4DA84208BF4FF0040E86
:1027A00012D02A4DA84208BF4FF0050E0CD0284D7C
:1027B000A84208BF4FF0060E06D0264DA8420CBF17
:1027C0004FF0070E4FF0080E0EFA03F3DFF864E047
:1027D00033434EF82C30FE43A3684D683340ED027E
:1027E00048BF3B43A360E3684D683340AD0248BF38
:1027F0003B43E36063684D683340AD0348BF3B43F0
:102800006360236806EA030C4B68DB0348BF47EAB2
:102810000C0CC4F800C0521C0F2A7FF62BAFBDE889
:10282000F18F02B90904816170470000003C01404A
:1028300044380240083801400000024000040240D1
:1028400000080240000C0240001002400014024048
:1028500000180240001C02400901020002D4264870
:1028600081547047254B02F00F021A4402F8041CF1
:10287000704723490A6860F30A2240F2FA5060F375
:102880001F420A60704770B51D4B1C68C4F30223D9
:102890000124C3F10705052D2EBF0F2504FA05F508
:1028A0006D1E1E1D072E34BF0023DB1E29409940DC
:1028B00004FA03F3BDE870405B1E1A401143CBE7F6
:1028C000010007D4012200F01F010E4B8A4040098D
:1028D00043F820207047401EB0F1807F01D30120D3
:1028E00070470949094A48600023F02010708B6046
:1028F000072008600020704700E400E018ED00E0C9
:102900000CED00E000E100E010E000E023ED00E06D
:102910000248416802788A1842607047000000202F
:1029200070B5044600250CB9012070BD04F13006D5
:10293000306928B9204600F080FB002070613073B8
:102940003069C10600F192803069DFF8F41420F498
:10295000885040F002003061086820F44030086080
:102960000A68606802430A602068416821F4807147
:10297000416020684168226941EA02214160206883
:10298000416821F04071416021684A68A0680243B3
:102990004A602068816821F40061816021688A684A
:1029A000E06802438A602068A16ADFF898249142B7
:1029B000816821F0706181600CD021688A68A06A0A
:1029C00002438A6000F05BF821688A68E06A02438B
:1029D0008A6001E000F053F82068816821F002016C
:1029E00000F049F8227E41EA4201816094F820001B
:1029F0002168002848680FD040F4006048602068D3
:102A0000416821F46041416020684168626A521E59
:102A100041EA4231416002E020F4006048602068F1
:102A2000C16A21F47001C1622068C16AE269521E64
:102A300041EA0251C1622068816821F4007100F00E
:102A40001AF8327841EA422100F015F821F4806149
:102A500000F011F8626941EA822181600020706112
:102A60000120316960F30101316100E0012500209E
:102A70003073284670BD8160206881687047206887
:102A8000816821F040518160704738B500F07BF8D3
:102A900001D1022032BD00F07EF837D500F050F8A9
:102AA00046BF906820F00600002000F038F8086863
:102AB000DFF88C23436843F0806343F020034360D6
:102AC00000F05AF817D188420FD0DFF87C13884203
:102AD00004D1126812F01F0F1AD106E0DFF86C1350
:102AE000884215D100F016F812D200F001F90FD18A
:102AF00000F03DF80CE0884202BFDFF854030168A3
:102B000011F0405F04D100F02DF801E000F00FF863
:102B1000002032BD126802F01F02102A7047906038
:102B2000002313706FF022000A681060704750682D
:102B300040F010005060906840F0010090607047D5
:102B40005468DFF81003044044F4807454605868FB
:102B5000430504D55368012060F30D33536050687A
:102B6000C3047047016841F080410160704781688B
:102B700041F080418160704708681368DFF8D8121F
:102B800013F01F0F70470146002001F13C02009036
:102B90001378012B70470120107008688368DC07E8
:102BA00014D48368DFF8B44243F0010383602068E3
:102BB000DFF8AC32B0FBF3F303EB4303009302E026
:102BC0000098401E009000980028F9D10B68986882
:102BD000C507704770B5044621680D680846466809
:102BE000A8072CD5B1062AD5206CC10603D4206CC9
:102BF00040F400702064206800F07AF804BF207E62
:102C0000002815D12168C86A10F4700F03D0084657
:102C1000816848050CD42168486820F0200048608D
:102C2000206C20F480702064206CC10400F064F8F3
:102C30002046FFF72EFC21686FF01200086068073D
:102C400031D531062FD5206CC10603D4206C40F459
:102C5000005020642168886810F4401F1CD1886BE4
:102C600010F4401F02D08868420515D44868420518
:102C700012D4886810F0405F04BF207E00280BD17A
:102C8000486820F080004860206C20F48050206468
:102C9000206CC10500F030F8204600F083FF216869
:102CA0006FF00C000860E80710D571060ED520689B
:102CB0000268D1070AD5206C40F480302064204699
:102CC00000F071FF21686FF001000860A8060ED5C2
:102CD00071010CD5606C40F0020060646FF020055B
:102CE00020680560204600F05FFF21680D6070BD20
:102CF000816811F0405F704703D4206C40F0010000
:102D0000206470470068C06C704778B502460020A8
:102D1000009092F83C30012B01D1022072BD0120BD
:102D200082F83C0007240B6810680A2B11D30A3B79
:102D3000C56803EB430300F076F8C460C3680D6810
:102D40008C68A5F10A0606EB4606B4402343C3602F
:102D50000FE0056903EB430304FA03F325EA0303D9
:102D6000036103690D688C6805EB4505AC4023439E
:102D700003611F244B68072B0CD25B1E456B00F0D0
:102D800050F84463436B4D680C886E1E00F044F8A5
:102D900043631BE00D2B0CD2DB1F056B00F041F8E9
:102DA0000463036B4D680C88EE1F00F035F8036375
:102DB0000CE00D3BC56A00F034F8C462C36A4D688C
:102DC0000C88A5F10D0600F027F8C362224B98424B
:102DD0001DD10C681A48122C03D1036843F48003F8
:102DE00003600B68102B18BF112B10D1036843F43C
:102DF000000303600868102809D1184C184923689B
:102E0000B3FBF1F10A204143009100F010F80021DA
:102E100082F83C10002072BD06EB8606B4402343C6
:102E2000704703EB83039C4025EA0404704702E0EB
:102E30000098401E009000980028F9D170470000CB
:102E4000042301400100000F002101400022014045
:102E500008200140FEF9FFFF002001400C00002087
:102E600040420F0080B50B48016841F400710160D9
:102E7000026842F480620260016841F4807101607E
:102E80000320FFF7F6FC0F2000F090FE00F0AEFEEE
:102E9000002002BD003C024010B586B01421002283
:102EA00001A8FFF7D5FB00211C481D4C00910268CA
:102EB00042F080020260016801F0800100F032F807
:102EC00043F004030360016801F0040100F02AF8F4
:102ED00043F001030360016801F00101009100214A
:102EE000009A00910122036843F00203036010215D
:102EF000006800F00200009000982046FFF791FC67
:102F000001210291102002210190002204910392DC
:102F100001A92046FFF7A6FB06B010BD30380240DD
:102F20000000024000910021009A00910368704760
:102F300080B52548254901604FF4E132002308217E
:102F400042608360C360036141618361C36100F0DB
:102F50008FFA18B1BDE80140FFF76EBB01BD10B597
:102F600086B004461421002201A8FFF771FB2168F6
:102F7000164A914225D1002000901548416941F040
:102F800010014161416901F0100100910021009A96
:102F900000910221036843F001030360006800F020
:102FA000010000904FF4C060009A02910022039249
:102FB0000321019004910722059201A90548FFF71A
:102FC00051FB06B010BD0000880100200010014038
:102FD00030380240000002401FB510210022684630
:102FE000FFF736FB0020304C60602061207684F8CB
:102FF00020004FF060602D49A06221600120002276
:103000004FF08051E0616061A260E162E26084F8AB
:1030100030202046FFF784FC08B1FFF70DFB0020AD
:103020000121009001910222029269462046FFF799
:103030006CFE08B1FFF700FB1FBD10B586B004465B
:103040001421002201A8FFF703FB2168174A9142CF
:1030500028D1002000901648416941F480714161F7
:10306000416901F4807100910021009A00910321CF
:10307000036843F001030360006800F00100009062
:103080000120009A019002910022039201A90948AF
:10309000FFF7E8FA002200211220FFF7F4FB1220CC
:1030A000FFF70EFC06B010BDF80000200020014024
:1030B000303802400000024010B586B010210022D6
:1030C00002A8FFF7C5FA43F67F6000210091019145
:1030D00000221D4C1D496060216040F2E730E06035
:1030E000A26022616261A261204600F033F808B15B
:1030F000FFF7A2FA4FF48050029002A9204600F098
:1031000097F808B1FFF798FA20200021009001916C
:103110002046694600F086FD08B1FFF78DFA06B03B
:1031200010BD81B00068094988420BD100220848CF
:103130000092016841F002010160006800F00200A5
:103140000090009801B07047400100200004014049
:103150004438024038B5040001D1012032BD00F0EE
:1031600054F818B900F04DF8FFF7DBFF35E090F8A0
:103170003D10012901D001207047022180F83D1047
:10318000DFF890200168914218BFB1F1804F17D04D
:10319000DFF8842091421CBFDFF8803099420FD0C5
:1031A000DFF87C2091421CBFDFF87830994207D0CD
:1031B000DFF8742091421CBFDFF87030994205D1CE
:1031C000896801F00701062905D001680A680846E8
:1031D00042F0010202600020704702206870211D49
:1031E000206800F084F80120A8720121A970E8701D
:1031F00029716871A971E87129726872697000207B
:1032000032BD002129702046704704F13C056878E2
:10321000704700000000014000040040000800402A
:10322000000C004000040140004001400018004034
:1032300070B5044604F13C0600253078012801D120
:10324000022070BD0120307002227270DFF844014C
:1032500022689368034093600868020018BF102832
:1032600030D0202818BF30282CD0402826D0502815
:1032700019D060281BD0702806D0B0F5805F27D009
:10328000B0F5005F07D022E000F02CF820688168DC
:1032900041F0770105E000F025F82068816841F4ED
:1032A0008041816014E000F019F850210BE0CA68F9
:1032B0004968206800F095F8602104E000F00EF8FD
:1032C000402100E00146206800F09DF800E0012563
:1032D0000120707000213170284670BDCA684968AD
:1032E00020686FE0CB684A688968206893E0F0B591
:1032F0000368294D294C2A4A2A4E2B4FA84218BF51
:10330000B0F1804F07D0B84218BFB04203D090420E
:1033100018BFA0420ED123F0700C4B6843EA0C0397
:10332000A84218BFB0F1804F17D0B8421CBFB042BE
:10333000904212D0A0421CBF1C4A90420DD01C4E9D
:10334000B0421CBF1B4A904207D01B4EB0421FBF69
:103350001A4A90421A4EB04203D123F44072CB680D
:1033600013434A6923F0800313430360A8428B6828
:10337000C3620A68826212BFA04209690163012226
:1033800042610169CA0703D5016949084900016121
:10339000F0BD00008800FFFF000001400004014074
:1033A000000C0040000800400004004000400140C4
:1033B000004401400048014000180040001C00404B
:1033C0000020004010B5036A046A640864000462C7
:1033D00023F00A03846924F0F00444EA02148461AF
:1033E00023E010B5036A046A24F01004046223F099
:1033F000A003846924F4704444EA0234846143EAFB
:103400000113036210BD826822F07002114341F083
:1034100007018160704710B5846824F47F4421431C
:10342000114341EA0321816010BD1943016210BDBF
:103430000CB430B583B00A4606A9029104460025B3
:103440000194009502AB01A9084878441E30FCF7AE
:103450009EFE019A157000284EBF04460198041B79
:10346000204603B030BC5DF80CFB00BF2BDCFFFF37
:1034700038B5040001D1012032BD04F1400568785F
:1034800008B900F011F800F014F800F023F8FFE795
:10349000416100F018F86860202169702020A87050
:1034A00000216163002032BD002129702046FFF712
:1034B00056BD242068702068C16821F40051C160A5
:1034C000204600F0D9B82068C16841F40051C160BD
:1034D000002070472068016921F490410161206853
:1034E000416921F02A0170472DE9FC4106460D464D
:1034F00096F84100202814461F4640D10DB1200007
:1035000001D101203CE000207064212186F84110A7
:10351000FEF78CFFB4848046F48400F033F804BFD7
:10352000306900281ABF2C460025002412E0002232
:103530008021304600F047F8E0B93068002C12BF17
:1035400014F8011B35F8021BC1F308014160F08C2F
:10355000411EF1844346F08C00970028E7D10022F9
:103560004021304600F02FF820B9202086F8410095
:10357000002005E0202086F84100032000E0022022
:10358000BDE8F681B068B0F5805F7047026802F16F
:103590000C0454E8002F016801F10C03704742F05D
:1035A000010243E8002100297047026802F1140477
:1035B00054E8002F0168520801F11403520043E857
:1035C0000021002970472DE9FC41089C05460E4664
:1035D00090461F46286801683140B1420CBF012067
:1035E000002040452AD114F1010FF3D0FEF71EFF51
:1035F000C01B844200D314B90320BDE8F6812968BA
:10360000C8684207E6D5802E18BF402EE2D0084693
:1036100002681307DED5002000902B681A6800921C
:10362000496800910098284600F00AF805F140002A
:1036300008214160002202700120DEE70020DCE763
:1036400010B5FFF7A3FF22F49072FFF7AAFFF8D19D
:10365000FFF7ABFFFCD1016B012906D1FFF796FF05
:1036600022F01002FFF79DFFF8D1202180F84210D0
:103670000022026310BD000070B506463268116971
:10368000F06821F4405101431161D3682648B168C4
:10369000034030690B4371690343F0690B430343F3
:1036A000D3605169B06921F44071014351611F49F0
:1036B0008A421CBF1E48824202D100F05BFA01E040
:1036C00000F050FA72683468F6691921B6F5004FB7
:1036D000A1FB00016FF0630512D1D30F5200FEF77A
:1036E00007FA00F027F8ED0032356420B5FBF0F062
:1036F000420002F4F87202EB011200F0070010E041
:10370000930F9200FEF7F4F900F014F82D01323512
:103710006420B5FBF0F000F0F00202EB011200F0C3
:103720000F008018A06070BDF369FFFF001001401A
:10373000001401406421B0FBF1F105FB0105704765
:10374000002200F0B5BA00002DE9F843040016D0BD
:103750002078DFF8F462C10713D5B06800F00C00E0
:10376000042807D0B06800F00C0008283ED170682B
:1037700041023BD53068810303D56068002800F022
:103780005D812078DFF8C492810719D5B06810F008
:103790000C0F07D0B06800F00C0008285BD17068EF
:1037A000410258D43068810703D5E268012A40F00D
:1037B00045813068216920F0F80040EAC10030609E
:1037C0002078010774D56069A149002863D00122DF
:1037D0000A60FEF72BFE0546706F810768D4FEF77E
:1037E00025FE401B0228F7D903202AE16068B0F5C6
:1037F000803F04D1306840F48030306011E0B0F593
:10380000A02F306806D140F480203060316841F448
:10381000803105E020F480303060316821F480216F
:103820003160606858B1FEF701FE054630688103DB
:10383000A7D4FEF7FBFD401B6528F7D3D4E7FEF7BE
:10384000F5FD0546306881039BD5FEF7EFFD401B73
:103850006528F7D3C8E7E06870B10121C9F8001006
:10386000FEF7E4FD054630688107A2D4FEF7DEFDD1
:10387000401B0228F7D9B7E70022C9F80020FEF75D
:10388000D5FD0546306881079AD5FEF7CFFD401B70
:103890000228F7D9A8E70860FEF7C8FD0546706F53
:1038A000810705D5FEF7C2FD401B0228F7D99BE72B
:1038B0002078410759D5306C0025C1000BD4002079
:1038C00000900125316C41F080513164306C00F082
:1038D0008050009000985F4F3868C10510D4386858
:1038E00040F480703860FEF7A1FD80463868C1055D
:1038F00006D4FEF79BFDA0EB08000228F6D973E77B
:10390000A068012805D00528306F06D140F00400DA
:103910003067306F40F0010005E04008400030673C
:10392000306F20F00400306741F28938A06858B148
:10393000FEF77CFD0746306F810711D4FEF776FD58
:10394000C01B4045F7D34FE7FEF770FD0746306FC9
:10395000810705D5FEF76AFDC01B4045F7D343E755
:103960001DB1306C20F080503064A069002867D011
:10397000B16801F00C0108293DD002282CD10020AB
:10398000C9F86000FEF752FD05463068810105D593
:10399000FEF74CFD401B0228F7D925E7E269206AB3
:1039A000616A0243A06A400842EA8112401E42EA6C
:1039B0000042E06A42EA006272600121C9F86010C8
:1039C000FEF734FD04463068810139D4FEF72EFD40
:1039D000001B0228F7D907E70020C9F86000FEF7AE
:1039E00025FD0446306881012AD5FEF71FFD001B26
:1039F0000228F7D9F8E6012820D07068E26900F4BF
:103A00008001914202BF00F03F01226A914201BF52
:103A100047F6C0710140626AB1EB821F0ED1A26A03
:103A200000F4403101F580315208B1EB024F02BF82
:103A300000F07060E16AB0EB016F01D0012000E09E
:103A40000020BDE8F28300BF00380240000047427A
:103A5000800E4742007000402DE9F04104000E4600
:103A600054D0494F386800F00700B04202D200F04D
:103A700073F84BD12068454D810712D5400703D517
:103A8000A96841F4E051A9602078010703D5A8682E
:103A900040F46040A860A968A06821F0F0010143EB
:103AA000A9602178C80729D56068012802D1296852
:103AB0008A0305E0022818BF032803D129688A0178
:103AC00003D423E029688A0720D5A968890840EA39
:103AD0008100A860FEF7AAFC8046A868616800F033
:103AE0000C00B0EB810F09D0FEF7A0FCA0EB0800A2
:103AF00041F289318842F0D303202BE0386800F08E
:103B00000700864204D200F027F801D0012021E00E
:103B10002078420705D5A968E06821F4E051014307
:103B2000A9602178080706D5A968206921F46041B9
:103B300041EAC001A96000F0D5F8AA681449154B04
:103B4000C2F30312895CC84018601348006800F093
:103B50002DF80020BDE8F0813E70396801F00701C2
:103B6000B14270470B480D4A006813680C49C3F313
:103B7000822206E00748094A006813680849C3F32F
:103B80004232895CC8407047003C02400038024025
:103B9000443E00080C0000200800002008380240C5
:103BA000B43E0008704770477047000038B50D4DAF
:103BB0000D4B2A7804464FF47A711868B1FBF2F283
:103BC000B0FBF2F0FEF787FE50B9102C08D20022AD
:103BD00021464FF0FF30FEF756FEAC60002032BDAC
:103BE000012032BD000000200C00002081B0002028
:103BF00000900B48416841F480414160416801F404
:103C0000804100910021009A0091036843F08053A5
:103C10000360006800F080500090009801B0704789
:103C20004038024070B500F13C031A78012A01D1F6
:103C3000022070BD01221A7002245C7005686E6853
:103C4000AC680A6826F0700616436E600268114878
:103C5000824218BFB2F1804F11D0114882421CBF7E
:103C6000104DAA420BD00D4882421CBF0E4DAA42F5
:103C700005D0094882421CBF0C4DAA4204D14868B5
:103C800024F08004044394600121597000201870CE
:103C900070BD00000000014000400140000C0040E9
:103CA00000040040000800400004014000180040EB
:103CB00000B500BF130096469446103928BFA0E80F
:103CC0000C50FAD85FEA417C28BF0CC048BF40F8CE
:103CD000042BC90728BF20F8022B48BF00F8012B8E
:103CE00000BD000030B5144C606800F00C000428E2
:103CF00002D0082802D01DE0104830BD226820689C
:103D00000023410202F03F0204D525680B49C5F3A8
:103D1000881003E020680A49C0F38810A1FB000165
:103D2000FDF7E6FE2168C1F30141491C4900B0FBE3
:103D3000F1F030BD024830BD0438024000127A0074
:103D40000024F4000100000000000000100000004A
:103D50000024F400061400080614000806140008E5
:103D600006140008061400080614000806140008CB
:103D7000FFFFFFFFFFFFFFFFF2110008061400081E
:103D800006140008FFFFFFFFFFFF000030B400250E
:103D900012E050F8042BD30744BF4A44521E091FB7
:103DA000042942F8045BFAD213468C0744BF1580FD
:103DB0009B1CC90748BF1D7050F8041B0029E8D19F
:103DC00030BC704710B5074979441831064C7C4423
:103DD000163404E00A68081D114488470146A142D0
:103DE000F8D110BD2C0000004C0000004EF68851A8
:103DF000CEF20001086840F470000860BFF34F8FF6
:103E0000BFF36F8F4FF00170E1EE100A70470000B2
:103E10007DFFFFFF98010000480000200000000027
:103E200037D2FFFF480000001CFFFFFF000000200A
:103E3000000000000248016841F470010160704711
:103E400088ED00E000000000000000000102030413
:103E50000607080900F00DF8002801D0FFF7B2FFAF
:103E6000AFF300800020AFF30080FEF737FB00F0D7
:103E700002F80120704700F001B8000007463846FC
:103E8000FDF7BEFEFBE700000548014603B46846A7
:103E900080F30988AFF30080FFF7A8FFFFF7DAFF90
:103EA000A5EDF5FE0148804701480047353E000872
:103EB000893E00080000000001020304FFF7FEBF76
:103EC000FFF7FEBFFFF7FEBFFFF7FEBFFFF7FEBF26
:103ED000FFF7FEBFFFF7FEBFFFF7FEBFFFF7FEBF16
:103EE000FFF7FEBFFFF7FEBFFFF7FEBFFFF7FEBF06
:103EF000FFF7FEBFFFF7FEBFFFF7FEBFFFF7FEBFF6
:103F0000FFF7FEBFFFF7FEBFFFF7FEBFFFF7FEBFE5
:103F1000FFF7FEBFFFF7FEBFFFF7FEBFFFF7FEBFD5
:103F2000FFF7FEBFFFF7FEBFFFF7FEBFFFF7FEBFC5
:103F3000FFF7FEBFFFF7FEBFFFF7FEBFFFF7FEBFB5
:103F4000FFF7FEBFFFF7FEBFFFF7FEBFFFF7FEBFA5
:103F5000FFF7FEBFFFF7FEBFFFF7FEBFFFF7FEBF95
:103F6000FFF7FEBFFFF7FEBFFFF7FEBFFFF7FEBF85
:103F7000FFF7FEBFFFF7FEBFFFF7FEBFFFF7FEBF75
:103F8000FFF7FEBFFFF7FEBFFFF7FEBFFFF7FEBF65
:103F9000FFF7FEBFFFF7FEBFFFF7FEBFFFF7FEBF55
:103FA000FFF7FEBFFFF7FEBFFFF7FEBFFFF7FEBF45
:103FB000FFF7FEBFFFF7FEBFFFF7FEBFFFF7FEBF35
:103FC000FFF7FEBFFFF7FEBFFFF7FEBFFFF7FEBF25
:103FD000FFF7FEBFFFF7FEBFFFF7FEBFFFF7FEBF15
:103FE000FFF7FEBFFFF7FEBFFFF7FEBFFFF7FEBF05
:043FF000FFF7FEBF1A
:0400000508003E8928
:00000001FF
