:020000040800F2
:10000000E0040020BD1E00087D0800087F080008ED
:100010008108000883080008850800080000000027
:100020000000000000000000000000008708000839
:1000300089080008000000008B0800088D080008EF
:10004000E51E0008E91E0008ED1E0008F11E00086C
:10005000F51E0008F91E0008FD1E0008011F00081B
:10006000051F0008091F00080D1F0008111F0008C8
:10007000151F0008191F00081D1F0008211F000878
:10008000251F0008291F00082D1F0008311F000828
:10009000351F0008391F00083D1F0008411F0008D8
:1000A000451F0008491F00084D1F0008511F000888
:1000B000551F0008591F00085D1F0008611F000838
:1000C000651F0008691F00086D1F0008AF080008C1
:1000D000711F0008751F0008791F00087D1F0008A8
:1000E000811F0008851F0008891F00088D1F000858
:1000F000911F0008951F0008991F00089D1F000808
:10010000A11F0008A51F0008A91F0008AD1F0008B7
:10011000B11F0008B51F0008B91F0008BD1F000867
:10012000C11F0008C51F0008C91F0008CD1F000817
:10013000D11F0008D51F0008D91F0008DD1F0008C7
:10014000E11F0008E51F0008E91F0008ED1F000877
:10015000F11F0008F51F0008F91F0008FD1F000827
:100160000120000805200008092000080D200008D3
:1001700011200008152000081920000800000000C8
:100180001D2000082120000810B50400002C01D11A
:1001900001205FE0606A002806D16068B0F5827FC8
:1001A00006D00020E06103E00020206100206061B3
:1001B0000020A06294F85100002805D1002084F8A6
:1001C0005000200000F0E1FA022084F8510020687D
:1001D000006830F0400021680860606810F48270A8
:1001E000A16811F404410843E16811F40061084377
:1001F000217C11F002010843217D11F00101084327
:10020000A16911F400710843217F11F038010843FE
:1002100094F8201011F080010843A16A11F40051F4
:10022000084321680860A069000C10F0040094F8ED
:10023000241011F010010843216848602068C0694B
:1002400030F400602168C86100206065012084F8F6
:100250005100002010BDF0B4040094F851606568AE
:100260003000C0B201280BD0B5F5827F06D1A0685E
:10027000002803D13000C0B2042801D0022045E09C
:10028000002905D0002A03D0180080B2002801D12F
:1002900001203BE094F85000012801D1022035E014
:1002A000012084F8500094F85100042802D0052061
:1002B00084F85100002060652163A386E386A26371
:1002C000A387E387E068002806D00FF2F5102064CA
:1002D0000FF22520606405E00FF2751020640FF224
:1002E000A910606420680068400605D42068006892
:1002F00050F0400027683860002084F850002068E3
:10030000406850F0E000276878600020F0BC70473B
:100310007CB50400206845682068866816F04100B6
:10032000012805D1680603D52000216C884782E0AA
:10033000B00705D5280603D52000616C88477AE010
:1003400016F4B07F77D0A80675D570061BD594F843
:10035000510003280DD0606D50F00400606500204E
:1003600000902068C0680090206880680090009825
:1003700009E0002000902068C06800902068806834
:100380000090009857E0B0060FD5606D50F0010066
:1003900060650020009020688068009020680068F8
:1003A00030F04000216808600098F00509D5606DC4
:1003B00050F0080060650020009020688068009080
:1003C0000098606D002835D02068406830F0E0006B
:1003D00021684860012084F8510015F0030F26D0F1
:1003E000206840688008800021684860E06C002830
:1003F0000CD00FF24500E16C0865E06C00F00CFADF
:10040000002803D0606D50F040006065A06C0028AB
:1004100010D00FF22500A16C0865A06C00F0FCF96B
:10042000002807D0606D50F04000606502E02000B9
:1004300000F006FAFFE773BD38B50400A56B002095
:10044000E8870020E886280000F0FAF931BD0000B6
:1004500010B504002068007BA16B0870A06B401CE5
:10046000A063E08F401EE087E08F00280BD120685A
:10047000406830F0600021684860E08E002802D1BA
:10048000200000F000F910BD10B50400206B0078CA
:1004900021680873206B401C2063E08E401EE086BC
:1004A000E08E00280BD12068406830F08000216881
:1004B0004860E08F002802D1200000F0E4F810BD71
:1004C00010B504002068C068A16B0880A06B801C78
:1004D000A063E08F401EE087E08F00280BD12068EA
:1004E000406830F0400021684860E08E002802D16A
:1004F000200000F0C8F810BD10B50400206B008883
:100500002168C860206B801C2063E08E401EE0865E
:10051000E08E00280BD12068406830F08000216810
:100520004860E08F002802D1200000F0ACF810BD38
:100530002DE9FC4705000E0017009846DDF82890CD
:1005400000F094F90400B8EB040419EB040400F083
:100550008DF98246DFF8E40100684001000D00FBE0
:1005600004F00090286880683040B04201D101203A
:1005700000E000203900C9B2884243D018F1010FD1
:10058000F0D000F073F9B0EB0A00A04201D2002CC9
:100590002FD12868406830F0E0002968486068681A
:1005A000B0F5827F0DD1A868B0F5004F03D0A868E0
:1005B000B0F5806F05D12868006830F040002968E8
:1005C0000860A86AB0F5005F0BD12868006830F4B5
:1005D0000050296808602868006850F400502968B5
:1005E0000860012085F85100002085F850000320A4
:1005F00009E00098002801D1002004000098401E66
:100600000090AFE70020BDE8F6877CB504000D0040
:10061000160000962B00012202212000FFF788FF20
:10062000002805D0606D50F020006065032029E0AF
:10063000414800681821B0FBF1F04149B0FBF1F1ED
:100640004FF47A70414301916068B0F5827F0ED11A
:1006500000962B00002280212000FFF769FF002870
:100660000FD0606D50F02000606503200AE0019813
:10067000002806D00198401E01902068806800067E
:10068000F5D4002076BD3EB504002C480068182142
:10069000B0FBF1F04FF47A71B0FBF1F1642041430B
:1006A000019100F0E3F805002068406830F0200078
:1006B000216848600198002804D1606D50F0200046
:1006C000606506E00198401E019020688068800700
:1006D000F0D52A0064212000FFF797FF002803D0FF
:1006E000606D50F020006065A068002808D10020EF
:1006F00000902068C0680090206880680090009892
:10070000606D002811D194F85100042806D1012011
:1007100084F85100200000F0AFF80CE0012084F8CC
:100720005100200000F0C8F805E0012084F85100D5
:10073000200000F085F837BD1800002018000020C8
:1007400040420F0080B52F482F4901604FF482715D
:100750004160002181600021C1600221016101210D
:1007600041614FF4007181613021C161002101625A
:1007700000214162002181620A21C162FFF704FD6C
:10078000002801D000F03AF901BD10B586B0040090
:100790001421002201A800F033F920681A49884288
:1007A0002DD1002000901948016851F4805101605A
:1007B000006810F4805000900098002000901448C9
:1007C000016851F001010160006810F00100009023
:1007D0000098E02001900220029000200390032066
:1007E00004900520059001A90A4800F03DF9002277
:1007F0000021232000F0E6FA232000F0F8FA06B0EA
:1008000010BD0000200000200030014044380240AC
:100810003038024000000240010091F83500022803
:1008200003D080204865012009E0052081F83500CB
:1008300008680068400840000A681060002070479F
:1008400070470EE002684368024408305FEAC37CE8
:1008500044BF4B445B1E52F804CB43F804CB091F42
:10086000F9D150F8041B0029ECD170470148006809
:10087000704700BFD400002070470000FEE7FEE78D
:10088000FEE7FEE7FEE770477047704780B500F06F
:10089000CBFA0B480188491C01800188B1F57A7FA9
:1008A00004DB0021018001200649087001BD80B5EC
:1008B0000548FFF72DFD01BD0121044A1170704765
:1008C000D8000020DA00002020000020DB000020FB
:1008D00070B500F0B5FA00F02EF800F0CBFAFFF793
:1008E00031FF00F0E3FA3C4C3C4D3D4E1123320009
:1008F00029002000FFF7AFFC3A49087800280DD006
:10090000002008701123320029002000FFF7A3FC0B
:100910000A2314223449354800F05FFB3449087833
:100920000028E9D0002008700A23112231002F4846
:1009300000F053FBE0E780B592B03021002206A81A
:1009400000F05EF81421002201A800F059F8002000
:1009500000902848016851F080510160006810F053
:10096000805000900098002000902348016851F4C6
:1009700080410160006810F48040009000980120E0
:1009800006905FF48030079002200C905FF48000A6
:100990000D9004200E9040200F9002201090042013
:1009A000119006A800F074FD002801D000F026F890
:1009B0000F200190022002909020039000200490CC
:1009C00000200590002101A800F05AFF002801D066
:1009D00000F014F813B000BD20000020000000203B
:1009E000C0000020DA000020981E000878000020D7
:1009F000DB000020403802400070004072B6FEE785
:100A000062F30F2262F31F42401810F0030308D074
:100A1000C91A1FD3DB0748BF00F8012D28BF20F8F3
:100A2000022D130030B414461546103928BF20E9B2
:100A30003C00FAD8490728BF20E90C0048BF40F81D
:100A4000042D890028BF20F8022D48BF00F8012D91
:100A500030BC7047C91818BF00F8012DCB0728BF5C
:100A600000F8012D70470000F8B50024002500268D
:100A70000023102B80F00C815FF0010C1CFA03F2B4
:100A800014000A6822401500A54240F0FF800A7950
:100A900012F00302012A04D00A7912F00302022A9A
:100AA00022D187685FF0030E1A00D2B252001EFAFC
:100AB00002FE37EA0E07D1F80CE01A00D2B252005B
:100AC0001EFA02FE5EEA0707876042681CFA03FC12
:100AD00032EA0C02D1F804C0CCF3001C1CFA03FC6F
:100AE0005CEA0202160046600A7912F00302032A49
:100AF00014D0C7685FF0030C1A00D2B252001CFA7F
:100B000002FC37EA0C07D1F808C01A00D2B2520032
:100B10001CFA02FC5CEA07073E00C6600A7912F084
:100B20000302022A1ED11A00D20800EB8202176AC1
:100B30005FF00F0C13F00702D2B292001CFA02FC15
:100B400037EA0C07D1F810C013F00702D2B29200B6
:100B50001CFA02FC5CEA07073E001A00D20800EB10
:100B60008202166207685FF0030C1A00D2B25200CC
:100B70001CFA02FC37EA0C0791F804C01CF0030CC5
:100B80001A00D2B252001CFA02FC5CEA07073E00CF
:100B900006604A6812F4403F78D000220092DFF8E5
:100BA000F420176857F480471760126812F48042E7
:100BB0000092009ADFF8E0C01A0092085CF82270F8
:100BC0005FF00F0E13F00302D2B292001EFA02FE83
:100BD00037EA0E07314A904201D1002623E0304A1D
:100BE000904201D101261EE02E4A904201D10226F8
:100BF00019E02D4A904201D1032614E02B4A90427D
:100C000001D104260FE02A4A904201D105260AE0CC
:100C1000284A904201D1062605E0274A904201D198
:100C2000072600E00826F6B213F00302D2B29200C3
:100C3000964037431A0092084CF822701F4E3268D3
:100C4000AA43D1F804C05FEACC2C00D52A43326015
:100C50001B4F3E68AE43D1F804C05FEA8C2C00D530
:100C60002E433E60174F3A68AA43D1F804C05FEAAA
:100C70008C3C00D52A433A60134F3E68AE43D1F80E
:100C800004C05FEACC3C00D52E433E605B1CF0E61E
:100C9000F1BD000044380240083801400000024025
:100CA0000004024000080240000C02400010024014
:100CB0000014024000180240001C0240083C0140A1
:100CC0000C3C0140043C0140003C014010B410F0D9
:100CD0000703DFF8344122684FF6FF010A4052EA69
:100CE0000322DFF828110A43226010BC7047DFF8A6
:100CF00018010068C0F3022070470000010049B2EB
:100D000000290AD4012210F01F018A40DFF80011E7
:100D100003005BB25B0941F82320704710B4020066
:100D200052B2002A05D40A013A4B040064B21A55A3
:100D300008E00A01384B040064B214F00F042344A5
:100D400003F8042C10BC704770B4030013F00704C0
:100D5000D4F10700052801D3042001E0D4F10700F5
:100D6000251D072D01D2002500E0E51E012616FAFB
:100D700000F0401E0140A94016FA05F56D1E2A40FC
:100D80001143080070BC704710B50400601EB0F13C
:100D9000807F01D301200EE0601E204908600F21F2
:100DA0005FF0FF30FFF7BAFF00201D490860072001
:100DB0001C490860002010BD10B504002000FFF79A
:100DC00085FF10BD2DE9F04104000D00160000273D
:100DD000FFF78DFF8046320029004046FFF7B4FF41
:100DE0000100200040B2FFF799FFBDE8F08110B587
:100DF0000400200040B2FFF781FF10BD10B50400D1
:100E00002000FFF7C1FF10BD0CED00E00000FA0567
:100E100000E100E000E400E018ED00E014E000E094
:100E200018E000E010E000E003480168034A12788F
:100E300089180160704700BFD40000201C0000200A
:100E400080B50B48016851F400710160016851F4EC
:100E500080610160016851F4807101600320FFF737
:100E6000ABFF0F2000F0D4FD00F0F8FD002002BD24
:100E7000003C024081B0002000900B48016851F016
:100E800080010160016811F080010091009900214A
:100E90000091016851F001010160006810F001004B
:100EA0000090009801B070473038024080B5274864
:100EB000274901605FF4E131416000218160002138
:100EC000C160002101610C2141610021816100218B
:100ED000C16100F045F8002801D0FFF78FFD01BD8A
:100EE00010B586B004001421002201A8FFF788FD88
:100EF00020681749884226D10020009015480168D3
:100F000051F010010160006810F01000009000988E
:100F1000002000901048016851F001010160006854
:100F200010F00100009000984FF4C0600190022082
:100F3000029000200390032004900720059001A94F
:100F40000648FFF791FD06B010BD000078000020B4
:100F50000010014044380240303802400000024096
:100F600010B50400002C01D1012035E0A069002853
:100F7000FFD194F84100002805D1002084F84000FA
:100F80002000FFF7ADFF242084F841002068C068EE
:100F900030F400502168C860200000F0FAF82068A2
:100FA000006930F49040216808612068406930F0A1
:100FB0002A00216848612068C06850F40050216808
:100FC000C86000206064202084F84100202084F85C
:100FD000420000206063002010BD2DE9FC470600A0
:100FE0000D0017009846002496F84100202857D19C
:100FF000002D03D0380080B2002801D1012050E03C
:1010000000207064212086F84100FFF72FFC814604
:10101000B784F784B068B0F5805F05D130690028E7
:1010200002D10024AA4602E02C005FF0000AF08CF6
:10103000002821D0CDF800804B46002280213000CE
:1010400000F031F8002804D0202086F84100032069
:1010500027E0002C08D1BAF80000C005C00D3168A7
:1010600048601AF1020A03E0207831684860641C85
:10107000F08C401EF084DAE7CDF800804B46002269
:101080004021300000F00FF8002804D0202086F81E
:101090004100032005E0202086F84100002000E008
:1010A0000220BDE8F6872DE9FC4105000E0017007F
:1010B0009846089C286800683040B04201D1012061
:1010C00000E000203900C9B288422BD114F1010F91
:1010D000F0D0FFF7CBFBB0EB0800844201D3002C2B
:1010E00001D103201FE02868C0684007E2D5802EA8
:1010F000E0D0402EDED0286800680007DAD5002056
:101100000090286800680090286840680090009867
:10111000280000F00AF808206864002085F84000E4
:10112000012000E00020BDE8F68101680C3151E8A3
:10113000001F31F490710A00016811F10C0343E8BB
:1011400000210029F1D10168143151E8001F49083C
:1011500049000A00016811F1140343E80021002945
:10116000F1D1016B01290DD101680C3151E8001F4B
:1011700031F010010A00016811F10C0343E800216D
:101180000029F1D1202180F842100021016370472D
:1011900000002DE9F84F84B005002868016931F49A
:1011A0004051E868014328680161A9682869014342
:1011B00068690143E869014303912868C168B1483F
:1011C0000140039801432868C1602868416931F4EF
:1011D0004071A8690143286841612868AA4988428A
:1011E00003D02868A949884203D100F0F7FB040026
:1011F00002E000F0E8FB0400E869B0F5004F40F0C1
:101200009F807FF0630A5FF002085FF000091926F3
:10121000002722000023A6FB020106FB031107FBA7
:101220000211CDE9000168680021A8FB002308FB3A
:10123000013309FB0033DDE9000100F02FFC6421DC
:10124000B0FBF1F0009022000023A6FB020106FB98
:10125000031107FB0211CDE9010168680021A8FB19
:10126000002308FB013309FB0033DDE9010100F035
:1012700015FC834622000023A6FB020106FB031196
:1012800007FB0211CDE9010168680021A8FB0023DA
:1012900008FB013309FB0033DDE9010100F0FEFB2F
:1012A0006421B0FBF1F00AFB00B0C00032306421D1
:1012B000B0FBF1F0400010F4F870009910EB011051
:1012C000009022000023A6FB020106FB031107FB8E
:1012D0000211CDE9010168680021A8FB002308FB89
:1012E000013309FB0033DDE9010100F0D7FB834640
:1012F00022000023A6FB020106FB031107FB0211DB
:1013000006000F0068680021A8FB002308FB0133DA
:1013100009FB00333000390000F0C0FB6421B0FB52
:10132000F1F00AFB00BA5FEACA0032306421B0FB78
:10133000F1F111F0070100980918286881609CE01C
:101340005FF004085FF000097FF0630A19260027A8
:1013500022000023A6FB020106FB031107FB02117A
:10136000CDE9000168680021A8FB002308FB0133D8
:1013700009FB0033DDE9000100F090FB6421B0FBC4
:10138000F1F0009022000023A6FB020106FB0311EE
:1013900007FB0211CDE9010168680021A8FB0023C9
:1013A00008FB013309FB0033DDE9010100F076FBA6
:1013B000834622000023A6FB020106FB031107FB64
:1013C0000211CDE9010168680021A8FB002308FB98
:1013D000013309FB0033DDE9010100F05FFB64210B
:1013E000B0FBF1F00AFB00B0000132306421B0FB29
:1013F000F1F010F0F000009910EB011000902200C5
:101400000023A6FB020106FB031107FB0211CDE935
:10141000010168680021A8FB002308FB013309FBD8
:101420000033DDE9010100F039FB8346220000238F
:10143000A6FB020106FB031107FB021106000F00C9
:1014400068680021A8FB002308FB013309FB003377
:101450003000390000F022FB6421B0FBF1F00AFB00
:1014600000BA5FEA0A1032306421B0FBF1F111F0EA
:101470000F01009809182868816005B0BDE8F08F59
:1014800000000000F369FFFF00100140001401405C
:101490002DE9F8430400002C01D10120DAE1207885
:1014A000C0075FD5DFF8B003016811F00C01042913
:1014B00009D0006810F00C0008280ED1DFF89C035A
:1014C0000068400209D5DFF898030068800349D519
:1014D0006068002846D10120BCE16068B0F5803F1B
:1014E00006D1DFF87C03016851F48031016018E017
:1014F0006068B0F5A02F0AD1DFF86403016851F4E9
:1015000080210160016851F48031016009E0DFF859
:101510005003016831F480310160016831F48021A9
:101520000160606800280ED0FFF7A0F90500DFF821
:1015300030030068800315D4FFF798F9401B652835
:10154000F5D3032086E1FFF791F90500DFF81003DA
:101550000068800306D5FFF789F9401B6528F5D39D
:10156000032077E1207880074CD5DFF8EC02016892
:1015700011F00C0F08D0006810F00C00082814D1EE
:10158000B6480068400210D4B5480168890704D500
:10159000E168012901D001205CE1016831F0F80126
:1015A000226951EAC20101602CE0E068002818D0ED
:1015B0000120AC490860FFF759F90500A848016807
:1015C000890706D4FFF752F9401B0328F6D30320FE
:1015D00040E1016831F0F801226951EAC20101607D
:1015E00010E000209F490860FFF740F905009C4883
:1015F0000068800706D5FFF739F9401B0328F6D3AA
:10160000032027E12078000724D56069002810D046
:10161000012095490860FFF729F905009348006803
:10162000800717D4FFF722F9401B0328F6D30320C5
:1016300010E100208C490860FFF718F905008B487D
:101640000068800706D5FFF711F9401B0328F6D381
:101650000320FFE0207840077CD50027DFF81082C8
:10166000D8F80000C0000FD400200090D8F8000087
:1016700050F08050C8F80000D8F8000010F08050FA
:101680000090009801200700DFF8E891D9F80000E9
:10169000C00513D4D9F8000050F48070C9F80000D8
:1016A000FFF7E4F80500D9F80000C00506D4FFF7FD
:1016B000DDF8401B0328F6D30320CBE0A068012807
:1016C00005D16D48016851F00101016015E0A06885
:1016D000052809D16848016851F0040101600168DA
:1016E00051F00101016008E06348016849084900C0
:1016F0000160016831F004010160A06800280FD08A
:10170000FFF7B4F805005C480068800718D4FFF7BD
:10171000ADF8401B41F289318842F4D3032099E0AF
:10172000FFF7A4F8050054480068800708D5FFF7C4
:101730009DF8401B41F289318842F4D3032089E0AF
:101740003800C0B2012805D1D8F8000030F0805030
:10175000C8F80000A06900287BD03F48006810F05E
:101760000C00082849D0A069022835D1DFF80C9177
:101770000020C9F80000FFF779F80700DFF8E080E3
:10178000D8F80000800106D5FFF770F8C01B0328C9
:10179000F4D303205EE0E169206A0143606A51EA04
:1017A0008011A06A4008401E51EA0041E06A51EAF7
:1017B00000612A4801600120C9F80000FFF756F8CF
:1017C0000500D8F80000800143D4FFF74FF8401B14
:1017D0000328F6D303203DE0002028490860FFF7E6
:1017E00045F805001E480068800132D5FFF73EF835
:1017F000401B0328F6D303202CE0A069012801D167
:10180000012027E0154800680600A06901281ED0C5
:1018100016F48000E169884219D116F03F00216A70
:10182000884214D147F6C0703040616AB0EB811F26
:101830000DD116F44030A16A4908491EB0EB014FA2
:1018400005D116F07060E16AB0EB016F01D00120A4
:1018500000E00020BDE8F28308380240043802406E
:101860000038024000004742800E47427438024070
:10187000403802400070004070380240600047422B
:101880002DE9F04104000D00002C01D1012095E06C
:10189000584F386810F00700A84207D23D703868EA
:1018A00010F00700A84201D0012087E020788007CF
:1018B00016D52078400704D54F48016851F4E0510F
:1018C00001602078000704D54B48016851F460415D
:1018D000016049490A6832F0F002A06802430A60D8
:1018E0002078C00738D56068012805D143480068D2
:1018F000800313D4012061E06068022802D0606890
:10190000032805D13D480068800107D4012055E037
:101910003A480068800701D401204FE0DFF8D88002
:10192000D8F800108908890060680143C8F80010E1
:10193000FEF79CFF0600D8F8000010F00C0061686C
:10194000B0EB810F08D0FEF791FF801B41F2893187
:101950008842F0D3032031E0386810F00700854258
:1019600007D23D70386810F00700A84201D001206E
:1019700024E02078400706D51F490A6832F4E05277
:10198000E06802430A602078000707D51A4801681A
:1019900031F46041226951EAC201016000F096F918
:1019A0001749154A1268C2F30312895CC8401549E9
:1019B00008601548006800F02BF80020BDE8F081B1
:1019C00010480068704780B5FFF7FAFF0F490A4AD0
:1019D0001268C2F38222895CC84002BD80B5FFF75D
:1019E000EFFF0A49044A1268C2F34232895CC840D8
:1019F00002BD0000003C02400838024000380240AE
:101A0000AC1E00081800002014000020DC1E000896
:101A100010B504004FF47A700D490978B0FBF1F06D
:101A20000C490968B1FBF0F0FFF7E8F9002801D094
:101A300001200CE0102C09D2002221005FF0FF30C1
:101A4000FFF7C0F904480460002000E0012010BD49
:101A50001C000020180000201400002081B000208D
:101A600000900C48016851F480410160006810F456
:101A7000804000900098002000900748016851F0D5
:101A800080510160006810F080500090009801B013
:101A9000704700BF4438024040380240BBBBE1B150
:101AA000B2F5803F80F07E80022A1ED98C46B1FBC1
:101AB000F2F102FB11C31B0443EA1043B3FBF2FC37
:101AC00002FB1C3380B240EA0343B3FBF2F002FB9B
:101AD000103240EA0C4000237047022A05D98446A0
:101AE000B0FBF2F002FB10C270474AB105D100F022
:101AF000010249085FEA3000704700220023704766
:101B000000F032B90B000200002100207047904223
:101B100071EB030CF6D3B3F5803F2FD2F0B5B3FAD7
:101B200083F7B1FA81F4A7F10F0E3D1B5340CEF1BC
:101B3000200602FA0EF2F3415340B5F10F0746D8E2
:101B40000F3C2C444140C4F12006A040F1414140EB
:101B5000B1FBF3F603FB1611A2FB0645001BA941DE
:101B600002D2761E8018594180EA010221FA0EF352
:101B700062FA0EF200215A403046F0BD30B4B1FB9B
:101B8000F3FC03FB1C11A2FB0C45001BA94103D273
:101B9000ACF1010C8018594130BC02460B4660463E
:101BA00000217047B2F1807F65D3F0B5B2FA82F7B9
:101BB000B1FA81F4C7F10F063D1B22FA06F307F1D3
:101BC000110EF24120355A40B5F10F07B8D9414006
:101BD000C4F12006A040F1414140B1FBF3FC03FBFE
:101BE0001C11A2FB0C45001BA94103D2BCF1010C46
:101BF000801859410F2F12D30F3FC90341EA5041BA
:101C0000B1FBF3F603FB1611A2FB0645D4EBC03083
:101C1000A94102D2761E8018594146EACC3C07B34E
:101C20004140C7F12006B840F1414140B1FBF3F615
:101C300003FB1611A2FB0645001BA94102D2761E2A
:101C40008018594180EA010221FA0EF3C7F12004FD
:101C500062FA0EF20CFA07F05A402CFA04F1304303
:101C6000F0BD80EA010221FA0EF3002162FA0EF2C1
:101C700060465A40F0BD8C46B1FBF2F102FB11C345
:101C80001B0243EA1063B3FBF2FC02FB1C331B0292
:101C90004CEA002043EA1063B3FBF2FC02FB1C3366
:101CA0001B024CEA002043EA1063B3FBF2FC02FB88
:101CB0001C331B024CEA002043EA1063B3FBF2FC26
:101CC00002FB1C324CEA0020002370472DE9F04152
:101CD00000240025002600271F48006810F00C0093
:101CE000002804D0042804D0082804D031E01B4880
:101CF00030E01B482EE0DFF86C80D8F8000010F0D0
:101D00003F000400D8F8000040020CD5D8F80000CD
:101D1000C0F388101249A1FB000122000023FFF745
:101D2000BDFE05000BE0D8F80000C0F388100B4999
:101D3000A1FB000122000023FFF7B0FE0500D8F848
:101D40000000C0F30140401C40000600B5FBF6F067
:101D500000E00248BDE8F081083802400024F400A9
:101D600000127A0004380240704730B4002512E0B7
:101D700050F8042BD30744BF4A44521E091F0429BC
:101D800042F8045BFAD213468C0744BF15809B1CB3
:101D9000C90748BF1D7050F8041B0029E8D130BCAA
:101DA0007047000010B5074979441831064C7C444F
:101DB000163404E00A68081D114488470146A14210
:101DC000F8D110BD2C0000004C0000004EF68851E8
:101DD000CEF20001086840F470000860BFF34F8F36
:101DE000BFF36F8F4FF00170E1EE100A70470000F3
:101DF0007BFFFFFFBC00000020000020000000006F
:101E000043EAFFFF20000000540000000000002013
:101E10000000000000F00DF8002801D0FFF7C2FF1D
:101E2000AFF300800020AFF30080FEF751FD00F01B
:101E300002F80120704700F001B80000074638465C
:101E400000F002F8FBE7000080B5AFF30080024A23
:101E500011001820ABBEFBE72600020053504920BA
:101E60004C6F6F70206973204F4B200A00000000F8
:101E7000100000000024F4000100000005480146A5
:101E800003B4684680F30988AFF30080FFF79EFF34
:101E9000FFF7C0FFA5EDF5FE5265636569766564E1
:101EA000206D6573736167653A200A0000000000C9
:101EB00000000000010203040607080901488047EA
:101EC00001480047CD1E00087D1E00080248016839
:101ED00051F470010160704788ED00E000000000DF
:101EE00001020304FFF7FEBFFFF7FEBFFFF7FEBFCF
:101EF000FFF7FEBFFFF7FEBFFFF7FEBFFFF7FEBF16
:101F0000FFF7FEBFFFF7FEBFFFF7FEBFFFF7FEBF05
:101F1000FFF7FEBFFFF7FEBFFFF7FEBFFFF7FEBFF5
:101F2000FFF7FEBFFFF7FEBFFFF7FEBFFFF7FEBFE5
:101F3000FFF7FEBFFFF7FEBFFFF7FEBFFFF7FEBFD5
:101F4000FFF7FEBFFFF7FEBFFFF7FEBFFFF7FEBFC5
:101F5000FFF7FEBFFFF7FEBFFFF7FEBFFFF7FEBFB5
:101F6000FFF7FEBFFFF7FEBFFFF7FEBFFFF7FEBFA5
:101F7000FFF7FEBFFFF7FEBFFFF7FEBFFFF7FEBF95
:101F8000FFF7FEBFFFF7FEBFFFF7FEBFFFF7FEBF85
:101F9000FFF7FEBFFFF7FEBFFFF7FEBFFFF7FEBF75
:101FA000FFF7FEBFFFF7FEBFFFF7FEBFFFF7FEBF65
:101FB000FFF7FEBFFFF7FEBFFFF7FEBFFFF7FEBF55
:101FC000FFF7FEBFFFF7FEBFFFF7FEBFFFF7FEBF45
:101FD000FFF7FEBFFFF7FEBFFFF7FEBFFFF7FEBF35
:101FE000FFF7FEBFFFF7FEBFFFF7FEBFFFF7FEBF25
:101FF000FFF7FEBFFFF7FEBFFFF7FEBFFFF7FEBF15
:10200000FFF7FEBFFFF7FEBFFFF7FEBFFFF7FEBF04
:10201000FFF7FEBFFFF7FEBFFFF7FEBFFFF7FEBFF4
:04202000FFF7FEBF09
:0400000508001E7D54
:00000001FF
