:020000040800F2
:1000000060040020A9110008F5100008F71000088E
:10001000F9100008FB100008FD10000800000000A7
:10002000000000000000000000000000FF100008B9
:10003000011100080000000003110008051100086C
:10004000C9110008CD110008D1110008D511000810
:10005000D9110008DD110008E1110008E5110008C0
:10006000E9110008ED110008F1110008F511000870
:10007000F9110008FD11000801120008051200081E
:10008000091200080D1200081112000815120008CC
:10009000191200081D12000821120008251200087C
:1000A000291200082D12000831120008351200082C
:1000B000391200083D1200084112000845120008DC
:1000C000491200084D12000851120008551200088C
:1000D000591200085D12000861120008651200083C
:1000E000691200086D1200087112000875120008EC
:1000F000791200087D12000881120008851200089C
:10010000891200088D12000891120008951200084B
:10011000991200089D12000809110008A112000898
:10012000A5120008A9120008AD120008B1120008BB
:10013000B5120008B9120008BD120008C11200086B
:10014000C5120008C9120008CD120008D11200081B
:10015000D5120008D9120008DD120008E1120008CB
:10016000E5120008E9120008ED120008F11200087B
:10017000F5120008F9120008FD1200080000000046
:1001800001130008051300082DE9F843040016D0F8
:100190002078DFF8F462C10713D5B06800F00C00D6
:1001A000042807D0B06800F00C0008283ED1706821
:1001B00041023BD53068810303D56068002800F018
:1001C0005D812078DFF8C492810719D5B06810F0FE
:1001D0000C0F07D0B06800F00C0008285BD17068E5
:1001E000410258D43068810703D5E268012A40F003
:1001F00045813068216920F0F80040EAC100306094
:100200002078010774D56069A149002863D00122D4
:100210000A6000F041F90546706F810768D400F06C
:100220003BF9401B0228F7D903202AE16068B0F5AA
:10023000803F04D1306840F48030306011E0B0F588
:10024000A02F306806D140F480203060316841F43E
:10025000803105E020F480303060316821F4802165
:100260003160606858B100F017F9054630688103C5
:10027000A7D400F011F9401B6528F7D3D4E700F0AC
:100280000BF90546306881039BD500F005F9401B4A
:100290006528F7D3C8E7E06870B10121C9F80010FC
:1002A00000F0FAF8054630688107A2D400F0F4F8AF
:1002B000401B0228F7D9B7E70022C9F8002000F058
:1002C000EBF80546306881079AD500F0E5F8401B49
:1002D0000228F7D9A8E7086000F0DEF80546706F3D
:1002E000810705D500F0D8F8401B0228F7D99BE715
:1002F0002078410759D5306C0025C1000BD400206F
:1003000000900125316C41F080513164306C00F077
:100310008050009000985F4F3868C10510D438684D
:1003200040F48070386000F0B7F880463868C10546
:1003300006D400F0B1F8A0EB08000228F6D973E764
:10034000A068012805D00528306F06D140F00400D0
:100350003067306F40F0010005E040084000306732
:10036000306F20F00400306741F28938A06858B13E
:1003700000F092F80746306F810711D400F08CF836
:10038000C01B4045F7D34FE700F086F80746306FB3
:10039000810705D500F080F8C01B4045F7D343E73F
:1003A0001DB1306C20F080503064A069002867D007
:1003B000B16801F00C0108293DD002282CD10020A1
:1003C000C9F8600000F068F805463068810105D57D
:1003D00000F062F8401B0228F7D925E7E269206A9D
:1003E000616A0243A06A400842EA8112401E42EA62
:1003F0000042E06A42EA006272600121C9F86010BE
:1004000000F04AF804463068810139D400F044F81D
:10041000001B0228F7D907E70020C9F8600000F0A8
:100420003BF80446306881012AD500F035F8001BFE
:100430000228F7D9F8E6012820D07068E26900F4B4
:100440008001914202BF00F03F01226A914201BF48
:1004500047F6C0710140626AB1EB821F0ED1A26AF9
:1004600000F4403101F580315208B1EB024F02BF78
:1004700000F07060E16AB0EB016F01D0012000E094
:100480000020BDE8F28300BF003802400000474270
:10049000800E47420070004001484068704700BF2E
:1004A0000000002038B5040001D1012032BD00F069
:1004B00059F818B900F052F800F087F93AE090F8CE
:1004C0003D10012901D001207047022180F83D1024
:1004D0000168CA6842F00102CA600168DFF88C2036
:1004E000914218BFB1F1804F17D0DFF884209142BC
:1004F0001CBFDFF8803099420FD0DFF87C2091429A
:100500001CBFDFF87830994207D0DFF874209142A1
:100510001CBFDFF87030994205D1896801F00701EE
:10052000062905D001680A68084642F00102026007
:100530000020704702206870211D206800F0BCF880
:100540000120A8720121A970E87029716871A97150
:10055000E871297268726970002032BD002129702B
:100560002046704704F13C05687870470000014060
:100570000004004000080040000C0040000401405E
:10058000004001400018004070B504462068C5686E
:100590000669B10714D5AA0712D56FF002010161EF
:1005A00001222277806910F0030F204602D000F06C
:1005B0002DF903E000F02BF900F07BF80020207704
:1005C000700715D56A0713D520686FF00401016123
:1005D00002222277806910F4407F204602D000F08A
:1005E00015F903E000F013F900F063F8002020771C
:1005F000300715D52A0713D520686FF0080101616F
:1006000004222277C06910F0030F204602D000F0C8
:10061000FDF803E000F0FBF800F04BF80020207735
:10062000F00615D5EA0613D520686FF010010161B8
:1006300008222277C06910F4407F204602D000F0E3
:10064000E5F803E000F0E3F800F033F8002020774D
:1006500006F0010205F001010A4206D021686FF0A0
:1006600001020A61204600F0D3F8300608D52A06B8
:1006700006D521686FF080000861204600F040F93F
:10068000700608D56A0606D521686FF0400008613B
:10069000204600F036F9B0060AD5AA0608D521682A
:1006A0006FF0200008612046BDE8704000F02AB9D4
:1006B00070BD204600F027B9F0B50368274D284CDF
:1006C000284A294E294FA84218BFB0F1804F07D0C1
:1006D000B84218BFB04203D0904218BFA0420ED11A
:1006E00023F0700C4B6843EA0C03A84218BFB0F12A
:1006F000804F17D0B8421CBFB042904212D0A042E7
:100700001CBF1B4A90420DD01A4EB0421CBF1A4A61
:10071000904207D0194EB0421FBF194A9042194E5D
:10072000B04203D123F44072CB6813434A6923F0EB
:10073000800313430360A8428B68C3620A68826225
:1007400012BFA04209690163012242610169CA071F
:1007500003D50169490849000161F0BD000001406D
:1007600000040140000C004000080040000400406C
:100770000040014000440140004801400018004092
:10078000001C0040002000401CB50020009001909B
:1007900043F67F611A4C1B4861602060002240F2E2
:1007A000E731A260E160A2612046FFF77BFE08B15D
:1007B00000F0A4F80020009001906946204600F067
:1007C000A3F808B100F09AF813BD00680D498842FB
:1007D00000D0704780B500220B480092016841F0BC
:1007E000100101600021006800F010000090362028
:1007F000009B00F0E6F8BDE80240362000F0FEB8AD
:100800001000002000100040403802407047704740
:100810003549884202D1354A01201070704710B521
:1008200000F014F900F013F800F02AF9FFF7ACFF1C
:100830002D482E4CFFF743FE20780028FCD00021E5
:1008400021704FF400712A4800F041FAF4E780B5B6
:1008500092B03021002206A800F058FA142100229C
:1008600001A800F053FA002000902248016841F0EE
:1008700080510160006800F08050009000200099D5
:1008800000901D48016841F4804101604FF48031BF
:10089000006800F4804000900120009A0791022235
:1008A0004FF480010C920D91042240210E920F9181
:1008B0000690022204211092119106A8FFF764FC11
:1008C00008B100F01BF8022102910F200190902244
:1008D000002103920491059101A800F035FA08B1B6
:1008E00000F00CF813B000BD1000002058000020EC
:1008F00000140240403802400070004072B6FEE72B
:10090000704770477047704770B500F13C031A7824
:10091000012A01D1022070BD01221A7002245C70EC
:1009200005686E68AC680A6826F0700616436E604B
:1009300002681148824218BFB2F1804F11D01148AD
:1009400082421CBF104DAA420BD00D4882421CBFF0
:100950000E4DAA4205D0094882421CBF0C4DAA4246
:1009600004D1486824F08004044394600121597044
:100970000020187070BD00000000014000400140E0
:10098000000C00400004004000080040000401404A
:10099000001800400901020002D426488154704723
:1009A000254B02F00F021A4402F8041C7047234939
:1009B0000A6860F30A2240F2FA5060F31F420A60AC
:1009C000704770B51D4B1C68C4F302230124C3F1AA
:1009D0000705052D2EBF0F2504FA05F56D1E1E1DFA
:1009E000072E34BF0023DB1E2940994004FA03F38D
:1009F000BDE870405B1E1A401143CBE7010007D4ED
:100A0000012200F01F010E4B8A40400943F82020CC
:100A10007047401EB0F1807F01D301207047094923
:100A2000094A48600023F02010708B60072008609E
:100A30000020704700E400E018ED00E00CED00E05D
:100A400000E100E010E000E023ED00E080B50B489D
:100A5000016841F400710160026842F48062026042
:100A6000016841F4807101600320FFF7A0FF0F20AF
:100A700000F0FAF900F018FA002002BD003C024034
:100A800010B586B01421002201A800F03FF9002122
:100A90001B481C4C0091026842F020020260016871
:100AA00001F0200100910021009A0091036843F0B9
:100AB00080030360016801F0800100910021009A29
:100AC00000910122036843F0010303604FF40071B9
:100AD000006800F0010000900098204600F0F3F854
:100AE000112102914FF40070002101900122049124
:100AF000039201A9204600F007F806B010BD00BF20
:100B000030380240001402402DE9F84F0022744CA6
:100B1000DFF8D0814FF00F0901230F6893401F4089
:100B20009F4240F0CA804FEA420C032505FA0CF5BB
:100B30006FEA050E4D6805F00306012E1CBF05F097
:100B40000305022D10D18568CE680EEA050506FA68
:100B50000CF635438560456825EA03034D68C5F307
:100B6000001595402B43436093000D7905F0030574
:100B7000032D1ED0C5688E680EEA050506FA0CF630
:100B80003543C5600D7905F00305022D11D1D50857
:100B900000EB850503F01C06D5F820B009FA06FA2B
:100BA0002BEA0A0BD1F810A00AFA06F646EA0B0661
:100BB0002E6205680EEA05060D7905F0030505FAB3
:100BC0000CF545EA060CC0F800C04D6815F4403F2E
:100BD00073D04FF0000ECDF800E04FEA920CD8F839
:100BE000005045F48045C8F8005003F00C03D8F8D5
:100BF00000E03D4D0EF4804ECDF800E0DDF800E061
:100C000055F82C6009FA03F5AE43384DA84208BFE9
:100C10004FF0000E2AD0364DA84208BF4FF0010E0B
:100C200024D0344DA84208BF4FF0020E1ED0324DE2
:100C3000A84208BF4FF0030E18D0304DA84208BF9D
:100C40004FF0040E12D02E4DA84208BF4FF0050EF3
:100C50000CD02C4DA84208BF4FF0060E06D02A4DEE
:100C6000A8420CBF4FF0070E4FF0080E0EFA03F328
:100C7000DFF874E033434EF82C30FE43A3684D6830
:100C80003340ED0248BF3B43A360E3684D68334007
:100C9000AD0248BF3B43E36063684D683340AD033A
:100CA00048BF3B436360236806EA030C4B68DB03E1
:100CB00048BF47EA0C0CC4F800C0521C0F2A7FF64C
:100CC0002BAFBDE8F18F02B9090481617047426919
:100CD00001EA0203914341EA034181617047000048
:100CE000003C014044380240083801400000024006
:100CF0000004024000080240000C024000100240C4
:100D00000014024000180240001C02404018491C18
:100D10001CBFB1F1010100F8012DF9D170470EE0BF
:100D200002684368024408305FEAC37C44BF4B4416
:100D30005B1E52F804CB43F804CB091FF9D150F8DD
:100D4000041B0029ECD170472DE9F04104000E4648
:100D500054D0404F386800F00700B04202D200F093
:100D600073F84BD120683C4D810712D5400703D55D
:100D7000A96841F4E051A9602078010703D5A8686B
:100D800040F46040A860A968A06821F0F001014328
:100D9000A9602178C80729D56068012802D129688F
:100DA0008A0305E0022818BF032803D129688A01B5
:100DB00003D423E029688A0720D5A968890840EA76
:100DC0008100A860FFF768FB8046A868616800F0B2
:100DD0000C00B0EB810F09D0FFF75EFBA0EB080021
:100DE00041F289318842F0D303202BE0386800F0CB
:100DF0000700864204D200F027F801D0012021E04C
:100E00002078420705D5A968E06821F4E051014344
:100E1000A9602178080706D5A968206921F46041F6
:100E200041EAC001A96000F05BF8AA680B490C4BCD
:100E3000C2F30312895CC84018600A48006800F0D9
:100E400013F80020BDE8F0813E70396801F0070119
:100E5000B1427047003C02400038024034110008A3
:100E60000C0000200800002038B50D4D0D4B2A78ED
:100E700004464FF47A711868B1FBF2F2B0FBF2F05D
:100E8000FFF7C7FD50B9102C08D2002221464FF0C1
:100E9000FF30FFF796FDAC60002032BD012032BD6F
:100EA000000000200C00002081B0002000900B48C2
:100EB000416841F480414160416801F48041009102
:100EC0000021009A0091036843F08053036000689A
:100ED00000F080500090009801B070474038024008
:100EE00030B5144C606800F00C00042802D00828CB
:100EF00002D01DE0104830BD226820680023410266
:100F000002F03F0204D525680B49C5F3881003E0C1
:100F100020680A49C0F38810A1FB000100F010F816
:100F20002168C1F30141491C4900B0FBF1F030BD1B
:100F3000024830BD0438024000127A000024F40058
:100F4000D3BBD9B1B2F5803F5BD2022A1ED98C4601
:100F5000B1FBF2F102FB11C31B0443EA1043B3FBE4
:100F6000F2FC02FB1C3380B240EA0343B3FBF2F015
:100F700002FB103240EA0C4000237047022A05D9D8
:100F80008446B0FBF2F002FB10C270474AB105D1B3
:100F900000F0010249085FEA300070470022002398
:100FA000704700F051B80B0002000021002070478C
:100FB000F7D3002200237047904271EB030CF2D369
:100FC00070B5B1FA81F4B3FA83F52C1BA340C4F1D8
:100FD000200532FA05F63343A2405FF00046E640B2
:100FE00002E05B085FEA3202841A71EB030524BF5A
:100FF000204629467641F4D302000B003000002140
:1010000070BD70B5B1FA81F4B2FA82F5C4F1200472
:101010006419B4F12006DAD3B2405FF00044F44022
:10102000002502E052085FEA3303C61A71EB020E94
:1010300024BF3046714664416D41F3D302000B007A
:101040002000290070BD0000704730B4002512E078
:1010500050F8042BD30744BF4A44521E091F0429E9
:1010600042F8045BFAD213468C0744BF15809B1CE0
:10107000C90748BF1D7050F8041B0029E8D130BCD7
:101080007047000010B5074979441831064C7C447C
:10109000163404E00A68081D114488470146A1423D
:1010A000F8D110BD2C0000004C0000004EF6885115
:1010B000CEF20001086840F470000860BFF34F8F63
:1010C000BFF36F8F4FF00170E1EE100A7047000020
:1010D0007BFFFFFF4C00000010000020000000001C
:1010E0003FFCFFFF10000000D000000000000020C7
:1010F00000000000FEE7FEE7FEE7FEE7FEE77047C0
:101100007047704700F006B80148FFF73DBA00008D
:10111000100000200248416802788A184260704737
:10112000000000200248016841F47001016070472E
:1011300088ED00E000000000000000000102030450
:101140000607080900F00DF8002801D0FFF79AFF04
:10115000AFF300800020AFF30080FFF760FB00F0EA
:1011600002F80120704700F001B800000746384639
:1011700000F002F8FBE7000080B5AFF30080024A00
:1011800011001820ABBEFBE726000200054801460F
:1011900003B4684680F30988AFF30080FFF786FF49
:1011A000FFF7D0FFA5EDF5FE014880470148004755
:1011B000251100088D11000801000000000000004A
:1011C000100000000024F400FFF7FEBFFFF7FEBF91
:1011D000FFF7FEBFFFF7FEBFFFF7FEBFFFF7FEBF43
:1011E000FFF7FEBFFFF7FEBFFFF7FEBFFFF7FEBF33
:1011F000FFF7FEBFFFF7FEBFFFF7FEBFFFF7FEBF23
:10120000FFF7FEBFFFF7FEBFFFF7FEBFFFF7FEBF12
:10121000FFF7FEBFFFF7FEBFFFF7FEBFFFF7FEBF02
:10122000FFF7FEBFFFF7FEBFFFF7FEBFFFF7FEBFF2
:10123000FFF7FEBFFFF7FEBFFFF7FEBFFFF7FEBFE2
:10124000FFF7FEBFFFF7FEBFFFF7FEBFFFF7FEBFD2
:10125000FFF7FEBFFFF7FEBFFFF7FEBFFFF7FEBFC2
:10126000FFF7FEBFFFF7FEBFFFF7FEBFFFF7FEBFB2
:10127000FFF7FEBFFFF7FEBFFFF7FEBFFFF7FEBFA2
:10128000FFF7FEBFFFF7FEBFFFF7FEBFFFF7FEBF92
:10129000FFF7FEBFFFF7FEBFFFF7FEBFFFF7FEBF82
:1012A000FFF7FEBFFFF7FEBFFFF7FEBFFFF7FEBF72
:1012B000FFF7FEBFFFF7FEBFFFF7FEBFFFF7FEBF62
:1012C000FFF7FEBFFFF7FEBFFFF7FEBFFFF7FEBF52
:1012D000FFF7FEBFFFF7FEBFFFF7FEBFFFF7FEBF42
:1012E000FFF7FEBFFFF7FEBFFFF7FEBFFFF7FEBF32
:1012F000FFF7FEBFFFF7FEBFFFF7FEBFFFF7FEBF22
:08130000FFF7FEBFFFF7FEBF7F
:040000050800118D51
:00000001FF
