:020000040800F2
:10000000900500201D3600083D2900083F29000802
:100010004129000843290008452900080000000084
:100020000000000000000000000000004729000858
:1000300049290008000000004B2900084D2900084C
:100040002D360008313600083536000839360008EC
:100050003D3600084136000845360008493600089C
:100060004D3600085136000855360008593600084C
:100070005D360008613600086536000869360008FC
:100080006D360008713600087536000879360008AC
:100090007D3600088136000885360008893600085C
:1000A0008D3600089136000895360008993600080C
:1000B0006D2900089D360008A1360008A536000805
:1000C000A9360008AD360008B1360008B53600087C
:1000D000B9360008BD360008C1360008C53600082C
:1000E000C9360008CD360008D1360008D5360008DC
:1000F000D9360008DD360008E1360008E53600088C
:10010000E9360008ED360008F1360008F53600083B
:10011000F9360008FD3600080137000805370008E9
:10012000093700080D370008113700081537000897
:10013000193700081D370008213700082537000847
:10014000293700082D3700083137000835370008F7
:10015000393700083D3700084137000845370008A7
:10016000493700084D370008513700085537000857
:10017000593700085D3700086137000800000000AB
:10018000653700086937000840F0200070472DE906
:10019000F14FB0B0924604910DF142013A9A2B9181
:1001A00099464A7000200AE01AF8011B0498309A18
:1001B00090470028049000F044860D98401C0D9054
:1001C0009AF8000058B12528EED100200021002225
:1001D0000790089109920A910B920C9104E00D98F6
:1001E00000F031BE41F001011AF8010F2028F9D0CA
:1001F00023280CD02B2804D02D2805D0302809D056
:100200000BE041F00201EFE741F00401ECE741F0BF
:100210000801E9E741F01001E6E72A280FD1D9F8F3
:10022000002052F8040BC9F8002000280F9003D5D5
:1002300040420F9041F004010AF1010A14E00F92CC
:10024000DFF8082C0AE00F9B934205DA03EB8304E6
:1002500000EB440030380F900AF1010A9AF80000D0
:10026000A0F130030A2BEED39AF800202E2A03D0F7
:100270004FF0FF300E9029E01AF8010F2A2809D11B
:10028000D9F8002052F8040BC9F800200E900AF1AA
:10029000010A1BE02D280CBF0AF1010A00200022F0
:1002A0000E92DFF8A84B0BE040B90E9BA34205DA93
:1002B00003EB830502EB4502303A0E920AF1010A84
:1002C0009AF80020A2F130030A2BEDD3ADF84010CC
:1002D0000FF67C309AF8001000F0DAFE08B11AF838
:1002E000010B8DF842009DF84200682805D19AF86C
:1002F000001068290CD1622006E06C2804BF9AF82F
:1003000000106C2904D171208DF842000AF1010A15
:1003100012AA06921AF801BBBBF125002CD01C389A
:1003200000F09781001F022840F29381133800F0FB
:10033000BA84093800F08D81801E00F04F85401E80
:1003400000F0FC84401E022840F28381001F00F070
:10035000F584401F00F0F280401E00F0A484401E8F
:1003600000F0DA80C01E0ED0801E00F09C84C01EFB
:1003700000F0998400F03DBD0122252107928DF8FF
:10038000481000F042BDD9F8000050F8044BC9F8FD
:100390000000002C059440F0AB802B994878002891
:1003A00000F0A1804FF0FF340FF6AC2000F07CFE8F
:1003B000241A40F0468500F028BD01236A4602A9B0
:1003C000304600F00DFE002840F03B85641EF4D15D
:1003D0003096079C12AF74B1309E17F8011B049839
:1003E000B0470028049000F02C850D98401C641E36
:1003F0000D90F2D130960A9C3021002C8DF800101F
:100400000CDD309E01236A4602A9304600F0E8FD6B
:10041000002840F01685641EF4D13096059F089C94
:1004200074B1309E17F8011B0498B047002804905F
:1004300000F007850D98401C641E0D90F2D1309697
:100440000B9C3021002C8DF800100CDD309E012318
:100450006A4602A9304600F0C3FD002840F0F1844E
:10046000641EF4D1309605980899099C471874B118
:10047000309E17F8011B0498B0470028049000F044
:10048000E0840D98401C641E0D90F2D130960C9CB7
:100490003021002C8DF800100CDD309E01236A46BF
:1004A00002A9304600F09CFD002840F0CA84641E7A
:1004B000F4D130969DF8400041077FF581AE2020B1
:1004C000002D8DF800007FF77BAE309C01236A463B
:1004D00002A9204600F084FD002840F0B2846D1E81
:1004E000F4D130946CE60FF65830059000F08DBCD6
:1004F0000E9D002D04D5204600F0F6FD044608E0D0
:100500002A460021204600F00BFE002814BF041BE1
:100510002C46089400F079BCD9F8001051F8040B6F
:10052000C9F8001020F00002002121F0FF33CDE9CE
:10053000022312AC0594782100F04CBC2B9948782A
:1005400020B14FF0FF340FF6C8202FE79DF842008E
:10055000622860D0682817D06A283FD06C2806D05F
:10056000712847D074282CD07A281DD062E0D9F8A1
:10057000001051F8040BC9F80010002866D14FF0A4
:10058000FF340FF6A42011E7D9F8001051F8040B3E
:10059000C9F8001020B94FF0FF340FF68C2005E7A2
:1005A0000D99018000F031BCD9F8001051F8040B0E
:1005B000C9F80010002849D14FF0FF340FF6682029
:1005C000F4E6D9F8001051F8040BC9F8001000281F
:1005D0003CD14FF0FF340FF65020E7E6D9F8001079
:1005E00051F8040BC9F8001080B94FF0FF340FF632
:1005F0003820DBE6D9F8001051F8040BC9F80010D8
:1006000020B94FF0FF340FF62020CFE60D9AD31714
:10061000C0E90023F9E3D9F8001051F8040BC9F838
:10062000001020B94FF0FF340FF6FC10BEE60D9914
:100630000170EAE3D9F8001051F8040BC9F8001072
:1006400020B94FF0FF340FF6E010AFE60D990160CE
:10065000DBE39DF842004C2807BFD9F80010CA1D03
:10066000D9F80000C21D22F00702C9F80020D2E923
:1006700000010832C9F80020CDE90201C80F02D0FC
:1006800007982D210AE0BDF84000810702D50798A0
:100690002B2103E0C00705D50798202112AA115489
:1006A000401C079012A807994BF0200300EB010CA7
:1006B000DDE90201CDE92C01612BCDF814C021AC9C
:1006C0000BD00E98002848BF062105D404BF4BF07C
:1006D0002000672801D101210E91DDE902014F00C0
:1006E00047EAD0777E15FF174FF0FF32974208BFD9
:1006F000964210D1090341EA10510003002908BFB6
:10070000002808D0ABF1610503211A2D089118D3F8
:100710000FF6341110E0DDE902014A00521512F122
:10072000010F11D108030FD1ABF1610503211A2D7F
:1007300008911FD30FF618110322604600F01CFD2C
:1007400063E30FF60011F7E7DDE902016A4600F006
:1007500067FDCDE902014BF02000612811D1059819
:1007600030220270811C0591BBF1610F0CBF782112
:10077000582102E00FF6D401DEE741700798801C93
:100780000790DDE9020120F0000231F0004308BFCC
:10079000002A02D10026002542E14BF02008B8F1E2
:1007A000610F40F092800E99002947BF21200190EF
:1007B000491C0191019FDDE92C017F1C00220023CF
:1007C000DDE9024500F064FD38BF85F00045009882
:1007D0008DF88420001F002F00900DF1850632DD7A
:1007E000204629460022002300F06CFD2BD21C225B
:1007F00000F082FD04460D4600F01CFEFF1F002F96
:10080000804609DD00F032FE02460B4620462946AE
:1008100000F0F4FE04460D46F01D0721B8F1000F6C
:100820000CDD491E5EBF08F00F0200F8012D4FEAF3
:100830002818F3D502E0002200F8012D491EFAD550
:10084000C61D002FCCDC0DF18500361A01980DF184
:1008500085048642D8BF304600282FD4B04206DA3D
:100860000DF185010A5C082AA8BF0F2100DA0021DA
:10087000024621AB134400E0401E13F80159521EFA
:100880008D42F9D00F2904D10DF185018B5C5B1CE1
:100890008B54002A04D50099091D21AC401C0091FD
:1008A000411E0BD4621813783033DDB23A2DA4BF49
:1008B0005B443A3B491E02F80139F4D50E9A002AEE
:1008C00040F1AC80411E0E91A8E00099DFF80027AE
:1008D00047F29750414391FBF2F20092DDE92C453B
:1008E000C2F10702002A25F0004504DD2046294612
:1008F00000F04AFB0BE052420020DFF8D81600F06F
:1009000043FB02460B462046294600F0E9FE04461A
:100910000D46B8F1660F06BF009F0A3706270E98EE
:100920003F18142FC8BF142730208DF884000DF114
:100930008506002F34DD2046294600F0F5FF0146EC
:100940000A4606F1080304200A26B2FBF6F606EB77
:10095000860EA2EB4E02303203F8012C0A22B6FBBF
:10096000F2F202EB820EA6EB4E063036401E03F882
:10097000026DE9D1083F002F03F10806D9DD0846D2
:1009800000F0E4FF02460B462046294600F036FE02
:100990000022DFF8443600F0E7FF04460D46CAE7C0
:1009A0000DF18500361A0DF1850404E00098401E13
:1009B000761E0090641C20783028F7D0B8F1660FBE
:1009C00002D10098401C04E0B8F1650F0CBF012073
:1009D00000200E9940188642B8BF701E00281DD412
:1009E000B04204DA215C3429C8BF392100DC30214F
:1009F0000246631E9D1800E0401E15F80169521E54
:100A00008E42F9D0392902D1A15C491CA154002A97
:100A100004D50099491C1C46401C00910646009DC7
:100A200001F078F8406A0778DDF8388030B20028A5
:100A300002DC01260FF21C644BF02000662808BF80
:100A40006D1C16D0672845D128B210F1040F47DB82
:100A5000404545DA9DF840006D1C010703D430B2D3
:100A60004045D8BF804628B2B8EB000848BF4FF0D9
:100A700000080FFA85FBBBF1000F00F3B380089864
:100A8000411C0891302205990A54B8F1000F03DC8B
:100A90009DF84000010704D50898411C089105996C
:100AA0000F5418EB0B0FB8BFC8F100052DB2684208
:100AB000454432B20B909542B8BF2E46059B08982C
:100AC00036B2099632462146184400F055FBAD1B5C
:100AD0000C95D1E0BBF1610F17D14FF0700B19E00D
:100AE00030B2404504DA9DF840100A0758BF8046EE
:100AF000B8F1010848BF4FF00008BBF1670F14BF01
:100B00004FF0450B4FF0650B04E0BBF1410F08BF00
:100B10004FF0500B0898411C0891B8F1000F05994F
:100B200014F8012B0A5403DC9DF8400001071AD584
:100B30000898411C0891B8F1000F05990F5412DD77
:100B4000761E30B28045B8BF46460598089B32B243
:100B50002146184400F010FB089836B2301808906F
:100B6000A8EB06000B9005980899014428B20028CC
:100B700081F800B003D42B204870891C04E02D229A
:100B80004A700546891C6D4200202CAA0AE02B46BB
:100B90000A2593FBF5F505EB8504A3EB440302F866
:100BA000013B401C2DB2002DF1DC012806DC4BF08E
:100BB0002002652A04BF302201F8012B00282CAA4C
:100BC00008D1302001F8010B06E0401E135C3033E1
:100BD00001F8013B0028F8DC059A08981044091A2E
:100BE000099149E030B229B288421CDA0598089B85
:100BF00032B22146184400F0BFFA089936B2711893
:100C00000891ABEB0600B8F1000F0B9003DC9DF8E8
:100C10004000020704D5059847540999491C0991D9
:100C2000CDF8308028E00598089B2AB22146184468
:100C300000F0A2FA0898761B5844B8F1000F08900B
:100C400003DC9DF840100A0703D5411C0891059963
:100C50000F5430B28045B8BF46460598089B32B263
:100C600004EB0B01184400F087FA089836B23018EC
:100C70000890A8EB06000B909DF8400000F01400CF
:100C8000102840F0C280079A08980B99821809989A
:100C90008A1882180C980F998018884280F2B580C3
:100CA000081A0A90B1E09DF84200622808D068282E
:100CB0000ED06A2814D06C281FD0712810D01CE0E8
:100CC000D9F8001051F8040BC9F80010C0B21AE0AE
:100CD000D9F8001051F8040BC9F8001080B212E0E6
:100CE000D9F80000C21D22F00702C9F80020D2E99D
:100CF00000010832C9F8002006E0D9F8001051F8C8
:100D0000040BC9F800100021CDE902019DF8400054
:100D100002075AD5DDE90201002908BF002854D096
:100D20004BF02002782A50D1079812A930230B5497
:100D3000401C421C079201F800B046E09DF84200BA
:100D4000622808D068280ED06A2814D06C281FD0DA
:100D5000712810D01CE0D9F8001051F8040BC9F824
:100D6000001040B21AE0D9F8001051F8040BC9F88D
:100D7000001000B212E0D9F80000C21D22F00702F4
:100D8000C9F80020D2E900010832C9F8002006E0C5
:100D9000D9F8001051F8040BC9F80010C117CDE9BB
:100DA0000201002902D507982D210AE0BDF8400074
:100DB000810702D507982B2103E0C00705D50798C6
:100DC000202112AA1154401C079012A8079901442F
:100DD0000591594602A800F04DF816E00120079051
:100DE000D9F8001051F8040BC9F800108DF848002C
:100DF0000BE001202521BBF1000F07908DF8481072
:100E000003D0022107918DF849B00F9D07980A99E8
:100E10002D1A08986D1A0B992D1A09986D1A0C99AC
:100E20002D1A9DF840006D1A41073FF5D2AA2020E7
:100E3000002D8DF800007FF7CCAA309E2C46FFF7DE
:100E4000BCBA4FF0FF3031B0BDE8F08FCBCCCC0C4A
:100E5000686A6C747A4C00007072696E74665F73B5
:100E60003A2062616420257320617267756D656E3A
:100E7000740000002DE9FC4D06468846376940465F
:100E80006F2808BF082405D0FFF77EF9782814BF23
:100E90000A241024D6E900013C2582468B46B8F18D
:100EA000640F18BFB8F1690F05D1002903D5DAF135
:100EB000000A6BEB4B0BBBF1000F08BFBAF1000F40
:100EC0000CD1306B50B9082C3AD196F83800010794
:100ED00036D530223B2587F83B2031E08DF8008065
:100EE000504659462246002300F018FE3032D0B258
:100EF0006D1E3A2801950EDA7A555046594622461B
:100F0000002300F00BFE82465FEA010B08BFBAF136
:100F1000000F05D108E09DF800001218513AEBE7E8
:100F2000F06879198842DBD3082C09D196F838008B
:100F3000010705D5785D302802D06D1E3020785528
:100F4000C5F13C02306BB26179198242F16008DA76
:100F5000318F821A4FF6EF70014031873262BDE85F
:100F6000F38D00280ED596F8380000F014001028F4
:100F700008D1736B7069316A1B1A5B1A9B1A002BBC
:100F8000C8BF3362BDE8F38D2DE9D04306460F4656
:100F900014464FF00008DFF8449012E0E00707D550
:100FA00042464B463046394600F0DEFC06460F46C8
:100FB0004046494642464B4600F0D6FC6410804607
:100FC0008946002CEAD130463946BDE8D08300007E
:100FD000A08601000000F03F84D797410000244024
:100FE000F8B505460E4617461C4600205CB117F8BA
:100FF000011BB068A847B06030B1F06A401CF062D5
:101000000020641EF3D1F2BD4FF0FF30F2BD0000AE
:101010007072696E74665F733A20256E206469731E
:10102000616C6C6F776564007072696E74663A20EB
:1010300062616420256E20617267756D656E740053
:10104000000000006E616E004E414E00696E660049
:10105000494E4600300030B5016884684218416846
:1010600002EB5103C90703D54C4401E0491C08D1E8
:101070009A4218BF12F9011B01D10C3030BD12F891
:10108000015B002904F8015BF0D4491EF7D5EFE7B6
:10109000C9B202788A421AB11CBF10F8012FF9E7D1
:1010A00018BF002070472E0080B500B906A0054982
:1010B0000B681BB122220021984701E000F0B1FD2E
:1010C000222002BD84010020636F6E737472616917
:1010D0006E742068616E646C65723A20626164208F
:1010E0006D6573736167650000F10103810704D0CA
:1010F00010F8011B820781B1FAD10268A2F1013117
:10110000914311F0803104BF50F8042FF6E709BA7B
:10111000B1FA81F100EBD100401CC01A7047000009
:10112000C9B2830706D0521E22D310F8013B994260
:10113000F7D11FE0083A13D302F1040241EA01217A
:1011400041EA014150F8043B121F21BF4B40A3F17B
:10115000013C2CEA030C1CF0803FF3D0C9B2001F05
:101160000832521E24BF10F8013B91EA030FF8D851
:1011700018BF0120401E704762B38B0708D0521E73
:1011800011F8013B00F8013B00F024808B07F6D1F9
:10119000830740F0208000BF103A07D330B4B1E895
:1011A0003810103AA0E83810F9D230BC530724BFE9
:1011B000B1E80810A0E8081044BF51F8043B40F81B
:1011C000043BD20724BF31F8022B20F8022B44BF86
:1011D0000B7803707047121F17D35B0009D151F8C9
:1011E000043B20F8023B1B0C121F20F8023BF6D2F6
:1011F0000BE051F8043B00F8013B1B0A20F8023BCE
:101200001B0C121F00F8013BF3D238BF121D521EF7
:1012100024BF11F8013B00F8013BF8D870470000EB
:1012200010B5144600F002F8226010BDC1F30A5355
:1012300043B14A0012F5001F28D2A3F2FE32A1EBFF
:101240000251704750EA410C20D001F0004C31EAC5
:101250000C01B1FA81F204BFB0FA80F3D2180B3A54
:10126000B2F120032CBF00FA03F1914041EA0C01D6
:101270003EBFC2F1200C20FA0CF3194390405242B9
:1012800040F2FD33D21A01EB035170470022704740
:1012900041EA030C50EA4C0C52EA0C0C4FF4001CCF
:1012A00009D307D01CEB410F9CBF1CEB430F8B42B3
:1012B00008BF824270471CEB430FFBD8994208BF1E
:1012C0009042704741EA030C50EA4C0C52EA0C0C75
:1012D0004FF4001C09D307D01CEB410F9CBF1CEB43
:1012E000430F994208BF904270471CEB410FFBD857
:1012F0008B4208BF82427047124254D440F2FF7CB6
:101300001CEA11530FD0634531D09B1863453CBF95
:1013100001EB0251704701F0004141EA0C510020FD
:10132000AFF30080704750EA410320D001F0004C39
:1013300091EA0C011CD0B1FA81F30B3B9A420DD912
:10134000D21A994051EA0C01C3F1200C20FA0CFC8E
:1013500061449840531C40F2FF7CD7E7914041EA3A
:101360000C01C2F1200C20FA0CF319439040704795
:10137000B0FA80F31533202BE0D3202AEED3203AA5
:10138000203B9A4209D9D21A00FA03F141EA0C0132
:101390000020531C40F2FF7CB8E700FA02F141EA5A
:1013A0000C0100207047524240F2FF7C1CEA1153AE
:1013B0000DD06345DBD0B2EB030C3CBFA1EB025177
:1013C00070470CF1010221EA035141F4801150EA07
:1013D000410CCCD001F0004C352A27DC30B481EA36
:1013E0000C01B2F1200309DAC2F12003044601FA2C
:1013F00003F5D0402843D1409C400CE0C3F12002CB
:10140000450020FA03F418BF44F0010421FA03F068
:1014100091400C43002174F1004550F1000051EB64
:101420000C01244230BC7FF47BAF70476146002042
:1014300076E70000C1F30A5340F21E42D31A0CDDD6
:10144000CA0283F3070342EA505242F00042DA40F4
:1014500002EBE17282EAE17070476FEAE17203F237
:10146000E13008B182F000407047000010F0004108
:1014700060B148BF4042B0FA80F29040D21CC2F541
:10148000846241EA025202EBD0214005704700001D
:10149000841A71EB030604D26E40001BB14112198D
:1014A00073414FF4001C1CEB410F34BF7CEB43062F
:1014B00083E00C0DA4EB1356362E00F37C80012E36
:1014C00045EAC32341DC43EA525312BFD2029202DF
:1014D0005B08240545EAC12141EA5051D2EBC02006
:1014E000994125D407D1B0FA80F610FA06F162D0FE
:1014F0000020203608E0B1FA81F6B140C6F12002A2
:1015000020FA02F21143B0404FEAF474B4EB4654AF
:1015100034F001064FEA74040AD8D6F50016760DA9
:1015200004F00044F04061FA06F25040F1404840B7
:10153000C00A40EA415021F0004128BF5FEA50054F
:1015400050F1000044EBD12135E0DB0A45EAC1212E
:10155000C90AB6F120050EDD42EA0242120CC5F1BD
:10156000200603FA06F6EB4042EA06056D42984172
:1015700061F100010DE062FA06F5F240554063FAB0
:1015800006FC82EA0C02F3405A406D42904161EB46
:10159000030111F4801F05D1641E620502D06D00A5
:1015A0004041494121F48011430875F1004350F155
:1015B000000041EB045170BC70471CEB410F15D289
:1015C00023F0004352EA43060BD04FEA4C0CBCEB2D
:1015D000410F04D80C0D661E342EB7DDEBE7801AE0
:1015E000994150EA410608BF0021E4E708BF1CEB1F
:1015F000430F28BF6FF00001DDE7000070B491EAEF
:10160000030F4FF000457FF543AF6B40841A71EB39
:10161000030603D2001BB141121973414FF4001CA1
:101620001CEB410F34BF7CEB430442E00C0DA4EBF8
:101630001356352E4FDC45EAC323DB0A45EAC121A8
:10164000C912B6F120050DDD63FA05F6EB4086EA16
:101650000305124218BF45F00105C01851F1000101
:101660000CD213E062FA06F5F2405540F3415A40BD
:10167000B340F3405A408018594107D349085FEA04
:1016800030005FEA350528BF45F0010501F58011FE
:10169000420875F1004250F1000041EB04514E0048
:1016A00016F5001F70BC38BF70470020090D0905F2
:1016B00070471CEB410F10D252EA43060BD0BCEB33
:1016C000410F05D80C0DAB43661E342EB6DD02E08B
:1016D000AB438018594170BC704770BC7047000024
:1016E000F0B540F2FF7581EA030C0CF0004C15EAEE
:1016F00011541DBF15EA1357AC42AF42E5E0BC419F
:10170000C1F31301C3F31303801A994143F4801307
:1017100004D2641E0018494180185941C90241EAA7
:101720005051B1FBF3F603FB1611A2FB0675D7EB84
:10173000C020A94102D2761E80185941C90241EA4F
:101740005051B1FBF3FE03FB1E11A2FB0E75D7EB4C
:10175000C020A94103D2AEF1010E8018594189027F
:1017600041EA9051760546EA8E2EB1FBF3F603FB73
:101770001611A2FB0675D7EB8020A94102D2761E76
:1017800080185941C90241EA50514EEA060EB1FB98
:10179000F3F603FB1611A2FB0675D7EBC020A94197
:1017A00002D2761E80185941C90241EA5051B1FB5C
:1017B000F3F703FB1711A2FB0735D3EBC020A941B8
:1017C00067F100070CBF004247F0010766F3D52719
:1017D0004FEA1E31B80814F5806412DDBD0775F1BB
:1017E000004250EB0E5051EB045111F5801F5CBFCD
:1017F00041EA0C01F0BD4CF07F6141F0E041002076
:10180000F0BDBD076D0840EA0E5041F48011D4F1DF
:101810000104B4F120060ADAC4F120060200E04017
:1018200001FA06F3E1401843B24015430EE0342CB0
:1018300013DCC6F1200445EA40056D0820FA06F2E3
:10184000154321FA06F0A1400D43002175F1004235
:1018500050F1000051EB0C01F0BD00205FEA0C01DB
:10186000F0BDCFB992185B41B3FA83F704BFB2FA67
:1018700082F6BF190B3FB7F120062FBF02FA06F31D
:10188000BB40C7F1200622FA06F638BF3343BA4000
:101890001CB1E419641E33E77F4231F00041B1FA14
:1018A00081F404BFB0FA80F6A4190B3CB4F1200611
:1018B0002FBF00FA06F1A140C4F1200620FA06F677
:1018C00038BF3143A0403C1B1AE7AC421ABF05EABF
:1018D0001357AF4212E050EA41061CBF52EA4306DA
:1018E000BFE750EA4107304661461CBF41EA055157
:1018F000F0BD52EA430C08BFC143F0BD00204FF4D5
:10190000001616EB410F98BF16EB430F08BF16EBFE
:10191000410F24BFC14305E016EB430F0CBF6146E6
:101920004CEA0551F0BD0000400D40F21E4C40EA6B
:10193000C120BCEB115C40F0004003D48CF30701E4
:10194000C84070476FEAE1707047000050B1B0FACC
:1019500080F18840C91CC1F58461090501EBD021E3
:10196000400570470146704730B540F2FF7C1CEAE5
:1019700011541DBF1CEA1355644565453FE06419C9
:1019800081EA030C6FF35F530CF0004C43F48013B7
:10199000C90241F0004141EA505EC5021100A5FBB9
:1019A000020200284FF00000EEFB01204FF0000182
:1019B000E3FB052118BF42F0010240180021494114
:1019C000E3FB0E01A4F580640D0302D2921840419E
:1019D000494154F1010470DD450872F1004250F1B3
:1019E000000051EB0451A1F5801102D441EA0C0131
:1019F00030BD40F2FF7E4CEA0E51002030BD0CEAB3
:101A00001355644518BF654581EA030C0CF0004C82
:101A100041D050EA410E1CBF52EA430E02E061463B
:101A2000002030BD24422C441BD15FEA050EF6D0C5
:101A3000090302BF01460020AEF1140EB1FA81F590
:101A4000AEEB050401FA05FE0C35C5F1200100FAE4
:101A500005F5C8404EEA000E6FF35F5343F4801360
:101A60009CE733F00043B3FA83F504BFB2FA82FE79
:101A700075440B3D641BB5F1200E2FBF02FA0EF327
:101A8000AB40C5F1200E22FA0EFE38BF43EA0E032A
:101A9000AA40641C7CE750EA410E14BF52EA430E90
:101AA0006FF000014FF4001515EB430F8EBF194680
:101AB00015EB410F9DE7B4D830BDD4F10104B4F16A
:101AC00020050FDAC4F12005520828BF42F00102B8
:101AD00010FA05FE01FA05F57244E2BFE040284322
:101AE000E1400FE0352C9ADCC5F1200452EA4002B7
:101AF00020FA05F218BF42F0010231FA05F0A140C8
:101B00000A43002172F1004250F1000051EB0C0138
:101B100030BD00000048704710000020D3BBD9B191
:101B2000B2F5803F5BD2022A1ED98C46B1FBF2F19E
:101B300002FB11C31B0443EA1043B3FBF2FC02FB9C
:101B40001C3380B240EA0343B3FBF2F002FB1032D5
:101B500040EA0C4000237047022A05D98446B0FBB6
:101B6000F2F002FB10C270474AB105D100F0010249
:101B700049085FEA3000704700220023704700F0F8
:101B800053B80B000200002100207047F7D3002259
:101B900000237047904271EB030CF2D370B5B1FA99
:101BA00081F4B3FA83F52C1BA340C4F1200532FA6B
:101BB00005F63343A2405FF00046E64002E05B08D2
:101BC0005FEA3202841A71EB030524BF20462946DE
:101BD0007641F4D302000B003000002170BD70B5D7
:101BE000B1FA81F4B2FA82F5C4F120046419B4F1B7
:101BF0002006DAD3B2405FF00044F440002502E052
:101C000052085FEA3303C61A71EB020E24BF304656
:101C1000714664416D41F3D302000B00200029009E
:101C200070BD012000F002B87047000080B500F0E0
:101C300007F8024A11001820ABBEFBE7260002009D
:101C400010B500F03BF8020000230024E4431068C4
:101C5000A04203D011000220ABBE13605068A04226
:101C600003D0111D0220ABBE536010BDF0B583B090
:101C7000040000F023F8A10047183D680026F64351
:101C8000B54216D1AFF300803D68B5420FD100BF19
:101C900009A00090002C01D1002000E00420019058
:101CA0000320029069460120ABBE05003D60AFF302
:101CB0000080280003B0F0BD3A74740000487047FB
:101CC0009000002038B5040001D1012032BD00F0A1
:101CD00066F818B900F05FF800F0B7FD3AE090F848
:101CE0003D10012901D001207047022180F83D10EC
:101CF0000168CA6842F00102CA600168DFF8B821D1
:101D0000914218BFB1F1804F17D0DFF8B021914256
:101D10001CBFDFF8AC3199420FD0DFF8A821914207
:101D20001CBFDFF8A431994207D0DFF8A02191420F
:101D30001CBFDFF89C31994205D1896801F0070189
:101D4000062905D001680A68084642F001020260CF
:101D50000020704702206870211D206800F045FBBC
:101D60000120A8720121A970E87029716871A97118
:101D7000E871297268726970002032BD38B50400BC
:101D800001D1012032BD00F00AF818B900F003F8C3
:101D900000F0D2FDDEE7002129702046704704F1F3
:101DA0003C056878704710B5044604F13E0009B957
:101DB000027807E0042908BF427803D008290CBF45
:101DC0008278C278012A01D0012010BD11B9022207
:101DD00002700AE0042902D10222427005E00829BB
:101DE00007BF022282700223C3702068012200F024
:101DF0008CFC00F02BF818BF884200F02EF818BFBA
:101E0000B0F1804F12D000F01DF81CBFDFF8B030E9
:101E100098420BD000F012F818BF884206D000F0AC
:101E200029F81CBFDFF8A820904203D100F01DF86C
:101E300002D0206800F03AF8002010BDDFF88420BE
:101E400090427047DFF87420904270472068DFF8B6
:101E50006820DFF874109042704703D1436C43F45C
:101E600000434364206890427047806800F0070098
:101E7000062870471549884270472068C26842F0BA
:101E8000100270472068C26842F002027047206862
:101E9000C26842F0080270472068C26842F004023B
:101EA00070470446002504F13E0070470168024671
:101EB00041F0010111607047000001400004004042
:101EC00000080040000C00400004014000400140B8
:101ED0000018004038B5040001D1012032BDFFF7E1
:101EE0005EFF18B9FFF757FF00F027FDFFF732BF7D
:101EF000C2600122206800F008BC38B5FFF7D1FFAE
:101F000011B9027803790AE0042902D142784379B1
:101F100005E0082907BF82788379C278C379012A4E
:101F200008BF012B01D0012032BD21B9022202706D
:101F3000022303711EE0042906D10222427002230B
:101F40004371FFF7A9FF17E0082906D1022282702A
:101F500002238371FFF79BFF0EE00222C27002236F
:101F6000C371080006D00429EBD00829F2D00C294F
:101F700024D026E0FFF786FFFFF7BAFF00F02FF826
:101F800018BFB0F1804F14D000F025F81CBFDFF867
:101F9000602090420DD000F01AF81CBFDFF84C20F2
:101FA000904206D0FFF766FF1CBFDFF84820904242
:101FB00009D1FFF75AFF08D0206804E0FFF75DFF62
:101FC000DAE7012501E0FFF771FF284632BDDFF8AF
:101FD000281088427047DFF8241088427047206834
:101FE000DFF80410884270470000014000040140FF
:101FF0000008004000180040000C004000040040B1
:1020000070B504462068C5680669B10714D5AA07EB
:1020100012D56FF00201016101222277806910F070
:10202000030F204602D000F0A4FC03E000F0DAFC2D
:1020300000F07BF800202077700715D56A0713D5CC
:1020400020686FF00401016102222277806910F498
:10205000407F204602D000F08CFC03E000F0C2FC80
:1020600000F063F800202077300715D52A0713D534
:1020700020686FF00801016104222277C06910F026
:10208000030F204602D000F074FC03E000F0AAFC2D
:1020900000F04BF800202077F00615D5EA0613D59E
:1020A00020686FF01001016108222277C06910F4E6
:1020B000407F204602D000F05CFC03E000F092FC80
:1020C00000F033F80020207706F0010205F001014E
:1020D0000A4206D021686FF001020A61204600F032
:1020E0006AFC300608D52A0606D521686FF0800004
:1020F0000861204600F077FC700608D56A0606D510
:1021000021686FF040000861204600F06DFCB006C9
:102110000AD5AA0608D521686FF02000086120467C
:10212000BDE8704000F061BC70BD204600F05EBCB0
:10213000F8B500F0DEF801D10220F2BD012084F8EC
:102140003C007AB9F36872683168206800F04DFA93
:102150002168886920F00C0088618A69B0680243B0
:102160008A6163E0042A10D1F368726831682068DC
:1021700000F091FA2068816921F4406181618169F0
:10218000B26841EA0221816150E0082A24D1216825
:10219000F068726833681C311B024F68D1F804C0C4
:1021A0002CF4807CC1F804C027F42067D1F800C06B
:1021B0004FEA9C0C42EA8C0260F3071203F420639E
:1021C0000A603B434B60086820F00C0008600A6816
:1021D000B06802430A6029E00C2A26D12068F16821
:1021E000726833681C301B034768D0F804C02CF4B5
:1021F000805CC0F804C027F42047D0F800C02CF45D
:10220000407C4CEA022C61F30F3C03F42043C0F8FD
:1022100000C03B434360016821F4406101600268F3
:10222000B16842EA0122026000E0012500F001F8F5
:10223000F2BD002084F83C002846704770B500F0DD
:1022400058F801D1022070BD012084F83C0032B161
:10225000042A15D0082A25D00C2A34D045E020685D
:1022600000F015F92168886940F0080088618869E4
:1022700020F0040088618A69306902438A6135E090
:10228000206800F030F92068816941F400618161C3
:10229000816921F4806181618169326941EA0221A9
:1022A000816123E0206800F04EF92168C86940F0A0
:1022B0000800C861C86920F00400C861CA693069B3
:1022C0000243CA6112E0206800F06CF92068C1691D
:1022D00041F40061C161C16921F48061C161C169DA
:1022E000326941EA0221C16100E00125FFF7A1FF47
:1022F00070BD0446002594F83C0001280E46704746
:1023000070B5044604F13C0600253078012801D15F
:10231000022070BD0120307002227270DFF82803A5
:1023200022689368034093600868020018BF102871
:1023300030D0202818BF30282CD0402826D0502854
:1023400019D060281BD0702806D0B0F5805F27D048
:10235000B0F5005F07D022E000F02CF8206881681B
:1023600041F0770105E000F025F82068816841F42C
:102370008041816014E000F019F850210BE0CA6838
:102380004968206800F09DF9602104E000F00EF833
:10239000402100E00146206800F0A5F900E0012599
:1023A0000120707000213170284670BDCA684968EC
:1023B000206861E1CB684A68896820689BE1024631
:1023C000002031B1042907D0082908D00C2909D0F0
:1023D00070471068406B70471068806B70471068DA
:1023E000C06B70471068006C7047F0B50368974D7C
:1023F000974C984A984E994FA84218BFB0F1804F19
:1024000007D0B84218BFB04203D0904218BFA042D4
:102410000ED123F0700C4B6843EA0C03A84218BF9E
:10242000B0F1804F17D0B8421CBFB042904212D0DA
:10243000A0421CBF8A4A90420DD08A4EB0421CBFB7
:10244000894A904207D0894EB0421FBF884A9042C5
:10245000884EB04203D123F44072CB6813434A69DB
:1024600023F0800313430360A8428B68C3620A68A9
:10247000826212BFA04209690163012242610169BF
:10248000CA0703D50169490849000161F0BDF0B5EB
:10249000026A036A6D4F6E4E5B085B00036222F0B6
:1024A0000202436885690C6825F073052C438D682A
:1024B0001543B84218BFB04207D1CA6825F00805D5
:1024C0001543B84225F0040501D0B04205D14A6950
:1024D00023F440731A438B69134343608461496852
:1024E00041630562F0BDF0B5056A026A574E22F0FD
:1024F0001002026225F02005436884690A6824F40A
:10250000E64444EA02248A6845EA0215504AB04289
:1025100018BF904208D1CF6825F0800545EA07151D
:10252000B04225F0400501D0904206D14E698A693B
:1025300023F44063164343EA860343608461496899
:1025400081630562F0BDF0B5056A026A3F4E22F470
:102550008072026225F400754368C2690C6822F03B
:10256000730214438A6845EA0225394AB04218BF0B
:10257000904208D1CF6825F4006545EA0725B042AE
:1025800025F4806501D0904206D14E698A6923F412
:102590004053164343EA06134360C4614968C1636C
:1025A0000562F0BD70B5046A026A284E22F48052BA
:1025B000026224F400544268C3690D6823F4E643C0
:1025C00043EA05238D6844EA0534B0421CBF204D20
:1025D000A84204D14D6922F4804242EA8512426049
:1025E000C36149680164046270BDF0B5046A056A9C
:1025F000164E6D086D000562B042856918BFB0F1D6
:10260000804F11D0154EB0421CBF134FB8420BD0B3
:10261000104EB0421CBF0E4FB84205D0104EB04213
:102620001CBF124FB84203D1AD0842EA850201E057
:1026300045F0010263F3071224F00A0401F00A01D5
:10264000826121430162F0BD8800FFFF000001406C
:1026500000040140000C004000080040000400405D
:102660000040014000440140004801400018004083
:10267000001C00400020004010B5036A046A640892
:102680006400046223F00A03846924F0F00444EA3D
:102690000214846144E030B5046A056A25F010052F
:1026A00005620901856925F4407545EA022563F351
:1026B0000F3524F0A00401F0A001856121430162DF
:1026C00030BD10B5036A046A24F01004046223F0DC
:1026D000A003846924F4704444EA0234846143EA28
:1026E0000113036210BD826822F07002114341F0B1
:1026F00007018160704710B5846824F47F4421434A
:10270000114341EA0321816010BD10B501F01F01A2
:10271000036A01248C40A343036202FA01F1036AB5
:102720001943016210BD000010B58AB010210022CB
:1027300006A800F05DF9002100910191002210210E
:1027400002A800F055F9774C4FF0804020609F219F
:1027500040F2E73000F070F808B100F0E5F94FF40E
:102760008050069006A92046FFF7CAFD08B100F088
:10277000DBF92046FFF7AEFB08B100F0D5F900F019
:1027800054F808B100F0D0F9002001210290039123
:1027900000220590049202A92046FFF7C9FC08B167
:1027A00000F0C2F90AB010BD18B58DB0102100229A
:1027B00009A800F01DF900210091019100221C21BF
:1027C00002A800F015F9584C584820609F2163205A
:1027D00000F032F808B100F0A7F94FF480500990EA
:1027E00009A92046FFF78CFD08B100F09DF92046AD
:1027F000FFF7C4FA08B100F097F900F016F808B135
:1028000000F092F96020322102900391002204929C
:10281000069202A92046FFF711FD08B100F084F9E5
:10282000204600F054F80EB010BD0020009001903A
:102830006946204600F08EB90022E0606160A26027
:102840002261A2612046FFF73DBA10B586B000F0C4
:1028500063F821683648B1F1804F28D100210091FA
:10286000026942F001020261016901F00101009177
:102870000021009A00910221036843F001030360E4
:10288000006800F0010000900120009A0190029180
:10289000002205900392049200F03AF800220021F1
:1028A0001C2000F0B4F91C2000F0CEF90DE01F4A06
:1028B00091420AD100210091026942F002020261B4
:1028C000006900F002000090009806B010BD10B53D
:1028D00086B000F021F82168144A914216D10020F8
:1028E00000901348016841F0010101600221006875
:1028F00000F0010000904020009A01900022039215
:10290000049202910222059200F002F806B010BD76
:1029100001A9084800F0C0B904461421002201A80A
:1029200000F066B8E80000203001002000040040FC
:10293000303802400000024070477047FEE7FEE773
:10294000FEE7FEE7FEE770477047704780B500F08E
:1029500099FA1D480188491C8AB2B2F57A7F03DBD7
:102960001A4B012200211A70018001BD1848FFF79F
:1029700047BB38B5164CA04204BF017F012919D1CD
:10298000144D297849B9144B00221A80FFF717FD1E
:10299000124A10600120287031BD2978012909D11F
:1029A0000021FFF70CFD0E4908600220287000226C
:1029B00023685A6231BD0649884203D1064802881D
:1029C000521C02807047000088010020790100201D
:1029D000E8000020780100207A0100207C0100201E
:1029E00080010020704770477047704770470000B3
:1029F0004018491C1CBFB1F1010100F8012DF9D1AB
:102A00007047000070B500F045FA00F033F800F0B0
:102A10005BFAFFF789FEFFF7C7FE00213C483D4DFA
:102A20003D4EFFF7C0F92846FFF759F90021284627
:102A3000FFF763FA0FF2F40041A500F061FA0024F9
:102A4000307802280CD17388B06834494FF47A7218
:102A500002FB030370681B1AB1FBF3F40021317011
:102A600070780028ECD0002171702846214600F0D3
:102A700047FAE5E780B592B03021002206A8FFF7BB
:102A8000B7FF1421002201A8FFF7B2FF0020009039
:102A90002348016841F080510160006800F08050D7
:102AA00000900020009900901E48016841F4804188
:102AB00001604FF48031006800F4804000900120F4
:102AC000009A079102224FF480010C920D9104228A
:102AD00040210E920F910690022204211092119132
:102AE00006A800F021FA08B100F01EF802210291B8
:102AF0000F2001909022002103920491059101A8DA
:102B000000F09AFB08B100F00FF813B000BD000010
:102B100030010020E800002078010020A08601009C
:102B2000403802400070004072B6FEE743617074A6
:102B3000757265205374617274210A0D00000000E3
:102B40004672657175656E6379203D202575204854
:102B50007A0A0D0070B500F13C031A78012A01D100
:102B6000022070BD01221A7002245C7005686E6834
:102B7000AC680A6826F0700616436E600268114859
:102B8000824218BFB2F1804F11D0114882421CBF5F
:102B9000104DAA420BD00D4882421CBF0E4DAA42D6
:102BA00005D0094882421CBF0C4DAA4204D1486896
:102BB00024F08004044394600121597000201870AF
:102BC00070BD00000000014000400140000C0040CA
:102BD00000040040000800400004014000180040CC
:102BE0000901020002D4264881547047254B02F0A7
:102BF0000F021A4402F8041C704723490A6860F364
:102C00000A2240F2FA5060F31F420A60704770B522
:102C10001D4B1C68C4F302230124C3F10705052DD5
:102C20002EBF0F2504FA05F56D1E1E1D072E34BF9D
:102C30000023DB1E2940994004FA03F3BDE87040ED
:102C40005B1E1A401143CBE7010007D4012200F0BC
:102C50001F010E4B8A40400943F820207047401E58
:102C6000B0F1807F01D3012070470949094A4860CB
:102C70000023F02010708B60072008600020704750
:102C800000E400E018ED00E00CED00E000E100E001
:102C900010E000E023ED00E02DE9F84F00226E4C3B
:102CA000DFF8B8814FF00F0901230F6893401F40F0
:102CB0009F4240F0CA804FEA420C032505FA0CF50A
:102CC0006FEA050E4D6805F00306012E1CBF05F0E6
:102CD0000305022D10D18568CE680EEA050506FAB7
:102CE0000CF635438560456825EA03034D68C5F356
:102CF000001595402B43436093000D7905F00305C3
:102D0000032D1ED0C5688E680EEA050506FA0CF67E
:102D10003543C5600D7905F00305022D11D1D508A5
:102D200000EB850503F01C06D5F820B009FA06FA79
:102D30002BEA0A0BD1F810A00AFA06F646EA0B06AF
:102D40002E6205680EEA05060D7905F0030505FA01
:102D50000CF545EA060CC0F800C04D6815F4403F7C
:102D600073D04FF0000ECDF800E04FEA920CD8F887
:102D7000005045F48045C8F8005003F00C03D8F823
:102D800000E0374D0EF4804ECDF800E0DDF800E0B5
:102D900055F82C6009FA03F5AE43324DA84208BF3E
:102DA0004FF0000E2AD0304DA84208BF4FF0010E60
:102DB00024D02E4DA84208BF4FF0020E1ED02C4D3D
:102DC000A84208BF4FF0030E18D02A4DA84208BFF2
:102DD0004FF0040E12D0284DA84208BF4FF0050E48
:102DE0000CD0264DA84208BF4FF0060E06D0244D49
:102DF000A8420CBF4FF0070E4FF0080E0EFA03F377
:102E0000DFF85CE033434EF82C30FE43A3684D6896
:102E10003340ED0248BF3B43A360E3684D68334055
:102E2000AD0248BF3B43E36063684D683340AD0388
:102E300048BF3B436360236806EA030C4B68DB032F
:102E400048BF47EA0C0CC4F800C0521C0F2A7FF69A
:102E50002BAFBDE8F18F0000003C01404438024038
:102E6000083801400000024000040240000802400F
:102E7000000C024000100240001402400018024002
:102E8000001C02400248416802788A18426070477C
:102E90000000002080B50B48016841F4007101601A
:102EA000026842F480620260016841F4807101604E
:102EB0000320FFF7A2FE0F2000F04EFA00F06CFA9C
:102EC000002002BD003C024081B0002000900B4871
:102ED000026842F080020260016801F08001009106
:102EE0000021009A0091036843F001030360006829
:102EF00000F001000090009801B0704730380240A7
:102F00000EB41EB5024605A801900024009401AB42
:102F10000121044878440C30FDF739F903B010BCA6
:102F20005DF810FBE10600002DE9F843040016D01F
:102F30002078DFF8F462C10713D5B06800F00C0008
:102F4000042807D0B06800F00C0008283ED1706853
:102F500041023BD53068810303D56068002800F04A
:102F60005D812078DFF8C492810719D5B06810F030
:102F70000C0F07D0B06800F00C0008285BD1706817
:102F8000410258D43068810703D5E268012A40F035
:102F900045813068216920F0F80040EAC1003060C6
:102FA0002078010774D56069A149002863D0012207
:102FB0000A6000F00DFA0546706F810768D400F0D2
:102FC00007FA401B0228F7D903202AE16068B0F510
:102FD000803F04D1306840F48030306011E0B0F5BB
:102FE000A02F306806D140F480203060316841F471
:102FF000803105E020F480303060316821F4802198
:103000003160606858B100F0E3F90546306881032B
:10301000A7D400F0DDF9401B6528F7D3D4E700F012
:10302000D7F90546306881039BD500F0D1F9401BE4
:103030006528F7D3C8E7E06870B10121C9F800102E
:1030400000F0C6F9054630688107A2D400F0C0F947
:10305000401B0228F7D9B7E70022C9F8002000F08A
:10306000B7F90546306881079AD500F0B1F9401BE1
:103070000228F7D9A8E7086000F0AAF90546706FA2
:10308000810705D500F0A4F9401B0228F7D99BE77A
:103090002078410759D5306C0025C1000BD40020A1
:1030A00000900125316C41F080513164306C00F0AA
:1030B0008050009000985F4F3868C10510D4386880
:1030C00040F48070386000F083F980463868C105AC
:1030D00006D400F07DF9A0EB08000228F6D973E7CA
:1030E000A068012805D00528306F06D140F0040003
:1030F0003067306F40F0010005E040084000306765
:10310000306F20F00400306741F28938A06858B170
:1031100000F05EF90746306F810711D400F058F9CE
:10312000C01B4045F7D34FE700F052F90746306F18
:10313000810705D500F04CF9C01B4045F7D343E7A4
:103140001DB1306C20F080503064A069002867D039
:10315000B16801F00C0108293DD002282CD10020D3
:10316000C9F8600000F034F905463068810105D5E2
:1031700000F02EF9401B0228F7D925E7E269206A02
:10318000616A0243A06A400842EA8112401E42EA94
:103190000042E06A42EA006272600121C9F86010F0
:1031A00000F016F904463068810139D400F010F9B6
:1031B000001B0228F7D907E70020C9F8600000F0DB
:1031C00007F90446306881012AD500F001F9001B97
:1031D0000228F7D9F8E6012820D07068E26900F4E7
:1031E0008001914202BF00F03F01226A914201BF7B
:1031F00047F6C0710140626AB1EB821F0ED1A26A2C
:1032000000F4403101F580315208B1EB024F02BFAA
:1032100000F07060E16AB0EB016F01D0012000E0C6
:103220000020BDE8F28300BF0038024000004742A2
:10323000800E4742007000402DE9F04104000E4628
:1032400054D0404F386800F00700B04202D200F07E
:1032500073F84BD120683C4D810712D5400703D548
:10326000A96841F4E051A9602078010703D5A86856
:1032700040F46040A860A968A06821F0F001014313
:10328000A9602178C80729D56068012802D129687A
:103290008A0305E0022818BF032803D129688A01A0
:1032A00003D423E029688A0720D5A968890840EA61
:1032B0008100A86000F08CF88046A868616800F082
:1032C0000C00B0EB810F09D000F082F8A0EB0800F1
:1032D00041F289318842F0D303202BE0386800F0B6
:1032E0000700864204D200F027F801D0012021E037
:1032F0002078420705D5A968E06821F4E051014330
:10330000A9602178080706D5A968206921F46041E1
:1033100041EAC001A96000F061F8AA680B490C4BB2
:10332000C2F30312895CC84018600A48006800F0C4
:1033300013F80020BDE8F0813E70396801F0070104
:10334000B1427047003C024000380240A4350008FA
:103350000C0000200800002038B50D4D0D4B2A78D8
:1033600004464FF47A711868B1FBF2F2B0FBF2F048
:10337000FFF775FC50B9102C08D2002221464FF0FF
:10338000FF30FFF744FCAC60002032BD012032BDAD
:10339000000000200C00002081B0002000900B48AD
:1033A000416841F480414160416801F480410091ED
:1033B0000021009A0091036843F080530360006885
:1033C00000F080500090009801B0704740380240F3
:1033D00001484068704700BF0000002030B5144C21
:1033E000606800F00C00042802D0082802D01DE01C
:1033F000104830BD226820680023410202F03F02DD
:1034000004D525680B49C5F3881003E020680A49F4
:10341000C0F38810A1FB0001FEF780FB2168C1F317
:103420000141491C4900B0FBF1F030BD024830BDFC
:103430000438024000127A000024F40080B50D4ADE
:103440007A4430320C4B7B442E339A4203D00B49E2
:10345000AFF3008002BD8DF8000001226946012013
:1034600000F00EF8012802D19DF8000002BD4FF0D7
:10347000FF3002BD8CCBFFF788CBFFF74800002060
:1034800080B5002802D400F003F802BD002002BD80
:1034900080B5002901D1002002BD012801D00228F9
:1034A00002D100F004F802BD00F011F802BD30B501
:1034B00083B00C0015000120FEF7D8FB00900194AA
:1034C000029569460520ABBE281A03B030BD18B579
:1034D00083B0030014000093019102946946052013
:1034E000ABBE01221900201AAFF3008004B010BD5A
:1034F00030B4002512E050F8042BD30744BF4A44EF
:10350000521E091F042942F8045BFAD213468C07A5
:1035100044BF15809B1CC90748BF1D7050F8041B91
:103520000029E8D130BC704710B5074979441831FB
:10353000064C7C44163404E00A68081D1144884790
:103540000146A142F8D110BD2C0000004800000047
:103550004EF68851CEF20001086840F47000086011
:10356000BFF34F8FBFF36F8F4FF00170E1EE100A82
:10357000704700007DFFFFFFF4000000980000206E
:1035800000000000D3DAFFFFE4010000CC000000DF
:10359000000000200248016841F47001016070479A
:1035A00088ED00E0000000000000000001020304BC
:1035B0000607080900F00DF8002801D0FFF7B4FF56
:1035C000AFF300800020AFF30080FFF71BFA00F09C
:1035D00002F80120704700F001B8000007463846A5
:1035E000FEF724FBFBE700000548014603B46846EC
:1035F00080F30988AFF30080FFF7AAFFFFF7DAFF37
:10360000A5EDF5FE38B504460D462846FFF716FF32
:10361000A84218BF0024204632BD00000148804760
:103620000148004795350008E9350008FFF7FEBF5F
:10363000FFF7FEBFFFF7FEBFFFF7FEBFFFF7FEBFBE
:10364000FFF7FEBFFFF7FEBFFFF7FEBFFFF7FEBFAE
:10365000FFF7FEBFFFF7FEBFFFF7FEBFFFF7FEBF9E
:10366000FFF7FEBFFFF7FEBFFFF7FEBFFFF7FEBF8E
:10367000FFF7FEBFFFF7FEBFFFF7FEBFFFF7FEBF7E
:10368000FFF7FEBFFFF7FEBFFFF7FEBFFFF7FEBF6E
:10369000FFF7FEBFFFF7FEBFFFF7FEBFFFF7FEBF5E
:1036A000FFF7FEBFFFF7FEBFFFF7FEBFFFF7FEBF4E
:1036B000FFF7FEBFFFF7FEBFFFF7FEBFFFF7FEBF3E
:1036C000FFF7FEBFFFF7FEBFFFF7FEBFFFF7FEBF2E
:1036D000FFF7FEBFFFF7FEBFFFF7FEBFFFF7FEBF1E
:1036E000FFF7FEBFFFF7FEBFFFF7FEBFFFF7FEBF0E
:1036F000FFF7FEBFFFF7FEBFFFF7FEBFFFF7FEBFFE
:10370000FFF7FEBFFFF7FEBFFFF7FEBFFFF7FEBFED
:10371000FFF7FEBFFFF7FEBFFFF7FEBFFFF7FEBFDD
:10372000FFF7FEBFFFF7FEBFFFF7FEBFFFF7FEBFCD
:10373000FFF7FEBFFFF7FEBFFFF7FEBFFFF7FEBFBD
:10374000FFF7FEBFFFF7FEBFFFF7FEBFFFF7FEBFAD
:10375000FFF7FEBFFFF7FEBFFFF7FEBFFFF7FEBF9D
:10376000FFF7FEBFFFF7FEBFFFF7FEBF0001F90046
:103770000010FC001E24F4001E1100081E11000899
:103780001E1100081E1100081E1100081E1100085D
:103790001E110008F8FF0BA61000081E1100081EDD
:1037A000110008FAFF150000020401019800002032
:1037B000E80000209800002098000020FC000398FA
:1037C000000020FC00078C00002078000020E000B2
:0237D000F8FF00
:04000005080035E9D1
:00000001FF
