:020000040800F2
:1000000088040020451600086D0A00086F0A0008E1
:10001000710A0008730A0008750A00080000000051
:10002000000000000000000000000000770A000847
:10003000790A0008000000007B0A00087D0A000819
:100040006D1600087116000875160008791600086C
:100050007D1600088116000885160008891600081C
:100060008D160008911600089516000899160008CC
:100070009D160008A1160008A5160008A91600087C
:10008000AD160008B1160008B5160008B91600082C
:10009000BD160008C1160008C5160008C9160008DC
:1000A000CD160008D1160008D5160008D91600088C
:1000B000DD160008E1160008E5160008E91600083C
:1000C000ED160008F1160008F5160008F9160008EC
:1000D000FD160008810A000801170008051700082E
:1000E000091700080D170008111700081517000858
:1000F000191700081D170008211700082517000808
:10010000291700082D1700083117000835170008B7
:10011000391700083D170008411700084517000867
:10012000491700084D170008511700085517000817
:10013000591700085D1700086117000865170008C7
:10014000691700086D170008711700087517000877
:10015000791700087D170008811700088517000827
:10016000891700088D1700089117000895170008D7
:10017000991700089D170008A1170008000000004B
:10018000A5170008A917000838B5040001D10120FF
:1001900032BD04F14005687808B900F011F800F0AC
:1001A00014F800F023F8FFE7416100F018F86860E8
:1001B000202169702020A87000216163002032BDD9
:1001C00000212970204600F088BB24206870206838
:1001D000C16821F40051C160204600F002BB2068D4
:1001E000C16841F40051C160002070472068016976
:1001F00021F4904101612068416921F02A01704792
:100200002DE9FC4106460D4696F84100202814468B
:100210001F4640D10DB1200001D101203CE000205B
:100220007064212186F8411000F09CFBB484804664
:10023000F48400F033F804BF306900281ABF2C465C
:100240000025002412E000228021304600F0E5F96C
:10025000E0B93068002C12BF14F8011B35F8021BFE
:10026000C1F308014160F08C411EF1844346F08CDB
:1002700000970028E7D100224021304600F0CDF958
:1002800020B9202086F84100002005E0202086F8D3
:100290004100032000E00220BDE8F681B068B0F51F
:1002A000805F704738B5044694F84200202809D191
:1002B00009B1100001D1012032BD00F005F800F0B5
:1002C000E9F907E0022032BD0120206300236363C7
:1002D00020467047010014D1226B012A10D1002062
:1002E000009023681A68009225686A680092009856
:1002F00000F06DF942F0100200F05EF9F8D100E074
:100300000121084632BD216801F1140353E8001FA2
:10031000206800F1140221F0400142E8001000289A
:10032000704721F0100142E8001000287047F8B52E
:1003300004462268136811460846CD68466913F0E2
:100340000F0F03F0200105F0200007D1002918BF8E
:1003500000285DD02046BDE8F240DBE1F70702D47B
:1003600015F4907F54D0DA0705D5ED0503D5626CFE
:1003700042F0010262645A0705D5F50703D5626CA5
:1003800042F0020262649A0705D5F50703D5626C54
:1003900042F0040262641A0706D508B9F20703D5D1
:1003A000636C43F008036364626C002A2FD0002959
:1003B0001EBF0028204600F0ADF920684069616C3E
:1003C0000A0701D440061DD5204600F07EF92068BA
:1003D0004169480611D5FFF796FFFCD1E06B60B18B
:1003E0000FF221310165E06B00F012FB00280ED006
:1003F000E06B016DBDE8F44008472046BDE8F240DF
:1004000000F01EBB204600F01BFB00206064F1BD25
:10041000206B012804F1410140F08E80D80600D500
:10042000EE0640F189800023009312680092236851
:100430005A68009200982268536958063ED5E26BCC
:100440001068406880B20028E1D0A38D9842DEDABF
:10045000E085D069B0F5807F28D000F0B8F822F4AC
:10046000807200F0A9F8F8D100F0AAF8520800F163
:100470001403520000F0A0F8F6D100F0A1F800F14A
:10048000140322F0400200F097F8F6D120204870C3
:1004900000212163226802F10C0151E8001F0C3297
:1004A000FFF73FFFF6D1E06B00F062FA02206063D5
:1004B000A18DE08D091A89B2204639E0A38DE28D25
:1004C000E08D9B1A00281CBF98B2002873D02246EA
:1004D000146804F10C0656E8004F106800F10C0592
:1004E00024F4907445E800400028F1D1146804F128
:1004F000140656E8004F1068640800F11405640003
:1005000045E800400028F1D1202048700021116307
:10051000146804F10C0151E8001F0C3421F01001A3
:1005200044E800100028F3D10220506399B210462D
:10053000BDE8F44000F0A7BA18062BD52A0629D545
:100540000878212837D1A068B0F5805F04BF206902
:10055000002809D1226A21681088C0F30800486089
:10056000206A811C216205E0206A411C2162226808
:1005700000785060E08C401EE08480B2D8B92068DA
:10058000C16821F08001C1602068C16841F040016C
:10059000C160F1BD58060ED56A060CD52368D8682F
:1005A0001A4620F04000D060202008702046BDE8A8
:1005B000F24000F081BAF1BD43E800200028704706
:1005C000226802F1140555E8002F20687047226860
:1005D00002F10C0555E8002F206800F10C0370476C
:1005E000026802F10C0454E8002F016801F10C03C9
:1005F000704742F0010243E8002100297047026879
:1006000002F1140454E8002F0168520801F11403A8
:10061000520043E80021002970472DE9FC41089C65
:1006200005460E4690461F46286801683140B14293
:100630000CBF0120002040452AD114F1010FF3D056
:1006400000F090F9C01B844200D314B90320BDE828
:10065000F6812968C8684207E6D5802E18BF402E6B
:10066000E2D0084602681307DED5002000902B6810
:100670001A680092496800910098284600F025F811
:1006800005F1400008214160002202700120DEE7F0
:100690000020DCE781628285C2850021416422223C
:1006A00080F84220016921B10168CA6842F4807271
:1006B000CA6001684A6942F001024A610068C16883
:1006C00041F02001C1600020704710B5FFF788FF9E
:1006D00022F49072FFF78FFFF8D1FFF790FFFCD163
:1006E000016B012906D1FFF77BFF22F01002FFF713
:1006F00082FFF8D1202180F842100022026310BD51
:1007000000000000806B0021C1850022C28400F03F
:1007100097B900001CB590F84210222952D1816887
:10072000826AB1F5805F0AD1016969B903685968C5
:10073000C1F308011180826A911C81620FE00029D7
:1007400004BF0169002902D10368596803E0016808
:10075000496801F07F011170816A4A1C8262C18D73
:10076000491EC18589B259BB0168CA6822F02002BE
:10077000CA600168CA6822F48072CA6001684A6966
:10078000520852004A61202180F842100022426340
:10079000016B012912D1026300F016F801680A68A2
:1007A000D30607D5002200920B68009304686268A4
:1007B0000092009B818D00F066F901E000F07DF968
:1007C000002016BD022016BD036803F10C0252E89A
:1007D000002F0C3322F0100243E800210029F3D14E
:1007E000704770B5064632681169F06821F44051CF
:1007F00001431161D3682748B168034030690B4356
:1008000071690343F0690B430343D3605169B069D5
:1008100021F44071014351611F498A421CBF1F48A6
:10082000824202D100F0D8F901E000F0CDF97268FF
:100830003468F6691921B6F5004FA1FB00016FF08D
:10084000630512D1D30F520000F0DEF900F028F852
:10085000ED0032356420B5FBF0F0420002F4F8728E
:1008600002EB011200F0070010E0930F920000F07D
:10087000CBF900F015F82D0132356420B5FBF0F00E
:1008800000F0F00202EB011200F00F008018A060EF
:1008900070BD0000F369FFFF00100140001401402B
:1008A0006421B0FBF1F105FB0105704780B52948D3
:1008B000294901604FF4E13200230C21426083603A
:1008C000C360036141618361C361FFF75DFC18B1DF
:1008D000BDE8014000F08EBA01BD10B586B00446F7
:1008E0001421002201A800F087FA21681A4A9142D7
:1008F0002DD1002000901948416941F0100141615B
:10090000416901F0100100910021009A009102213B
:10091000036843F001030360006800F001000090E9
:100920004FF4C060009A02910022039203210190CB
:1009300004910722059201A9094800F067FA0022F4
:100940000021252000F06FFB252000F089FB06B078
:1009500010BD00001000002000100140303802409F
:100960000000024001484068704700BF00000020BE
:10097000F8B5044604F134077D6AFFF7F3FF064635
:100980007878022805D08021396200203870012053
:10099000F2BD2068016821F01601016000F04AF8FC
:1009A000F868002804BF7869002801D000F024F816
:1009B00000F028F820680168CA070AD5FFF7D2FFBF
:1009C000801B0628F6D300F010F8002101700320E8
:1009D000F2BD04F134003F22816A8A40AA600021FE
:1009E0000122427001700020F2BD04F13400202188
:1009F00001620322427070472068016821F00801FB
:100A0000016070472068016849084900016070472B
:100A100090F83510022903D08022426501207047EA
:100A2000052180F835100068026852085200026003
:100A3000002070472068416921F0800141617047C2
:100A400070470EE002684368024408305FEAC37CE6
:100A500044BF4B445B1E52F804CB43F804CB091F40
:100A6000F9D150F8041B0029ECD17047FEE7FEE7EE
:100A7000FEE7FEE7FEE770477047704700F018BBDF
:100A80000948FFF754BC38B5074B98420BD1074CC7
:100A9000074D0120207029801846BDE838400A2201
:100AA0000449FFF7FFBB31BD1000002058000020B3
:100AB0005A0000205C000020704770472DE9F0418B
:100AC00004000E4654D0494F386800F00700B04289
:100AD00002D200F073F84BD12068454D810712D542
:100AE000400703D5A96841F4E051A96020780107C7
:100AF00003D5A86840F46040A860A968A06821F008
:100B0000F0010143A9602178C80729D56068012850
:100B100002D129688A0305E0022818BF032803D1FF
:100B200029688A0103D423E029688A0720D5A968A7
:100B3000890840EA8100A860FFF714FF8046A86892
:100B4000616800F00C00B0EB810F09D0FFF70AFFDD
:100B5000A0EB080041F289318842F0D303202BE05A
:100B6000386800F00700864204D200F027F801D070
:100B7000012021E02078420705D5A968E06821F42A
:100B8000E0510143A9602178080706D5A9682069CA
:100B900021F4604141EAC001A96000F091FAAA681D
:100BA0001449154BC2F30312895CC84018601348FE
:100BB000006800F0B5FA0020BDE8F0813E703968A9
:100BC00001F00701B14270470B480D4A00681368F5
:100BD0000C49C3F3822206E00748094A00681368FB
:100BE0000849C3F34232895CC8407047003C024068
:100BF00000380240D01500080C000020080000203A
:100C00000838024064160008D3BBD9B1B2F5803F62
:100C10005BD2022A1ED98C46B1FBF2F102FB11C352
:100C20001B0443EA1043B3FBF2FC02FB1C3380B20B
:100C300040EA0343B3FBF2F002FB103240EA0C40FF
:100C400000237047022A05D98446B0FBF2F002FB6C
:100C500010C270474AB105D100F0010249085FEAAD
:100C60003000704700220023704700F079BA0B0073
:100C70000200002100207047F7D3002200237047B4
:100C8000904271EB030CF2D370B5B1FA81F4B3FA70
:100C900083F52C1BA340C4F1200532FA05F633433B
:100CA000A2405FF00046E64002E05B085FEA3202E5
:100CB000841A71EB030524BF204629467641F4D3FC
:100CC00002000B003000002170BD70B5B1FA81F454
:100CD000B2FA82F5C4F120046419B4F12006DAD323
:100CE000B2405FF00044F440002502E052085FEAA1
:100CF0003303C61A71EB020E24BF304671466441BD
:100D00006D41F3D302000B002000290070BD0000EC
:100D100038B500F027FA00F017F800F03DFAFFF7B9
:100D2000C5FD304C304D0A22291D2046FFF7BAFA86
:100D300028780028FCD0002129700A236A88291D00
:100D40002046FFF75DFAF3E780B592B0302100222C
:100D500006A800F051F81421002201A800F04CF878
:100D6000002000902148016841F080510160006836
:100D700000F0805000900020009900901C4801680D
:100D800041F4804101604FF48031006800F48040FC
:100D900000900120009A079102224FF480010C92EA
:100DA0000D91042240210E920F91069002220421FF
:100DB0001092119106A800F00BFA08B100F01AF891
:100DC000022102910F2001909022002103920491B0
:100DD000059101A8FFF772FE08B100F00BF813B0FF
:100DE00000BD0000100000205800002040380240E4
:100DF0000070004072B6FEE74018491C1CBFB1F1FC
:100E0000010100F8012DF9D1704700002DE9F84FDC
:100E100000226E4CDFF8B8814FF00F0901230F68F4
:100E200093401F409F4240F0CA804FEA420C032586
:100E300005FA0CF56FEA050E4D6805F00306012E64
:100E40001CBF05F00305022D10D18568CE680EEA9F
:100E5000050506FA0CF635438560456825EA030367
:100E60004D68C5F3001595402B43436093000D7901
:100E700005F00305032D1ED0C5688E680EEA050532
:100E800006FA0CF63543C5600D7905F00305022D11
:100E900011D1D50800EB850503F01C06D5F820B06C
:100EA00009FA06FA2BEA0A0BD1F810A00AFA06F69C
:100EB00046EA0B062E6205680EEA05060D7905F076
:100EC000030505FA0CF545EA060CC0F800C04D68AC
:100ED00015F4403F73D04FF0000ECDF800E04FEA1C
:100EE000920CD8F8005045F48045C8F8005003F043
:100EF0000C03D8F800E0374D0EF4804ECDF800E03A
:100F0000DDF800E055F82C6009FA03F5AE43324DE8
:100F1000A84208BF4FF0000E2AD0304DA84208BFAB
:100F20004FF0010E24D02E4DA84208BF4FF0020E04
:100F30001ED02C4DA84208BF4FF0030E18D02A4DEA
:100F4000A84208BF4FF0040E12D0284DA84208BF97
:100F50004FF0050E0CD0264DA84208BF4FF0060EEC
:100F600006D0244DA8420CBF4FF0070E4FF0080EDC
:100F70000EFA03F3DFF85CE033434EF82C30FE4307
:100F8000A3684D683340ED0248BF3B43A360E3686C
:100F90004D683340AD0248BF3B43E36063684D6832
:100FA0003340AD0348BF3B436360236806EA030C4C
:100FB0004B68DB0348BF47EA0C0CC4F800C0521C66
:100FC0000F2A7FF62BAFBDE8F18F0000003C0140F7
:100FD000443802400838014000000240000402404A
:100FE00000080240000C02400010024000140240C1
:100FF00000180240001C02400901020002D42648E9
:1010000081547047254B02F00F021A4402F8041C69
:10101000704723490A6860F30A2240F2FA5060F3ED
:101020001F420A60704770B51D4B1C68C4F3022351
:101030000124C3F10705052D2EBF0F2504FA05F580
:101040006D1E1E1D072E34BF0023DB1E2940994054
:1010500004FA03F3BDE870405B1E1A401143CBE76E
:10106000010007D4012200F01F010E4B8A40400905
:1010700043F820207047401EB0F1807F01D301204B
:1010800070470949094A48600023F02010708B60BE
:10109000072008600020704700E400E018ED00E041
:1010A0000CED00E000E100E010E000E023ED00E0E6
:1010B0000248416802788A184260704700000020A8
:1010C00030B5144C606800F00C00042802D00828E9
:1010D00002D01DE0104830BD226820680023410284
:1010E00002F03F0204D525680B49C5F3881003E0E0
:1010F00020680A49C0F38810A1FB0001FFF784FDB6
:101100002168C1F30141491C4900B0FBF1F030BD39
:10111000024830BD0438024000127A000024F40076
:1011200038B50D4D0D4B2A7804464FF47A71186886
:10113000B1FBF2F2B0FBF2F0FFF79DFF50B9102CBB
:1011400008D2002221464FF0FF30FFF76CFFAC6061
:10115000002032BD012032BD000000200C00002024
:101160007047000080B50B48016841F400710160D0
:10117000026842F480620260016841F4807101609B
:101180000320FFF746FF0F20FFF7CAFF00F0A8F982
:10119000002002BD003C024081B0002000900B48BE
:1011A000026842F080020260016801F08001009153
:1011B0000021009A0091036843F001030360006876
:1011C00000F001000090009801B0704730380240F4
:1011D0002DE9F843040016D02078DFF8F462C10747
:1011E00013D5B06800F00C00042807D0B06800F0F8
:1011F0000C0008283ED1706841023BD5306881035D
:1012000003D56068002800F05D812078DFF8C49283
:10121000810719D5B06810F00C0F07D0B06800F046
:101220000C0008285BD17068410258D430688107EF
:1012300003D5E268012A40F045813068216920F039
:10124000F80040EAC10030602078010774D5606979
:10125000A149002863D001220A60FFF783FB0546FD
:10126000706F810768D4FFF77DFB401B0228F7D918
:1012700003202AE16068B0F5803F04D1306840F473
:101280008030306011E0B0F5A02F306806D140F416
:1012900080203060316841F4803105E020F48030F6
:1012A0003060316821F480213160606858B1FFF707
:1012B00059FB054630688103A7D4FFF753FB401B59
:1012C0006528F7D3D4E7FFF74DFB05463068810367
:1012D0009BD5FFF747FB401B6528F7D3C8E7E068BD
:1012E00070B10121C9F80010FFF73CFB05463068DA
:1012F0008107A2D4FFF736FB401B0228F7D9B7E7D6
:101300000022C9F80020FFF72DFB05463068810751
:101310009AD5FFF727FB401B0228F7D9A8E70860FA
:10132000FFF720FB0546706F810705D5FFF71AFB15
:10133000401B0228F7D99BE72078410759D5306C2C
:101340000025C1000BD4002000900125316C41F034
:1013500080513164306C00F08050009000985F4FF5
:101360003868C10510D4386840F480703860FFF7E1
:10137000F9FA80463868C10506D4FFF7F3FAA0EB06
:1013800008000228F6D973E7A068012805D00528CF
:10139000306F06D140F004003067306F40F001003C
:1013A00005E0400840003067306F20F004003067EF
:1013B00041F28938A06858B1FFF7D4FA0746306F78
:1013C000810711D4FFF7CEFAC01B4045F7D34FE792
:1013D000FFF7C8FA0746306F810705D5FFF7C2FA55
:1013E000C01B4045F7D343E71DB1306C20F080505F
:1013F0003064A069002867D0B16801F00C010829A9
:101400003DD002282CD10020C9F86000FFF7AAFACD
:1014100005463068810105D5FFF7A4FA401B022874
:10142000F7D925E7E269206A616A0243A06A4008A9
:1014300042EA8112401E42EA0042E06A42EA006249
:1014400072600121C9F86010FFF78CFA0446306819
:10145000810139D4FFF786FA001B0228F7D907E784
:101460000020C9F86000FFF77DFA0446306881016A
:101470002AD5FFF777FA001B0228F7D9F8E60128EA
:1014800020D07068E26900F48001914202BF00F050
:101490003F01226A914201BF47F6C0710140626A72
:1014A000B1EB821F0ED1A26A00F4403101F5803108
:1014B0005208B1EB024F02BF00F07060E16AB0EB7E
:1014C000016F01D0012000E00020BDE8F28300BFE1
:1014D0000038024000004742800E47420070004042
:1014E00081B0002000900B48416841F48041416088
:1014F000416801F4804100910021009A0091036845
:1015000043F080530360006800F080500090009822
:1015100001B070474038024030B4002512E050F866
:10152000042BD30744BF4A44521E091F042942F822
:10153000045BFAD213468C0744BF15809B1CC90775
:1015400048BF1D7050F8041B0029E8D130BC70471B
:1015500010B5074979441831064C7C44163404E030
:101560000A68081D114488470146A142F8D110BD00
:101570002C0000004C0000004EF68851CEF2000115
:10158000086840F470000860BFF34F8FBFF36F8F9F
:101590004FF00170E1EE100A704700007DFFFFFF81
:1015A00074000000100000200000000097F4FFFF0E
:1015B00010000000A000000000000020000000005B
:1015C0000248016841F470010160704788ED00E055
:1015D00000000000000000000102030406070809E3
:1015E00000F00DF8002801D0FFF7B2FFAFF3008044
:1015F0000020AFF30080FFF78BFB00F002F8012022
:10160000704700F001B800000746384600F002F8C5
:10161000FBE7000080B5AFF30080024A11001820FC
:10162000ABBEFBE7260002000548014603B468464E
:1016300080F30988AFF30080FFF79EFFFFF7D0FF2C
:10164000A5EDF5FE0148804701480047C115000897
:101650002916000801000000000000001000000032
:101660000024F4000000000001020304FFF7FEBFA5
:10167000FFF7FEBFFFF7FEBFFFF7FEBFFFF7FEBF9E
:10168000FFF7FEBFFFF7FEBFFFF7FEBFFFF7FEBF8E
:10169000FFF7FEBFFFF7FEBFFFF7FEBFFFF7FEBF7E
:1016A000FFF7FEBFFFF7FEBFFFF7FEBFFFF7FEBF6E
:1016B000FFF7FEBFFFF7FEBFFFF7FEBFFFF7FEBF5E
:1016C000FFF7FEBFFFF7FEBFFFF7FEBFFFF7FEBF4E
:1016D000FFF7FEBFFFF7FEBFFFF7FEBFFFF7FEBF3E
:1016E000FFF7FEBFFFF7FEBFFFF7FEBFFFF7FEBF2E
:1016F000FFF7FEBFFFF7FEBFFFF7FEBFFFF7FEBF1E
:10170000FFF7FEBFFFF7FEBFFFF7FEBFFFF7FEBF0D
:10171000FFF7FEBFFFF7FEBFFFF7FEBFFFF7FEBFFD
:10172000FFF7FEBFFFF7FEBFFFF7FEBFFFF7FEBFED
:10173000FFF7FEBFFFF7FEBFFFF7FEBFFFF7FEBFDD
:10174000FFF7FEBFFFF7FEBFFFF7FEBFFFF7FEBFCD
:10175000FFF7FEBFFFF7FEBFFFF7FEBFFFF7FEBFBD
:10176000FFF7FEBFFFF7FEBFFFF7FEBFFFF7FEBFAD
:10177000FFF7FEBFFFF7FEBFFFF7FEBFFFF7FEBF9D
:10178000FFF7FEBFFFF7FEBFFFF7FEBFFFF7FEBF8D
:10179000FFF7FEBFFFF7FEBFFFF7FEBFFFF7FEBF7D
:0C17A000FFF7FEBFFFF7FEBFFFF7FEBF24
:0400000508001629B0
:00000001FF
