:020000040800F2
:1000000018050020592400081514000817140008CA
:10001000191400081B1400081D140008000000003B
:100020000000000000000000000000001F14000895
:100030002114000800000000231400082514000803
:100040007124000875240008792400087D24000824
:100050008124000885240008892400088D240008D4
:100060009124000895240008992400089D24000884
:10007000A1240008A5240008A9240008AD24000834
:10008000B1240008B5240008B9240008BD240008E4
:10009000C1240008C5240008C9240008CD24000894
:1000A000D1240008D5240008D9240008DD24000844
:1000B000E1240008E5240008E924000845140008AC
:1000C0004B1400085114000857140008ED240008D0
:1000D000F1240008F5240008F9240008FD24000894
:1000E0000125000805250008092500080D25000840
:1000F0001125000815250008192500081D250008F0
:100100002125000825250008292500082D2500089F
:100110003125000835250008392500083D2500084F
:100120004125000845250008492500084D250008FF
:100130005125000855250008592500085D250008AF
:100140006125000865250008692500086D2500085F
:100150007125000875250008792500087D2500080F
:100160008125000885250008892500088D250008BF
:100170009125000895250008992500080000000039
:100180009D250008A1250008F8B5040025D004F13C
:100190003C05697821B900202870204600F0C2FF94
:1001A00024226A702068DFF850720168490849000B
:1001B00001602068026842F4004202602068016821
:1001C00021F40041016001F003F901466068B84282
:1001D00005D2DFF82822914205D20120F2BDDFF8D6
:1001E00020028142F9D32068DFF818224368B1FB6E
:1001F000F2F29B0942EA8313436023681E6A606837
:10020000B84206D34FF4967042434FF47A70B2FB73
:10021000F0F2521CB60942EA86121A62491E22689E
:10022000D3696668BE4206D2760000F044F804291D
:1002300013D2042111E0A06820B906EB460600F0B5
:100240003AF805E01920464300F035F841F48041C2
:1002500008050CBF012141F40041DFF8AC01034067
:100260000B43D36122681368E069216A23F0C0035D
:1002700003430B4313602268DFF890019368216900
:100280000340E0680B43034393602268D368A0698E
:1002900061691B0A40EA03230B43D36020212068D5
:1002A000026842F001020260002068606970206309
:1002B0000021A970F2BDB1FBF6F1491CC1F30B019D
:1002C000704738B5040001D1012032BD04F13C056E
:1002D0002420687000F07FFE00F09CFF0020686022
:1002E000002169702063A970287032BD00684169DF
:1002F0000A0644BF002101617047009020684169EF
:10030000009182690092009970471A461146106860
:1003100020F48060086070472868016841F400712B
:1003200001607047F8B500F04DF80AD100F056F8BA
:1003300000F070F818B100F04DF8F9D403E000F0C7
:100340006EF80220F2BD04F13C000578012DF8D0D2
:1003500000F006F8222500F016F800F027F8F2BDAC
:100360000126067025682F68FE0705D427683D68BA
:100370003E4645F001053560102625682F6827F4B4
:1003800000672F6070474570867000254560626287
:100390006385628DDFF878302285E36281600570C5
:1003A0002068426842F4E062426070472068016859
:1003B00041F4806101602068026842F4807202604A
:1003C0000020704704460020009004F13C05687846
:1003D000202870472568A86985077047DFF858000E
:1003E00006681927B6FBF7F74FF47A75B7FBF5F5F2
:1003F0001920454300957047A186010080841E00A6
:1004000000093D0040420F000030FFFF007CFFFF6D
:100410000000FFFF0098401E009000987047206386
:10042000202104F13C00002241708270416841F0BB
:1004300020014160704700001C000020416841F429
:10044000805141607047F8B500F00FF80BD109B149
:10045000150001D10120F2BD2578012D03D000F057
:100460000BF8292518E00220F2BD00F13C04657864
:1004700005F02805282D70470127277005682E688C
:10048000F70703D42E6846F001062E6005682E6833
:1004900026F400662E60704765702026A670002541
:1004A0006560416242850022418D0185C3620092F0
:1004B0000168486900908A690092009B257048682D
:1004C00040F4E06048600020F2BD90F83D10202923
:1004D00016D1282380F83D3001680A68D30703D479
:1004E0000A6842F001020A6001680A6842F4806208
:1004F0000A600068416841F4407141600020704723
:10050000022070472DE9FC41044604F13C052168B6
:10051000DFF8E06A4B68E06A95F802C06F78002265
:10052000BCF1100F18BFBCF1400F40F04E828A6939
:10053000D1F814E05FEACE7805D4B0F52A0F18BFE1
:10054000B0F12A4F47D05FEACE7045D5980543D524
:10055000E06AB0F52A0F08BF012204D0E06AB0F1CA
:100560002A4F01D10822E262A878402809D168699F
:100570000028A8681ABF40F00100C0B200F0FE00D9
:1005800028E02069B0F5804F16D168782128A86846
:100590000EBF00F0FE0040F00100C0B20861606BC9
:1005A00000281CBFC06B00282AD1A06B00281CBFEC
:1005B000C06B00280FD023E0686920B900F011FB60
:1005C00040F0F00006E06869012804D100F009FB62
:1005D00040F0F100086102E35FEA0E7015D598055E
:1005E00013D5A868C0B20861606B00281CBFC06B3F
:1005F000002805D1A06B00281CBFC06B0028EAD0E2
:100600002068416841F4006124E15FEA8E7000D502
:10061000980540F1A180AF78E26A236B68782228C0
:1006200040F097806869002808BF402F03D100F090
:10063000E5FA009AD3E26869002804BF2069B0F5A2
:10064000404F09D100F0E0FA084642F4807202609F
:100650006969491C6961C2E2608D30B900F0D4FA61
:100660000B4642F400721A6070E0608D012839D1A7
:10067000B24217D10A46FFF74AFE216848680205D0
:1006800007D50B460022186820F4806008600092AD
:100690005AE000F01BFB21680A68084642F4007229
:1006A000026053E0082A18BF202A03D0122B09D178
:1006B000012A0CD00A46FFF72AFE0022009200F021
:1006C000E2FA43E0042A1CBF022A102A04D00A4698
:1006D000106820F4806003E00A46106840F48060EF
:1006E00008602FE0608D022818D1042A1CBF022A5E
:1006F000102A0AD00B46186820F480600860206831
:10070000036843F40063036004E00F46386840F474
:1007100080600860206841680B0507E00B46186898
:1007200040F4806008602068436819050AD5B24229
:1007300018BF012A04D0082A1CBF102A202A01D180
:10074000FFF77CFE00200090FFF7D8FD00226A61D1
:1007500045E200F0BBFA42E252070EF004005FD51A
:10076000D1F804805FEA0852F5D45FEA0E622CD516
:100770005A052AD5002828D16A78AB78E76A208DF7
:10078000002808BF212A13D1082F1CBF202FB742F1
:1007900004D000F02CFA0022AA702DE000F086FAB6
:1007A00030D10021A9702046BDE8F64100F030BEEE
:1007B000212A03D0402B08BF222ACCD1608D0028EB
:1007C0004CD0A878402827D0D6E10028C3D098057F
:1007D000C1D5212F1DD1E26A687821283BD1608DD7
:1007E00008B100F0C9B9082A1CBF202AB24206D0BD
:1007F00000F0FDF90020A8702021697004E000F0ED
:1008000055FACED00021A9702046BDE8F64100F08F
:1008100000BEBCF1400F1ED12046BDE8F641F4E217
:100820004A68160517D45FEA4E627AD55E0578D518
:10083000002876D1687822280DD1E66A608D0428D8
:100840000AD300F0EBF9608D032804D120684168D9
:1008500021F480614160C2E1E26A022A5CD0012891
:1008600018BF002858D10020DFF85C38009019200C
:100870001968B1FBF0F04FF47A72B0FBF2F202EBC0
:10088000820200922146FFF7C5FD20B10A68106878
:100890008305F8D41DE001F13C02506840F02000CF
:1008A00050600868436823F4E06343600C68206983
:1008B0004B6A1870486A441C4C622024488D431EC1
:1008C0004B855470002090700846BDE8F64100F05A
:1008D000D3BD1068114620F480600860206842682B
:1008E00022F4E0624260216800F098F920206870EC
:1008F000A978402908D10020A87000212163204652
:10090000BDE8F64100F0D6BD0020A870082E18BF43
:10091000202E53D0122052E0486820F480604860B6
:100920005DE10028FCD09805FAD5E06A628D042AC2
:1009300005D1486820F480604860216847E1628DF5
:10094000032A0CD14A6822F480624A60042818BF46
:10095000022801D000F091F92268106938E1628D17
:10096000022AEBD1012818BF10280DD0042818BF87
:10097000022804D00B46196841F4007108E00B46C8
:10098000196841F4806103E00B46196821F4806125
:100990001A46116000F052F900F050F921684A68D7
:1009A00022F440724A6020216970AA78402AA2D0BD
:1009B0000021A970082818BF2028ABD1002020638F
:1009C0002046BDE8F64100F049BD686800B98A6973
:1009D000D1F814C05FEA8C7025D5980523D56868D6
:1009E00000B18A696B78002003F02803282B14D10A
:1009F0004B6823F480634B60510758BF01201106F8
:100A000054BFE268A2690021297002B00146204665
:100A1000BDE8F04192B200F028BD00F0EFF80021EF
:100A200000982970DBE05FEACC6078D59A0576D52E
:100A30006F78486820F4E0604860002100912268E7
:100A40005069009022681168104641F00101016070
:100A5000009A00F012F921684868020528D50FF2C3
:100A60009958222F18BF2A2F10D0606B00F0F1F890
:100A7000606B00F033FD01281AD0606BC0F8508025
:100A8000606B00F019FD98B1606B0FE0A06B00F097
:100A9000E0F8A06B00F022FD012809D0A06BC0F89F
:100AA0005080A06B00F008FD10B1A06B016D88476D
:100AB000608D98B1206841694A0702D5006900F04D
:100AC000AEF8206841694A0602D5006900F0A7F82F
:100AD000608D18B1686840F004006860686818B1FB
:100AE0002046BDE8F641EEE12A2F05D120632821FA
:100AF0006970204600F0F5FC6878282807D1E66286
:100B000000F0CEF82046BDE8F64100F0ABBC206B0B
:100B1000222818BF222F62D100F0C2F84DE00CF05D
:100B20000400212F18BF292F2DD15FEA0C621CD59C
:100B30005E051AD5C8B96A78608D00284FD0606A02
:100B400003780B61606A411C616200F071F808BFB4
:100B5000292A44D100F08BF82120206328216970D4
:100B60002046BDE8F64100F0BDBC002837D09A050C
:100B700035D5608D002832D0606A02780A61606ADB
:100B8000411C616229E05FEA4C621BD55E0519D504
:100B9000C0B96A78608D10B30869616A0870606ACC
:100BA000431C636200F044F808BF2A2A17D100F002
:100BB0005EF822202063282169702046BDE8F641B6
:100BC00000F08FBC58B19A0509D5608D38B108691D
:100BD000616A0870606A421C626200F025F8BDE834
:100BE000F381A8680004C00D00F006007047486853
:100BF00020F4E060486011212163704700904A6949
:100C00000092896900917047002200924B6900931D
:100C100089690091009821680A6870470869616ACB
:100C20000870606A421C6262608D411E6185704777
:100C3000608D411E6185608D0028704723681969A9
:100C4000626A1170616A4B1C6362618D4A1E628523
:100C50007047026853686385608D18B1686840F01A
:100C600004006860486820F40060486070472068AD
:100C7000416821F48061416070472068016821F477
:100C8000806101607047206841690091826900922B
:100C9000009922681068114640F40070086070479F
:100CA0000020206320216970A8707047486820F4F4
:100CB000E06048602068016841F400710160002034
:100CC000206320216970A878402870470020009098
:100CD0004A6900928969009100987047F8B5054605
:100CE00005F13D002A685669576841780024F305EC
:100CF00005D5FB0503D56FF4807301245361B2055C
:100D000007D5FB0505D52B686FF4007244F002048B
:100D10005A6172055ED5FB055CD56A8D0378D5F8FE
:100D200030C06FF4806E202908BF002A47D1212BE4
:100D300018BF292B04D0282B08BFBCF1210F3ED1AE
:100D40000178EA6ADFF8AC32082A14BF202A282981
:100D500017D1EB62002329684A6822F4E0624A60F6
:100D60002968C1F814E029680A6822F480620A60E0
:100D700000212963202202704370284600F072FB94
:100D800028E0212917D1EB62296320220270002379
:100D900043702868416821F4E06141602868C0F828
:100DA00014E0286800F02AF82846FFF79FFA284642
:100DB00000F098FB0EE02968C1F814E00AE028680A
:100DC00044F00404C0F814E0102918BF402901D1F0
:100DD000FFF7A2FA300507D5F90505D529686FF4A4
:100DE000006044F00804486134B1286C04432C646A
:100DF0002846BDE8F24066E0F1BD3068016821F4A4
:100E0000806101607047006C704710B500F13D02D1
:100E100000F148041378A16889B900686168012964
:100E200005D12268D2B20261A068801C05E0216869
:100E30000904090E0161A068401CA06010BDA168F2
:100E4000012904D122680068D2B202610AE0A168D7
:100E5000022933D1222B09D101680A68084642F4DD
:100E600080720260A168491CA16010BD418D61B112
:100E7000212B0AD1436A026819781161416A4A1C20
:100E80004262418D4A1E428510BD418D002908BF36
:100E9000212B17D101684B6823F4E0634B600024D9
:100EA00001680B6843F400730B6000210163202389
:100EB00013705470BDE8104000F0AABABDE81040AD
:100EC000FFF714BA10BD38B5044604F13D05287883
:100ED0006978102914BF4029222804D121680A68A2
:100EE00022F400620A6000F02801282904D10020C1
:100EF000206328222A700BE021684A68110505D476
:100F0000602803D020202870002169700020206311
:100F1000206841680A0523D5416821F400614160D9
:100F2000606B0FF2D50190F83520012A09D00165D8
:100F3000606B00F0C1FA002825D000F053F8606B18
:100F40000BE0A06B0165A06B00F0B6FAD8B1206889
:100F500000F037F800F046F8A06B016D884712E00A
:100F60002A78602A0AD1202129700022226400F008
:100F700028F800F030F800F0B6FA04E000F021F8AC
:100F8000204600F079FA206C10F00F0F04D0206892
:100F9000416821F4E06141602878216C4A070ED550
:100FA00028280CD11348E0620021216320202870FA
:100FB00000226A702046BDE8324000F053BA31BDCD
:100FC000000041694A0605D50069616A0870606AD7
:100FD000421C62627047206801684908490001604C
:100FE00020467047206801684908490001602020B8
:100FF000287070470000FFFF7CB500210091192682
:10100000816B314801F13D024FF47A741378056821
:10101000B5FBF6F6B6FBF4F42320444300940098A5
:1010200038B10098401E00900C6820688505F6D401
:1010300003E0086C40F020000864486B08B100240D
:10104000C463886B08B10024C4630868046824F48E
:101050008064046000204885486B08B10024046562
:10106000886B08B10024046508680468640864009B
:101070000460107860280AD1202313700024547073
:1010800000220A640846BDE8764000F02CBA03F05E
:101090002803282B0ED10868036843F0010303607E
:1010A00028230868046844F480640460002008630E
:1010B000137003E020201070002454700846BDE82F
:1010C000764000F0D9B900001C000020684A694849
:1010D000694980B5426000234FF48042016083601B
:1010E000C36000F014F800B118E001BD80B563489A
:1010F00063495F4A01604260002320214FF480422F
:101100008360C16000F003F800B107E001BD026137
:1011100043618361C3610362FFF736B8BDE80140F4
:1011200000F064BA10B586B004461421002201A86C
:1011300000F05EFA20685049524C884232D10020BB
:101140000090216841F0020121601221206800F026
:1011500002000090C020009A029101220392032114
:10116000019004910422059201A9474800F04AFA2F
:10117000002000900022216941F40011216100212A
:10118000206900F40010009000981F2000F0D7FBA9
:101190001F2000F0F1FB00220021202000F0CFFBF7
:1011A000202033E03649884232D100200090216867
:1011B00041F0200121601221206800F02000009001
:1011C0000320009A019000220392029104900422CD
:1011D000059201A92D4800F015FA00200090002288
:1011E000216941F4800121610021206900F480001F
:1011F00000900098212000F0A2FB212000F0BCFB11
:1012000000220021222000F09AFB222000F0B4FBF3
:1012100006B010BD10B50068174A1D4990420FD1A5
:101220000B68194C23F400130B60402100F032F8D6
:10123000802100F02FF81F2000F0A9FB202011E0F2
:101240000F4A904212D10868104C20F480000860C8
:10125000012100F01FF8022100F01CF8212000F00D
:1012600096FB2220BDE8104000F091BB10BD0000AD
:10127000A0860100200000200054004074000020DF
:101280000058004030380240000402400014024080
:1012900040380240204600F094BA0EE002684368ED
:1012A000024408305FEAC37C44BF4B445B1E52F8E3
:1012B00004CB43F804CB091FF9D150F8041B0029D3
:1012C000ECD170472DE9F04104000E4654D0494F4F
:1012D000386800F00700B04202D200F073F84BD13A
:1012E0002068454D810712D5400703D5A96841F410
:1012F000E051A9602078010703D5A86840F4604058
:10130000A860A968A06821F0F0010143A9602178D4
:10131000C80729D56068012802D129688A0305E039
:10132000022818BF032803D129688A0103D423E0C7
:1013300029688A0720D5A968890840EA8100A86041
:1013400000F054FB8046A868616800F00C00B0EB28
:10135000810F09D000F04AFBA0EB080041F289316F
:101360008842F0D303202BE0386800F00700864263
:1013700004D200F027F801D0012021E020784207B4
:1013800005D5A968E06821F4E0510143A9602178FE
:10139000080706D5A968206921F4604141EAC00127
:1013A000A96000F029FBAA681449154BC2F3031287
:1013B000895CC84018601348006800F04DFB0020AD
:1013C000BDE8F0813E70396801F00701B142704715
:1013D0000B480D4A006813680C49C3F3822206E0EB
:1013E0000748094A006813680849C3F34232895C18
:1013F000C8407047003C024000380240C423000847
:101400001C00002008000020083802406824000862
:1014100070477047FEE7FEE7FEE7FEE7FEE770472E
:101420007047704780B500F037FB1C480188491CA5
:101430008AB2B2F57A7F03DB194B012200211A70C0
:10144000018001BD1748FFF75DB81648FFF746BC9D
:101450001548FFF757B81448FFF740BC134901205F
:10146000087070471048FFF730B821B908230F22E1
:101470000F49FEF7E8BF704710B50B4C2046FFF749
:10148000C2FC012805D12046FEF71BFF2046FEF7CF
:101490007BFE2046BDE81040FFF717B81201002080
:1014A0001001002020000020740000201101002005
:1014B0000C0000207047000090F83510022903D07E
:1014C0008022426501207047052180F835100068B0
:1014D00002685208520002600020704790F8350000
:1014E00070477047704770477FB500F0DDFA00F035
:1014F00024F800F0F3FAFFF7E9FDFFF7F7FD00F03D
:101500001FFB3448344C354D354EFEF7DEFF307846
:1015100038B1002131700F236A4620212846FEF79A
:1015200001FF70780028F2D0002171700A230F2289
:101530006946204600F094FBE9E780B592B030217F
:10154000002206A800F054F81421002201A800F09F
:101550004FF8002000902348016841F0805101605D
:10156000006800F0805000900020009900901E4814
:10157000016841F4804101604FF48031006800F45B
:10158000804000900120009A079102224FF48001D0
:101590000C920D91042240210E920F91069002228E
:1015A00004211092119106A800F086FC08B100F009
:1015B0001DF8022102910F20019090220021039238
:1015C0000491059101A8FFF77DFE08B100F00EF827
:1015D00013B000BD74000020C800002020000020CF
:1015E00010010020403802400070004072B6FEE753
:1015F0004018491C1CBFB1F1010100F8012DF9D1BF
:10160000704700002DE9F84F0022B64CDFF8D88271
:101610004FF00F0901230F6893401F409F4240F095
:10162000CA804FEA420C032505FA0CF56FEA050E55
:101630004D6805F00306012E1CBF05F00305022DC1
:1016400010D18568CE680EEA050506FA0CF635431A
:101650008560456825EA03034D68C5F3001595408C
:101660002B43436093000D7905F00305032D1ED035
:10167000C5688E680EEA050506FA0CF63543C560A6
:101680000D7905F00305022D11D1D50800EB850574
:1016900003F01C06D5F820B009FA06FA2BEA0A0B6B
:1016A000D1F810A00AFA06F646EA0B062E62056883
:1016B0000EEA05060D7905F0030505FA0CF545EA75
:1016C000060CC0F800C04D6815F4403F73D04FF0D1
:1016D000000ECDF800E04FEA920CD8F8005045F427
:1016E0008045C8F8005003F00C03D8F800E07F4DA7
:1016F0000EF4804ECDF800E0DDF800E055F82C60E7
:1017000009FA03F5AE437A4DA84208BF4FF0000E28
:101710002AD0784DA84208BF4FF0010E24D0764D54
:10172000A84208BF4FF0020E1ED0744DA84208BF59
:101730004FF0030E18D0724DA84208BF4FF0040EB0
:1017400012D0704DA84208BF4FF0050E0CD06E4D60
:10175000A84208BF4FF0060E06D06C4DA8420CBF41
:101760004FF0070E4FF0080E0EFA03F3DFF87CE19E
:1017700033434EF82C30FE43A3684D683340ED02EE
:1017800048BF3B43A360E3684D683340AD0248BFA8
:101790003B43E36063684D683340AD0348BF3B4360
:1017A0006360236806EA030C4B68DB0348BF47EA23
:1017B0000C0CC4F800C0521C0F2A7FF62BAFBDE8FA
:1017C000F18F2DE9FC4F0022464BDFF820A14FF0AE
:1017D0000F094FF0010B0BFA02F707EA010CBC45A9
:1017E0007AD14FEA920E5AF82E504FEA820808F04A
:1017F0000C068DF8046009FA06F425403C4EB04210
:1018000008BF002622D03B4EB04208BF01261DD0A3
:10181000394EB04208BF022618D0384EB04208BF39
:10182000032613D0364EB04208BF04260ED0354EE4
:10183000B04208BF052609D0334EB04208BF062685
:1018400004D0324EB0420CBF0726082600959DF802
:10185000045006FA05F5009EAE4218D11D686FEAE5
:101860000C0C0CEA05051D605E680CEA06065E605D
:10187000DD680CEA0505DD609E680CEA060CC3F81D
:1018800008C05AF82EC02CEA04044AF82E4003245B
:101890005500AC40D0F800E0E44304EA0E0ED50851
:1018A000C0F800E000EB850C08F01C05DCF820E037
:1018B00009FA05F52EEA0508CCF82080D0F80CC00E
:1018C00004EA0C0CC0F80CC0D0F804E02EEA0707BC
:1018D000476087683C408460521C0F2A7FF67BAFCC
:1018E000BDE8F38F003C0140443802400838014015
:1018F000000002400004024000080240000C0240C8
:10190000001002400014024000180240001C024077
:101910000901020002D42E48815470472D4B02F079
:101920000F021A4402F8041C70472B490A6860F33E
:101930000A2240F2FA5060F31F420A60704770B505
:10194000254B1C68C4F302230124C3F10705052DB0
:101950002EBF0F2504FA05F56D1E1E1D072E34BF80
:101960000023DB1E2940994004FA03F3BDE87040D0
:101970005B1E1A401143CBE7010007D4012200F09F
:101980001F01164B8A40400943F820207047010090
:101990000BD4012200F01F01114B8A40400943F88B
:1019A0002020BFF34F8FBFF36F8F7047401EB0F101
:1019B000807F01D3012070470A490B4A4860002309
:1019C000F02010708B600720086000207047000036
:1019D00000E400E018ED00E00CED00E000E100E0C4
:1019E00080E100E010E000E023ED00E00148406805
:1019F000704700BF0000002030B5144C606800F054
:101A00000C00042802D0082802D01DE0104830BD88
:101A1000226820680023410202F03F0204D52568B5
:101A20000B49C5F3881003E020680A49C0F3881009
:101A3000A1FB000100F0C8FB2168C1F30141491C72
:101A40004900B0FBF1F030BD024830BD043802401F
:101A500000127A000024F40038B50D4D0D4B2A78A1
:101A600004464FF47A711868B1FBF2F2B0FBF2F061
:101A7000FFF79CFF50B9102C08D2002221464FF0EE
:101A8000FF30FFF75CFFAC60002032BD012032BDAB
:101A9000000000201C0000200248416802788A18DB
:101AA000426070470000002080B50B48016841F497
:101AB00000710160026842F480620260016841F4D2
:101AC000807101600320FFF730FF0F20FFF7C4FF94
:101AD00000F0FEFB002002BD003C024081B000206F
:101AE00000901648026842F020020260016801F08E
:101AF000200100910021009A0091036843F08003C7
:101B00000360016801F0800100910021009A0091BA
:101B1000036843F001030360016801F001010091D3
:101B20000021009A0091036843F0020303600068FB
:101B300000F002000090009801B070473038024079
:101B400080B52548254901604FF4E1320023082182
:101B500042608360C360036141618361C36100F0DF
:101B600043F818B1BDE80140FFF740BD01BD10B515
:101B700086B004461421002201A8FFF739FD216830
:101B8000164A914225D1002000901548416941F044
:101B900010014161416901F0100100910021009A9A
:101BA00000910221036843F001030360006800F024
:101BB000010000904FF4C060009A0291002203924D
:101BC0000321019004910722059201A90548FFF71E
:101BD00019FD06B010BD0000C80000200010014033
:101BE000303802400000024038B5040001D1012025
:101BF00032BD04F14005687808B900F011F800F032
:101C000014F800F023F8FFE7416100F018F868606D
:101C1000202169702020A87000216163002032BD5E
:101C2000002129702046FFF7A2BF24206870206899
:101C3000C16821F40051C160204600F0D9B8206885
:101C4000C16841F40051C1600020704720680169FB
:101C500021F4904101612068416921F02A01704717
:101C60002DE9FC4106460D4696F841002028144611
:101C70001F4640D10DB1200001D101203CE00020E1
:101C80007064212186F84110FFF7B0FEB4848046CD
:101C9000F48400F033F804BF306900281ABF2C46E2
:101CA0000025002412E000228021304600F047F891
:101CB000E0B93068002C12BF14F8011B35F8021B84
:101CC000C1F308014160F08C411EF1844346F08C61
:101CD00000970028E7D100224021304600F02FF87D
:101CE00020B9202086F84100002005E0202086F859
:101CF0004100032000E00220BDE8F681B068B0F5A5
:101D0000805F7047026802F10C0454E8002F0168FC
:101D100001F10C03704742F0010243E80021002961
:101D20007047026802F1140454E8002F0168520859
:101D300001F11403520043E80021002970472DE906
:101D4000FC41089C05460E4690461F4628680168DF
:101D50003140B1420CBF0120002040452AD114F18E
:101D6000010FF3D0FFF742FEC01B844200D314B929
:101D70000320BDE8F6812968C8684207E6D5802EB1
:101D800018BF402EE2D0084602681307DED50020B7
:101D900000902B681A6800924968009100982846C4
:101DA00000F00AF805F140000821416000220270AD
:101DB0000120DEE70020DCE710B5FFF7A3FF22F4E7
:101DC0009072FFF7AAFFF8D1FFF7ABFFFCD1016BD0
:101DD000012906D1FFF796FF22F01002FFF79DFFC1
:101DE000F8D1202180F842100022026310BD0000CB
:101DF00070B5064632681169F06821F4405101431C
:101E00001161D3682648B168034030690B4371699A
:101E10000343F0690B430343D3605169B06921F474
:101E20004071014351611F498A421CBF1E488242D2
:101E300002D1FFF7D5FA01E0FFF7CAFA72683468F9
:101E4000F6691921B6F5004FA1FB00016FF063059B
:101E500012D1D30F520000F0B7F900F027F8ED00CF
:101E600032356420B5FBF0F0420002F4F87202EB68
:101E7000011200F0070010E0930F920000F0A4F9A7
:101E800000F014F82D0132356420B5FBF0F000F0BD
:101E9000F00202EB011200F00F008018A06070BD8C
:101EA000F369FFFF00100140001401406421B0FB02
:101EB000F1F105FB010570472DE9F843040016D048
:101EC0002078DFF8F462C10713D5B06800F00C0089
:101ED000042807D0B06800F00C0008283ED17068D4
:101EE00041023BD53068810303D56068002800F0CB
:101EF0005D812078DFF8C492810719D5B06810F0B1
:101F00000C0F07D0B06800F00C0008285BD1706897
:101F1000410258D43068810703D5E268012A40F0B5
:101F200045813068216920F0F80040EAC100306046
:101F30002078010774D56069A149002863D0012287
:101F40000A60FFF753FD0546706F810768D4FFF7FD
:101F50004DFD401B0228F7D903202AE16068B0F547
:101F6000803F04D1306840F48030306011E0B0F53B
:101F7000A02F306806D140F480203060316841F4F1
:101F8000803105E020F480303060316821F4802118
:101F90003160606858B1FFF729FD0546306881035C
:101FA000A7D4FFF723FD401B6528F7D3D4E7FFF73D
:101FB0001DFD0546306881039BD5FFF717FD401BCB
:101FC0006528F7D3C8E7E06870B10121C9F80010AF
:101FD000FFF70CFD054630688107A2D4FFF706FD28
:101FE000401B0228F7D9B7E70022C9F80020FFF705
:101FF000FDFC0546306881079AD5FFF7F7FC401BCA
:102000000228F7D9A8E70860FFF7F0FC0546706FD3
:10201000810705D5FFF7EAFC401B0228F7D99BE7AB
:102020002078410759D5306C0025C1000BD4002021
:1020300000900125316C41F080513164306C00F02A
:102040008050009000985F4F3868C10510D4386800
:1020500040F480703860FFF7C9FC80463868C105DD
:1020600006D4FFF7C3FCA0EB08000228F6D973E7FB
:10207000A068012805D00528306F06D140F0040083
:102080003067306F40F0010005E0400840003067E5
:10209000306F20F00400306741F28938A06858B1F1
:1020A000FFF7A4FC0746306F810711D4FFF79EFCB1
:1020B000C01B4045F7D34FE7FFF798FC0746306F4A
:1020C000810705D5FFF792FCC01B4045F7D343E7D6
:1020D0001DB1306C20F080503064A069002867D0BA
:1020E000B16801F00C0108293DD002282CD1002054
:1020F000C9F86000FFF77AFC05463068810105D514
:10210000FFF774FC401B0228F7D925E7E269206A33
:10211000616A0243A06A400842EA8112401E42EA14
:102120000042E06A42EA006272600121C9F8601070
:10213000FFF75CFC04463068810139D4FFF756FC98
:10214000001B0228F7D907E70020C9F86000FFF755
:102150004DFC0446306881012AD5FFF747FC001B7F
:102160000228F7D9F8E6012820D07068E26900F467
:102170008001914202BF00F03F01226A914201BFFB
:1021800047F6C0710140626AB1EB821F0ED1A26AAC
:1021900000F4403101F580315208B1EB024F02BF2B
:1021A00000F07060E16AB0EB016F01D0012000E047
:1021B0000020BDE8F28300BF003802400000474223
:1021C000800E474200700040D3BBD9B1B2F5803FCA
:1021D0005BD2022A1ED98C46B1FBF2F102FB11C37D
:1021E0001B0443EA1043B3FBF2FC02FB1C3380B236
:1021F00040EA0343B3FBF2F002FB103240EA0C402A
:1022000000237047022A05D98446B0FBF2F002FB96
:1022100010C270474AB105D100F0010249085FEAD7
:102220003000704700220023704700F06DB80B00AB
:102230000200002100207047F7D3002200237047DE
:10224000904271EB030CF2D370B5B1FA81F4B3FA9A
:1022500083F52C1BA340C4F1200532FA05F6334365
:10226000A2405FF00046E64002E05B085FEA32020F
:10227000841A71EB030524BF204629467641F4D326
:1022800002000B003000002170BD70B5B1FA81F47E
:10229000B2FA82F5C4F120046419B4F12006DAD34D
:1022A000B2405FF00044F440002502E052085FEACB
:1022B0003303C61A71EB020E24BF304671466441E7
:1022C0006D41F3D302000B002000290070BD000017
:1022D00081B0002000900B48416841F4804141608A
:1022E000416801F4804100910021009A0091036847
:1022F00043F080530360006800F080500090009825
:1023000001B0704740380240704730B4002512E0F9
:1023100050F8042BD30744BF4A44521E091F042916
:1023200042F8045BFAD213468C0744BF15809B1C0D
:10233000C90748BF1D7050F8041B0029E8D130BC04
:102340007047000010B5074979441831064C7C44A9
:10235000163404E00A68081D114488470146A1426A
:10236000F8D110BD2C0000004C0000004EF6885142
:10237000CEF20001086840F470000860BFF34F8F90
:10238000BFF36F8F4FF00170E1EE100A704700004D
:102390007BFFFFFFF4000000200000200000000091
:1023A000FBEEFFFF200000002C00000000000020DA
:1023B000000000000248016841F4700101607047AC
:1023C00088ED00E0000000000000000001020304AE
:1023D00006070809010000000000000010000000CE
:1023E000536C617665205265706C6965640A000003
:1023F0000024F40000F00DF8002801D0FFF7A2FF40
:10240000AFF300800020AFF30080FFF76DF800F01D
:1024100002F80120704700F001B800000746384676
:1024200000F002F8FBE7000080B5AFF30080024A3D
:1024300011001820ABBEFBE726000200054801464C
:1024400003B4684680F30988AFF30080FFF78EFF7E
:10245000FFF7D0FFA5EDF5FE014880470148004792
:10246000B52300083D240008000000000102030419
:10247000FFF7FEBFFFF7FEBFFFF7FEBFFFF7FEBF90
:10248000FFF7FEBFFFF7FEBFFFF7FEBFFFF7FEBF80
:10249000FFF7FEBFFFF7FEBFFFF7FEBFFFF7FEBF70
:1024A000FFF7FEBFFFF7FEBFFFF7FEBFFFF7FEBF60
:1024B000FFF7FEBFFFF7FEBFFFF7FEBFFFF7FEBF50
:1024C000FFF7FEBFFFF7FEBFFFF7FEBFFFF7FEBF40
:1024D000FFF7FEBFFFF7FEBFFFF7FEBFFFF7FEBF30
:1024E000FFF7FEBFFFF7FEBFFFF7FEBFFFF7FEBF20
:1024F000FFF7FEBFFFF7FEBFFFF7FEBFFFF7FEBF10
:10250000FFF7FEBFFFF7FEBFFFF7FEBFFFF7FEBFFF
:10251000FFF7FEBFFFF7FEBFFFF7FEBFFFF7FEBFEF
:10252000FFF7FEBFFFF7FEBFFFF7FEBFFFF7FEBFDF
:10253000FFF7FEBFFFF7FEBFFFF7FEBFFFF7FEBFCF
:10254000FFF7FEBFFFF7FEBFFFF7FEBFFFF7FEBFBF
:10255000FFF7FEBFFFF7FEBFFFF7FEBFFFF7FEBFAF
:10256000FFF7FEBFFFF7FEBFFFF7FEBFFFF7FEBF9F
:10257000FFF7FEBFFFF7FEBFFFF7FEBFFFF7FEBF8F
:10258000FFF7FEBFFFF7FEBFFFF7FEBFFFF7FEBF7F
:10259000FFF7FEBFFFF7FEBFFFF7FEBFFFF7FEBF6F
:0425A000FFF7FEBF84
:040000050800243D8E
:00000001FF
