:020000040800F2
:1000000018040020CD110008911100089311000878
:1000100095110008971100089911000800000000D0
:100020000000000000000000000000009B1100081C
:100030009D110008000000009F110008A111000898
:10004000ED110008F1110008F5110008F911000880
:10005000FD1100080112000805120008091200082D
:100060000D120008111200081512000819120008DC
:100070001D1200082112000825120008291200088C
:100080002D1200083112000835120008391200083C
:100090003D120008411200084512000849120008EC
:1000A0004D1200085112000855120008591200089C
:1000B0005D1200086112000865120008691200084C
:1000C0006D120008711200087512000879120008FC
:1000D0007D120008811200088512000889120008AC
:1000E0008D1200089112000895120008991200085C
:1000F0009D120008A1120008A5120008A91200080C
:10010000AD120008B1120008B5120008B9120008BB
:10011000BD120008C1120008C5120008C91200086B
:10012000CD120008D1120008D5120008D91200081B
:10013000DD120008E1120008E5120008E9120008CB
:10014000ED120008F1120008F5120008F91200087B
:10015000FD12000801130008051300080913000828
:100160000D130008111300081513000819130008D7
:100170001D130008211300082513000800000000CB
:10018000291300082D1300082DE9F8430400002C62
:1001900001D10120DAE12078C0075FD5DFF8B00394
:1001A000016811F00C01042909D0006810F00C005E
:1001B00008280ED1DFF89C030068400209D5DFF85B
:1001C00098030068800349D56068002846D1012063
:1001D000BCE16068B0F5803F06D1DFF87C030168C0
:1001E00051F48031016018E06068B0F5A02F0AD1A9
:1001F000DFF86403016851F480210160016851F463
:100200008031016009E0DFF85003016831F480318A
:100210000160016831F480210160606800280ED01F
:1002200000F0AAF90500DFF830030068800315D458
:1002300000F0A2F9401B6528F5D3032086E100F009
:100240009BF90500DFF810030068800306D500F075
:1002500093F9401B6528F5D3032077E120788007C8
:100260004CD5DFF8EC02016811F00C0F08D00068E3
:1002700010F00C00082814D1B6480068400210D4D1
:10028000B5480168890704D5E168012901D001203A
:100290005CE1016831F0F801226951EAC2010160B4
:1002A0002CE0E068002818D00120AC49086000F07C
:1002B00063F90500A8480168890706D400F05CF9D5
:1002C000401B0328F6D3032040E1016831F0F80118
:1002D000226951EAC201016010E000209F490860D4
:1002E00000F04AF905009C480068800706D500F038
:1002F00043F9401B0328F6D3032027E120780007A9
:1003000024D56069002810D001209549086000F0CC
:1003100033F9050093480068800717D400F02CF9E2
:10032000401B0328F6D3032010E100208C4908600D
:1003300000F022F905008B480068800706D500F020
:100340001BF9401B0328F6D30320FFE02078400769
:100350007CD50027DFF81082D8F80000C0000FD449
:1003600000200090D8F8000050F08050C8F800003D
:10037000D8F8000010F0805000900098012007008D
:10038000DFF8E891D9F80000C00513D4D9F80000CF
:1003900050F48070C9F8000000F0EEF80500D9F8BC
:1003A0000000C00506D400F0E7F8401B0328F6D390
:1003B0000320CBE0A068012805D16D48016851F009
:1003C0000101016015E0A068052809D168480168AD
:1003D00051F004010160016851F00101016008E081
:1003E00063480168490849000160016831F004016F
:1003F0000160A06800280FD000F0BEF805005C483E
:100400000068800718D400F0B7F8401B41F289312A
:100410008842F4D3032099E000F0AEF80500544878
:100420000068800708D500F0A7F8401B41F2893129
:100430008842F4D3032089E03800C0B2012805D1F6
:10044000D8F8000030F08050C8F80000A0690028FB
:100450007BD03F48006810F00C00082849D0A06904
:10046000022835D1DFF80C910020C9F8000000F017
:1004700083F80700DFF8E080D8F80000800106D597
:1004800000F07AF8C01B0328F4D303205EE0E16992
:10049000206A0143606A51EA8011A06A4008401E48
:1004A00051EA0041E06A51EA00612A4801600120F6
:1004B000C9F8000000F060F80500D8F800008001DD
:1004C00043D400F059F8401B0328F6D303203DE045
:1004D00000202849086000F04FF805001E48006819
:1004E000800132D500F048F8401B0328F6D30320E2
:1004F0002CE0A069012801D1012027E015480068FF
:100500000600A06901281ED016F48000E169884227
:1005100019D116F03F00216A884214D147F6C07005
:100520003040616AB0EB811F0DD116F44030A16AF2
:100530004908491EB0EB014F05D116F07060E16A21
:10054000B0EB016F01D0012000E00020BDE8F28394
:100550000838024004380240003802400000474298
:10056000800E47427438024040380240007000401C
:10057000703802406000474201480068704700BF81
:100580000C000020F8B50024002500260023102BC5
:1005900080F00C815FF0010C1CFA03F214000A6871
:1005A00022401500A54240F0FF800A7912F00302B4
:1005B000012A04D00A7912F00302022A22D18768A4
:1005C0005FF0030E1A00D2B252001EFA02FE37EAA2
:1005D0000E07D1F80CE01A00D2B252001EFA02FE49
:1005E0005EEA0707876042681CFA03FC32EA0C02E5
:1005F000D1F804C0CCF3001C1CFA03FC5CEA020234
:10060000160046600A7912F00302032A14D0C76864
:100610005FF0030C1A00D2B252001CFA02FC37EA57
:100620000C07D1F808C01A00D2B252001CFA02FC22
:100630005CEA07073E00C6600A7912F00302022A4C
:100640001ED11A00D20800EB8202176A5FF00F0C6D
:1006500013F00702D2B292001CFA02FC37EA0C0730
:10066000D1F810C013F00702D2B292001CFA02FCBB
:100670005CEA07073E001A00D20800EB820216620D
:1006800007685FF0030C1A00D2B252001CFA02FC99
:1006900037EA0C0791F804C01CF0030C1A00D2B220
:1006A00052001CFA02FC5CEA07073E0006604A683A
:1006B00012F4403F78D000220092DFF83C21176806
:1006C00057F480471760126812F480420092009A33
:1006D000DFF828C11A0092085CF822705FF00F0E54
:1006E00013F00302D2B292001EFA02FE37EA0E079E
:1006F000434A904201D1002623E0424A904201D170
:1007000001261EE0404A904201D1022619E03F4AEC
:10071000904201D1032614E03D4A904201D10426C3
:100720000FE03C4A904201D105260AE03A4A904245
:1007300001D1062605E0394A904201D1072600E0A2
:100740000826F6B213F00302D2B292009640374365
:100750001A0092084CF82270314E3268AA43D1F840
:1007600004C05FEACC2C00D52A4332602D4F3E688E
:10077000AE43D1F804C05FEA8C2C00D52E433E6016
:10078000294F3A68AA43D1F804C05FEA8C3C00D5EF
:100790002A433A60254F3E68AE43D1F804C05FEA71
:1007A000CC3C00D52E433E605B1CF0E6F1BD020060
:1007B00010690B009BB2184201D0012000E000201C
:1007C000C0B270471300DBB2002B03D00B009BB20A
:1007D000836103E00B009BB21B048361704710B47C
:1007E00042690B009BB213400C00A4B2944354EA3C
:1007F0000344846110BC704744380240083801400B
:10080000000002400004024000080240000C0240C8
:10081000001002400014024000180240001C024078
:10082000083C01400C3C0140043C0140003C0140BC
:10083000BBBBE1B1B2F5803F80F07E80022A1ED9B9
:100840008C46B1FBF2F102FB11C31B0443EA1043D7
:10085000B3FBF2FC02FB1C3380B240EA0343B3FB60
:10086000F2F002FB103240EA0C4000237047022AEB
:1008700005D98446B0FBF2F002FB10C270474AB1C2
:1008800005D100F0010249085FEA300070470022FC
:100890000023704700F0E4B80B00020000210020A4
:1008A0007047904271EB030CF6D3B3F5803F2FD223
:1008B000F0B5B3FA83F7B1FA81F4A7F10F0E3D1B3F
:1008C0005340CEF1200602FA0EF2F3415340B5F147
:1008D0000F0746D80F3C2C444140C4F12006A040ED
:1008E000F1414140B1FBF3F603FB1611A2FB0645B3
:1008F000001BA94102D2761E8018594180EA0102EC
:1009000021FA0EF362FA0EF200215A403046F0BD91
:1009100030B4B1FBF3FC03FB1C11A2FB0C45001B24
:10092000A94103D2ACF1010C8018594130BC0246F8
:100930000B46604600217047B2F1807F65D3F0B569
:10094000B2FA82F7B1FA81F4C7F10F063D1B22FA21
:1009500006F307F1110EF24120355A40B5F10F07A9
:10096000B8D94140C4F12006A040F1414140B1FB5B
:10097000F3FC03FB1C11A2FB0C45001BA94103D295
:10098000BCF1010C801859410F2F12D30F3FC9033E
:1009900041EA5041B1FBF3F603FB1611A2FB0645F9
:1009A000D4EBC030A94102D2761E8018594146EAE4
:1009B000CC3C07B34140C7F12006B840F14141406B
:1009C000B1FBF3F603FB1611A2FB0645001BA94180
:1009D00002D2761E8018594180EA010221FA0EF3F4
:1009E000C7F1200462FA0EF20CFA07F05A402CFA12
:1009F00004F13043F0BD80EA010221FA0EF3002138
:100A000062FA0EF260465A40F0BD8C46B1FBF2F13C
:100A100002FB11C31B0243EA1063B3FBF2FC02FBAF
:100A20001C331B024CEA002043EA1063B3FBF2FCC8
:100A300002FB1C331B024CEA002043EA1063B3FBA9
:100A4000F2FC02FB1C331B024CEA002043EA106359
:100A5000B3FBF2FC02FB1C324CEA0020002370477F
:100A600070470EE002684368024408305FEAC37CC6
:100A700044BF4B445B1E52F804CB43F804CB091F20
:100A8000F9D150F8041B0029ECD170472DE9F04151
:100A900004000D00002C01D1012095E04B4F386877
:100AA00010F00700A84207D23D70386810F0070028
:100AB000A84201D0012087E02078800716D5207851
:100AC000400704D54248016851F4E05101602078A4
:100AD000000704D53E48016851F4604101603C497B
:100AE0000A6832F0F002A06802430A602078C0076A
:100AF00038D56068012805D136480068800313D4D2
:100B0000012061E06068022802D06068032805D1F6
:100B100030480068800107D4012055E02D48006866
:100B2000800701D401204FE0DFF8A480D8F800103E
:100B30008908890060680143C8F80010FFF71CFDB0
:100B40000600D8F8000010F00C006168B0EB810FCF
:100B500008D0FFF711FD801B41F289318842F0D3A4
:100B6000032031E0386810F00700854207D23D705D
:100B7000386810F00700A84201D0012024E0207856
:100B8000400706D512490A6832F4E052E068024391
:100B90000A602078000707D50D48016831F46041EC
:100BA000226951EAC201016000F01CF80A49084AB2
:100BB0001268C2F30312895CC840084908600848FB
:100BC000006800F05DF80020BDE8F081003C0240C4
:100BD0000838024000380240BC1100080400002020
:100BE000000000202DE9F041002400250026002708
:100BF0001F48006810F00C00002804D0042804D01E
:100C0000082804D031E01B4830E01B482EE0DFF814
:100C10006C80D8F8000010F03F000400D8F8000005
:100C200040020CD5D8F80000C0F388101249A1FB8F
:100C3000000122000023FFF7FBFD05000BE0D8F8C0
:100C40000000C0F388100B49A1FB00012200002323
:100C5000FFF7EEFD0500D8F80000C0F30140401C8E
:100C600040000600B5FBF6F000E00248BDE8F08168
:100C7000083802400024F40000127A0004380240D0
:100C800010B504004FF47A700D490978B0FBF1F00B
:100C90000C490968B1FBF0F000F099F8002801D088
:100CA00001200CE0102C09D2002221005FF0FF305F
:100CB00000F078F804480460002000E0012010BD36
:100CC00010000020040000200000002010B410F0EC
:100CD0000703DFF8084122684FF6FF010A4052EA95
:100CE0000322DFF8FC100A43226010BC7047DFF8D3
:100CF000EC000068C0F302207047000010B402004E
:100D000052B2002A05D40A01364B040064B21A55C7
:100D100008E00A01344B040064B214F00F042344C9
:100D200003F8042C10BC704770B4030013F00704E0
:100D3000D4F10700052801D3042001E0D4F1070015
:100D4000251D072D01D2002500E0E51E012616FA1B
:100D500000F0401E0140A94016FA05F56D1E2A401C
:100D60001143080070BC704710B50400601EB0F15C
:100D7000807F01D301200EE0601E1C4908600F2116
:100D80005FF0FF30FFF7BAFF002019490860072025
:100D900018490860002010BD10B504002000FFF7BE
:100DA00095FF10BD2DE9F04104000D00160000274D
:100DB000FFF79DFF8046320029004046FFF7B4FF51
:100DC0000100200040B2FFF799FFBDE8F08110B5A7
:100DD00004002000FFF7C8FF10BD00000CED00E08C
:100DE0000000FA0500E400E018ED00E014E000E087
:100DF00018E000E010E000E010B500F07FF800F02F
:100E00001FF800F095F810213648FFF7D0FC364C5B
:100E1000C0B2216860F300012160207810F0030067
:100E2000022804D14FF400713048FFF7D8FC206845
:100E3000216860F341012160642000F0D3F8E2E70B
:100E400080B592B03021002206A800F0DFF814210E
:100E5000002201A800F0DAF8002000902448016880
:100E600051F080510160006810F0805000900098AF
:100E7000002000901F48016851F480410160006823
:100E800010F4804000900098012006905FF48030BC
:100E9000079002200C905FF480000D9004200E90CB
:100EA00040200F90022010900420119006A8FFF718
:100EB0006BF9002801D000F01FF80F2001900220EC
:100EC00002909020039000200490002005900021C3
:100ED00001A8FFF7DBFD002801D000F00DF813B0EA
:100EE00000BD000000100240080000200014024075
:100EF000403802400070004072B6FEE780B50B48F3
:100F0000016851F400710160016851F48061016071
:100F1000016851F4807101600320FFF73DFF0F204D
:100F2000FFF7AEFE00F0A6F8002002BD003C024034
:100F300010B586B01421002201A800F067F8002047
:100F400000902548016851F010010160016811F01E
:100F500010010091009900210091016851F02001D9
:100F60000160016811F020010091009900210091B9
:100F7000016851F080010160016811F08001009169
:100F8000009900210091016851F0010101600068A1
:100F900010F0010000900098104C01224FF40071F5
:100FA0002000FFF70FFC102001900020029001208C
:100FB000039001A90A48FFF7E5FA4FF40070019089
:100FC00001200290002003900020049001A920003D
:100FD000FFF7D8FA06B010BD3038024000140240C6
:100FE0000010024070B50400FFF7C6FA05002600A5
:100FF00016F1010F02D0044800783618FFF7BCFA4A
:10100000401BB042FAD370BD1000002062F30F22E3
:1010100062F31F42401810F0030308D0C91A1FD30F
:10102000DB0748BF00F8012D28BF20F8022D130070
:1010300030B414461546103928BF20E93C00FAD8D0
:10104000490728BF20E90C0048BF40F8042D89005B
:1010500028BF20F8022D48BF00F8012D30BC704792
:10106000C91818BF00F8012DCB0728BF00F8012DC3
:101070007047000081B0002000900C48016851F4D6
:1010800080410160006810F48040009000980020CA
:1010900000900748016851F080510160006810F02D
:1010A00080500090009801B0704700BF4438024063
:1010B0004038024010B5074979441831064C7C4449
:1010C000163404E00A68081D114488470146A1420D
:1010D000F8D110BD2C0000003C0000004EF68851F5
:1010E000CEF20001086840F470000860BFF34F8F33
:1010F000BFF36F8F4FF00170E1EE100A70470000F0
:1011000063F9FFFF14000000A000000000000020B1
:101110000000000000F00DF8002801D0FFF7CAFF22
:10112000AFF300800020AFF30080FFF765FE00F012
:1011300002F80120704700F001B800000746384669
:1011400000F002F8FBE7000080B5AFF30080024A30
:1011500011001820ABBEFBE726000200054801463F
:1011600003B4684680F30988AFF30080FFF7B6FF49
:10117000FFF7D0FFA5EDF5FE03480168034A12789A
:1011800089180160704700BF0C000020100000208B
:10119000FEE7FEE7FEE7FEE7FEE7704770477047B1
:1011A00080B5FFF7E9FF01BD100000000024F40046
:1011B000000000000000000001000000000000002E
:1011C00000000000010203040607080901488047E7
:1011D00001480047DD1100085D1100080248016860
:1011E00051F470010160704788ED00E0FFF7FEBF29
:1011F000FFF7FEBFFFF7FEBFFFF7FEBFFFF7FEBF23
:10120000FFF7FEBFFFF7FEBFFFF7FEBFFFF7FEBF12
:10121000FFF7FEBFFFF7FEBFFFF7FEBFFFF7FEBF02
:10122000FFF7FEBFFFF7FEBFFFF7FEBFFFF7FEBFF2
:10123000FFF7FEBFFFF7FEBFFFF7FEBFFFF7FEBFE2
:10124000FFF7FEBFFFF7FEBFFFF7FEBFFFF7FEBFD2
:10125000FFF7FEBFFFF7FEBFFFF7FEBFFFF7FEBFC2
:10126000FFF7FEBFFFF7FEBFFFF7FEBFFFF7FEBFB2
:10127000FFF7FEBFFFF7FEBFFFF7FEBFFFF7FEBFA2
:10128000FFF7FEBFFFF7FEBFFFF7FEBFFFF7FEBF92
:10129000FFF7FEBFFFF7FEBFFFF7FEBFFFF7FEBF82
:1012A000FFF7FEBFFFF7FEBFFFF7FEBFFFF7FEBF72
:1012B000FFF7FEBFFFF7FEBFFFF7FEBFFFF7FEBF62
:1012C000FFF7FEBFFFF7FEBFFFF7FEBFFFF7FEBF52
:1012D000FFF7FEBFFFF7FEBFFFF7FEBFFFF7FEBF42
:1012E000FFF7FEBFFFF7FEBFFFF7FEBFFFF7FEBF32
:1012F000FFF7FEBFFFF7FEBFFFF7FEBFFFF7FEBF22
:10130000FFF7FEBFFFF7FEBFFFF7FEBFFFF7FEBF11
:10131000FFF7FEBFFFF7FEBFFFF7FEBFFFF7FEBF01
:10132000FFF7FEBFFFF7FEBFFFF7FEBFFFF7FEBFF1
:040000050800115D81
:00000001FF
