:020000040800F2
:1000000058040020511400082D1400082F14000873
:1000100031140008331400083514000800000000F3
:10002000000000000000000000000000371400087D
:1000300039140008000000003B1400083D140008BB
:100040007114000875140008791400087D14000864
:100050008114000885140008891400088D14000814
:100060009114000895140008991400089D140008C4
:10007000A1140008A5140008A9140008AD14000874
:10008000B1140008B5140008B9140008BD14000824
:10009000C1140008C5140008C9140008CD140008D4
:1000A000D1140008D5140008D9140008DD14000884
:1000B000E1140008E5140008E9140008ED14000834
:1000C000F1140008F5140008F9140008FD140008E4
:1000D0000115000805150008091500080D15000890
:1000E0001115000815150008191500081D15000840
:1000F0002115000825150008291500082D150008F0
:100100003115000835150008391500083D1500089F
:100110004115000845150008491500084D1500084F
:100120005115000855150008591500085D150008FF
:100130006115000865150008691500086D150008AF
:100140007115000875150008791500087D1500085F
:100150008115000885150008891500088D1500080F
:100160009115000895150008991500089D150008BF
:10017000A1150008A5150008A91500080000000039
:10018000AD150008B115000838B5040001D10120F3
:1001900032BD00F02BF818B900F024F800F02AFB6B
:1001A000FFE702206870211D206800F067F9012038
:1001B000A8720121A970E87029716871A971E871AC
:1001C000297268726970002032BD38B5040001D10F
:1001D000012032BD00F00AF818B900F003F800F071
:1001E0004BFBDEE7002129702046704704F13C05F7
:1001F0006878704710B5044604F13E0009B90278EA
:1002000007E0042908BF427803D008290CBF827890
:10021000C278012A01D0012010BD11B9022202705A
:100220000AE0042902D10222427005E0082907BF32
:10023000022282700223C3702068012200F069FA52
:1002400000F02BF818BF884200F02EF818BFB0F16C
:10025000804F12D000F01DF81CBFDFF880309842AC
:100260000BD000F012F818BF884206D000F029F831
:100270001CBFDFF87820904203D100F01DF802D0B7
:10028000206800F021F8002010BDDFF854209042D3
:100290007047DFF84420904270472068DFF8342030
:1002A000DFF840109042704703D1436C43F40043A1
:1002B0004364206890427047806800F00700062879
:1002C00070470949884270470168024641F00101C0
:1002D0001160704700000140000400400008004029
:1002E000000C0040000401400040014000180040A4
:1002F000002084F83C002846704770B500F058F89C
:1003000001D1022070BD012084F83C0032B1042AE2
:1003100015D0082A25D00C2A34D045E0206800F0FA
:10032000FFF82168886940F008008861886920F03A
:10033000040088618A69306902438A6135E0206877
:1003400000F01AF92068816941F4006181618169D6
:1003500021F4806181618169326941EA0221816110
:1003600023E0206800F038F92168C86940F00800EF
:10037000C861C86920F00400C861CA6930690243D5
:10038000CA6112E0206800F056F92068C16941F4A2
:100390000061C161C16921F48061C161C1693269D3
:1003A00041EA0221C16100E00125FFF7A1FF70BD14
:1003B0000446002594F83C0001280E46704770B5AD
:1003C000044604F13C0600253078012801D10220C2
:1003D00070BD0120307002227270DFF8A002226826
:1003E0009368034093600868020018BF102830D05B
:1003F000202818BF30282CD0402826D0502819D0CB
:1004000060281BD0702806D0B0F5805F27D0B0F5EB
:10041000005F07D022E000F02CF82068816841F0EE
:10042000770105E000F025F82068816841F48041FB
:10043000816014E000F019F850210BE0CA684968A7
:10044000206800F042F9602104E000F00EF840213D
:1004500000E00146206800F04AF900E00125012093
:10046000707000213170284670BDCA6849682068E4
:100470001CE1CB684A688968206840E1F0B50368F0
:100480007F4D804C804A814E814FA84218BFB0F109
:10049000804F07D0B84218BFB04203D0904218BF77
:1004A000A0420ED123F0700C4B6843EA0C03A84223
:1004B00018BFB0F1804F17D0B8421CBFB042904275
:1004C00012D0A0421CBF734A90420DD0724EB0426F
:1004D0001CBF724A904207D0714EB0421FBF714A92
:1004E0009042714EB04203D123F44072CB68134363
:1004F0004A6923F0800313430360A8428B68C362F8
:100500000A68826212BFA042096901630122426146
:100510000169CA0703D50169490849000161F0BDB5
:10052000F0B5026A036A564F564E5B085B000362E1
:1005300022F00202436885690C6825F073052C439C
:100540008D681543B84218BFB04207D1CA6825F07C
:1005500008051543B84225F0040501D0B04205D185
:100560004A6923F440731A438B69134343608461DF
:10057000496841630562F0BDF0B5056A026A404E04
:1005800022F01002026225F02005436884690A689F
:1005900024F4E64444EA02248A6845EA0215394A0A
:1005A000B04218BF904208D1CF6825F0800545EAD7
:1005B0000715B04225F0400501D0904206D14E69A2
:1005C0008A6923F44063164343EA860343608461E7
:1005D000496881630562F0BDF0B5056A026A284E7C
:1005E00022F48072026225F400754368C2690C68C7
:1005F00022F0730214438A6845EA0225214AB04278
:1006000018BF904208D1CF6825F4006545EA072558
:10061000B04225F4806501D0904206D14E698A69C6
:1006200023F44053164343EA06134360C461496808
:10063000C1630562F0BD70B5046A026A104E22F40F
:100640008052026224F400544268C3690D6823F4A6
:10065000E64343EA05238D6844EA0534B0421CBFF3
:10066000084DA84204D14D6922F4804242EA851225
:100670004260C36149680164046270BD8800FFFF85
:100680000000014000040140000C00400008004050
:100690000004004000400140004401400048014087
:1006A00000180040001C00400020004010B5036A04
:1006B000046A64086400046223F00A03846924F075
:1006C000F00444EA021484612EE010B5036A046A5F
:1006D00024F01004046223F0A003846924F470441D
:1006E00044EA0234846143EA0113036210BD826864
:1006F00022F07002114341F007018160704710B58C
:10070000846824F47F442143114341EA032181603A
:1007100010BD10B501F01F01036A01248C40A343F2
:10072000036202FA01F1036A1943016210BD0EE08F
:1007300002684368024408305FEAC37C44BF4B440C
:100740005B1E52F804CB43F804CB091FF9D150F8D3
:10075000041B0029ECD1704718B58DB01021002280
:1007600009A800F08BF800210091019100221C21C2
:1007700002A800F083F83C4C4FF0804020609F219D
:1007800063200022E0606160A2602261A2612046D5
:10079000FFF7FAFC08B100F0DFF84FF48050099041
:1007A00009A92046FFF70BFE08B100F0D5F8204656
:1007B000FFF70BFD08B100F0CFF80020009001908A
:1007C0006946204600F0CAF808B100F0C5F860207C
:1007D00019210290039100220492069202A9204658
:1007E000FFF78BFD08B100F0B7F8204600F015F8D0
:1007F0000EB010BD81B00168B1F1804F0BD1002067
:1008000000901A48016841F001010160006800F0A1
:1008100001000090009801B0704710B586B0044602
:100820001421002201A800F029F82168B1F1804FBD
:1008300017D1002000900E48016841F001010160CD
:100840000221006800F0010000900120009A019050
:100850000291002205900392049201A9054800F03C
:10086000C3F806B010BD0000100000204038024060
:100870003038024000000240704700004018491C18
:100880001CBFB1F1010100F8012DF9D17047000042
:1008900080B500F09FF900F00CF800F0B5F9FFF713
:1008A0005BFF2A480268192151630021FFF7A2FC6F
:1008B000FEE780B592B03021002206A8FFF7DEFFE8
:1008C0001421002201A8FFF7D9FF00200090204842
:1008D000016841F080510160006800F08050009094
:1008E0000020009900901B48016841F4804101609C
:1008F0004FF48031006800F4804000900120009A9D
:10090000079102224FF480010C920D9104224021A4
:100910000E920F910690022204211092119106A8C6
:1009200000F08EF908B100F017F8022102910F20B3
:1009300001909022002103920491059101A800F0FA
:1009400007FB08B100F008F813B000BD100000204C
:10095000403802400070004072B6FEE770B500F10A
:100960003C031A78012A01D1022070BD01221A70BD
:1009700002245C7005686E68AC680A6826F0700630
:1009800016436E6002681148824218BFB2F1804F70
:1009900011D0114882421CBF104DAA420BD00D4805
:1009A00082421CBF0E4DAA4205D0094882421CBF9C
:1009B0000C4DAA4204D1486824F08004044394609A
:1009C000012159700020187070BD00000000014026
:1009D00000400140000C00400004004000080040BE
:1009E00000040140001800402DE9F84F00226E4C31
:1009F000DFF8B8814FF00F0901230F6893401F40C3
:100A00009F4240F0CA804FEA420C032505FA0CF5DC
:100A10006FEA050E4D6805F00306012E1CBF05F0B8
:100A20000305022D10D18568CE680EEA050506FA89
:100A30000CF635438560456825EA03034D68C5F328
:100A4000001595402B43436093000D7905F0030595
:100A5000032D1ED0C5688E680EEA050506FA0CF651
:100A60003543C5600D7905F00305022D11D1D50878
:100A700000EB850503F01C06D5F820B009FA06FA4C
:100A80002BEA0A0BD1F810A00AFA06F646EA0B0682
:100A90002E6205680EEA05060D7905F0030505FAD4
:100AA0000CF545EA060CC0F800C04D6815F4403F4F
:100AB00073D04FF0000ECDF800E04FEA920CD8F85A
:100AC000005045F48045C8F8005003F00C03D8F8F6
:100AD00000E0374D0EF4804ECDF800E0DDF800E088
:100AE00055F82C6009FA03F5AE43324DA84208BF11
:100AF0004FF0000E2AD0304DA84208BF4FF0010E33
:100B000024D02E4DA84208BF4FF0020E1ED02C4D0F
:100B1000A84208BF4FF0030E18D02A4DA84208BFC4
:100B20004FF0040E12D0284DA84208BF4FF0050E1A
:100B30000CD0264DA84208BF4FF0060E06D0244D1B
:100B4000A8420CBF4FF0070E4FF0080E0EFA03F349
:100B5000DFF85CE033434EF82C30FE43A3684D6869
:100B60003340ED0248BF3B43A360E3684D68334028
:100B7000AD0248BF3B43E36063684D683340AD035B
:100B800048BF3B436360236806EA030C4B68DB0302
:100B900048BF47EA0C0CC4F800C0521C0F2A7FF66D
:100BA0002BAFBDE8F18F0000003C0140443802400B
:100BB00008380140000002400004024000080240E2
:100BC000000C0240001002400014024000180240D5
:100BD000001C024080B50B48016841F400710160BF
:100BE000026842F480620260016841F48071016031
:100BF000032000F04AFA0F2000F08AFA00F0A8FA69
:100C0000002002BD003C024081B0002000900B4853
:100C1000026842F080020260016801F080010091E8
:100C20000021009A0091036843F00103036000680B
:100C300000F001000090009801B070473038024089
:100C40002DE9F843040016D02078DFF8F462C107DC
:100C500013D5B06800F00C00042807D0B06800F08D
:100C60000C0008283ED1706841023BD530688103F2
:100C700003D56068002800F05D812078DFF8C49219
:100C8000810719D5B06810F00C0F07D0B06800F0DC
:100C90000C0008285BD17068410258D43068810785
:100CA00003D5E268012A40F045813068216920F0CF
:100CB000F80040EAC10030602078010774D560690F
:100CC000A149002863D001220A6000F05DFA0546C0
:100CD000706F810768D400F057FA401B0228F7D9DB
:100CE00003202AE16068B0F5803F04D1306840F409
:100CF0008030306011E0B0F5A02F306806D140F4AC
:100D000080203060316841F4803105E020F480308B
:100D10003060316821F480213160606858B100F0A2
:100D200033FA054630688103A7D400F02DFA401B42
:100D30006528F7D3D4E700F027FA05463068810329
:100D40009BD500F021FA401B6528F7D3C8E7E0687F
:100D500070B10121C9F8001000F016FA054630689C
:100D60008107A2D400F010FA401B0228F7D9B7E798
:100D70000022C9F8002000F007FA05463068810714
:100D80009AD500F001FA401B0228F7D9A8E70860BD
:100D900000F0FAF90546706F810705D500F0F4F907
:100DA000401B0228F7D99BE72078410759D5306CC2
:100DB0000025C1000BD4002000900125316C41F0CA
:100DC00080513164306C00F08050009000985F4F8B
:100DD0003868C10510D4386840F48070386000F07D
:100DE000D3F980463868C10506D400F0CDF9A0EBF0
:100DF00008000228F6D973E7A068012805D0052865
:100E0000306F06D140F004003067306F40F00100D1
:100E100005E0400840003067306F20F00400306784
:100E200041F28938A06858B100F0AEF90746306F3A
:100E3000810711D400F0A8F9C01B4045F7D34FE754
:100E400000F0A2F90746306F810705D500F09CF944
:100E5000C01B4045F7D343E71DB1306C20F08050F4
:100E60003064A069002867D0B16801F00C0108293E
:100E70003DD002282CD10020C9F8600000F084F990
:100E800005463068810105D500F07EF9401B022837
:100E9000F7D925E7E269206A616A0243A06A40083F
:100EA00042EA8112401E42EA0042E06A42EA0062DF
:100EB00072600121C9F8601000F066F904463068DC
:100EC000810139D400F060F9001B0228F7D907E747
:100ED0000020C9F8600000F057F90446306881012D
:100EE0002AD500F051F9001B0228F7D9F8E60128AD
:100EF00020D07068E26900F48001914202BF00F0E6
:100F00003F01226A914201BF47F6C0710140626A07
:100F1000B1EB821F0ED1A26A00F4403101F580319D
:100F20005208B1EB024F02BF00F07060E16AB0EB13
:100F3000016F01D0012000E00020BDE8F28300BF76
:100F40000038024000004742800E474200700040D7
:100F50002DE9F04104000E4654D0404F386800F0AF
:100F60000700B04202D200F073F84BD120683C4D2C
:100F7000810712D5400703D5A96841F4E051A96063
:100F80002078010703D5A86840F46040A860A968EC
:100F9000A06821F0F0010143A9602178C80729D594
:100FA0006068012802D129688A0305E0022818BF79
:100FB000032803D129688A0103D423E029688A071A
:100FC00020D5A968890840EA8100A86000F0DCF813
:100FD0008046A868616800F00C00B0EB810F09D072
:100FE00000F0D2F8A0EB080041F289318842F0D33A
:100FF00003202BE0386800F00700864204D200F09E
:1010000027F801D0012021E02078420705D5A96802
:10101000E06821F4E0510143A9602178080706D572
:10102000A968206921F4604141EAC001A96000F08B
:10103000B1F8AA680B490C4BC2F30312895CC84093
:1010400018600A48006800F063F80020BDE8F081ED
:101050003E70396801F00701B1427047003C024020
:1010600000380240B81300080C00002008000020DF
:101070000901020002D4214881547047204B02F03C
:101080000F021A4402F8041C70471E490A6860F3F4
:101090000A2240F2FA5060F31F420A60704770B5AE
:1010A000184B1C68C4F302230124C3F10705052D66
:1010B0002EBF0F2504FA05F56D1E1E1D072E34BF29
:1010C0000023DB1E2940994004FA03F3BDE8704079
:1010D0005B1E1A401143CBE7401EB0F1807F01D365
:1010E000012070470849094A48600023F020107029
:1010F0008B600720086000207047000000E400E0DB
:1011000018ED00E00CED00E010E000E023ED00E061
:1011100038B50D4D0D4B2A7804464FF47A71186896
:10112000B1FBF2F2B0FBF2F0FFF7D6FF50B9102C92
:1011300008D2002221464FF0FF30FFF7B0FFAC602D
:10114000002032BD012032BD000000200C00002034
:1011500081B0002000900B48416841F4804141601B
:10116000416801F4804100910021009A00910368D8
:1011700043F080530360006800F0805000900098B6
:1011800001B070474038024001484068704700BFD6
:101190000000002030B5144C606800F00C000428FA
:1011A00002D0082802D01DE0104830BD2268206817
:1011B0000023410202F03F0204D525680B49C5F324
:1011C000881003E020680A49C0F38810A1FB0001E1
:1011D00000F010F82168C1F30141491C4900B0FB3F
:1011E000F1F030BD024830BD0438024000127A00F0
:1011F0000024F400D3BBD9B1B2F5803F5BD2022A00
:101200001ED98C46B1FBF2F102FB11C31B0443EA69
:101210001043B3FBF2FC02FB1C3380B240EA0343F1
:10122000B3FBF2F002FB103240EA0C40002370479F
:10123000022A05D98446B0FBF2F002FB10C27047C7
:101240004AB105D100F0010249085FEA3000704759
:1012500000220023704700F051B80B00020000216B
:1012600000207047F7D3002200237047904271EBB3
:10127000030CF2D370B5B1FA81F4B3FA83F52C1BE9
:10128000A340C4F1200532FA05F63343A2405FF0D3
:101290000046E64002E05B085FEA3202841A71EB26
:1012A000030524BF204629467641F4D302000B00F3
:1012B0003000002170BD70B5B1FA81F4B2FA82F548
:1012C000C4F120046419B4F12006DAD3B2405FF00F
:1012D0000044F440002502E052085FEA3303C61AD6
:1012E00071EB020E24BF3046714664416D41F3D369
:1012F00002000B002000290070BD0000704730B4D0
:10130000002512E050F8042BD30744BF4A44521E74
:10131000091F042942F8045BFAD213468C0744BF24
:1013200015809B1CC90748BF1D7050F8041B00297D
:10133000E8D130BC7047000010B507497944183136
:10134000064C7C44163404E00A68081D11448847A2
:101350000146A142F8D110BD2C0000004C00000055
:101360004EF68851CEF20001086840F47000086023
:10137000BFF34F8FBFF36F8F4FF00170E1EE100A94
:10138000704700007BFFFFFF4800000010000020B6
:10139000000000009BF3FFFF10000000C4000000ED
:1013A00000000020000000000248016841F47001C4
:1013B0000160704788ED00E00000000000000000C0
:1013C000010203040607080900F00DF8002801D007
:1013D000FFF7B2FFAFF300800020AFF30080FFF70C
:1013E00057FA00F002F80120704700F001B8000041
:1013F0000746384600F002F8FBE7000080B5AFF37F
:101400000080024A11001820ABBEFBE72600020054
:101410000548014603B4684680F30988AFF30080AD
:10142000FFF79EFFFFF7D0FFA5EDF5FEFEE7FEE715
:10143000FEE7FEE7FEE770477047704700F000B830
:101440000248416802788A18426070470000002014
:101450000148804701480047A913000811140008FB
:101460000100000000000000100000000024F40053
:10147000FFF7FEBFFFF7FEBFFFF7FEBFFFF7FEBFA0
:10148000FFF7FEBFFFF7FEBFFFF7FEBFFFF7FEBF90
:10149000FFF7FEBFFFF7FEBFFFF7FEBFFFF7FEBF80
:1014A000FFF7FEBFFFF7FEBFFFF7FEBFFFF7FEBF70
:1014B000FFF7FEBFFFF7FEBFFFF7FEBFFFF7FEBF60
:1014C000FFF7FEBFFFF7FEBFFFF7FEBFFFF7FEBF50
:1014D000FFF7FEBFFFF7FEBFFFF7FEBFFFF7FEBF40
:1014E000FFF7FEBFFFF7FEBFFFF7FEBFFFF7FEBF30
:1014F000FFF7FEBFFFF7FEBFFFF7FEBFFFF7FEBF20
:10150000FFF7FEBFFFF7FEBFFFF7FEBFFFF7FEBF0F
:10151000FFF7FEBFFFF7FEBFFFF7FEBFFFF7FEBFFF
:10152000FFF7FEBFFFF7FEBFFFF7FEBFFFF7FEBFEF
:10153000FFF7FEBFFFF7FEBFFFF7FEBFFFF7FEBFDF
:10154000FFF7FEBFFFF7FEBFFFF7FEBFFFF7FEBFCF
:10155000FFF7FEBFFFF7FEBFFFF7FEBFFFF7FEBFBF
:10156000FFF7FEBFFFF7FEBFFFF7FEBFFFF7FEBFAF
:10157000FFF7FEBFFFF7FEBFFFF7FEBFFFF7FEBF9F
:10158000FFF7FEBFFFF7FEBFFFF7FEBFFFF7FEBF8F
:10159000FFF7FEBFFFF7FEBFFFF7FEBFFFF7FEBF7F
:1015A000FFF7FEBFFFF7FEBFFFF7FEBFFFF7FEBF6F
:0415B000FFF7FEBF84
:0400000508001411CA
:00000001FF
